:020000040800F2
:1000000028A7002099030008B9800008E57B0008B4
:10001000B580000845170008959D0008B103000849
:10002000000000000000000000000000CD88000873
:100030004917000800000000BD8000088D8A0008F4
:10004000BB030008BB030008BB030008BB03000898
:10005000BB030008BB030008BB030008BB03000888
:10006000BB030008BB030008BB030008BB03000878
:10007000BB030008BB030008BB030008BB03000868
:10008000BB030008BB030008BB030008BB03000858
:10009000BB030008BB030008BB030008BB03000848
:1000A000BB030008BB030008BB030008BB03000838
:1000B00055170008BB030008BB030008BB0300087A
:1000C000BB030008BB030008BB030008BB03000818
:1000D00000000000BB030008BB030008BB030008CE
:1000E000BB030008BB030008BB030008BB030008F8
:1000F000BB030008BB030008BB030008BB030008E8
:10010000BB030008318C00083D8C0008BB030008CD
:10011000BB030008BB030008BB0300087D87000881
:10012000BB030008BB030008BB030008899D00084F
:10013000BB030008BB030008BB030008BB030008A7
:10014000BB030008BB030008BB030008BB03000897
:10015000BB030008BB030008BB030008BB03000887
:10016000BB030008BB030008BB030008BB03000877
:10017000BB030008BB030008BB030008BB03000867
:10018000BB030008BB030008BB030008BB03000857
:10019000BB030008BB030008BB030008BB03000847
:1001A000BB030008BB0300086D170008BB03000871
:1001B000BB030008BB030008BB030008BB03000827
:1001C000BB030008BB030008BB030008BB03000817
:1001D000BB030008BB03000800000000BB030008CD
:1001E000BB030008BB030008000000000000000083
:1001F000BB0300080000000000000000BB03000873
:10020000BB030008BB030008BB030008000000009C
:1002100000000000BB03000800000000BB03000852
:10022000BB030008BB030008BB030008BB030008B6
:10023000BB030008BB030008BB030008BB030008A6
:10024000BB030008BB030008BB03000800F002F872
:1002500000F092F80AA090E8000C82448344AAF1CE
:100260000107DA4501D100F087F8AFF2090EBAE8CC
:100270000F0013F0010F18BFFB1A43F001031847DA
:100280004036010060360100103A24BF78C878C1BA
:10029000FAD8520724BF30C830C144BF04680C608C
:1002A000704700000023002400250026103A28BFD4
:1002B00078C1FBD8520728BF30C148BF0B607047D8
:1002C0006E2900F0B583702900F0FF8466290CF0D8
:1002D000DC8665290CF0D98667290CF0D686612961
:1002E0000CF0D58603681B0A28BF41F080016929FC
:1002F00000F01881642900F01581752900F0128141
:100300006F2900F08D84782900F0CB84E92900F072
:100310002784E42900F02484F52900F02184EF29C2
:1003200000F08A84F82900F0CA840368DB0928BF3A
:1003300041F08001632901F0AF80732901F0B4809E
:10034000E32901F0BF80F32901F0C4800020704749
:100350001FB50CF08DFE01F0EDF804000020002127
:100360000CF070FE401C6060002000210CF054FE78
:10037000E0601FBD10B510BDDFF80CD0FFF7E8FF3F
:100380000AF096FA01F08CF928A7002003B4FFF7D1
:10039000F1FF03BC01F0CEF9084880F30A88084851
:1003A000804708480047FEE7FEE7FEE7FEE7FEE776
:1003B000FEE7FEE7FEE7FEE7FEE7FEE728A30020F4
:1003C0007D8B00084D02000853EA020C00F06980A2
:1003D0002DE9F04B4FF00006002B1FBFB3FA83F559
:1003E00003FA05F424FA05F65E4012BF1643B2FA8A
:1003F00082F502FA05F4C5F120051EBF22FA05FCBC
:1004000044EA0C04203556EA044C4FEA144418BF61
:10041000641C4FF000084FF00009904271EB030C90
:1004200039D3002919BFB1FA81F701FA07F6B0FAFA
:1004300080F700FA07F6C7F120071EBF20FA07FC75
:1004400046EA0C062037B6FBF4FCA7EB0507103F85
:1004500007F01F0BCBF120062CFA06F60CFA0BFB6B
:1004600044BFB3460026202FA4BF5E464FF0000BCA
:100470005BEA060C08BF4FF0010B19EB0B0948EBC8
:100480000608ABFB027C06FB02CC0BFB03CCC01BBB
:1004900071EB0C01C1E70B46024641464846BDE8F8
:1004A000F08B13B5084318BF4FF0FF300146AFF390
:1004B0000080BDE81C4070477CB51D4616460C0008
:1004C000009001D02044401E074B7B442A466946D9
:1004D0000190304600F0C5FA05461CB1002069467F
:1004E00000F0D2FA28467CBDC50500000FB47CB5EB
:1004F0000C0009AA009001D02044401E084B7B4408
:1005000069460190089800F0ACFA05461CB100203D
:10051000694600F0B9FA28467CBC5DF814FB00007F
:10052000910500002DE9F041064600241068752968
:10053000314616A510D000F0E7F9002802DA404253
:1005400013A507E031688A0701D512A502E0490723
:1005500004D511A5012401E000F0DFF900210A22F1
:1005600006F1240709E0B0FBF2FCB0FBF2F302FB5A
:100570001C00303078541846491C0028F3D123461B
:100580002A463046BDE8F04100F0F9B9000000000D
:100590002D0000002B000000200000002DE9F05F7E
:1005A000894604464FF0000ADFF874B1FB44C0F8F6
:1005B00020A02046E1688847002874D0252806D06E
:1005C000D4E901219047206A401C2062F1E700260F
:1005D0005F462046E16888472028054607DB312D25
:1005E00005D2781910F8200C08B10643F1E7B007DE
:1005F00001D526F00406C4F81CA00027C4F818A0F2
:100600002A2D09D028460CF0FFFC38B304EB8708EC
:10061000303DC8F8185019E059F8041B204604EB87
:1006200087029161E1688847012F054618D1E0698A
:10063000002820DA26F020061DE0D8F8180000EB8C
:10064000800005EB40003038C8F818002046E1680B
:10065000884705460CF0D8FC0028EED1012F0AD0BF
:100660002E2D08D12046E16888477F1C0546022FC1
:1006700046F02006C4DBA069002803DA404246F0B9
:100680000106A061F00701D026F010066C2D0BD0FA
:10069000682D09D04C2D39D06A2D35D0742D35D028
:1006A0007A2D33D016E038E0E1682F46204688479F
:1006B000B842054609D16C2F26D04FF48060E1681E
:1006C000064320468847054604E06C2F1AD04FF4B5
:1006D000807006430DB3A5F14100192802D82035DA
:1006E00046F400664A462946204626604E46FFF7F5
:1006F000E7FD80B101280BD0F61D26F0070000F1C0
:10070000080956E74020E4E78020D8E70020D6E734
:1007100006F104094DE7284652E7206ABDE8F09F3C
:10072000E2CA0000032A40F2308010F0030C00F00F
:10073000158011F8013BBCF1020F624498BF11F81B
:1007400001CB00F8013B38BF11F8013BA2F10402D4
:1007500098BF00F801CB38BF00F8013B11F003034C
:1007600000F02580083AC0F0088051F8043B083AB0
:1007700051F804CBA0E80810F5E7121D5CBF51F852
:10078000043B40F8043BAFF30080D20724BF11F8CC
:10079000013B11F801CB48BF11F8012B24BF00F831
:1007A000013B00F801CB48BF00F8012B704710B5A2
:1007B000203AC0F00B80B1E81850A0E81850B1E81A
:1007C0001850A0E81850203ABFF4F5AF5FEA027C59
:1007D00024BFB1E81850A0E8185044BF18C918C089
:1007E000BDE810405FEA827C24BF51F8043B40F82A
:1007F000043B08BF7047D20728BF31F8023B48BF0F
:1008000011F8012B28BF20F8023B48BF00F8012B4C
:10081000704702F0FF0343EA032242EA024200F07B
:1008200024B84FF000020429C0F0128010F0030C2D
:1008300000F01B80CCF1040CBCF1020F18BF00F8D3
:10084000012BA8BF20F8022BA1EB0C0100F00DB882
:100850005FEAC17C24BF00F8012B00F8012B48BFE0
:1008600000F8012B70474FF0000200B51346944684
:100870009646203922BFA0E80C50A0E80C50B1F1F8
:100880002001BFF4F7AF090728BFA0E80C5048BF0C
:100890000CC05DF804EB890028BF40F8042B08BFAA
:1008A000704748BF20F8022B11F0804F18BF00F8A6
:1008B000012B704770477047704770B504468569D3
:1008C0000068C10601D5302600E02026C00707D009
:1008D00070BDD4E9012130469047206A401C206257
:1008E0006D1EF6D570BD70B5044685690078C007E9
:1008F00007D170BDD4E9012120209047206A401C17
:1009000020626D1EF6D570BD09684A0501D540B25A
:100910007047C905FCD500B2704709684A0501D582
:10092000C0B27047C905FCD580B2704770B50C469F
:100930000546012A05D02878800600D5EA690023FB
:1009400002E0012305E05B1C934202D2E05C002838
:10095000F9D1A869E618C01AA861286A1844286263
:100960002846FFF7AAFF04E0D5E9012114F8010B9E
:100970009047B442F8D32846FFF7B5FF70BD2DE984
:10098000F0470D4699469246044600F12408016856
:10099000880604D5E06921F01001216000E0012003
:1009A000A84201DD471B00E00027A1697A1902EB8C
:1009B0000900081AA0612078C00602D42046FFF77B
:1009C0007CFF002608E0D4E901211AF806009047D0
:1009D000206A401C761C20624E45F4DB2078C0065D
:1009E0000AD52046FFF769FF06E0D4E9012130204F
:1009F0009047206A401C2062381EA7F10107F4DCF2
:100A000007E0D4E9012118F805009047206A401C4E
:100A10002062281EA5F10105F3DC2046FFF763FFE5
:100A20002078000602D50220BDE8F0870120FBE710
:100A300011680268006A530501D508700AE0D30501
:100A400001D5088006E0130603D5C217C1E90002EC
:100A500000E008600120704701694A1C02610878C3
:100A6000704700B58FB0CDE90131002105910549EE
:100A70007944CDE9031011466846FFF78FFD0FB0AA
:100A800000BD0000E5FFFFFF0A6802F8010B0A60E5
:100A90007047D1E900239A4202D2531C0B601070B8
:100AA000704700002DE9FF5F15468A460446DFF8CF
:100AB000AC80F8440027D8E900103E46CDE900108C
:100AC00010E03AF816106A4602A800F007FD411C33
:100AD00007D02178890603D5E269391891420DD8EB
:100AE0000744761C2078800602D5E069B84205DD0F
:100AF000AE42E6DB3AF816000028E2D1A069C01B3E
:100B0000A0612046FFF7D9FED8E90010CDE900101A
:100B1000002017E03AF818106A4602A800F0DEFC40
:100B2000B0F1FF3F81460BD000250DF1080B05E029
:100B3000D4E901211BF8050090476D1C4D45F7D302
:100B400008F10100B0428046E4DB206A38442062AC
:100B50002046FFF7C8FEBDE8FF9F0000EEC500007D
:100B60002DE9F0418046D21D22F007020025D2E98E
:100B70000002F52915A614D0011E72F1000106DA53
:100B80000023D0EB030063EB020211A608E0D8F8C3
:100B900000108B0701D50FA602E0490701D50EA66C
:100BA00001251146002408F1240704E000F098F81C
:100BB00030323A55641C50EA0102F7D12B463246D6
:100BC00021464046BDE8F041FFF7D9BE00000000D5
:100BD0002D0000002B0000002000000030B4002198
:100BE00000F1240408E002F00705D208303542EA9B
:100BF0004372DB086554491C52EA0305F3D10468CB
:100C0000002310A2250708D504F020040C4304D0CB
:100C1000C46901230CA2641EC46130BCFFF7AFBEDF
:100C200010B5044621461068FFF777FE02462046BD
:100C3000BDE810400023D1E7D21D22F00701D1E921
:100C40000023CBE70000000030000000F0B40D46A8
:100C50000188090502D5214C7C4402E01F4C7C44EC
:100C60000E34002100F1240608E002F00F071209FB
:100C7000E75D42EA03721B097754491C52EA0307F5
:100C8000F3D102780023120704D5702D06D009B1E4
:100C9000022311342246F0BCFFF771BE0123103449
:100CA000F8E770B504460D4621461068FFF735FE9B
:100CB000024629462046BDE870400023C6E7D21D03
:100CC00022F00703D3E90023C0E70368126843F06A
:100CD000200303600823C3610023B7E750C400006A
:100CE00030B5B0F10A0271F100034FEA900E4EEAFE
:100CF000817EB0EB0E0061EB91014FEA101E4EEACF
:100D0000017E10EB0E0041EB11114FEA102E4EEA5E
:100D1000016E10EB0E0041EB11214FEA104E4EEA2E
:100D2000014E10EB0E0041EB1141401841F1000162
:100D30004FEAD00040EA41704FEAD1014FEA810406
:100D400044EA907410EB800544EB01046D1944EB08
:100D50000404521BA3414FF0000348BF0A3200D5E0
:100D600030BD401C41F1000130BD2DE9FF4F0C4664
:100D70001E464FF0FF378BB0D2E90001DDF86080EE
:100D80000A908A46C1F30A5505B93D460021084636
:100D90004FF00000BAF1000F00F4400005DA00EB5C
:100DA00080004FF4400101EA50004FEA9059B9F138
:100DB000010F00DDB9460A9850EA4A000ED044F609
:100DC0001050A5F2FF3545432F14B8F1000F1ED087
:100DD0007542291E1EDDC9F100021CE0B8F1010FA9
:100DE0004FF0000001D0302103E0F24305E0215430
:100DF000401CB042FBDB30460022002121540B99FD
:100E0000C1F80880C1E900200FB0BDE8F08FBD1B1C
:100E10006D1CDEE74A4600DA694206A800F0CEFB08
:100E200006AB93E8070003AB83E8070050460A9936
:100E30000BF00AFD8DE80700A0F500501F38009068
:100E40000398002D0ADD42F21F014A4608440023A0
:100E500003A9039068460BF073FF09E0A0F500506A
:100E60004A461F38002303A9039068460BF07DFF14
:100E70008DE807000004000C03D04FF0FF3041085C
:100E800000E01046B8F1000F03D000220092154692
:100E90001EE0751E05D4FFF723FF303262556D1E2C
:100EA000F9D5B3460122084302D000227F1C04E09A
:100EB0002078302801D100227F1E002A099784D093
:100EC0001DE0112D07DAFFF70BFF303262556D1C64
:100ED00050EA0102F5D1084302D00098C8B10EE0F3
:100EE0000021681E05E0235C625C63542254401EAE
:100EF000491C8142F7DBAB46A81B401E099000202D
:100F000004F80B000B98099AC0F80880C0E9002B80
:100F10007AE711264FF0000857E72DE9F04F884691
:100F20000446D21D22F0070191B0D1E90001CDE9BC
:100F30000A010CF051F802460B98C00F01D02D2089
:100F400007E02068810701D52B2002E0202101EA7B
:100F5000C000032A099001D0072A05DB0346414659
:100F6000204600F0EBFA0BE12078800601D5E0691D
:100F700000E00620B8F1650F814606D0B8F1660F93
:100F800018D0B8F1670F70D131E00020B9F1110F1E
:100F9000009001DB112301E009F101030AAA01A974
:100FA0000CA8FFF7E2FEDDE90C70002609F101054F
:100FB000834647E001204B4600904FF000470AAAC5
:100FC00001A90CA8FFF7D1FEDDE90DB00C995D4633
:100FD000002610B909F101000D18B9EB050003D482
:100FE000C0F1FF3609F10105A5EB09002BE0B9F1CD
:100FF000010F01DA4FF001090020B9F1110F009043
:10100000484601DD112300E003460AAA01A90CA805
:10101000FFF7ABFEDDE90C704D46002683462078D5
:1010200000070AD4AB4500DA5D4601A8012D04DDB6
:10103000411911F8011C302907D04F4502DA17F188
:10104000040F04DA012082460FE06D1EEEE7002F48
:1010500002DCED1B3E4403E0781CA84200DD7D1C51
:10106000B81B00F1010A4FF000472078000703D4B5
:10107000AA4501DB4FF0FF3A0021B7F1004F0DF117
:1010800043088DF8431024D002202B23002F01DACF
:101090007F422D230A21021EA0F1010000DC5FB176
:1010A00097FBF1FC97FBF1F201FB1C7C17460CF15E
:1010B000300C08F801CDEEE7A8F10100037021889B
:1010C000090501D5452100E06521A0F1010800F8DE
:1010D000011C09980FA9A1EB0807FF1D00B1012011
:1010E000411901EBEA70A1693844081A401EA06159
:1010F0002078C00602D42046FFF7DFFB099828B10C
:10110000D4E901219047206A401C20622078C00663
:1011100022D52046FFF7D1FB1EE0002E04DBB345AD
:1011200002DD01A8805D00E03020D4E90121904774
:10113000206A401C2062761CAAF101005FEA000AC6
:101140000AD100F0F7F9C0680168405CD4E90121D8
:101150009047206A401C2062281EA5F10105DCDCB6
:1011600007E0D4E9012118F8010B9047206A401CE0
:101170002062381EA7F10107F3DC2046FFF7B3FB1E
:10118000032011B041E600002DE9F04F04460D4662
:10119000D21D22F0070089B0D0E9009748463946B1
:1011A0000BF01AFF0246F80F01D02D2307E020684C
:1011B000810701D52B2302E0202101EAC0038DF82D
:1011C00020300BB1012000E00020032A824601D02C
:1011D000072A04DB2946204600F0B0F93FE12078D9
:1011E000800601D40D2500E0E569C7F30A560D2DF0
:1011F00049DA00214FEA175B08464FF00000002F44
:1012000000F4400007DA00EB80004FF4400100EBEF
:10121000D07001EA60008115012901DD4FF0FF3136
:1012200000224FEA850CBCF1180F06D31346ACF12F
:1012300018004FF08052C24003E04FF4801323FAAD
:101240000CF30CF10C0CBCF1200F04D3ACF1200C0E
:1012500009FA0CF001E007FA0CF000294FF0004801
:1012600001DD18B90FE00ED140450CD319EB02098E
:101270005F4121B9404502D19F4329EA0209BBEBF6
:10128000175F00D0761C2088000502D57B48784483
:1012900002E07A487844193808AA302302F80A3064
:1012A000037C0AF10101002E0AF1020A53546A4636
:1012B00002DC4FF0300101E04FF031014FF0010846
:1012C0008DF8001002D0A6F2FF3603E059EA47017C
:1012D00000D06B4E002D02DC2178090704D54FF0B9
:1012E00002082E218DF80110C44600210BE0C7F33F
:1012F00003433F01C35C491C6D1E02F808300529F9
:1013000008F1010801DA002DF1DC00210CE000EB0E
:101310001973491C1B786D1E082902F808304FEA22
:10132000091908F1010801DA002DF0DC21688B06AB
:1013300002D516E0A8F10108E04505DD02EB08033F
:1013400013F8013C302BF5D0B8F1000F09DD02EBAA
:10135000080313F8013C2E2B03D1090701D4A8F18F
:101360000108002D05DD3E2102F808106D1E08F170
:101370000108407C002E02F8080008F1010804DA98
:101380002D20764202F8080002E02B2002F8080027
:101390000A214FF47A70864208F101080BDB96FBB4
:1013A000F0F3303302F8083096FBF0F308F101084F
:1013B00000FB136601E0642E0CDB642096FBF0F367
:1013C000303302F8083096FBF0F308F1010800FB17
:1013D000136601E00A2E06DB96FBF1F0303002F8CE
:1013E000080008F1010896FBF1F001FB10603030B5
:1013F00002F80800A16908F1010808EB050202EBF8
:101400000A00081AA0612078C00602D42046FFF71F
:1014100054FA216A08AE01EB0A00206204E0D4E924
:10142000012116F8010B9047BAF1010AF7D2207892
:10143000C00602D52046FFF740FA6E4609E016F8CE
:10144000010B3E280FD0D4E901219047206A401CAF
:101450002062B8F10108F2D22046FFF744FA09B041
:101460000320BDE8F08F206A2844206203E0D4E91D
:101470000121302090476D1EEBD3F8E755BE0000E8
:1014800002FCFFFF10B5436913B1AFF3008001E028
:10149000FFF74CFA012010BD127800F124010A7008
:1014A00000224A700122EDE711684FF0FF32E9E7B0
:1014B00010B5436913B1AFF3008001E0FFF7F2FA12
:1014C000012010BD128800F1240182840022C28410
:1014D0000122EDE711684FF0FF32E9E72DE9F04115
:1014E00016460C46054600F01DF8036893F8010106
:1014F000012807D0FF2C12D8185D80B101202C7074
:10150000BDE8F081D3F807013246214603F2071304
:10151000C7182846BC46BDE8F041002360474FF09D
:10152000FF30EDE710B500F005F8001D10BD00BF5D
:1015300015BB000000487047180100202DE9F0415C
:101540001F46044603260168072A01F4006004DBF5
:1015500008B116A505E016A503E008B115A500E041
:1015600015A521F010002060A069C01EA0610FB178
:10157000401EA0612046FFF7A0F94FB1D4E9012138
:1015800038469047206A401C2062C01C206206E05A
:10159000206AFAE7D4E9012115F8010B9047761E7D
:1015A000F8D22046FFF79FF9BDE8F0814E414E008A
:1015B0006E616E00494E4600696E66002DE9F04787
:1015C000814616468AB0354878440DC88DE80D002E
:1015D00032487844801C03AC0DC884E80D0041F605
:1015E0009B300844372190FBF1F290FBF1F5A5F117
:1015F000800501FB12041B3C02D56442012000E07F
:101600000020DFF898A080460027FA44AAF1BE0A1D
:101610000EE0E0070AD03246684607EB4701012397
:101620000AEB81010BF0A1FB8DE8070064107F1C21
:10163000002CEED1194F7F44AE3F19E0E80715D0DA
:1016400007EB04100DF1180A90E80E008AE80E006E
:10165000C068F04201D1981908903246012306A9CA
:1016600003A80BF082FB03AB83E807006D10641C3A
:10167000002DE3D14FF0010332466946B8F1000F67
:1016800003A802D00BF05CFB01E00BF06EFBC9E994
:101690000001C9F808200AB0BDE8F087ACBB000023
:1016A00010B50446AFF300802046BDE81040FEF7B9
:1016B0006DBE00000000000030B44FF0013C50F857
:1016C000042B51F8043BCCFA52F4D51A20D1FCB9C2
:1016D00050F8042B51F8043BCCFA52F4D51A17D128
:1016E000B4B950F8042B51F8043BCCFA52F4D51A93
:1016F0000ED16CB950F8042B51F8043BCCFA52F4DB
:10170000D51A05D1002CDAD030BC4FF0000070475C
:1017100029BAB1FA81F111F01801D1F12000844009
:10172000F2D1CA40CB4012F0FF0213F0FF0330BCED
:10173000D01A704701491820ABBEFEE72600020010
:1017400070470000FEE700007047000072B600BF5F
:10175000FEE7000080B540F27830C2F2000000F0F1
:1017600009F9BDE8804006F02DBE000040F2F030DF
:10177000C2F2000000F0FEB880B500285AD0436FD6
:10178000002B57D0016D002954D090F85410D0F898
:1017900000E00129DEF814C004D002294CD11CF469
:1017A000803149D090F8541001293AD190F84C106A
:1017B00001294FF0020145D0012280F84C2080F829
:1017C00054101973002181651961DEF8141041F479
:1017D000BA41CEF81410416E29B1DEF8141041F46C
:1017E0000071CEF81410006F28B1DEF8140040F438
:1017F0000050CEF8140018680022016ACFF60102EA
:10180000490861F3596261F39A624FF6FF7120EA69
:101810000101CEF800104FF6FC7108401044CEF8DC
:101820007C00DEF8140040F00100CEF81400002027
:1018300080BD00BF012080BD40218165002180F86E
:101840004C100121084680BDB0B5044600F080FD73
:10185000002C04BF0120B0BD054694F854000228B6
:101860002ED12168486940F004004861052084F8C1
:1018700054000869800408D400F06AFD401B052864
:1018800026D8216808698004F6D54869012240F00D
:1018900002004861042084F854004FF4FE40C86000
:1018A00084F8542094F8500000064FF0000002D550
:1018B000636F1A738864002184F84C10B0BD00BFB8
:1018C0002020A0650120002184F84C10B0BD00BF8D
:1018D000A06D40F01000A065032084F8540094F837
:1018E000500000064FF0010044BF616F08730021F3
:1018F00084F84C10B0BD0000002804BF01207047E0
:1019000090F8541002290BD1042180F8541000687B
:1019100042F204024169114341610020704700BF57
:101920002021816501207047024600284FF0010008
:1019300008BF7047CB065CBF00207047136840F6B5
:10194000FF7223EA020203F57B63C3F3C41301F0C1
:101950001101112900FA03F004D1516808435060C5
:1019600000207047516821EA000050600020704755
:10197000806D704710B5044600680C22034600F5E0
:101980007B6162F30B03C1F3C4111A6822FA01F1FF
:10199000C90700F0CB800169490544BF41695FEA8E
:1019A000415143D40169090544BF41695FEA0151CE
:1019B00044D40169C90444BF41695FEAC14145D4C7
:1019C0000169490444BF41695FEA414146D4016964
:1019D000890544BF41695FEA815147D4016989049F
:1019E00044BF41695FEA81414AD40169C90544BFE6
:1019F00041695FEAC15169D4A06D002800F096806A
:101A00002068416941F002014161012084F85400DD
:101A100094F85010090644BF616F0873A16E00204E
:101A2000002984F84C004CD180E000BF4FF4806165
:101A3000C160A16D41F00101A165B3E74FF4006100
:101A4000C160A16D41F00201A165B2E74FF4805180
:101A5000C160A16D41F00401A165B1E74FF480417F
:101A6000C160A16D41F00801A165B0E74FF40071BC
:101A7000C160616E0029B1D0204688472068ADE77B
:101A80004FF40051C16094F8541004292AD14169DF
:101A900021F400514161416941F00201416101219C
:101AA00084F8541094F85020120603D5626F117315
:101AB00000218164E16E0020002984F84C0008BFF9
:101AC00010BD2046BDE81040084700BF94F85010F4
:101AD000090613D4816C002904BF012184F8541035
:101AE00015E000BF052184F85410216F00293FF450
:101AF0007CAF20468847206877E700BFC16F31B9C7
:101B0000816C21B9012184F85410626F11734FF474
:101B10004071C160216E0020002984F84C001CBF78
:101B200020468847A06D00287FF46AAF10BD0000F2
:101B300070B5044600F00CFC002C04BF012070BD01
:101B4000002184F84C100546206894F8542022B9EE
:101B5000C4E91811C4E91A112167022184F854104C
:101B6000416941F0060141614169C90709D000BFDF
:101B700000F0EEFB401B052854D820684169C907D6
:101B8000F6D1216A426904F1100522F4430211439F
:101B90004161E36926CD1A4340F24F0E1143C5F26D
:101BA000020E40F24F3C704541EA0503C5F2020CBB
:101BB0001CDC41F24F05C4F20205A8423ADC40F2B7
:101BC0004F25C4F20205A84262DC40F24F15C4F270
:101BD0000205A84200F39C805025C4F20205A842E9
:101BE00000F0F080D025C4F20205E9E041F24F0593
:101BF000C5F20205A84235DC40F24F25C5F20205C8
:101C0000A84257DC40F24F15C5F20205A84200F386
:101C10008B805025C5F20205A84200F0D380D02564
:101C2000CCE000BF012003221021A16584F85420DC
:101C300070BD00BF41F24F25C4F20205A84245DC49
:101C400041F24F15C4F20205A84277DC41F250057B
:101C5000C4F20205A84200F0B58041F2D005C4F2FA
:101C60000205ADE041F24F25C5F20205A8423FDC76
:101C700041F24F15C5F20205A8426BDC41F2500556
:101C8000C5F20205A84200F09D8041F2D00595E022
:101C900040F24F35C4F20205A84265DC40F25025FF
:101CA000C4F20205A84200F08D8040F2D025C4F2B3
:101CB000020585E0604563DC40F25025C5F202056F
:101CC000A84200F07F8040F2D02577E041F24F3506
:101CD000C4F20205A8425DDC41F25025C4F20205BF
:101CE000A8426FD041F2D025C4F2020568E000BFDF
:101CF00041F24F35C5F20205A84257DC41F25025AA
:101D0000C5F20205A8425DD041F2D02556E000BFE1
:101D100040F25015C4F20205A84253D040F2D0154B
:101D2000C4F202054CE000BF40F25015C5F20205B6
:101D3000A84247D040F2D01540E000BF41F2501514
:101D4000C4F20205A8423DD041F2D015C4F202050A
:101D500036E000BF41F25015C5F20205A84231D06D
:101D600041F2D0152AE000BF40F25035C4F202051E
:101D7000A84227D040F2D035C4F2020520E000BFCF
:101D800040F25035C5F20205A8421BD040F2D035D2
:101D900014E000BF41F25035C4F20205A84211D050
:101DA00041F2D035C4F202050AE000BF41F2D0355D
:101DB000C5F20205A84205D041F25035C5F2020530
:101DC000A84212D1D4E909514FF07C76E26A06EBC1
:101DD00001514FF47C7606EB051501F07C711A4336
:101DE00005F47C75114341EA0503016C01F0802183
:101DF00019430164A1682279E5681143226BB5F5A6
:101E0000007F41EA020323D0B5F5806F40F00E81D8
:101E1000704521DC41F24F01C4F20201884237DCF7
:101E200040F24F21C4F2020188425FDC40F24F11C0
:101E3000C4F20201884200F399805021C4F20201E9
:101E4000884200F0F180D021C4F20201E6E000BF38
:101E500043F40073EAE000BF41F24F01C5F2020112
:101E600088422DDC40F24F21C5F2020188424FDC4E
:101E700040F24F11C5F20201884200F383805021E5
:101E8000C5F20201884200F0CF80D021C4E000BF3B
:101E900041F24F21C4F20201884245DC41F24F1168
:101EA000C4F20201884277DC41F25001C4F202011F
:101EB000884200F0B98041F2D001C4F20201ADE0E5
:101EC00041F24F21C5F2020188423FDC41F24F113D
:101ED000C5F2020188426BDC41F25001C5F20201F9
:101EE000884200F0A18041F2D00195E040F24F31EC
:101EF000C4F20201884265DC40F25021C4F20201C2
:101F0000884200F0918040F2D021C4F2020185E0C5
:101F1000604563DC40F25021C5F20201884200F0C6
:101F2000838040F2D02177E041F24F31C4F20201C8
:101F300088425DDC41F25021C4F20201884273D034
:101F400041F2D021C4F2020168E000BF41F24F31FA
:101F5000C5F20201884257DC41F25021C5F202016C
:101F6000884261D041F2D02156E000BF40F25011CA
:101F7000C4F20201884257D040F2D011C4F20201EB
:101F80004CE000BF40F25011C5F2020188424BD034
:101F900040F2D01140E000BF41F25011C4F2020102
:101FA000884241D041F2D011C4F2020136E000BFB4
:101FB00041F25011C5F20201884235D041F2D011F0
:101FC0002AE000BF40F25031C4F2020188422BD017
:101FD00040F2D031C4F2020120E000BF40F25031A3
:101FE000C5F2020188421FD040F2D03114E000BF98
:101FF00041F25031C4F20201884215D041F2D03191
:10200000C4F202010AE000BF41F2D031C5F2020180
:10201000884209D041F25031C5F20201884208BF1E
:1020200043F4806302E000BF43F48063626B416C61
:1020300042F20016C3F6C0461343314019434164CF
:1020400000216045816411DC41F24F31C4F202018C
:1020500088421BDC40F25031C4F2020188422DD08C
:1020600040F2D031C4F2020126E000BF41F24F310C
:10207000C5F20201884215DC40F25031C5F202017E
:1020800088421BD040F2D03114E000BF41F2503101
:10209000C4F20201884211D041F2D031C4F20201EF
:1020A0000AE000BF41F2D031C5F20201884205D0FA
:1020B00041F25031C5F20201884202D1002141654E
:1020C00081650021C167226501220020A16584F895
:1020D000542070BD10B520B1D0F850C0BCF1000F35
:1020E00002D0012010BD00BF90F84CC0BCF1010F20
:1020F00004BF022010BD4FF0010C80F84CC090F8D6
:1021000054C0BCF1010F39D14FF0020C80F854C01B
:102110004FF0000CC0F858C0D0F800C0D0F864E010
:10212000DCF84840BEF1000FC3EA0403CCF84830A5
:102130004FF4FE43CCF80C30CCF84C10CCF85020C7
:10214000DCF8141041F4BA41CCF8141005D0DCF8D6
:10215000141041F40071CCF81410006F28B1DCF8B1
:10216000140040F40050CCF81400DCF8140040F0E7
:102170000100CCF81400002010BD00BF4021816593
:10218000002180F84C10012010BD0000B0B50446BD
:1021900000F0DEF8054640F20000C2F200000078D0
:1021A000611C18BF044400BF00F0D2F8401BA042DD
:1021B000FAD3B0BD2DE9F04F81B00B68002B00F0D1
:1021C000BD8047F67F72C0F22F0202EA90224FF0E4
:1021D000000B00260027012400920BE00B68083753
:1021E00033FA04F504F1010406F102060BF1040BC5
:1021F00000F0A480A4F10108012202FA08FC13EA0D
:102200000C02EBD0D1F804E04EF01003122B18D1E1
:102210006FF0030303EA58030BF01C0500EB030AFD
:10222000DAF820E00F23D1F81090AB402EEA030E2D
:1022300009F00F03AB4043EA0E03CAF82030D1F88F
:1022400004E003680325B5400EF003096FEA050AB0
:10225000AB4309FA06F52B43BEF1120F036065D8B4
:10226000012303FA0EF313F0061F5FD08368CD68D5
:1022700003EA0A03B5402B43836043684FEA1E1507
:1022800023EA0C0305FA08F52B434360C3688D6805
:1022900003EA0A03B5402B43C3605FEACE039DD532
:1022A00028F0030342F20008C4F2024808EB030ED0
:1022B000DEF860C007F018050F23AB402CEA030CD2
:1022C000009B03FA05F54CEA0503CEF86030D8F818
:1022D00000C0D1F804E04CEA02055FEACE2358BF03
:1022E0002CEA0205C8F80050D8F804C05FEA8E2333
:1022F0004CEA020558BF2CEA0205C8F80450D8F889
:1023000084C05FEA8E334CEA020558BF2CEA02050E
:10231000C8F88450D8F880C05FEACE334CEA020592
:1023200058BF2CEA0205C8F8805057E7B9F1030FEF
:10233000ACD18B68012BA9D1AFE700BF01B0BDE8DC
:10234000F08F00001823002A08BF2823C1507047CF
:1023500049F62C60C2F200000068704740F200416C
:10236000C4F203010A68D2071CBF012070470A6843
:1023700022F00402104308600020704740F2004140
:10238000C4F20301086840F0010200200A607047AF
:1023900040F2000049F62C61C2F20000C2F20001D6
:1023A00000780A68104408607047000080B5032078
:1023B00000F0BCF802F07AFD40F62041C4F2024180
:1023C00009684DF2901201F00F01C0F60002515C55
:1023D000C84040F20801C2F200010860042004F085
:1023E000F1F90F2000F008F800281CBF012080BD83
:1023F00000F05AF8002080BDB0B588B040F69C418E
:10240000C4F202410A68044642F020020A600968E8
:1024100002A801F020010291029901A902F0A0FC9A
:10242000059D002D18BF012502F0D4FCA84045F6FB
:10243000C5214009C0F67C21A0FB01014FF0FF300F
:1024400000EBD11140F2745041F20043C2F200009F
:102450006322C4F200030025C0E90031C0E9025242
:10246000056104F0CDFA0546B8B940F27450C2F2E5
:10247000000004F01BFB054678B90F2C0CD8322065
:1024800021460022002500F025F840F20400C2F2A7
:102490000000046001E000BF0125322000F00AF8CE
:1024A000284608B0B0BD00006FF001000F210022E7
:1024B00000F010B8002848BF704700F01F0101224B
:1024C00002FA01F14EF200124009CEF2000242F887
:1024D0002010704710B54EF60C5CCEF2000CDCF804
:1024E0000030C3F3022E8EF00704042C28BF04240E
:1024F000BEF103034FF0FF3E38BF00230EFA04F491
:10250000A14399400EFA03F39A4300F00F03043BF2
:102510001143634409010C3300F16042B0F1FF3F05
:10252000C8BF02F56443197010BD00004EF60C518F
:10253000CEF200010A684FF6FF031A4060F30A2248
:1025400042F0806040F0FD700860704710B540F6C2
:10255000284CC4F2024CDCF80CE0DCF80010DCF88B
:102560000020C2F30523DCF80020DCF81040DBB3C8
:10257000C2F30012C4F3CC0401F0030104FB02F225
:10258000032900EE102A6FF35F2EB8EE400A31D017
:10259000022935D001295CF8281C49F20002C1F358
:1025A000C101C0F2D03222FA01F101EE101A02EE9E
:1025B000103AB8EE411AB8EE422A9FED4F3A81EE3A
:1025C000021A02EE10EA20EE030AB8EE422A30EEBA
:1025D000020AB7EE002A30EE022A5CF8281C22EE2E
:1025E000010A89012CD527E00021C0E90011816092
:1025F00010BD00BF01EE103A9FED3E2A04E000BF7F
:1026000001EE103A9FED3D2AB8EE411A82EE012A02
:1026100001EE10EA9FED383AB8EE411A20EE030AB7
:1026200030EE010AB7EE001A30EE011A5CF8281CF1
:1026300022EE010A890103D5DCF80010C90307D492
:10264000002101605CF8281C890118D41BE000BF40
:10265000DCF80C10B7EE002AC1F3462101EE101A87
:10266000B8EE411A31EE021A80EE011ABCEEC11A20
:1026700011EE101A01605CF8281C890103D5DCF802
:102680000010890302D4002112E000BFDCF80C1016
:10269000B7EE002AC1F3064101EE101AB8EE411A56
:1026A00031EE021A80EE011ABCEEC11A11EE101AB8
:1026B00041605CF8281C890144BFDCF800105FEA27
:1026C000413103D40021816010BD00BFDCF80C1043
:1026D000B7EE002AC1F3066101EE101AB8EE411AF6
:1026E00031EE021A80EE010ABCEEC00A10EE101A9A
:1026F000816010BD0024F44A000000390024744AAF
:1027000010B540F62C4CC4F2024CDCF810E0DCF8BA
:102710000010DCF80020C2F30523DCF80020DCF810
:102720001440DBB3C2F30012C4F3CC0401F0030184
:1027300004FB02F2032900EE102A6FF35F2EB8EEBD
:10274000400A31D0022935D001295CF82C1C49F20D
:102750000002C1F3C101C0F2D03222FA01F101EE50
:10276000101A02EE103AB8EE411AB8EE422A9FED66
:102770004F3A81EE021A02EE10EA20EE030AB8EE9A
:10278000422A30EE020AB7EE002A30EE022A5CF846
:102790002C1C22EE010A09012CD527E00021C0E9FA
:1027A0000011816010BD00BF01EE103A9FED3E2A7E
:1027B00004E000BF01EE103A9FED3D2AB8EE411A49
:1027C00082EE012A01EE10EA9FED383AB8EE411A86
:1027D00020EE030A30EE010AB7EE001A30EE011ABD
:1027E0005CF82C1C22EE010A090103D5DCF800106C
:1027F000C90307D4002101605CF82C1C090118D41E
:102800001BE000BFDCF81010B7EE002AC1F3462130
:1028100001EE101AB8EE411A31EE021A80EE011ADA
:10282000BCEEC11A11EE101A01605CF82C1C0901F3
:1028300003D5DCF80010890302D4002112E000BFA8
:10284000DCF81010B7EE002AC1F3064101EE101AB1
:10285000B8EE411A31EE021A80EE011ABCEEC11A2E
:1028600011EE101A41605CF82C1C090144BFDCF821
:1028700000105FEA413103D40021816010BD00BF28
:10288000DCF81010B7EE002AC1F3066101EE101A51
:10289000B8EE411A31EE021A80EE010ABCEEC00A0F
:1028A00010EE101A816010BD0024F44A00000039B7
:1028B0000024744A10B540F6304CC4F2024CDCF8E7
:1028C00014E0DCF80010DCF80020C2F30523DCF88B
:1028D0000020DCF81840DBB3C2F30012C4F3CC04D0
:1028E00001F0030104FB02F2032900EE102A6FF34A
:1028F0005F2EB8EE400A31D0022935D001295CF8AC
:10290000301C49F20002C1F3C101C0F2D03222FAF8
:1029100001F101EE101A02EE103AB8EE411AB8EECB
:10292000422A9FED4F3A81EE021A02EE10EA20EEA3
:10293000030AB8EE422A30EE020AB7EE002A30EE61
:10294000022A5CF8301C22EE010A89002CD527E00F
:102950000021C0E90011816010BD00BF01EE103AF6
:102960009FED3E2A04E000BF01EE103A9FED3D2AA4
:10297000B8EE411A82EE012A01EE10EA9FED383AD4
:10298000B8EE411A20EE030A30EE010AB7EE001A43
:1029900030EE011A5CF8301C22EE010A890003D5E2
:1029A000DCF80010C90307D4002101605CF8301C7A
:1029B000890018D41BE000BFDCF81410B7EE002A21
:1029C000C1F3462101EE101AB8EE411A31EE021A97
:1029D00080EE011ABCEEC11A11EE101A01605CF80B
:1029E000301C890003D5DCF80010890302D40021D3
:1029F00012E000BFDCF81410B7EE002AC1F3064164
:102A000001EE101AB8EE411A31EE021A80EE011AE8
:102A1000BCEEC11A11EE101A41605CF8301C89003E
:102A200044BFDCF800105FEA413103D4002181602B
:102A300010BD00BFDCF81410B7EE002AC1F3066128
:102A400001EE101AB8EE411A31EE021A80EE010AB8
:102A5000BCEEC00A10EE101A816010BD0024F44ACA
:102A6000000000390024744A80B584B04FF6FF732B
:102A70000246C0F20F0300209B1A70EB01032BDA11
:102A8000002940F39F801F2940F31681FF2900F39E
:102A9000178281F02003134300F01E8481F040036D
:102AA000134300F02D8481F08001114340F0B08683
:102AB00040F60040C4F20240D0F8DC10C1F30261DD
:102AC000052900F20987DFE811F0B3069D06B70675
:102AD000F105BD06CD0600BF40F2FF339B1A70EB37
:102AE0000103C0F2A580D2F17F034FF0000C7CEB14
:102AF0000103C0F2A581013A61F10001D2F13F0367
:102B00007CEB0101C0F08486DFE812F04000D002C7
:102B10008206F80282068206820626038206820662
:102B20008206820682068206820656038206820694
:102B30008206820682068206820682068206820655
:102B40008206820682068206820686038206820644
:102B50008206820682068206820682068206820635
:102B60008206820682068206820682068206820625
:102B70008206820682068206820682068206820615
:102B800082068206820682068206B60340F600406E
:102B9000C4F20240D0F8D81011F0070100F01A86F4
:102BA0000268012903D112F0006240F08F860268AA
:102BB000022940F0DF8512F0005240F0058600F057
:102BC000D9BD00BF6FF078439B1A4FF0000C7CEB2F
:102BD0000103C0F2A3804FF6FF73C0F23F039B1ABC
:102BE0007CEB010380F2A08182F480030B4300F0B0
:102BF0009B8382F000730B4300F0A68382F0806217
:102C0000114340F0058640F60040C4F20240D0F87F
:102C1000E810026811F0300140F0328612F40052E0
:102C200000F02E8646F60040C0F2DC2004B080BDE5
:102C300047F6FF739B1A4FF0000C7CEB0103C0F2C8
:102C4000BB8040F6FF739B1A7CEB010380F29481FA
:102C500082F480530B4300F0B38382F400530B43A0
:102C600000F0C28382F48042114340F0D18540F6E7
:102C70000040C4F20240D0F8E41001F44021B1F564
:102C8000802F00F0D985002900F080850268006857
:102C9000B1F5002F03D112F0020240F0B08610F41B
:102CA00000701CBF40F60010C0F23D00B1F5402F8F
:102CB00018BF002004B080BD032940F3938181F048
:102CC0000403134300F0B68381F00803134300F0BC
:102CD000C78381F01001114340F09A8540F600400F
:102CE000C4F20240D0F8E41001F03001102900F0E5
:102CF000E7850268202903D112F0005240F0648574
:102D0000006810F400501CBF46F60040C0F2DC2002
:102D1000302918BF002000F07BBD00BF6FF060437A
:102D20009B1A7CEB010380F2798182F000530B4304
:102D300000F0AA8382F080430B4300F0BB8382F053
:102D40000042114340F0648540F60040C4F2024066
:102D5000D0F8E01011F4E04100F06A850268B1F5A6
:102D6000805F03D112F0006240F0B0850268B1F5D7
:102D7000005F03D112F0005240F02685036802681C
:102D8000B1F5405F03D113F0020340F07585B1F552
:102D9000804F03D112F4007240F02386006810F4D3
:102DA00000301CBF41F20020C0F27A00B1F5A04F04
:102DB00018BF002004B080BD4FF6FF73C0F20103BE
:102DC0009B1A7CEB010380F2498182F400330B43B0
:102DD00000F0A88382F480230B4300F0CB8382F4BD
:102DE0000022114340F0148540F60041C4F2024134
:102DF000D1F8E800C0F30242042A00F26D8548F2DF
:102E00000000C0F2BB00DFE812F05B05FD042705FF
:102E100003050500D1F8E8000B6810F0404208688F
:102E200003D113F0020340F0EA85B2F1804F40F085
:102E3000AF8510F4007040F0BE8500F0A9BD00BF62
:102E400082F080030B4300F0BD8382F480730B4358
:102E500000F0E88382F40072114340F0D98440F618
:102E60000040C4F20240D0F8D81011F0605100F0D8
:102E70008D840268B1F1006F03D112F0006240F05E
:102E800025850268B1F1805F03D112F0005240F055
:102E90009B8403680268B1F1C05F03D113F00203A1
:102EA00040F07184B1F1005F03D112F4007240F080
:102EB0008285D0F8F000B1F1205F00F0AEBD00BF18
:102EC00081F48073134300F0DD8381F400731343B6
:102ED00000F0F48381F48061114340F0998440F65E
:102EE0000040C4F20240D0F8E41001F44001B1F512
:102EF000800F00F0A184002900F09A840268006825
:102F0000B1F5000F03D112F0020240F0788510F401
:102F100000701CBF40F60010C0F23D00B1F5400F3C
:102F200018BF002004B080BD82F480130B4300F072
:102F3000E38382F40012114340F06A8440F60040BB
:102F4000C4F20240D0F8E81001F00701022900F0B5
:102F5000F481012900F0128500295BD00268032961
:102F600040F0468512F4003200F0428541F2002024
:102F7000C0F27A0004B080BD82F480630B4300F09D
:102F8000E38382F40062114340F0428440F6004043
:102F9000C4F20240D0F8DC1011F0700100F0F683AA
:102FA0000268102903D112F0006240F08F84026899
:102FB000202903D112F0005240F006840368026811
:102FC000302903D113F0020340F0DD83402903D1FF
:102FD00012F4007240F0EF84D0F8F000502900F0B5
:102FE0001CBD00BF81F00103134300F0D38381F0C7
:102FF0000201114340F00C8440F60040C4F202404C
:10300000D0F8E41001F00301DFE811F004005A04E5
:1030100097012C0401F0C6FE04B080BD82F000636D
:103020000B4300F0DB8382F08052114340F0F083C9
:1030300040F60041C4F20241D1F8E000C0F3C20200
:10304000042A00F2498448F20000C0F2BB00DFE825
:1030500012F03704D9030304DF035D0482F4004354
:103060000B4300F0D78382F48032114340F0D083C9
:1030700040F60041C4F20241D1F8E40000F0407093
:10308000B0F1807F00F0D883002800F07F830A68C9
:10309000B0F1007F4FF0000040F0BA8312F002025E
:1030A00000F0B683086800F0AABC00BF40F60040FC
:1030B000C4F20240D0F8D81011F0380100F0668355
:1030C0000268082903D112F0006240F0FF83102942
:1030D00000F07A8303680268182903D113F0020311
:1030E00040F05183202903D112F4007240F0638430
:1030F000D0F8F000282900F090BC00BF40F6004056
:10310000C4F20240D0F8D81011F4E07100F03E8310
:103110000268402903D112F0006240F0D7830268B0
:10312000802903D112F0005240F04E8303680268F8
:10313000C02903D113F0020340F02583B1F5807F4D
:1031400003D112F4007240F03684D0F8F000B1F5EB
:10315000A07F00F062BC00BF40F60040C4F2024015
:10316000D0F8D81011F4606100F010830268B1F556
:10317000007F03D112F0006240F0A8830268B1F52D
:10318000806F03D112F0005240F01E830368026882
:10319000B1F5C06F03D113F0020340F0F482B1F532
:1031A000006F03D112F4007240F00584D0F8F000F3
:1031B000B1F5206F00F031BC40F60040C4F202408F
:1031C000D0F8D81011F4E04100F0E0820268B1F5C7
:1031D000805F03D112F0006240F078830268B1F59D
:1031E000005F03D112F0005240F0EE8203680268E3
:1031F000B1F5405F03D113F0020340F0C482B1F592
:10320000804F03D112F4007240F0D583D0F8F00063
:10321000B1F5A04F00F001BC40F60040C4F20240FE
:10322000D0F8D81011F4603100F0B0820268B1F526
:10323000004F03D112F0006240F048830268B1F5FC
:10324000803F03D112F0005240F0BE820368026852
:10325000B1F5C03F03D113F0020340F09482B1F501
:10326000003F03D112F4007240F0A583D0F8F000C3
:10327000B1F5203F00F0D1BB40F60040C4F202405F
:10328000D0F8D81011F4E01100F080820268B1F596
:10329000802F03D112F0006240F018830268B1F56C
:1032A000002F03D112F0005240F08E8203680268B2
:1032B000B1F5402F03D113F0020340F06482B1F561
:1032C000801F03D112F4007240F07583D0F8F00033
:1032D000B1F5A01F00F0A1BB40F60040C4F20240CF
:1032E000D0F8DC10C1F30241052900F2F582DFE8D5
:1032F00011F09F028902A302DD01A902B90200BFF9
:1033000040F60040C4F20240D0F8DC10C1F3025194
:10331000052900F2E182DFE811F08B0275028F02CD
:10332000C9019502A50200BF40F60040C4F2024068
:10333000D0F8E400400640F1C38201A8FFF7E0F9AD
:10334000039804B080BD00BF40F60041C4F20241C2
:10335000D1F8F000D1F8F02000F44070B0F5807F93
:1033600006D112F002021EBF4FF4004004B080BD2F
:10337000D1F8F020B0F5007F06D112F000621EBF38
:103380004FF4FA4004B080BD0A68B0F5407F4FF0BA
:10339000000040F03D8212F4003200F03982C8692A
:1033A00010F4785F00F09882C86941F20021C0F300
:1033B0000520C0F27A01B1FBF0F004B080BD00BF7F
:1033C00040F60040C4F20240D0F8E01001F0E061A5
:1033D000B1F1007F00F0F881B1F1807F00F07682DA
:1033E000002900F0258237E140F60040C4F2024097
:1033F000D0F8E41001F44031B1F5803F00F01C82B8
:10340000002900F0C38102680068B1F5003F03D1D4
:1034100012F0020240F0F38210F400701CBF40F67C
:103420000010C0F23D00B1F5403F18BF002004B0CD
:1034300080BD00BF40F60041C4F20241D1F8E8006F
:10344000096810F4407040F0358211F4003100F04A
:10345000318241F20020C0F27A0004B080BD00BF8A
:1034600040F60040C4F20240D0F8E810D0F8F02056
:1034700011F0C00140F0348212F0020200F03082FC
:103480004FF4004004B080BD40F60041C4F2024158
:10349000D1F8E000C0F38212042A00F21D8248F243
:1034A0000000C0F2BB00DFE812F00B02AD01D70153
:1034B000B301310240F60040C4F20240D0F8E010FF
:1034C00011F4606100F086810268B1F5007F03D1DC
:1034D00012F0006240F0FA810268B1F5806F03D10A
:1034E00012F0005240F0708103680268B1F5C06FBD
:1034F00003D113F0020340F0BF81B1F5006F03D197
:1035000012F4007240F06D82006810F400301CBFAD
:1035100041F20020C0F27A00B1F5206F18BF002000
:1035200004B080BD40F60040C4F20240D0F8DC1088
:10353000C1F30221052900F2CF81DFE811F0790102
:1035400063017D01B7008301070000BFD0F8E810D8
:103550000368026811F0404103D113F0020340F008
:103560001281B1F1804F40F0E58112F4007240F019
:103570002282DFE140F60040C4F20240D0F8DC10C5
:10358000C1F30231052900F2A781DFE811F0FF0045
:103590003B0155018F005B01070000BFD0F8E81028
:1035A0000368026811F0404103D113F0020340F0B8
:1035B000EA80B1F1804F40F0BD8112F4007240F01A
:1035C000FA81B7E140F60040C4F20240D0F8D810CA
:1035D00011F4600100F0DA800268B1F5001F03D138
:1035E00012F0006240F072810268B1F5800F03D1E1
:1035F00012F0005240F0E88003680268B1F5C00F95
:1036000003D113F0020340F0BE80B1F5000F03D1E7
:1036100012F4007240F0CF81D0F8F000B1F5200F25
:10362000FBE100BF40F60040C4F20240D0F8D810E1
:1036300011F0E06100F0AA800268B1F1807F03D14F
:1036400012F0006240F042810268B1F1007F03D1C4
:1036500012F0005240F0B88003680268B1F1407F78
:1036600003D113F0020340F08E80B1F1806F03D1DB
:1036700012F4007240F09F81D0F8F000B1F1A06F19
:10368000CBE100BF40F60040C4F20240D0F8DC10AD
:10369000C1F30271052900F21F81DFE811F0C900B2
:1036A000B300CD000700D300E30000BFD0F8F00066
:1036B0004FF4004101EA803004B080BD40F6004084
:1036C000C4F20240D0F8E810D0F8F02011F0080160
:1036D00006D112F002021EBF4FF4004004B080BDBC
:1036E000D0F8F00010F0006018BF4FF4FA40002945
:1036F00008BF084604B080BD40F60041C4F2024154
:10370000D1F8E800C0F3C242042A00F2E58048F292
:103710000000C0F2BB00DFE802F0D3759F7B03001E
:10372000D1F8E8000B6810F04042086803D113F0AC
:10373000020340F06481B2F1804F40F0298110F41F
:10374000007040F0388123E140F60040C4F20240AE
:10375000D0F8DC1011F0070118D00268012903D15C
:1037600012F0006240F0B2800268022902D112F029
:10377000005229D103680268032940F0178113F031
:10378000020300F01381C2F3C1003AE101F022FB11
:1037900004B080BD40F60040C4F20240D0F8E01012
:1037A00011F4603116D00268B1F5004F03D112F068
:1037B000006240F08B800268B1F5803F40F00281EA
:1037C00012F0005200F0FE8001A8FFF773F8029893
:1037D00004B080BD01F022FB04B080BD40F6004182
:1037E000C4F20241D1F8E00000F00702042A00F21E
:1037F000738048F20000C0F2BB00DFE802F0610312
:103800002D09870001A8FEF77BFF019804B080BD59
:1038100004B080BD40F60040C4F20240D0F8E4108D
:1038200001F44011B1F5801F06D0002940F09080CE
:1038300001F018FB04B080BD01A8FFF73BF8039826
:1038400004B080BDD0F8F0004FF4FA41000101EA65
:10385000E07004B080BD00BF01A8FFF72BF801980D
:1038600004B080BDD0F8E8100368026811F0404150
:103870005AD113F0020357D0C2F3C100C1E000BF18
:103880000268102902D112F0007219D1D0F8F0208C
:10389000202903D112F002027FF4F2ADD0F8F0003B
:1038A00010F0006018BF4FF4FA40302918BF002014
:1038B00004B080BDB0F5007F08D0B0F5807F0BD19B
:1038C00001A8FEF743FE029804B080BD01A8FEF7F0
:1038D00017FF029804B080BD002004B080BD00BF77
:1038E000D0F8F020402906D112F000621EBF4FF43C
:1038F000FA4004B080BD006810F4007018BF48F2B0
:103900001200802918BF002004B080BDD1F8E80063
:103910000B6810F04042086834D113F0020331D034
:10392000C0F3C1006DE000BFB1F1804F02D112F4CD
:10393000007256D1006810F400301CBF41F2002024
:10394000C0F27A00B1F1004F18BF002004B080BD72
:1039500002680068B1F5001F02D112F002024ED1D8
:1039600010F400701CBF40F60010C0F23D00B1F52D
:10397000401F18BF002004B080BD00BF01F096FAC0
:1039800004B080BDB2F1804F02D110F4007028D194
:10399000086810F400301CBF41F20020C0F27A0029
:1039A000B2F1004F18BF002004B080BD042931D10E
:1039B00012F400722ED040F60010C0F23D0004B0A8
:1039C00080BD00BF03680268B1F5C03F03D113F0AA
:1039D00002037FF451AFB1F5003F33D112F400720E
:1039E00030D040F60010C0F23D0004B080BD00BFF2
:1039F00002680068042919D112F0020216D0C0F33F
:103A0000C10049F20001C0F2D03121FA00F004B047
:103A100080BD00BFD0F8F000052900F002024FF091
:103A2000000008BF900304B080BD00BF10F4007018
:103A30001CBF40F60010C0F23D00052918BF002051
:103A400004B080BD006810F400301CBF41F20020BB
:103A5000C0F27A00B1F5203F18BF002004B080BD4D
:103A60002DE9F0470446006840F62848C101C4F239
:103A7000024807D5D8F8C010A26D21F0404111438B
:103A8000C8F8C010C0070ED0E06D052822D8DFE8C6
:103A900000F003232B030303D8F8B01021F0070133
:103AA0000843C8F8B00000262078800702D43546C5
:103AB00045E000BF206E4FEAF00005281ED83546CD
:103AC000DFE800F004222804040400BF2F4645BBB1
:103AD0002CE000BF0126E7E704F1080004F01EFB1C
:103AE00006460028E0D106E004F1300004F08EFB29
:103AF00006460028D8D1E06DCEE700BF012501279A
:103B0000207840071FD44EE004F1080004F006FBC3
:103B100004E000BF04F1300004F078FB05462F46B6
:103B200025B1207840070ED43DE000BFD8F8B000A2
:103B3000216E20F0380008430025C8F8B000374651
:103B4000207840072FD5606E4FEAB010052809D8BD
:103B5000DFE800F0040E1404040400BF2E46A5B9EB
:103B600018E000BF01250126207800071FD450E08F
:103B700004F1080004F0D2FA04E000BF04F13000C0
:103B800004F044FB05462E4625B1207800070ED4EC
:103B90003FE000BFD8F8B000616E20F4E070084349
:103BA0000025C8F8B0003E462078000731D5A06E49
:103BB0004FEA7020052809D8DFE800F00410160449
:103BC000040400BFA946B5B91AE000BF4FF00109CF
:103BD00001252078C00620D44FE000BF04F1080082
:103BE00004F09CFA04E000BF04F1300004F00EFB86
:103BF0000546A94625B12078C0060ED43DE000BF99
:103C0000D8F8B000A16E20F4606008430025C8F821
:103C1000B000B1462078C0062FD5E06E4FEA3030B4
:103C2000052809D8DFE800F0040E1404040400BFDE
:103C30002F46A5B918E000BF01270125207880068E
:103C40001FD44EE004F1080004F068FA04E000BF5D
:103C500004F1300004F0DAFA05462F4625B1207849
:103C600080060ED43DE000BFD8F8B000E16E20F42D
:103C7000E04008430025C8F8B0004F462078800691
:103C80002FD5206F4FEAF030052809D8DFE800F083
:103C9000040E1404040400BF2E46A5B918E000BFAA
:103CA00001260125207840061FD44EE004F10800CB
:103CB00004F034FA04E000BF04F1300004F0A6FA86
:103CC00005462E4625B1207840060ED43DE000BFC3
:103CD000D8F8B000216F20F4603008430025C8F800
:103CE000B0003E46207840062FD5606F4FEAB040C6
:103CF000052809D8DFE800F0040E1404040400BF0E
:103D00002F46A5B918E000BF01270125207800063D
:103D10001FD44EE004F1080004F000FA04E000BFF4
:103D200004F1300004F072FA05462F4625B12078E0
:103D300000060ED43DE000BFD8F8B000616F20F45B
:103D4000E01008430025C8F8B00037462078000688
:103D50002FD5A06F4FEA7050052809D8DFE800F092
:103D6000040E1404040400BF2E46A5B918E000BFD9
:103D7000012601256078C0071FD150E004F108003A
:103D800004F0CCF904E000BF04F1300004F03EFA86
:103D900005462E4625B16078C0070ED13FE000BF32
:103DA000D8F8B000A16F20F4600008430025C8F8DF
:103DB000B0003E466078C00731D0E06F4FEA306017
:103DC000052809D8DFE800F004101604040400BF39
:103DD000A946B5B91AE000BF4FF001090125607886
:103DE000800720D450E000BF04F1080004F096F9E9
:103DF00004E000BF04F1300004F008FA0546A946CB
:103E000025B1607880070ED43EE000BFD8F8B0003E
:103E1000E16F20F0E06008430025C8F8B000B1462B
:103E20006078800730D5D4F880004FEAF06005282C
:103E300008D8DFE800F0030D130303032F46A5B9EC
:103E400018E000BF012701256078400720D44FE02B
:103E500004F1080004F062F904E000BF04F130004E
:103E600004F0D4F905462F4625B1607840070FD4F9
:103E70003EE000BFD8F8B000D4F8801020F06050C9
:103E800008430025C8F8B0004F46607840072FD59A
:103E9000D4F88400052809D8DFE800F0040E1404E3
:103EA000040400BF2E46A5B918E000BF0126012575
:103EB0006078000720D451E004F1080004F02EF9E6
:103EC00004E000BF04F1300004F0A0F905462E46DE
:103ED00025B1607800070FD440E000BFD8F8B400E7
:103EE000D4F8841020F0070008430025C8F8B40077
:103EF0003E466078000731D5D4F888004FEA30108C
:103F0000052809D8DFE800F0040E1404040400BFFB
:103F10002F46A5B918E000BF012701256078C0062B
:103F200020D451E004F1080004F0F8F804E000BFE8
:103F300004F1300004F06AF905462F4625B1607897
:103F4000C0060FD440E000BFD8F8B400D4F8881001
:103F500020F0700008430025C8F8B40037466078A8
:103F6000C00631D5D4F88C004FEA3060052809D856
:103F7000DFE800F0040E1404040400BF2E46A5B9C7
:103F800018E000BF012601256078800620D43DE0BE
:103F900004F1080004F0C2F804E000BF04F13000AE
:103FA00004F034F905462E4625B1607880060FD41A
:103FB0002CE000BFD8F8B800D4F88C1020F0E060F6
:103FC00008430025C8F8B8003E46607880061DD535
:103FD000D4F890006FF0010101EB3041022909D3C0
:103FE0004FEA304030B1012834D104F1300004F000
:103FF0000DF905462F4655B9D8F8BC00D4F89010F5
:1040000020F4403008430025C8F8BC0037466078EB
:10401000400624D5D4F894006FF0010101EBB041C3
:10402000022909D34FEAB04030B101283AD104F156
:10403000300004F0EBF805462E468DB9D8F8BC00E8
:10404000D4F8941020F4402008430025C8F8BC00A0
:1040500005E000BF0127012560784006DAD43E461E
:104060006078000623D5D4F898006FF0010101EBC9
:104070003051022909D34FEA305030B1012839D1EB
:1040800004F1300004F0C2F80546A94685B9D8F815
:10409000BC00D4F8981020F4401008430025C8F85C
:1040A000BC0004E00126012560780006DBD4B1469F
:1040B0006079400724D5D4F89C006FF0010101EB32
:1040C000B051022909D34FEAB05030B101283BD199
:1040D00004F1300004F09AF805462F468DB9D8F85F
:1040E000BC00D4F89C1020F4400008430025C8F818
:1040F000BC0005E04FF00109012560794007DAD4E2
:104100004F46A078C00724D0D4F8A000002818BFDC
:10411000B0F1007F0CD12E46E5B9D8F8BC00D4F838
:10412000A01020F0407008430025C8F8BC0010E043
:10413000B0F1807F34D104F1300004F067F8054617
:104140002E463DB9E9E700BF01270125A078C00749
:10415000DAD13E46D4E9000140F61C49C4F20249D6
:1041600009050CD5D9F8001021F40041C9F8001058
:10417000D4F80011D9F800201143C9F800108003C9
:1041800034D5D4F8A4004FEA302005280CD8DFE855
:1041900000F00311170303032F46C5B91CE000BF4D
:1041A00001260125D6E700BF01270125A078400799
:1041B00020D451E004F1080003F0B0FF04E000BF98
:1041C00004F1300004F022F805462F4625B1A0780E
:1041D00040070FD440E000BFD8F8B400D4F8A410D2
:1041E00020F4E06008430025C8F8B4003746A07802
:1041F000400731D5D4F8A8004FEA3030052809D857
:10420000DFE800F0040E1404040400BF2E46A5B934
:1042100018E000BF012601252079800620D451E056
:1042200004F1080003F07AFF04E000BF04F130005D
:1042300003F0ECFF05462E4625B1207980060FD409
:1042400040E000BFD8F8B400D4F8A81020F4E04053
:1042500008430025C8F8B4003E462079800631D5D1
:10426000D4F8AC004FEA3040052809D8DFE800F068
:10427000040E1404040400BF2F46A5B918E000BFC3
:10428000012701252079400620D451E004F10800DF
:1042900003F044FF04E000BF04F1300003F0B6FF78
:1042A00005462F4625B1207940060FD440E000BFD7
:1042B000D8F8B400D4F8AC1020F4E020084300256E
:1042C000C8F8B40037462079400631D5D4F8B0009C
:1042D0004FEA3050052809D8DFE800F0040E140436
:1042E000040400BF2E46A5B918E000BF0126012531
:1042F0002079000620D451E004F1080003F00EFFFD
:1043000004E000BF04F1300003F080FF05462E46B4
:1043100025B1207900060FD440E000BFD8F8B400E2
:10432000D4F8B01020F4E00008430025C8F8B40029
:104330003E462079000631D5D4F8B4004FEA30600B
:10434000052809D8DFE800F0040E1404040400BFB7
:104350002F46A5B918E000BF012701256079C007E5
:1043600020D151E004F1080003F0D8FE04E000BFC2
:1043700004F1300003F04AFF05462F4625B160796D
:10438000C0070FD140E000BFD8F8B400D4F8B41093
:1043900020F0E06008430025C8F8B4003746607993
:1043A000C00731D0D4F8B8004FEA3070052809D8DA
:1043B000DFE800F0040E1404040400BF2E46A5B983
:1043C00018E000BF01260125A078000720D457E09F
:1043D00004F1080003F0A2FE04E000BF04F1300085
:1043E00003F014FF05462E4625B1A07800070FD430
:1043F00046E000BFD8F8B400D4F8B81020F0E04090
:1044000008430025C8F8B4003E46A078000737D519
:10441000D4F8C0004FEA304004280FD8DFE800F09D
:1044200004141A0A0A0000BFD8F8000040F4003053
:10443000C8F800002F46A5B918E000BF01270125E4
:10444000A078C00620D457E004F1080003F066FE0F
:1044500004E000BF04F1300003F0D8FE05462F460B
:1044600025B1A078C0060FD446E000BFD8F8C00040
:10447000D4F8C01020F4E02008430025C8F8C0009C
:104480003746A078C00637D5D4F8C4004FEAF040CC
:1044900004280FD8DFE800F004141A0A0A0000BF4D
:1044A000D8F8000040F40030C8F800002E46A5B946
:1044B00018E000BF01260125A078800620D447E03F
:1044C00004F1080003F02AFE04E000BF04F130000C
:1044D00003F09CFE05462E4625B1A07880060FD439
:1044E00036E000BFD8F8C000D4F8C41020F4601043
:1044F00008430025C8F8C0003E46A078800627D5AE
:10450000D4F8D000052809D802280FD02846ADB12C
:10451000D4E90012920520D42FE000BF012001252C
:10452000D4E90012920518D427E000BF04F1080076
:1045300003F0F4FD0546002D2846E9D1D8F8C00067
:10454000D4F8D01020F0070008430025C8F8C000B8
:104550003046D4E9001292050FD5D4F8D42042F0A9
:104560000803082B0ED1AA4645B9D8F8C03000255B
:1045700023F008031A43C8F8C0208246880106D4F5
:10458000504620E04FF0010A01258801F8D54FF68A
:104590000847CFF6FF7759F8070040F0010049F8C7
:1045A0000700FDF7D5FE064659F80700C00707D1FA
:1045B000FDF7CEFE801B0228F6D90320032502E07A
:1045C000002D284664D021684A011CD5D4F8C820A3
:1045D0006FF0010303EB3213022B0AD34FEA3213BD
:1045E0003BB1012B38D1D8F8003043F40033C8F880
:1045F00000302E4645B9D8F8C030002523F03003EE
:104600001A43C8F8C0200646480229D5D4F8CC0081
:10461000402809D0D0B9D8F8000040F40030C8F8DC
:1046200000002F46A5B906E004F1080003F076FD6E
:1046300005462F4665B9D8F8BC00D4F8CC1020F058
:10464000400008430025C8F8BC0009E00127012507
:10465000E078000709D481E0012601254802D5D47D
:104660003746E078000740F17980D4F8DC00042870
:1046700052D8DFE800F003575D090900D8F80000C0
:1046800040F40030C8F80000002D2E4657D15BE002
:10469000D8F8C80010F440701AD0D4F8F41001F41F
:1046A0004071884211D0D8F8C800D8F8C81020F45A
:1046B000407041F48031C8F8C810D8F8C81021F40F
:1046C0008031C8F8C810C8F8C800C00740F0FC81A5
:1046D000D4F8F400D9F800104FF6CF7300F440720C
:1046E00021F47C51C0F2FF0303EA1013B2F5407FBE
:1046F00008BF1943C9F80010D8F8C8106FF31F306D
:1047000021F44071C8F8C810D8F8C8100025084333
:10471000C8F8C80034E700BF01260125E078C006CC
:1047200020D457E004F1080003F0F8FC04E000BFD7
:1047300004F1300003F06AFD05462E4625B1E0780D
:10474000C0060FD446E000BFD8F8B800D4F8DC109B
:1047500020F0070008430025C8F8B8003E46E0787E
:10476000C00637D5D4F8E0004FEAF00004280FD88F
:10477000DFE800F004141A0A0A0000BFD8F80000AD
:1047800040F40030C8F800002F46A5B918E000BF7B
:1047900001270125E078800620D457E004F10800C5
:1047A00003F0BCFC04E000BF04F1300003F02EFD78
:1047B00005462F4625B1E07880060FD446E000BFBD
:1047C000D8F8B800D4F8E01020F0380008430025ED
:1047D000C8F8B8003746E078800637D5D4F8E4004A
:1047E0004FEAB01004280FD8DFE800F004141A0ACA
:1047F0000A0000BFD8F8000040F40030C8F80000FC
:104800002E46A5B918E000BF01260125E078400634
:1048100020D44AE004F1080003F080FC04E000BF6B
:1048200004F1300003F0F2FC05462E4625B1E07895
:1048300040060FD439E000BFD8F8B800D4F8E4102F
:1048400020F4E07008430025C8F8B8003E46E07840
:1048500040062AD5D4F8E8004FEA7020052809D888
:10486000DFE800F0040C1204040400BF2F46EDB989
:1048700011E000BF0127012518E000BF04F1080086
:1048800003F04CFC04E000BF04F1300003F0BEFC78
:1048900005462F4655B9D8F8B800D4F8E81020F4EA
:1048A000606008430025C8F8B80037462068B0F1BA
:1048B000FF3F05DD3E462079C00718D148E000BF24
:1048C000D4F8EC004FEA3030052800F2DB80DFE856
:1048D00010F00700E100E70007000700070000BF35
:1048E000002D2E4600F0E5802079C00730D0D4F8A6
:1048F000F0004FEAF030052808D8DFE800F0030D9B
:10490000130303032F46A5B918E000BF01270125B3
:104910002079800720D43BE004F1080003F0FEFB7F
:1049200004E000BF04F1300003F070FC05462F46A0
:1049300025B1207980070FD42AE000BFD8F8B8004D
:10494000D4F8F01020F4603008430025C8F8B8000F
:104950003746207980071BD5D4F8D800032800F209
:104960008380DFE800F00903850900BFD8F8000064
:1049700040F40030C8F800002E4655B9D8F8BC0005
:10498000D4F8D81020F0030008430025C8F8BC0074
:104990003E462079400722D5D4F8BC0058B1B0F586
:1049A000007F0BD0B0F5807F32D1D8F8000040F402
:1049B0000030C8F800002F4695B906E004F1080061
:1049C00003F0ACFB05462F4655B9D8F8C000D4F823
:1049D000BC1020F4407008430025C8F8C0003746DA
:1049E0002079C0062AD5D4F8FC00302809D0202828
:1049F00014D0102832D1D8F8000040F40030C8F8A4
:104A0000000095B1207900071CD42846BDE8F08746
:104A1000012701252079C006E5D40FE004F130001C
:104A200003F0F4FB0546002DECD1D8F8BC00D4F817
:104A3000FC1020F030000843C8F8BC003D46207947
:104A40000007E2D5D8F8C000D4F8F81020F0C00074
:104A50000843C8F8C0002846BDE8F0870125207942
:104A60000007D2D5EEE700BF0126012591E700BF80
:104A700004F1080003F052FB0546002D2E467FF49A
:104A800088AF7BE7012601252079C0077FF42FAF8F
:104A90005EE700BF04F1080003F040FB04E000BF44
:104AA00004F1300003F0B2FB0546002D2E467FF4E2
:104AB0001BAFD8F8B800D4F8EC1020F4E04008435D
:104AC0000025C8F8B800F5E6FDF742FC064641F2BD
:104AD00088370325D8F8C80080073FF5F9ADFDF702
:104AE00037FC801BB8424FF00300F3D96BE50000A0
:104AF0002DE9F04381B0002800F0CD8042F200089B
:104B0000C4F202080446D8F800000D4600F00F0079
:104B100088420DD2D8F8000020F00F002843C8F8D2
:104B20000000D8F8000000F00F00A84240F0B38069
:104B3000206840F62047C106C4F202470CD56169DF
:104B40003A68702303EA1222914205D93A6822F4A6
:104B5000E04242EA0121396001070CD521693A6837
:104B6000702303EA1212914205D93A6822F4E062F6
:104B700042EA0111396041070AD5E1683A6802F05A
:104B80007002914204D93A6822F0700211433960F0
:104B900081070AD5A1683A6802F00F02914204D950
:104BA0003A6822F00F0211433960C00768D12068CB
:104BB00081070AD5A1683A6802F00F02914204D237
:104BC0003A6822F00F0211433960D8F8001001F062
:104BD0000F01A9420CD9D8F8001021F00F01294388
:104BE000C8F80010D8F8001001F00F01A94252D106
:104BF00041070AD5E1683A6802F07002914204D296
:104C00003A6822F070021143396001070CD521691E
:104C10003A68702303EA1212914205D23A6822F4EC
:104C2000E06242EA01113960C0060CD5606939685A
:104C3000702202EA1121884205D2396821F4E0414C
:104C400041EA0020386000F031F939684DF29012E5
:104C500001F00F01C0F60002525C40F20401C2F202
:104C60000001096840F2080320FA02F2C2F20003D0
:104C700008461A6001B0BDE8F043FDF7BDBB00BFB8
:104C8000606801280CD002285ED0032862D157F852
:104C9000201C890108D4012001B0BDE8F08300BFC9
:104CA00057F8201C8905F6D557F8041C21F003019C
:104CB000084347F8040CFDF74BFB616806460329DF
:104CC00041F288392BD0022937D0012910D100BFF9
:104CD00057F8040C00F0180008283FF468AFFDF7FF
:104CE00037FB801B48454FF00300F1D90DE000BFB2
:104CF00057F8040C10F0180F3FF459AFFDF728FBDC
:104D0000801B48454FF00300F2D901B0BDE8F083A5
:104D1000FDF71EFB801B48454FF00300F5D857F800
:104D2000040C00F018001828F2D140E7FDF710FB42
:104D3000801B48454FF00300E7D857F8040C00F0FB
:104D400018001028F2D132E757F8201C8903A2D5A9
:104D5000AAE700BF57F8201C89079CD5A4E70000EC
:104D60001F22026040F61C42C4F2024213684FF058
:104D7000700C03F003034360526802F00F0383607A
:104D800002F07003C3600CEA12130CEA1222C0E9AD
:104D9000043242F20000C4F20200006800F00F008A
:104DA0000860704780B500F081F840F62041C4F2F9
:104DB000024109684DF2901201F00F01C0F60002A5
:104DC000515C01F01F01C84040F20801C2F200012D
:104DD000086080BD80B500F069F840F62041C4F25B
:104DE00002410A684DF2901302F00F02C0F6000370
:104DF0009A5C02F01F02D04040F20802C2F20002A8
:104E0000106009684DF2A012C1F30211C0F6000251
:104E1000515C01F01F01C84080BD000080B500F06A
:104E200045F840F62041C4F202410A684DF2901361
:104E300002F00F02C0F600039A5C02F01F02D0409D
:104E400040F20802C2F20002106009684DF2A0129E
:104E5000C1F30221C0F60002515C01F01F01C840FD
:104E600080BD000080B500F021F840F62041C4F27A
:104E700002410A684DF2901302F00F02C0F60003DF
:104E80009A5C02F01F02D04040F20802C2F2000217
:104E9000106009684DF2A012C1F30231C0F60002A1
:104EA000515C01F01F01C84080BD000080B540F694
:104EB0000041C4F20241C86900F01800082802BF8E
:104EC00040F60010C0F23D0080BDC86910F0180F18
:104ED00034D0C86900F01800102802BF41F2002049
:104EE000C0F27A0080BDC86900F01800182849F2A5
:104EF0000000C0F2D03066D1D1F828E08A6AC2F34F
:104F0000052C8A6A8B6BBCF1000F04BF002080BDAA
:104F1000C2F30012C3F3CC0303FB02F200EE102A2B
:104F20000EF00302B8EE400A032A15D0012A17D169
:104F30000A68920618D49FED251A1DE008688006BD
:104F400049F20000C0F2D03058BF80BD0968C1F3FB
:104F5000C101C84080BD00BF9FED1B1A0CE000BF1F
:104F60009FED1B1A08E000BF0A68C2F3C102D040DF
:104F700001EE100AB8EE411A02EE10CA486BB8EE04
:104F8000422A6FF35F2081EE021A02EE100A9FEDB3
:104F9000113AB8EE422A20EE030A486B30EE020ABC
:104FA000B7EE002AC0F3462030EE020A013021EEAF
:104FB000000A01EE100AB8EE411A80EE010ABCEEBA
:104FC000C00A10EE100A80BD0024F44A0024744C7C
:104FD0000024744A000000392DE9F04381B0002814
:104FE00000F0328140F6004740F6F0490446C4F232
:104FF0000247C4F20249F86959F8C81C227800F047
:105000001808D00601F0030629D5B8F1080F1BD007
:10501000B8F1180F08BF022E16D0E16938680029D0
:1050200000F0828140F480703860FDF791F9054608
:10503000386880050CD4FDF78BF9401B02284FF02F
:105040000300F5D97AE200BFE069002800F0FC8097
:10505000B869216A20F47C1040EA0140B8612078E8
:10506000C00717D0B8F1100F10D0B8F1180F08BF53
:10507000032E0BD06068B0F5A02F61DA002800F095
:10508000BD81B0F5803F00F0DD81DFE16068002880
:1050900000F0DA802078800777D5B8F1000F21D0B2
:1050A000E068B8F1180F08BF012E57D03968002802
:1050B00000F08081206921F01801084338603868C9
:1050C00040F001003860FDF743F905463868800775
:1050D00054D4FDF73DF9401B02284FF00300F5D9E9
:1050E0002CE200BFE068002800F0AE80396820693B
:1050F00001F01801814233D0396821F018010843CA
:105100003860FFF7D3FE396A4DF2901201F00F01BB
:10511000C0F60002515C40F2080201F01F0120FAC3
:1051200001F140F20400C2F200000068C2F2000285
:105130001160FDF761F9002840F0868010E000BFA3
:1051400000F07881B0F5A81F40F08081386840F405
:1051500080203860386840F4801072E1002873D0F5
:10516000FDF7F6F8054600BF3868800706D4FDF75E
:10517000EFF8401B0228F7D97FE000BF386961696A
:1051800020F4FE0040EA01403861207800075FD437
:105190002078400776D42078800600F19780A56AB1
:1051A000002D00F03A82B8F1180F40F0E18059F874
:1051B000C81C59F8BC0C012D46D0E26A01F003036B
:1051C000934241D1C1F30521226B91423CD1626BE4
:1051D00001466FF35F21013A914235D1A16BC0F3D3
:1051E000462201398A422FD1E16BC0F306420139D0
:1051F0008A4229D1216CC0F306600139884223D14B
:1052000059F8B80CE16CC0F3CC00884200F005827C
:1052100059F8C80C20F0100049F8C80CFDF798F8B0
:105220000546FDF795F8A842FBD0E06CC00049F8B0
:10523000B80C59F8C80C40F0100049F8C80C002010
:1052400001B0BDE8F08300BF012001B0BDE8F083EC
:10525000A169D9F80000002950D040F08060C9F859
:105260000000FDF775F80546D9F8000000018FD45D
:10527000FDF76EF8401B0228F6D9032001B0BDE807
:10528000F08300BF4FF62446CFF6FF76B859C0072B
:1052900012D1B85940F00100B851FDF759F8054650
:1052A000B859C00708D1FDF753F8401B02284FF04A
:1052B0000300F5D942E100BFA068042846DC0028BD
:1052C00000F0E080012800F00F8113E1616A386886
:1052D000002900F0818040F480503860FDF738F8F4
:1052E000054600BF386880043FF559AFFDF730F838
:1052F000401B02284FF00300F4D91FE120F080602A
:10530000C9F80000FDF724F8054600BFD9F80000F1
:1053100000017FF53DAFFDF71BF8401B02284FF061
:105320000300F3D90AE100BF20F480703860FDF774
:105330000FF80546386880057FF591AEFDF708F84F
:10534000401B02284FF00300F4D9F7E0052800F0D5
:10535000BF80852840F0CE80D9F8000040F00400DE
:10536000C9F80000D9F8000040F08000BAE000BFA2
:10537000386820F080703860FCF7EAFF022D05469F
:105380000CD100BF3868800140F1DC80FCF7E0FF01
:10539000401B02284FF00300F4D9CFE038688001A9
:1053A00040F13281FCF7D4FF401B02284FF003008C
:1053B000F4D9C3E021F001003860FCF7C9FF0546CD
:1053C000386880077FF5E1AEFCF7C2FF401B02287A
:1053D0004FF00300F4D9B1E020F480503860FCF7BE
:1053E000B7FF0546386880047FF5D9AEFCF7B0FFFB
:1053F000401B02284FF00300F4D99FE0386820F4E6
:1054000080303860386820F480103860386820F4C4
:1054100080203860FCF79CFF054600BF3868800399
:105420007FF538AEFCF794FF401B64284FF0030073
:10543000F4D983E0386840F480203860386820F47C
:1054400080103860386840F480300AE0386820F412
:1054500080303860386820F480203860386820F464
:1054600080103860FCF774FF054600BF3868800381
:105470003FF510AEFCF76CFF401B64284FF00300B3
:10548000F4D95BE0D9F8000020F00100C9F8000071
:10549000D9F8000020F08000C9F80000D9F8000019
:1054A00020F00400C9F80000FCF752FF054641F265
:1054B000883600BFD9F8000080077FF56CAEFCF796
:1054C00047FF401BB0424FF00300F3D936E000BF66
:1054D000D9F8000040F00400C9F80000D9F8000035
:1054E00020F08000C9F80000D9F8000040F0010069
:1054F00010E000BFD9F8000020F00100C9F800005A
:10550000D9F8000020F00400C9F80000D9F8000024
:1055100020F08000C9F80000FCF71AFF054641F2B0
:10552000883600BFD9F8000080073FF534AEFCF79D
:105530000FFF401BB0424FF00300F3D901B0BDE8AC
:10554000F08300BF59F8C80C43F6037104F12C0333
:1055500088430ECB084340EA0220A16B49F8C80CEF
:105560004FF47E4202EB4121E26B581E4FF4FE03E2
:1055700089B203EB02426FF35F20084402F4FE019C
:10558000226C4FF0FE4303EB0262084402F0FE413E
:10559000084449F8BC0C59F8C80C20F0100049F830
:1055A000C80CE06CC00049F8B80C59F8C80C40F0C1
:1055B000100049F8C80C59F8C80C616C20F00C00B8
:1055C000084349F8C80C59F8C80CA16C20F0200019
:1055D000084349F8C80C59F8C80C40F4803049F821
:1055E000C80C386840F080703860FCF7B1FE0446A3
:1055F0003868800111D4FCF7ABFE001B02284FF085
:105600000300F5D99AE700BF59F8C80C4FF6FC71B2
:10561000CFF6F871084049F8C80C002001B0BDE889
:10562000F083000091E80510CB68104347F61C0298
:10563000C4F200421060886943EA0C02104347F646
:105640002042C4F2004250601068D1E9043120F0D9
:10565000FF10184340EA014100201160704700002C
:1056600010B547F60400C4F200400068C0F3042EF1
:10567000C0F342344FEA104300F03F0CCB7081F886
:1056800001E081F802C00C7012B1002010BD00BF13
:10569000C0F3035203F00F0302EB820203EB42025A
:1056A000030ACA704FEA1E1242EA820203F00F0395
:1056B00003EB42024FEA1C1343EA830300F00F009E
:1056C00000EB43004A708870002010BD10B547F60B
:1056D0000000C4F2004083684B60C36803F4407369
:1056E000B3F5807F13D003696FF3DF338B600068FD
:1056F000C0F30543C0F3062EC0F3805400F07F0CC6
:105700000B7081F801E081F802C0CC7012B100206A
:1057100010BD00BF1B09020C43EA830302F00F0215
:1057200002EB4302030A0A704FEA1E1202EB8202E6
:1057300003F00F0303EB42024FEA1C1303EB830356
:1057400000F00F0000EB43004A708870002010BD8D
:1057500070B5002804BF012070BD044690F82D00EC
:1057600028B9002084F82C00204600F067F80220B9
:1057700047F60C06C4F2004684F82D003068C006D7
:1057800056D4306800F44070B0F5807F50D0CA2005
:10579000B0615320B061306840061BD4306840F0DF
:1057A00080003060FCF7D4FD3168490612D405460C
:1057B000FCF7CEFD3168401BB0F57A7F01F0400068
:1057C00002D80028F4D005E020B9032084F82D0089
:1057D00031681EE0F0684FF6BF71CFF68F31084098
:1057E000F060231D22690BCB43EA01411043A269FB
:1057F000F56810432843F06071603068D4E90912FD
:1058000020F4F850084310433060204602F03CFF7B
:1058100010B1FF21B16170BDF068D4E9073220F00A
:1058200060406169104318430843F060FF20B06195
:10583000012084F82D00002070BD000010B5C4B018
:10584000044602A808304FF48071FBF70CF820687A
:1058500047F60001C4F20041884201D044B010BDB7
:10586000002003904FF0007002904FF400703F90C2
:1058700002A8FEF7F5F8002818BFFBF767FF40F60F
:10588000A840C4F20240816C41F400418164016887
:1058900041F400110160006800F4001001900198CB
:1058A00044B010BDF0B581B0044690F82C0001283A
:1058B0004FF0020000F09580012384F82C3084F82A
:1058C0002D005AB14878CB7800028A7840EA03402C
:1058D0000978104440EA413749E000BF48784CF667
:1058E000CD4EC20642BF00F0EF000A304870CB78C0
:1058F000CCF6CC4EA3F10A07FAB2A2FB0E25EA08B9
:1059000002EB820291F800C0A7EB4202012707EBED
:10591000D505092B88BF42EA0513DAB2A0F10A03C4
:10592000DDB2A5FB0E56F50805EB85058978A3EBDE
:10593000450307EBD605092888BF43EA0510A1F106
:105940000A03DDB2A5FB0E651204EE0806EB86061F
:1059500042EA4C32C0B2A3EB460307EBD507092954
:1059600088BF43EA071142EA0020C9B2471847F648
:105970000C06C4F20046CA20B0615320B061306802
:1059800040061DD4306840F080003060FCF7E0FC39
:105990003168490614D40546FCF7DAFC3168401B2F
:1059A000B0F57A7F01F0400002D80028F4D007E07B
:1059B00030B9032084F82D003168FF21B1610DE07A
:1059C00027F0C00046F8080C204602F05DFEFF21DB
:1059D000B16118B9012084F82D000020002184F85D
:1059E0002C1001B0F0BD00002DE9F041044690F804
:1059F0002C0001284FF0020008BFBDE8F0810D46E1
:105A0000012147F60C0684F82C1084F82D00C4F20E
:105A10000046CA20B0615320B0613068904640060D
:105A200022D4306840F080003060FCF791FC31688F
:105A3000490619D4074600BFFCF78AFC3168C01B31
:105A4000B0F57A7F01F0400002D80028F4D00BE0D6
:105A500050B9032084F82D003168FF21B161002185
:105A600084F82C10BDE8F081306800F44070B0F587
:105A7000807F68D0F068B8F1000F00F0400003D0DC
:105A800040B90020E87007E070B94FF0000C85F8CD
:105A900003C00CE0E87880056A7829781202AB78B8
:105AA00042EA0141CA1842E0E8784FEA805C2B786C
:105AB0004CF6CD4EA3F10A07F9B2CCF6CC4EA1FBC1
:105AC0000E10C10801EB81086A78A978A7EB480598
:105AD0004FF0010808EBD000092B88BF45EA0013FE
