:020000040800F2
:10000000A8690020610200080D6B00082B48000859
:100010005D69000869150008E98700080000000014
:10002000000000000000000000000000A101000826
:100030007517000800000000FD010008DD7E0008C3
:100040007B0200087B0200087B0200087B0200089C
:100050007B0200087B0200087B0200087B0200088C
:100060007B0200087B0200087B0200087B0200087C
:100070008916000895160008A1160008AD1600089C
:100080007B0200087B0200087B0200087B0200085C
:100090006D1500087B0200087B0200087B02000847
:1000A0007B0200087B0200087B0200087B0200083C
:1000B0007B0200087B0200087B0200087B0200082C
:1000C0007B0200087B0200087B0200087B0200081C
:1000D0007B020008C5870008D1870008DD8700087B
:1000E0007B0200087B0200087B0200087B020008FC
:1000F0007B0200087B0200087B0200087B020008EC
:100100007B0200087B020008A17F00087B02000838
:10011000DD820008E9820008ED7F00087B0200080C
:100120007B0200087B020008B91600087B02000869
:100130007B0200087B0200087B0200087B020008AB
:10014000791500087B0200087B0200087B0200088A
:100150007B0200087B020008C51600087B0200082D
:100160007B0200087B0200087B0200087B0200087B
:100170007B0200087B0200087B02000800000000F0
:100180007B0200087B020008DFF810D000F0EAFED6
:100190000048004739C50008AFF30080A869002077
:1001A0002C4B19680868B0E8F04F80F30988BFF35A
:1001B0006F8F4FF0000080F311887047000000003F
:1001C00008480068006880F308884FF0000080F35A
:1001D000148862B661B6BFF34F8FBFF36F8F00DF35
:1001E00000BF00BF08ED00E0DFF80C00016841F43B
:1001F00070010160704700BF88ED00E0EFF30980F7
:10020000BFF36F8F134B1A681EF0100F08BF20ED5D
:10021000108A20E9F04F106009B44FF0500080F3CD
:100220001188BFF34F8FBFF36F8F10F013FD4FF0A6
:10023000000080F3118809BC19680868B0E8F04F25
:100240001EF0100F08BFB0EC108A80F30988BFF3CE
:100250006F8F704704010020EFF3058070470000A6
:100260000648804706480047FEE7FEE7FEE7FEE750
:10027000FEE7FEE7FEE7FEE7FEE7FEE7917F000808
:10028000890100082DE9F05F0546002092469B4653
:1002900088460646814640241BE02846414647469C
:1002A000224600F0A0FC53465A46C01A914110D392
:1002B00011461846224600F087FC2D1A67EB01080C
:1002C0004F4622460120002100F07EFC17EB00097A
:1002D0004E41201EA4F10104DFDC484631462A4687
:1002E0004346BDE8F09FA0F14101192900D8203014
:1002F000704740EA01039B0703D009E008C9121FB9
:1003000008C0042AFAD203E011F8013B00F8013BCF
:10031000521EF9D27047D2B201E000F8012B491EFB
:10032000FBD270470022F6E710B513460A46044692
:100330001946FFF7F0FF204610BD421C10F8011BC4
:100340000029FBD1801A704710B5002200E0521C32
:10035000835C8C5CA34201D1002BF8D1D8B2E1B20E
:10036000401A10BD30B504460020034600E05B1C77
:10037000934203D2E05CCD5C401BF8D030BD30B579
:1003800005460020034600E05B1C934205D2EC5C6E
:10039000C85C201A01D1002CF6D130BD0FB400B5D5
:1003A0008DB010A909900B9000914FF0FF300A908A
:1003B00000200C9005480690054807906A4609A859
:1003C0000F9900F047FC0DB05DF814FB710C0008AC
:1003D0008F0C00082DE9FF5F1D464FF0FF3BD5E96C
:1003E000014691465F464FF00008A9697F1C0198BD
:1003F0008847296A824688470028F6D1BAF1FF3F2C
:100400000CD024F4C064002E19DD600614D5BAF1B6
:100410002B0F09D0BAF12D0F0ED103E0584604B0CE
:10042000BDE8F09F44F48064A9697F1C0198884767
:10043000761E8246002E02DDBAF1300F03D0B9F1EC
:10044000000F26D032E0A969761E44F400747F1CA8
:10045000019888478246002E05DDBAF1780F06D054
:10046000BAF1580F03D0B9F1000F10D01EE0B9F166
:10047000000F02D0B9F1100F18D1A969761E24F42B
:1004800000747F1C019888478246102002E00820F3
:1004900000E00A20814609E008FB0908A969761EE8
:1004A00044F400747F1C019888478246002E05DDC5
:1004B0004946504600F0B9FB0028EDDAE969019899
:1004C0008847A00502D46FF00100A8E7E00725D116
:1004D000600613D5600502D5C8F1000000E0404673
:1004E00029680A1D2A600968220501D5087015E0EF
:1004F000220701D5088011E008600FE02868011D7F
:1005000029600068210502D580F8008006E02107F7
:1005100002D5A0F8008001E0C0F8008038467EE7F0
:100520002DE9FF4F087883B09946FF2805D0491C74
:100530002D2804D00024002008E000200BE0012436
:10054000F9E700EB800003EB4000491C0B78FF2B20
:10055000F7D104B1404200230293147819461D4696
:100560002D2C01D02B2C04D1521C2D2C13D0002467
:100570000294AA461478FF2C0FD00A25A3FB057815
:1005800001FB05814FF0000C03FB0C11521CE31919
:100590004AEB0101EEE70124EAE7814453EA010056
:1005A00002D019F5C87F06DA03980021C0E90011CE
:1005B00007B0BDE8F08F0025AE4E2F46DFF8B882B9
:1005C000184600F08FFCCDE90001B9F1000002DA15
:1005D000C9F1000400E004460023A74A1AEB030B0C
:1005E00042EB045A12E0E00707D02A463346384669
:1005F000414600F0ECF9074688462A463346104645
:10060000194600F0E4F905460E466410002CEAD1C4
:10061000DDE90001B9F1000F5A46534606DA00F051
:10062000F2FB3A46434600F0EEFB05E000F0CFF95E
:100630003A46434600F0CBF9029A0AB181F00041F4
:10064000039AC2E90001B3E72DE9FF4F1F468DB0C1
:10065000D7E901464FF0FF382E2045464FF00009FC
:100660000B90B9696D1C0E988847396A8246884795
:100670000028F6D1BAF1FF3F0AD024F4D064002E4E
:1006800011DDBAF12B0F08D0BAF12D0F0BD102E01A
:10069000404611B08DE744F48064B9696D1C0E9832
:1006A00088478246761E6946600501D52D2000E008
:1006B0002B208DF8000001F1010B0DF1200809E05D
:1006C000B9696D1C0E98884782460F9844F40074EF
:1006D000761E0560002E02DDBAF1300FF0D00B99C6
:1006E0008A453ED144F0800406E00F99681CA9F1C8
:1006F000010944F400740860B9696D1C761E0E98F7
:10070000884782463028F0D02BE00B998A4505D1E6
:10071000200603D444F08004761E18E0504609F009
:1007200047FD08B30DF11301761E44F400748B45A8
:1007300008D2AAF130000BF8010B200607D5A9F169
:10074000010003E0200602D409F101008146A00562
:1007500002D50F99681C0860B9696D1C0E9888470E
:100760008246002ED1DC53E0002E51DDBAF1650F38
:1007700002D0BAF1450F4BD1A00549D5B9696D1C1E
:1007800024F44074761E0E9888478246002E0CDDB5
:100790002B2804D0BAF12D0F07D144F48074B96925
:1007A0006D1C0E9888478246761EE00501D52D21E6
:1007B00000E02B2108F8011BCDF82C8021E00DF181
:1007C0002901761E44F4007488450CD2AAF1300049
:1007D00010F0FF0088F8000002D10B99884509D974
:1007E00008F1010806E0E00501D5244801E042F2E5
:1007F0000F708146B9696D1C0E98884782460F9824
:100800000560002E04DD504609F0D2FC0028D6D148
:10081000F9690E988847FF208BF8000088F80000DF
:100820000020069007904B466A4608A906A8FFF7E5
:1008300077FEA00502D46FF001002AE714F0240F20
:100840000AD0E00714D1DDE906123868031D3B60C9
:100850000068C0E900120BE0DDE9060100F066FB6C
:100860000146E00704D13868021D3A600068016063
:1008700028460EE7000014400000F03FF1D8FFFFCB
:100880002DE9FE4F804681EA0300C00F0C46009020
:1008900021F0004123F00045B8EB0200A94105D248
:1008A0004046214690461C460B46024623F0004037
:1008B000104347D0270DC7F30A00C3F30A51029033
:1008C000401A019040286BDAC3F3130040F4801BF8
:1008D0000098924620B10023D2EB030A63EB0B0B86
:1008E00001985946C0F14002504600F06DF90646A5
:1008F0000D4650465946019A00F085F910EB080064
:100900006141002487EA115284EAE7731A4340D018
:10091000009A62B3019A012A4FEA075215DC001BC4
:1009200061EB02014FF0004202EA0752CDE90042BA
:10093000001C41F5801132462B4600F016FA03B038
:10094000BDE8F08F40462146F9E7001B61EB02014C
:10095000001C41F5801300185B412018A2F5001718
:1009600047EB030140EAD570B6196D4111E06D08FF
:100970004FEA360645EAC0754FEA0752001B61EBA5
:100980000201001C41F5801149084FEA30000019AE
:10099000514132462B4603B0BDE8F04F00F0D6B9C6
:1009A0000098012240000023D0EB020263EBE073C9
:1009B000009821464FEAE074B8EB000061EB0401B7
:1009C000E9E783F000435BE781F0004158E72DE958
:1009D000FE4F81EA030404F0004421F0004100943A
:1009E0004FF0000B23F0004350EA01045ED052EABE
:1009F00003045BD0C3F30A54C1F30A552C44A4F298
:100A0000F3340194A0FB0254C1F3130141F48011AB
:100A1000C3F3130343F4801301FB024400FB034EB2
:100A2000840A970A44EA815447EA8357A4FB07687B
:100A300002958D0A05FB07854FEA932C04FB0C54A5
:100A40002705029D4FEA065847EA1637B5EB080519
:100A50006EEB070C870E920E47EA811742EA83126B
:100A6000A7FB0201B6EB0B0164EB00042B0D43EA7C
:100A70000C335E1844EB1C50DA465146E7FB02018A
:100A8000C5F313044FEA0B3343EA14534FEA04321D
:100A9000019C43EA0603A4F10C040294009CCDE9F6
:100AA00000B400F062F903B0BDE8F08F0020014609
:100AB000F9E70EB540F2334102910021CDE9001172
:100AC0000A460B4600F051F903B000BD70B5C1F302
:100AD0000A5201F000450024C1F3130140F2FF3334
:100AE00041F480119A4201DA002070BD40F2334394
:100AF0009A42A2F2334203DC524200F074F800E062
:100B000090402C43F1D0404270BDC1F30A5210B561
:100B1000C1F3130140F2FF3341F480119A4201DA2C
:100B2000002010BD40F233439A42A2F2334203DC6C
:100B3000524200F058F810BD904010BD30B5041E70
:100B400071F1000404DB4FF00044404264EB01010A
:100B5000141E73F1000405DB1C464FF000435242A3
:100B600063EB04038B4208BF824230BD30B5041EE4
:100B700071F1000404DB4FF00044404264EB0101DA
:100B8000141E73F1000405DB1C464FF00043524273
:100B900063EB0403994208BF904230BD30B50B4669
:100BA000014600202022012409E021FA02F59D429D
:100BB00005D303FA02F5491B04FA02F52844151E71
:100BC000A2F10102F1DC30BD202A04DB203A00FA58
:100BD00002F1002070479140C2F1200320FA03F394
:100BE000194390407047202A04DB203A21FA02F092
:100BF0000021704721FA02F3D040C2F12002914057
:100C0000084319467047202A06DBCB17203A41FAE1
:100C100002F043EAE07306E041FA02F3D040C2F189
:100C2000200291400843194670473A2800D23038D4
:100C300020F02002412A01D3A2F13700884201D3DB
:100C40004FF0FF30704700000268114413780160D4
:100C500018467047D160044951610449116200216E
:100C60001161114600F096B9490C0008890F00087F
:100C7000426842B1016811F8013B23B1521EC0E93C
:100C80000012184670470121C160881E70474268F3
:100C90005AB1C368016843B983688B4205D0491EC5
:100CA000521CC0E90012002070474FF0FF3070471F
:100CB0000FB4002300B589B00CA900910B996FF017
:100CC0000042CB601E4B06931E4B07930423CDE9D5
:100CD00001321D4A089202466B460020FFF7B4FC21
:100CE00009B05DF814FB70B586B006464FF0FF30D2
:100CF0000091CDE90101002015460C4604903246D2
:100D0000694604A8FFF7D4FF02460498211825B1CC
:100D100008B1084600E020462860049800280DD05D
:100D2000002A02DD0098884208D0081B0094CDE913
:100D300001043246694604A8FFF7BAFF06B070BD49
:100D4000710C00088F0C0008890F000810B5141EE4
:100D500073F1000408DA401C41F1000192185B4174
:100D60001A4301D120F0010010BD2DE9F04D92464B
:100D70009B4611B1B1FA81F202E0B0FA80F2203262
:100D80009046FFF721FF04460F4640EA0A0041EA79
:100D90000B0153465A46084313D0114653EA01004B
:100DA00019D0C8F140025046FFF71DFF05460E4618
:100DB000504659464246FFF707FF084305D0012039
:100DC00004E020463946BDE8F08D0020054346EAA0
:100DD000E0762C4337430A986305E40AA0EB080049
:100DE0000022FD0A44EA47540A3002D50020014699
:100DF000E9E7010510196941DDE908450019694174
:100E0000BDE8F04DA2E72DE9F04D81EA030404F0BE
:100E1000004B21F0004514464FF0000A23F000413A
:100E200050EA050220D054EA01021DD0C5F30A574A
:100E30000246C5F31303C1F31300C1F30A5640F48D
:100E4000801543F48013A7EB0608101BD64608F262
:100E5000FD3873EB050002D308F1010801E0921898
:100E60005B41B8F1000F03DA00200146BDE8F08DC8
:100E700000204FF48011064684460EE0171B73EBEA
:100E8000050705D3121B63EB050306434CEA010C6F
:100E900049084FEA300092185B4150EA0107EDD152
:100EA00052EA030012D082EA040083EA05010843F3
:100EB00005D0101BAB4106D20122002306E0002220
:100EC0004FF0004302E06FF0010253101AEB0600EE
:100ED0004CEB085110EB0A0041EB0B01BDE8F04D63
:100EE000FFF734BF0EB540F2334202920022CDE943
:100EF00000221346FFF739FF03B000BDC1F30A52C9
:100F0000C1F3130140F2FF3341F480119A4202DA37
:100F100000200146704740F233439A42A2F2334226
:100F200002DC5242FFF75FBEFFF74EBE01F0004306
:100F300030B421F0004150EA010206D00A0DA2F5BA
:100F40006072C1F31301002A02DC30BC002070473C
:100F5000440F44EAC104C100E01830BC00EBC250A9
:100F600000F0B0B9064C074D06E0E06840F0010320
:100F700094E8070098471034AC42F6D3FFF708F91D
:100F8000E42C0108042D0108C0B24FF4F05100F028
:100F9000D1B900002DE9F34F8BB04FF0000801F1FB
:100FA0000C000C464FF0010B46460DF1080A01906B
:100FB0006269012101989047051E2DD0252D2CD066
:100FC000216A8847C0B16269012101989047216A6E
:100FD00088470028F7D1411E62690198904700E0D8
:100FE000761CA1690B988847216A88470028F7D1A9
:100FF000E1690B988847DBE7A1690B9888470746AA
:10100000A84201D1761CD3E7E1690B9888477F1C81
:1010100002D1B8F1000F6FD047E1002762693D4669
:101020003946019890472A2804D162690121019824
:1010300090470125DFF88892626901210198904765
:10104000A0F130010A290AD24F45E5DC07EB870100
:1010500000EB4107303FDFD445F01005ECE7E9062F
:1010600001D46FF000476C280AD04C2814D06828AF
:1010700015D06A280DD074281CD07A281AD01DE00B
:1010800062690121019890476C2802D045F004055F
:1010900014E045F002050DE045F020050AE0626924
:1010A000012101989047682802D045F0080505E025
:1010B00045F400656269012101989047C4E9015730
:1010C00065283DD019DC58287AD00CDC452837D06B
:1010D00004DC252826D0412831D131E046282FD004
:1010E00047282CD12CE05B2877D0612828D06328B2
:1010F0007CD0642823D15AE0D1E06F2848D008DCA6
:1011000066281DD067281BD0692821D06E2816D1EB
:1011100027E0702845D0732868D0752847D07828F4
:101120000DD14DE0A1690B988847054625283FF46D
:1011300069AFE1690B9888476D1C3FF46AAFB4E072
:1011400023466A466FF001000B99FFF77DFA9FE096
:1011500045F040006060A80723464FF0000236D4F7
:101160003EE0E8077FF447AF2068011D216000687A
:10117000290501D506701BE7290701D5068017E769
:10118000A90703D5F117C0E9006111E706600FE771
:1011900045F040006060A80723464FF0080216D4CF
:1011A0001EE040F60E0125EA0100606016E045F001
:1011B00040006060A80723464FF00A0207D40FE002
:1011C00045F040006060A80708D5234610226FF064
:1011D00001000B99AFF300805AE007E0234610228C
:1011E0006FF001000B99FFF7F5F851E04FF000099F
:1011F0004F464B46632802D05B2807D041E0207958
:10120000C00601D40120A06001273AE062690121F3
:10121000019890475E2805D14FF00109626949465F
:1012200001989047216939B900210A46534643F88D
:101230002120491C0829FADBB0B3216969B9C1171B
:1012400000EBD16253110AEB830122F01F02821AD4
:1012500001200B68904003430B60626901210198F3
:1012600090475D28E8D1B9F1000F09D00020514620
:1012700051F82020D24341F82020401C0828F7DBF9
:1012800002AB224600976FF001000B99AFF300808C
:1012900000280CDA401C08D1BBF1000F05D04FF03C
:1012A000FF300DB0BDE8F08FFFE74046F9E7E907F2
:1012B00001D108F1010806444FF0000B78E6000068
:1012C000CCCCCC0C0029A8BF7047401C490008BFFB
:1012D00020F00100704710B4B0FA80FC00FA0CF066
:1012E00050EA010404BF10BC704749B1CCF120049E
:1012F00021FA04F411FA0CF118BF0121214308432B
:10130000A3EB0C01CB1D4FEA00614FEA102042BF56
:10131000002010BC704700EBC35010440029A4BF4C
:1013200010BC7047401C490008BF20F0010010BCF1
:10133000704700007F2801D9002208E0064A02EB2E
:101340005002C007127800D1120902F00F020120EA
:101350009040084070470000CA29010870B58C18F9
:1013600010F8015B15F0070301D110F8013B2A11B9
:1013700006D110F8012B03E010F8016B01F8016BA6
:101380005B1EF9D12B0705D40023521E0DD401F8A2
:10139000013BFAE710F8013BCB1A921C03E013F86B
:1013A000015B01F8015B521EF9D5A142D8D30020A0
:1013B00070BD0000464910B54A6822F440324A60C8
:1013C0004A6843681A434A6001684A6822F4807296
:1013D0004A6001684A68036942EA03224A60016878
:1013E0004A6822F040724A6001684A6883681A437A
:1013F0004A6001688A6822F400628A6001688A682B
:10140000C3681A438A60816A6FF07062D1420168D2
:101410008A6822F070628A6001688A680CD0836AE8
:101420001A438A6001688A6822F040528A60016823
:101430008A68C36A1A4301E022F040528A60016858
:101440008A6822F002028A6001688A68037E42EAA2
:1014500043028A6090F82010002901684A680FD082
:1014600042F400624A6001684A6822F460424A60BD
:1014700001684A68174C436A04EB43331A4301E09E
:1014800022F400624A600168CA6A22F47002CA62E9
:101490000168CA6A838B104C04EB03531A43CA6277
:1014A00001688A6822F400728A6001688A6890F88C
:1014B000303042EA43228A6001688A6822F48062FE
:1014C0008A6001688A68406942EA8020886010BDAD
:1014D0000023014000E0FFFF0000F0FF0122910225
:1014E000014801F072BC00000010024001225102CC
:1014F000014801F06ABC0000001002400122110204
:10150000014801F062BC00000010024001220421E9
:10151000014801F05ABC0000001002400122D10233
:10152000014801F052BC00000010024010B5FFF766
:10153000E5FF4FF49674204601F038FBFFF7D6FF25
:10154000204601F033FBFFF7C9FF204601F02EFBD8
:10155000FFF7E4FF204601F029FBFFF7D7FF204605
:10156000BDE8104001F022BBFEE70000014800F09A
:1015700086BE00007C150020014800F080BE0000FF
:10158000A415002010B54FF48071044801F018FC38
:1015900008B1002010BD012010BD0000000802406D
:1015A00010B54FF48051044801F00AFC08B1002046
:1015B00010BD012010BD00000000024030B4D0F882
:1015C000A020D0F8A4404FF0FF3352F8212024F897
:1015D0001130C2F307420121831883F8B410D0F808
:1015E000B03030BC114618472DE9F04F9946DDE97F
:1015F0000A5A4FF0FF3BDDF824C041E0AB1A5BB262
:101600000C78002B03DD00BF04FA03F403E0C3F100
:10161000000324FA03F4E6B202DDC5F1080301E099
:10162000C2F10803DCB2844200D9044605EB040889
:10163000FF2707FA08F3C5F10805EF403B439CF884
:1016400000509E431D4035432244D2B28CF80050D6
:10165000072A07D90022B9F1000F01D05B4600E04C
:101660000123194408F0FF05072D07D90025BAF119
:10167000000F01D05B4600E001239C44001BC0B278
:101680000028BBD1BDE8F08F014801F01DB9000072
:10169000F8180020014801F017B900007817002061
:1016A000014801F011B9000058190020014801F06B
:1016B0000BB90000D8170020014801F005B900005F
:1016C00038180020014801F0FFB8000098180020E9
:1016D00001681823CAB2103AB2FBF3F2054B6FF35C
:1016E0000901032A9B5CC36500D9091D8165084671
:1016F00070470000E026010810B5014600208B6904
:101700008A6A4FF0C07453B1B3F5005F15D072B15F
:10171000012A0CD0022A0AD0032A09D104E01AB106
:10172000012A06D0022A03D1C96AC90100D50120C5
:1017300010BDC96AA142FAD010BD002AF7D0012A13
:10174000F2D0022AF3D0032AF3D010BD30B50468DA
:10175000256825F480252560046863608368402B34
:10176000036803D099600068C26030BD9A60006869
:10177000C16030BD70470000411C0CD00749B1F971
:101780000020904201D1521E0A80054A00EB400021
:10179000002102F830104FF0FF307047E0010020C8
:1017A000E462002072B6FEE7F0B503464069428865
:1017B0009869448842B10020042611E05D6806EB78
:1017C000C207EF5D032F01D8FF20F0BD55F832505E
:1017D000AD6B2D788D42F8D0521C401C92B2C0B235
:1017E000A242EBD9FE20F0BD024908B1487870470B
:1017F00008787047ED0000202DE9F05F0127514C7B
:10180000022603254FF004084FF005094FF0060AA1
:101810004FF0070B18B34C480EF09FFB01200BF064
:10182000E0F94A48008810F04F0F62D000F04F01F5
:10183000402963D000F06F00212864D0232867D0AE
:1018400027286BD0072871D00F2975D0082904D11B
:101850003FA008F0DDFA08206070BDE8F09F414825
:101860000EF07BFB01200BF0BCF93F48008810F024
:101870004F0F17D000F04F01402918D000F06F0033
:10188000212819D023281CD0272820D0072824D08D
:101890000F2928D00829E0D134A008F0B9FA08208F
:1018A0002070DAE737A008F0B3FA2770D5E73FA039
:1018B00008F0AEFA2670D0E745A008F0A9FA257026
:1018C000CBE74CA008F0A4FA84F80080C5E750A04C
:1018D00008F09EFA84F80090BFE756A008F098FA46
:1018E00084F800A0B9E75CA008F092FA84F800B090
:1018F000B3E763A008F08CFA6770AEE76AA008F05F
:1019000087FA6670A9E771A008F082FA6570A4E70B
:1019100077A008F07DFA84F801809EE77CA008F0AB
:1019200077FA84F8019098E700E005E081A008F0DC
:101930006FFA84F801A090E787A008F069FA84F8AC
:1019400001B08AE7ED000020880C00209C080020F0
:101950005A65726F4572723A204661756C740D0A51
:101960000000000054060020F60100204B696E6361
:101970006F2053746174653A204661756C740D0A6A
:10198000000000004B696E636F2053746174653A08
:10199000204E6F7420726561647920746F207377B4
:1019A00069746368206F6E0D0A0000004B696E63F6
:1019B0006F2053746174653A2053776974636820AB
:1019C0006F6E2064697361626C65640D0A000000CB
:1019D0004B696E636F2053746174653A2052656180
:1019E000647920746F20737769746368206F6E0D5B
:1019F0000A0000004B696E636F2053746174653A8E
:101A0000205377697463686564206F6E0D0A000067
:101A10004B696E636F2053746174653A204F706533
:101A2000726174696F6E20656E61626C65640D0A27
:101A3000000000004B696E636F2053746174653A57
:101A400020517569636B2073746F702061637469D2
:101A500076650D0A000000004B696E636F205374B9
:101A60006174653A204661756C74207265616374B7
:101A7000696F6E206163746976650D0A000000006D
:101A80005A65726F4572722053746174653A204EC4
:101A90006F7420726561647920746F207377697444
:101AA0006368206F6E0D0A005A65726F457272206E
:101AB00053746174653A20537769746368206F6E5C
:101AC0002064697361626C65640D0A005A65726F07
:101AD0004572722053746174653A2052656164796D
:101AE00020746F20737769746368206F6E0D0A002D
:101AF0005A65726F4572722053746174653A20534F
:101B000077697463686564206F6E0D0A00000000D9
:101B10005A65726F4572722053746174653A204F32
:101B20007065726174696F6E20656E61626C656468
:101B30000D0A00005A65726F457272205374617409
:101B4000653A20517569636B2073746F702061630F
:101B5000746976650D0A00005A65726F45727220CD
:101B600053746174653A204661756C7420726561C6
:101B70006374696F6E206163746976650D0A000095
:101B80001CB52C4D4FF0FF3605F16C043346002296
:101B90006946286C0BF068F830B90099A1B10129A9
:101BA0002ED025A008F034F9FFF7ECFC2070FFF7E9
:101BB000F7FC607008B103F007FEFFF7F1FCA070BE
:101BC0006078012830D031E022A0019908F020F996
:101BD000019848B101280DD00228E5D124A008F0D1
:101BE00017F903F0C9FDDFE727A008F011F903F0AA
:101BF000EBFDD9E72AA008F00BF903F017FED3E7B5
:101C00002DA0019908F004F9019838B10128CBD131
:101C100030A008F0FDF807F0BFF8C5E733A008F0E2
:101C2000F7F807F0B1F8BFE703F0CEFD32200AF075
:101C3000D8FFABE7180000205B4750494F5D2055A7
:101C40006E6B6E6F776E20747970653D25640D0A3A
:101C5000000000005B4750494F2D4C494654494E07
:101C6000475D2073746174653D25640D0A000000B2
:101C70004C696674696E67205455524E5F444F57E5
:101C80004E207365740D0A004C696674696E672096
:101C9000484F4C445F4F4E207365740D0A0000009E
:101CA0004C696674696E67205455524E5F555020DA
:101CB0007365740D0A0000005B4750494F2D574172
:101CC000524E494E475D2073746174653D25640D25
:101CD0000A000000576172696E67204C49474854FA
:101CE0005F4F4E207365740D0A00000057617269E2
:101CF0006E67204C494748545F4F464620736574D1
:101D00000D0A000070B50546D0F83C01008818B3F4
:101D100000242E1996F8B4000F2818D028680078EF
:101D2000A04214D096F8440140B9D5F8382112B138
:101D3000214628469047012086F8B40096F84401D1
:101D40002146401E86F8440128460AF05BFC641CCC
:101D5000E4B2802CDDD370BDB5F93401FFF70CFD82
:101D6000A5F8340170BD000078B50024009490F807
:101D70003C20012A19D0012280F83C200A68072360
:101D80000568092A13D9EE680A3A02EB4202934029
:101D90009E43EE600B788A680A3B03EB43039A404C
:101DA0000368DD682A43DA6010E0022078BD2E69FE
:101DB00002EB420293409E432E610B788A6803EB4C
:101DC00043039A4003681D692A431A614A681F2326
:101DD000072A13D205686E6B521E02EB82029340F3
:101DE0009E436E630B790A885B1E92B203EB8303FA
:101DF0009A4003685D6B2A435A6327E005680D2A01
:101E000012D22E6BD21F02EB820293409E432E63AE
:101E10000B790A88DB1F92B203EB83039A400368B5
:101E20001D6B2A431A6311E0EE6A0D3A02EB82023F
:101E300093409E43EE620B790A880D3B92B203EB0E
:101E400083039A400368DD6A2A43DA62164B056809
:101E5000144A9D4206D10D68122D03D1556845F4F0
:101E60008005556005689D4218D10B68102B01D084
:101E7000112B13D1536843F40003536009681029F0
:101E80000CD10A490A4A0968B1FBF2F101EB810160
:101E9000490000E0491E00910029FBD180F83C4038
:101EA000002078BD002301400020014000010020F7
:101EB00040420F0070B504004FF0000503D0206CC5
:101EC000002610B107E0012070BD204600F01CF88C
:101ED000666484F83C60206CC00610D4206C20F44A
:101EE000885040F0020020642046FFF763FA6664E1
:101EF000206C20F0020040F00100206400E0012589
:101F000084F83C60284670BD30B587B00446142183
:101F10006846FEF707FA1849206888422AD1174810
:101F20000025016841F480710160006800F4807050
:101F3000059012481438016841F0040101600168FD
:101F400001F004010591016841F00201016000689F
:101F5000032400F00200059008208DE83100694656
:101F6000074800F035FE009469460648CDE9014572
:101F700000F02EFE07B030BD002001404438024082
:101F8000000802400004024090F82020012A07D0F7
:101F9000022A05D0416A41F4802141620120704744
:101FA000006842690A43426100207047F0B590F82A
:101FB00020500468A468012D05D0022D03D0416A89
:101FC00041F480215DE014F0406F01D1E50055D56A
:101FD000C4F30164022C03D9416A41F4000150E0CA
:101FE0000125A5401D608D684FF4C0739DB1CE687A
:101FF00035434E6845EAC605066803EB0417F551FC
:102000004FF4C275076805EB04150E697E51097D12
:10201000012905D009E00E88CD6845EA4655EBE771
:1020200001684E5946F480764E511179D57956792A
:1020300041EA056195792D0445EA062529434FF4C7
:10204000C676056806EB0416A9511178D57841EAE1
:102050000561957852782D0445EA022211434FF428
:10206000C475026805EB04155151006803EB0411B7
:10207000425842F0010242500020F0BD416A41F452
:10208000001141620120F0BD10B590F82020012A16
:1020900007D0022A05D0416A41F480214162012023
:1020A00010BD3B48D0F8002242F00102C0F80022E7
:1020B000D0F8002222F47C52C0F80022D0F800228E
:1020C0004B6A42EA0322C0F800220A7D02F01F0395
:1020D00001229A40D0F81C329343C0F81C32CB69DD
:1020E000B3B9D0F80C329343C0F80C328C894B68EA
:1020F00064F31F434C6900EBC404C4F840320C89FC
:102100000B6864F31F434C6900EBC404C4F8443209
:10211000CB69012B16D1D0F80C321343C0F80C3226
:102120000C884B6864F31F434C6900EBC404C4F88B
:1021300040320C89CB6864F31F434C6900EBC40444
:10214000C4F844328B69002BD0F804320ED013430C
:10215000C0F804320B69002BD0F8143208D01343B6
:10216000C0F81432096A012904D008E09343EFE76C
:102170009343F5E7D0F81C121143C0F81C12D0F8B5
:10218000001221F00101C0F80012002010BD000073
:1021900000640040704730B590F82040012C05D015
:1021A000022C03D0416A41F480215DE004680029DB
:1021B00055D02469A40754D04FF4D874056804EBB3
:1021C00001142D5915F00405956005682D594ED060
:1021D000ED08556005682C5904F00204D4604FF4F2
:1021E000DA74056804EB01142D5905F00F0515612B
:1021F00005682D59C5F30725956105682C59240CF0
:1022000054614FF4DC72046802EB0112A4581C7094
:102210000468A458240A5C700468A458240C9C70B8
:102220000468A258120EDA704FF4DE72046802EBF2
:102230000112A4581C710468A458240A5C71046833
:10224000A458240C9C710468A258120EDA7100681C
:1022500081B1016941F020010161002030BDE468D5
:10226000A8E7416A41F400114162012030BD6D0DC3
:102270001560AFE7C16841F02001C160EDE72DE9CD
:10228000F05F0546006800244669D0F8049087682E
:10229000D0F80CB0D0F810A0D0F81880F10748D0D2
:1022A000F90714D001218160B80703D5284600F052
:1022B000AAFA0CE0780702D54FF4006407E038076B
:1022C00002D54FF4805402E0284600F09BFAF8054E
:1022D00016D529684FF480708860B80503D5284664
:1022E00000F093FA0CE0780502D544F4005407E0BE
:1022F000380502D544F4804402E0284600F084FA10
:10230000F80316D529684FF480308860B80303D5E8
:10231000284600F07CFA0CE0780302D544F400442F
:1023200007E0380302D544F4803402E0284600F088
:102330006DFA300707D55FEACB6004D52968102015
:1023400044F40074C86070074FF0080707D55FEACF
:102350000B7004D52868C760284600F099F9B007CB
:1023600006D52868C068800702D0284600F092F998
:10237000700607D55FEACA6004D52968102044F4C6
:1023800080640861B00607D55FEA0A7004D5286842
:102390000761284600F006FAF00606D528680069AD
:1023A000800702D0284600F0FEF9B00308D55FEAA6
:1023B000C96005D5296810204860284600F0F4F966
:1023C000F00307D55FEA097004D5286847602846FE
:1023D00000F01EFA300446D55FEA497040D5F0059A
:1023E00004D55FEAC87001D044F00104B00504D5FB
:1023F0005FEA887001D544F00204700504D55FEAF5
:10240000487001D544F00404300529D518F0700F48
:1024100026D008F07000402815D006DC102809D01E
:1024200020280AD0302816D10AE050280ED0602883
:1024300011D10EE044F008040DE044F010040AE06D
:1024400044F0200407E044F0400404E044F0800439
:1024500001E044F480742868816921F07001816191
:10246000296804204860002C05D0686A204368620F
:102470002846FFF78FFEBDE8F09F70B5040003D03B
:1024800094F8200010B104E0012070BD204600F057
:1024900081F82068016841F00101016000F09AFCB8
:1024A0000546052604E000F095FC401B0A2811D8DB
:1024B00020684068C007F6D02068016821F002015A
:1024C000016000F087FC05460BE000F083FC401B38
:1024D0000A2806D9606A40F40030606284F82060FF
:1024E000D2E7206840688007EFD4207E012820686A
:1024F00001683DD021F080010160607E01282068E4
:10250000016838D021F040010160A07E01282068D8
:10251000016833D021F020010160E07E01282068AD
:1025200001682ED041F010010160207F0128206851
:10253000016829D021F008010160607F012820682E
:10254000016824D021F004010160D4E902010843AC
:10255000D4E90412114308436168491E0843216805
:10256000C86100206062012084F82000002070BD56
:1025700041F08001C0E741F04001C5E741F0200192
:10258000CAE721F01001CFE741F00801D4E741F09C
:102590000401D9E7F0B587B0044614216846FDF779
:1025A000C1FE364B3648DFF8D0E05968D4F800C099
:1025B000334A03250226092710300024491CF4451C
:1025C00022D15960012907D1016841F000710160F1
:1025D000006800F000700590106840F0080010607E
:1025E0001068CDE9005600F00800CDE90470694696
:1025F0002448CDE9024500F0EBFA00220521142021
:1026000000F0A6FC142032E0DFF87CE0F44530D185
:10261000D0F800C04CF0806CC0F800C0D0F800C00A
:1026200001290CF0806CCDF814C0596007D1016805
:1026300041F000710160006800F0007005901068C2
:1026400040F002001060106802AB00F0020005903C
:102650006020CDE9000683E8B00069460B4800F031
:10266000B7FA00220521402000F072FC402000F063
:1026700061FC07B0F0BD000000640040E4000020F1
:1026800030380240000C0240006800400004024064
:102690007047000070B500683C49002401253C4E9D
:1026A0008CB0884235D11C2103A8FDF73BFE0A946B
:1026B0000B94009401940AAB03AA002135480294BC
:1026C000FFF769FD00285DD1059804285AD00398CA
:1026D000ADF800000698022819D000208DF80200FD
:1026E00007988DF8030002460AA901A8FDF701FE2C
:1026F00028480399203802C0079900F8011B0AA94D
:10270000079AFDF7F6FD35706946234838E0012049
:10271000E4E72249884235D11C2103A8FDF702FED7
:102720001C480A940B94009401940AAB03AA00215C
:1027300028300294FFF72FFD002823D105980428A4
:1027400020D00398ADF80000069802281CD0002085
:102750008DF8020007988DF8030002460AA901A827
:10276000FDF7C7FD0B480399103802C0079900F820
:10277000011B0AA9079AFDF7BCFD75706946084858
:1027800008F020FD0CB070BD0120E1E700640040BE
:10279000E40000207C150020540600200068004062
:1027A000880C0020704770477047000070B50446E1
:1027B00090F82000012804D0606A40F40020606294
:1027C00018E0022084F820002068016821F001014F
:1027D000016000F0FFFA05460EE000BF00F0FAFAD3
:1027E000401B0A2808D9606A40F400306062052066
:1027F00084F82000012070BD20684068C007EDD13A
:10280000606270BD7047704770477047704770478F
:1028100070472DE9F0410446876D00F0DBFA06466B
:1028200094F835000025022806D08020606584F8E1
:1028300034500120BDE8F0812068016821F01601C4
:1028400001602068416921F080014161206C08B974
:10285000A06C20B12068016821F0080101602068A7
:10286000016821F0010101600CE000F0B3FA801B67
:10287000052807D920206065032084F8350084F8F6
:102880003450D7E720680068C007EED194F85C1098
:102890003F208840B860012084F8350084F8345027
:1028A0000020C7E790F83510022903D08021416548
:1028B00001207047052180F835100068016821F07B
:1028C00001010160002070472DE9F84304464FF0F4
:1028D0000009CDF8009063484FF41651A56D0068CB
:1028E000B0FBF1F72E6894F85C10082000FA01F1B3
:1028F00031420FD021680A6852070BD50A6822F0CE
:1029000004020A6094F85C108840A860606D40F092
:102910000100606594F85C104FF0010808FA01F0BE
:10292000304208D021684969090604D5A860606D65
:1029300040F00200606594F85C100420884030424A
:1029400008D021680968890704D5A860606D40F047
:102950000400606594F85C1010208840304218D064
:1029600021680968090714D5A8602068016849032F
:1029700004D50068000308D5A16C07E00168C9050B
:1029800003D4016821F008010160216C09B12046DF
:10299000884794F85C1020208840304231D021686C
:1029A0000968C9062DD5A86094F835000528206867
:1029B000016806D0490347D5006800031DD4616C47
:1029C0001CE021F0160101602068416921F08001BE
:1029D0004161206C08B9A06C20B12068016821F029
:1029E0000801016094F85C103F208840A86084F8DA
:1029F000358084F83490216D1FE0E16B09B12046E9
:102A00008847606D00282BD0606DC00714D005206A
:102A100084F835002068016821F001010160009808
:102A2000401C0090B84203D820680068C007F6D167
:102A300084F8358084F83490E16C002910D001B01E
:102A40002046BDE8F04308470168C905D5D40168B0
:102A500021F01001016084F8358084F83490CCE7CF
:102A6000BDE8F883000100202DE9F041044600F0A4
:102A7000B1F906465CB1022084F83500002584F8DF
:102A800034502068016821F0010101600DE001204F
:102A9000BDE8F08100F09EF9801B052805D92020B3
:102AA0006065032084F83500F2E720680068C007FD
:102AB000F0D12268116820480140D4E9010318438D
:102AC000D4E903363343184363691843A3691843B1
:102AD000E3691843236A18430843616A042903D150
:102AE000D4E90B1319430843106020684069666AF3
:102AF00020F0070130460E43012704280CD1A06ABC
:102B00000643E06A40B12046FEF7F6FD20B14020C2
:102B1000606584F83570BAE7206846612046FEF7A4
:102B2000D7FD94F85C203F2191408160656584F871
:102B300035700020ACE700003F8010F02DE9F04137
:102B40000446866D90F83400002501280DD0012040
:102B500084F8340094F835700020012F07D084F8F1
:102B6000340002252846BDE8F0810220FBE7022759
:102B700084F8357060652046FEF7E8FD94F85C1037
:102B80003F208840B0602068016841F01601016074
:102B9000206C20B12068016841F0080101602068C4
:102BA000016841F001010160DCE7000070B50446F6
:102BB00000F010F90546601C02D004480078044477
:102BC00000F008F9401BA042FAD370BDF4000020C9
:102BD0002DE9F84FDFF8BCA1002201250AF1040B12
:102BE00003264FF00F090BF1040E00BF0B6805FA26
:102BF00002F42340A34270D10F7907F00307012F9D
:102C000001D0022F16D187684FEA420806FA08FC65
:102C100027EA0C07D1F80CC00CFA08FC4CEA070CA8
:102C2000C0F808C04768A7430C79C4F30014944067
:102C30003C4344600C79E443A4070AD0C4684FEADB
:102C4000420C06FA0CF7BC438F6807FA0CF72743CF
:102C5000C7600C7904F00304022C12D1D40800EBF5
:102C6000840CDCF820405707FF0E09FA07F824EA25
:102C70000804D1F8108008FA07F848EA0408CCF8EC
:102C8000208004684FEA420C06FA0CF7BC430F7927
:102C900007F0030707FA0CF7274307604C6814F4A2
:102CA000403F70D03C4C276847F480472760246839
:102CB00022F0030704F480440094384C07EB040C22
:102CC000DCF8084897074FEA177809FA08F7BC4379
:102CD000334FB84202D1002724E054E0314FB842CC
:102CE00001D101271EE0304FB84201D1022719E07F
:102CF0002E4FB84201D1032714E02D4FB84201D125
:102D000004270FE02B4FB84201D105270AE02A4FD4
:102D1000B84201D1062705E0284FB84201D1072764
:102D200000E0082707FA08F72743CCF80878DAF814
:102D300000405746D1F804C09C435FEACC3C00D524
:102D40001C433C60DBF800405F46D1F804C09C4364
:102D50005FEA8C3C00D51C433C60DEF800407746BF
:102D6000D1F804C09C435FEACC2C00D51C433C60E6
:102D7000084F0C373C68D1F804C09C435FEA8C2CA8
:102D800000D51C433C60521C102AFFF42FAFBDE855
:102D9000F88F0000003C0140443802400030014000
:102DA000000002400004024000080240000C024003
:102DB000001002400014024000180240001C0240B3
:102DC0000069084000D0012070470AB18161704756
:102DD0000904FBE70148806870470000F400002008
:102DE00090F83C10012912D0012100F83C1F242149
:102DF000417050F83C1CCA6822F00C0242F00402F8
:102E0000CA602021417000210170084670470220ED
:102E1000704790F83C10012912D0012100F83C1FA6
:102E20002421417050F83C1CCA6822F00C0242F088
:102E30000802CA60202141700021017008467047D5
:102E4000022070470248816802781144816070470F
:102E5000F40000200B4810B5016841F400710160D6
:102E6000016841F480610160016841F48071016092
:102E7000032000F08DF80F2000F006F800F03EF877
:102E8000002010BD003C024010B5014688B0002271
:102E9000362000F05DF8362000F04CF8134800248E
:102EA000016841F010010160006805A900F0100000
:102EB0000690684600F018F900F036F90C49400019
:102EC000B0FBF1F10C480B4A491E026040F2E732B8
:102ED000C0E90324C0E9011400F0F2FC10B10120A4
:102EE00008B010BD044800F037FDF9E74038024053
:102EF00040420F0000100040B81900200C4882B07A
:102F0000016841F480410160006800F48040009055
:102F10000748001F016841F08051016000680022ED
:102F200000F0805000900F21901E02B000F010B809
:102F300044380240002809DB00F01F0201219140C3
:102F40004009800000F1E020C0F800117047000047
:102F5000F0B40E4B1B680C46C3F30223C3F1070504
:102F6000042D00D90425191D072901D2002300E0F2
:102F7000DB1E012606FA05F1491E214099409E40BC
:102F8000761E16403143F0BC06F06CBF0CED00E03D
:102F9000064900F0070208684FF6FF03184040EAB0
:102FA0000220034A10430860704700000CED00E067
:102FB0000000FA052DE9F0470E46050065D0DFF860
:102FC0001481D8F80000F7B200F00700B04207D231
:102FD00088F80070D8F8000000F00700B04254D123
:102FE00028683D4C810712D5400703D5206840F47E
:102FF000E05020602878000703D5206840F4604046
:1030000020602068A96820F0F0000843206028783C
:10301000C0072DD0304968680839012812D002282D
:1030200013D0032811D00968890700292DDA2168F7
:1030300021F0030101432160FFF7CCFE814641F2FC
:10304000883A0EE009688903EFE709688901ECE72F
:10305000FFF7C0FEA0EB0901514502D90320BDE8EE
:10306000F0872068696800F00C00B0EB810FEFD1A9
:10307000D8F80010404601F00701B14207D90770A7
:10308000006800F00700B04201D00120E7E728788F
:10309000400705D52068E96820F4E0500843206027
:1030A0002878000706D52068296920F4604040EAA6
:1030B000C100206000F058F82168084AC1F30311EC
:1030C000515CC8400649086006480068FFF7DCFE0E
:1030D0000020C4E7003C024008380240E82601080E
:1030E00000010020F80000200F2202600C4A136843
:1030F00003F003034360136803F0F0038360136875
:1031000003F4E053C36012684FF4E05303EAD202C1
:1031100002610448006800F0070008607047000082
:1031200008380240003C024004480549006809682C
:10313000044AC1F38221515CC8407047000100205D
:1031400008380240F8260108044805490068096863
:10315000044AC1F34231515CC8407047000100206D
:1031600008380240F8260108104810B5006810F031
:103170000C010F4818D0042916D0082914D10B4C83
:10318000241F216801F03F02216821680023C1F358
:103190008811A1FB0001FDF775F82168C1F3014119
:1031A000491C4900B0FBF1F010BD00000838024096
:1031B0000024F4002DE9F84F04006ED02078DFF8E9
:1031C0004C93C007A9F104054AD009F10400016835
:1031D000C1F38101012908D00068C0F381000228F1
:1031E0000AD1D9F80000400206D52868800337D5F7
:1031F00060680028E1D033E06068B0F5803F10D00F
:10320000B0F5A02F286810D020F4803028602868FE
:1032100020F4802028606068A8B1FFF7DBFD064637
:103220000DE0286840F48030F4E740F48020286006
:10323000F7E700BFFFF7CEFD801B642873D828682E
:103240008003F7D50CE0FFF7C5FD064605E000BF9B
:10325000FFF7C0FD801B6428F0D828688003F7D4EE
:103260002078DFF8AC8280074FF0000A3ED5A748EF
:10327000001D016811F00C0F08D00068C0F3810038
:1032800002280BD1D9F80000400207D42868800733
:1032900016D5E068012800D112E033E1E068B8B14A
:1032A0000120C8F80000FFF795FD064605E000BFC5
:1032B000FFF790FD801B0228C0D828688007F7D54B
:1032C0002868216920F0F80040EAC10028600DE07C
:1032D000C8F800A0FFF77EFD064604E0FFF77AFD80
:1032E000801B02281FD828688007F7D420780007A1
:1032F00022D5864F87486169703771B1012101601D
:10330000FFF768FD064604E0FFF764FD801B022816
:1033100009D838688007F7D50EE0C0F800A0FFF79D
:1033200059FD064605E082E0FFF754FD801B0228A8
:103330007DD838688007F7D42078400768D5DFF853
:10334000CCB100270BF13C0BDBF80000C0000BD424
:10335000DBF8001041F08051CBF80010DBF80000E2
:10336000012700F0805000906B4E3068C00510D4EB
:10337000306840F480703060FFF72CFD009005E06D
:10338000FFF728FD0099401A022850D83068C00580
:10339000F6D55E4EA0686C3601280FD0052830683F
:1033A00010D020F001003060306820F00400306060
:1033B000A068B8B1FFF70EFD00900FE0306840F054
:1033C0000100F4E740F004003060F7E7FFF702FD8A
:1033D0000099411A41F28830814266D830688007EE
:1033E000F4D50EE0FFF7F6FC009007E0FFF7F2FCE3
:1033F0000099411A41F28830814256D830688007DE
:10340000F4D42FB1DBF8001021F08051CBF800107C
:10341000A069C8B33D49091D0968C1F381010229AA
:103420004AD00228504607D0C8F8600000E03CE0CF
:10343000FFF7D0FC04463BE04746C8F86000FFF7C2
:10344000C9FC064605E000BFFFF7C4FC801B02284C
:103450002BD828688001F7D4D4E907010843A16A72
:103460002E4A490802EB0141626A41EA821108438F
:1034700094F82C1040EA0161C9F800100120386668
:10348000FFF7A8FC044606E03EE000BFFFF7A2FC01
:10349000001B022809D828688001F7D534E000BF56
:1034A000FFF798FC001B022802D90320BDE8F88F23
:1034B00028688001F4D427E00128F7D0D9F800006B
:1034C000E26900F4800191421CD1226A00F03F01C0
:1034D000914217D147F6C071626A0140B1EB821F79
:1034E00010D1A26A4FF0FF3300F4403103EB5202D7
:1034F000B1EB024F06D194F82C1000F07060B0EBE5
:10350000016F01D00120D1E70020CFE7043802404D
:1035100000004742800E4742007000400000FFFF5D
:1035200070B5040009D0606A002540B1256165616D
:10353000A56294F8510040B10CE0012070BD6068B4
:10354000B0F5827FF4D0E561F2E784F85050204670
:1035500000F044F8022084F851002068016821F04E
:1035600040010160A088218900F4827001F40441C7
:103570000843A18901F400610843217C01F00201A4
:103580000843217D01F001010843218B01F4007102
:103590000843217F01F03801084394F8201001F01E
:1035A00080010843218D01F400510843216808601F
:1035B000A069042101EA104094F8241001F01001E0
:1035C0000843216848602068C16921F40061C16135
:1035D0006565012084F85100002070BD10B586B0EB
:1035E000044614216846FCF79DFE14492068884271
:1035F00021D113480021026842F480420260006831
:1036000000F4804005900E481038026842F0020233
:103610000260006800F0020005904FF460400090E6
:103620000220CDE9010103200390052004906946A2
:103630000448FFF7CDFA06B010BD00000038004086
:1036400040380240000402402DE9F84F044690F84B
:10365000500000270A9E1D4692468B464FF00109F6
:1036600001280ED0012084F85000FFF7B3FB8046FC
:1036700094F85100616801280CD0B1F5827F07D120
:1036800002E00220BDE8F88FA16809B9042801D042
:103690000227C2E0BBF1000F27D0BAF1000F24D0FF
:1036A0001DB394F85100042802D0052084F851007D
:1036B00000206065C4F838A0E587A587C4F830B05D
:1036C000E586A5862064606420680168490603D405
:1036D000016841F040010160E068B0F5006F60688A
:1036E00005D0E8B3012D46D07FE0012795E008B171
:1036F000012D39D1206B21680088C860206B801CA7
:103700002063E08E401EE0862EE0206881688907F5
:103710000FD5E18E69B1B9F1010F0AD1216B09888A
:10372000C160206B801C2063E08E401EE0864FF05D
:10373000000920688168C9070CD0E18F51B1C068C9
:10374000A16B0880A06B801CA063E08F401EE08707
:103750004FF00109FFF73EFBA0EB0800B04200E08C
:1037600009E001D3701C50D1E08E0028CDD1E08F4C
:103770000028CAD13FE0206B216800780873206BD5
:10378000401C2063E08E401EE0862EE020688168A9
:1037900089070FD5E18E69B1B9F1010F0AD1216B0B
:1037A00009780173206B401C2063E08E401EE08688
:1037B0004FF0000920688168C9070CD0E18F51B132
:1037C000C068A16B0870A06B401CA063E08F401E16
:1037D000E0874FF00109FFF7FDFAA0EB0800B042C7
:1037E00002D3701C01D010E07EB1E08E0028CDD154
:1037F000E08F0028CAD142463146204603F086FDBC
:1038000028B101272020606507E0032705E0A068B4
:1038100018B92068C16880680090012084F85100C0
:10382000002084F8500038462CE7704770470000AD
:1038300070B590F83C20012A32D0012480F83C4039
:10384000022280F83D2003685A689D6822F07006C5
:103850000A6832435A60134B02689A4214D0B2F19C
:10386000804F11D0104B9A420ED0104B9A420BD081
:103870000F4B9A4208D00F4B9A4205D00E4B9A42FA
:1038800002D00E4B9A4204D1496825F080031943B7
:10389000916080F83D40002180F83C10084670BDE2
:1038A000022070BD000001400004004000080040FC
:1038B000000C00400004014000400140001800409E
:1038C00010B5040003D094F83D0010B107E00120CA
:1038D00010BD002084F83C00204600F01FF80220B4
:1038E00084F83D00211D206804F086FB012084F847
:1038F000460084F83E0084F83F0084F8400084F8D5
:10390000410084F8420084F8430084F8440084F8BD
:10391000450084F83D00002010BD000008B5006897
:103920000B49884212D10B48016841F0080101603F
:103930000068002200F00800009005213220FFF707
:1039400007FBBDE808403220FFF7F4BA08BD0000CD
:10395000000C00404038024090F83D10012901D091
:1039600001207047022180F83D100168CA6842F0CA
:103970000102CA6000681149884214D0B0F1804F3A
:1039800011D00F4988420ED00E4988420BD00E4903
:10399000884208D00D49884205D00D49884202D09E
:1039A0000C49884204D1816801F00701062903D03F
:1039B000016841F0010101600020704700000140F2
:1039C0000004004000080040000C004000040140DA
:1039D000004001400018004070B5044690F83C00DB
:1039E0000025012817D0012684F83C60022084F8C5
:1039F0003D002068826822F0770222F47F428260D4
:103A00000868502838D00DDC20284FD005DC90B352
:103A1000102811D14AE0022070BD302846D040283D
:103A20000AD13BE060282FD070280DD0B0F5805F20
:103A300003D0B0F5005F12D0012584F83D6000206E
:103A400084F83C00284670BDCB68D1E9012120688C
:103A500004F036FB2068816841F0770109E0CB680B
:103A6000D1E90121206804F02BFB2068816841F432
:103A700080418160E1E719E0CA684968206804F084
:103A800031FB5021206806E0CA684968206804F0CC
:103A90003AFB6021206804F01DFBCEE7CA68496844
:103AA000206804F01FFB40212068F4E722680146EB
:103AB0001046F0E7704770B50446006801694FF0A2
:103AC0000005C943890715D4C168C943890711D4C2
:103AD000E91E016101202077206880698007204667
:103AE00002D0FFF7E7FF04E000F098F8204600F06E
:103AF000C2F8257720680169C943490717D4C1680E
:103B0000C943490713D46FF00401016102202077F3
:103B10002068806910F4407F204602D0FFF7CAFF7A
:103B200004E000F07BF8204600F0A5F82577206837
:103B30000169C943090716D4C168C943090712D4EA
:103B40006FF008010161042020772068C0698007B8
:103B5000204602D0FFF7AEFF04E000F05FF82046F9
:103B600000F089F8257720680169C943C90617D490
:103B7000C168C943C90613D46FF010010161082060
:103B800020772068C06910F4407F204602D0FFF7FC
:103B900091FF04E000F042F8204600F06CF8257731
:103BA00020680169C943C90708D1C168C943C90769
:103BB00004D1891E0161204600F05EF82068016989
:103BC000C943090609D4C168C943090605D46FF081
:103BD000800101612046FFF728FE20680169C94382
:103BE000490609D4C168C943490605D46FF04001AC
:103BF0000161204600F05CF820680169C94389062C
:103C00000BD4C168C943890607D46FF02001016154
:103C10002046BDE87040FFF709BE70BD704770B523
:103C20000D46040003D094F83D0010B107E00120D8
:103C300070BD002084F83C00204600F01BF80220F4
:103C400084F83D00211D206804F0D6F92068016841
:103C500021F00801016054F8460B01682943016016
:103C6000012004F81F09E0752076E0762077A07522
:103C7000002070BD7047704710B5044600680949C0
:103C8000884205D1084800210160416004F080FAB3
:103C900006492068884203D1BDE81040FFF7D2B83A
:103CA00010BD0000000C0040C80E002000100040B5
:103CB000704738B5044690F83E00202822D181B1E3
:103CC0007AB194F83C0001281CD0012084F83C0013
:103CD0002063204604F0D6FC002803D1216B012983
:103CE00001D0012038BD21680A6849680091216827
:103CF0000C3151E8002F42F0100241E80023002B64
:103D0000F5D138BD022038BD7CB50022254B01928B
:103D10001446234D1B7835E055F8246076688642BA
:103D20002FD155F8240090F84031042B2CD139B311
:103D300080F83E1155F8240080F83F2102E000BFD2
:103D400000F082F855F82430802203F1BC01586855
:103D5000FFF7AFFF002855F824004068F0D1806BD2
:103D60000068016821F00801016001A8009055F881
:103D7000240000230322D0F8AC0019460EF018F9F5
:103D800002E0641C9C42C7DB0198002807D006496A
:103D90004FF080500860BFF34F8FBFF36F8F7CBD33
:103DA000D8010020D401002004ED00E0704700009D
:103DB00070B5044620680C3050E8001F21F4907163
:103DC00040E80012002AF5D12068143050E8001FA6
:103DD00021F0010140E80012002AF5D1206B0128F2
:103DE00009D120680C3050E8001F21F0100140E894
:103DF0000012002AF5D1206840694FF020024106E8
:103E00004FF0000015D52168143151E8003F23F030
:103E1000400341E80035002DF5D1A16B49B10948B7
:103E20000865A06BFEF73EFD50B1A06B016D8847A1
:103E300006E0E08584F83E2020632046FFF7B6FFC9
:103E4000002070BDEB83000810B50446006840698F
:103E500094F83D10C0F3C010212911D180B1206821
:103E6000143050E8001F21F0800140E80012002AC1
:103E7000F5D1606B08B1FEF7CCFC204604F00DFBD9
:103E80002068406994F83E10C0F38010222911D1B7
:103E900080B12068143050E8001F21F0400140E854
:103EA0000012002AF5D1A06B08B1FEF7B2FC204643
:103EB00004F0CCFA002010BD70B516490024144D52
:103EC000097822E055F82420526882421CD155F826
:103ED000240090F84001042802D070BDFFF7B4FF21
:103EE00055F82430802203F1BC015868FFF7E1FE49
:103EF000002855F824004068F0D1806B0068016804
:103F000021F00801016070BD641C8C42DADB70BDD9
:103F1000D8010020D401002010F83D1F407808434C
:103F200070470000F8B5016804460868CA684B6924
:103F300010F00F0F4FF0000559D003F0010602F406
:103F40009077374365D0C10705D0D10503D5216CE3
:103F500041F001012164410705D5D90703D0216C47
:103F600041F002012164810705D5D90703D0216CF6
:103F700041F004012164010707D502F0200131431B
:103F800003D0216C41F008012164216C00293AD052
:103F9000800604D5900602D5204604F08CFA2068ED
:103FA0004069216CC0F38010090700D460B320463B
:103FB00004F04CFA20684069400621D5206814308E
:103FC00050E8001F21F0400140E80012002AF5D11E
:103FD000A06BA8B16C490165A06BFEF763FC0028DB
:103FE00011D0A06B016D01B0BDE8F0400847830619
:103FF0000FD593060DD52046BDE8F84004F05BBA16
:104000002046FFF759FFF8BD2046FFF755FF25640E
:10401000F8BD266B2023012E79D1C60677D5D606AA
:1040200075D50868486800904869400640D5A16B7E
:10403000086840680004000CEAD0A28D8242E7D9EB
:10404000E085C869B0F5807F2DD020680C3050E83D
:10405000001F21F4807140E80012002AF5D1206889
:10406000143050E8001F21F0010140E80012002A3E
:10407000F5D12068143050E8001F21F0400140E8DD
:104080000012002AF5D184F83E30256320680C30F8
:1040900050E8001F21F0100140E80012002AF5D17D
:1040A000A06BFEF7B6FBA08DE18D401A81B229E02E
:1040B000A08DE18D401A81B2E08D0028A8D00029A2
:1040C000A6D020680C3050E8002F22F4907240E80F
:1040D0000026002EF5D12068143050E8002F22F081
:1040E000010240E80026002EF5D184F83E30256319
:1040F00020680C3050E8002F22F0100240E8002326
:10410000002BF5D12046FFF7FFFDF8BDFFE70506C0
:104110002BD5150629D594F83D002128F5D1A068A6
:10412000B0F5805F01D12069B0B1206A411C2162E5
:10413000216800784860E08C401E0004000CE08498
:10414000E3D12068C16821F08001C1602068C168A6
:1041500041F04001C160D8E7206A0088C0F3080040
:104160004860206A801C2062E5E74006CDD55006F5
:10417000CBD5CA68204622F04002CA6084F83D30A0
:1041800000F024FBC1E70000F582000870B50400D0
:1041900004D094F83D00002510B106E0012070BD68
:1041A00084F83C50204600F023F8242084F83D0099
:1041B0002068C16821F40051C160204604F0DCF998
:1041C0002068016921F4904101612068416921F072
:1041D0002A0141612068C16841F40051C160256431
:1041E000202084F83D0084F83E00002070BD0000CF
:1041F0002DE9F04F87B0044614216846FCF792F889
:10420000D848D849D64B10382268DFF85CE300263E
:104210004F0505154FF002084FF003094FF0080C49
:104220004FF0400B9A425CD10A68B24642F4002239
:104230000A60096801F400210591016841F0040158
:104240000160006802AA00F0040005904FF440608D
:10425000CDE9000882E8401269467046FEF7B8FCD6
:10426000DFF80C83C1494046C8F80010C0E9017668
:10427000C0E90365C8F81460C8F81860C8F81C6085
:10428000C8F82060C8F82460FEF7EEFB08B1FDF71F
:1042900089FAB74EB548C4F8388060363030C8F86F
:1042A000384086E88108C6E903A5C6F814A0C6F818
:1042B00018A0C6F81CA0C6F820A03046C6F824A056
:1042C000FEF7D2FB08B1FDF76DFA66630022052107
:1042D0003420B463FEF73CFE3420FEF72BFEA548E5
:1042E000A6E0A54B9A4233D10A6842F480120A60D4
:1042F000096801F480110591016841F00401016031
:10430000016801F004010591016841F008010160B4
:104310000068029600F0080005909814CDE90008A6
:10432000CDE9039C644669467046FEF751FC0420C3
:10433000CDE900080296CDE9039469468F48FEF75F
:1043400047FC002205213520FEF702FE35209AE0C9
:104350008B4B4FF0070C4FF0010A9A4271D1814903
:104360000026091D0A6842F010020A60096801F07F
:1043700010010591016841F001010160006801AA86
:1043800000F001000590581500900220CDF810C0F3
:1043900082E84102E04669467A48FEF719FC0220AD
:1043A000CDE90050CDF808A0CDE9039869467548DD
:1043B000FEF70EFCDFF8B881734908F1C0084046EB
:1043C000C8F80010C0E90176C0E90365C8F81460B8
:1043D000C8F81860C8F81C60C8F82060C8F82460E5
:1043E000FEF742FB08B1FDF7DDF96748674EC4F8F8
:1043F00038807830C8F8384086E881080020C6E95F
:1044000003057061B061F061306270623046FEF7A2
:104410002BFB08B1FDF7C6F96663002205212520B4
:10442000B463FEF795FD2520FEF784FD51488830E2
:104430000068C16841F01001C16007B0BDE8F08FAD
:10444000FFE7534B9A4221D10A6842F400320A60D6
:10445000096801F400310591016841F0080101602B
:104460000068694600F00800059060208DE80105AD
:10447000CDE9039C4148FEF7ABFB00220521262035
:10448000FEF766FD2620FEF755FDD6E7414B9A4222
:10449000D3D10A68002642F480220A60096801F438
:1044A00080210591016841F008010160006801AABE
:1044B00000F008000590981500900220CDF810C07B
:1044C00082E84102E04669462C48FEF781FB4FF442
:1044D000007000900220CDE9010ACDE903986946F9
:1044E0002648FEF775FBDFF8A480204908F1600834
:1044F00018394046C8F80010C0E90176C0E90365E4
:10450000C8F81460C8F81860C8F81C60C8F82060C3
:10451000C8F82460FEF7A8FA08B1FDF743F91B4E6E
:104520001248C4F83880C0361830C8F8384086E8D9
:1045300081080020C6E903057061B061F061306256
:1045400070623046FEF790FA08B1FDF72BF966630A
:10455000002205212720B463FEF7FAFC272092E70A
:10456000004C0040403802400008024040600240D9
:10457000781700202416002000500040000C024054
:1045800000100140000002404064024098180020E2
:10459000004400400048004090F83E30202B0ED1EF
:1045A00059B152B190F83C30012B08D0012380F86A
:1045B0003C300023036304F0ADB8012070470220B3
:1045C000704700007CB500261D49019634461B4DFE
:1045D000097825E055F82420526882421FD155F809
:1045E000240090F8401101291CD190F8A610BC308D
:1045F00002F04AFD55F82430012203F1A601586863
:10460000FFF7CAFF0DF070FD0246009655F8240032
:1046100001AB0721D0F8B0000DF04AFF02E0641CA6
:104620008C42D7DB0198002807D006494FF0805014
:104630000860BFF34F8FBFF36F8F7CBDD8010020A0
:10464000D401002004ED00E0704700002DE9F8439C
:10465000044690F83D001F4616460D4620284CD1D2
:10466000C5B1BEB194F83C00012846D0012084F8C1
:104670003C004FF00008C4F84080212084F83D0041
:10468000FEF7A8FBA6848146E684A068B0F5805FAB
:1046900003D004E00120BDE8F883206928B12E464C
:1046A0005FF0000584F83C800EE00026FAE78021E8
:1046B000204604F04AF8A0B9AEB116F8010B216803
:1046C0004860E08C401EE084E08C4B464FF00002D6
:1046D00000970028EBD14FF04001204604F035F858
:1046E00030B10320D7E735F8020BC0F30800E6E746
:1046F000202084F83D000020CDE70220CBE7000019
:1047000070B5044690F83D00202836D191B38AB3A5
:1047100094F83C00012830D0012084F83C0021624C
:10472000A284E28400252564212084F83D00636B87
:104730001348D863636B13481864636B1248D864DA
:10474000606B134605652668606B321DFEF7F6F94F
:1047500021686FF04000086084F83C5020681430F5
:1047600050E8001F41F0800140E80012002AF5D116
:10477000002070BDFFE70120FBE70220F9E7000001
:1047800001840008438400080583000890F83D3048
:10479000202B18D1A9B1A2B190F83C30012B12D036
:1047A00001628284C28400210164212280F83D20BC
:1047B00080F83C100068C16841F08001C1600020B1
:1047C0007047012070470220704700001CB5144B51
:1047D00000210191114A1B7812E000BF52F82140DC
:1047E000646884420BD101A8009052F82100002394
:1047F0001A46D0F8AC0019460DF0DAFB02E0491C6D
:104800009942EBDB0198002807D006494FF0805011
:104810000860BFF34F8FBFF36F8F1CBDD80100201E
:10482000D401002004ED00E07047FEE7B1F5D05F51
:1048300076D02FDC41F21803A1EB0300994262D03D
:1048400015DC41F20603A1EB0300994255D009DCC7
:10485000B1F5805F4BD06FF48050081849D0042820
:1048600041D148E001284AD00E283CD149E0B0F5BA
:10487000BD6F4FD006DCB0F51A7F46D0B0F57A7F19
:1048800031D144E0B0F5FD6F46D0A0F5E060E938E5
:1048900029D143E046F24103C81A99424CD016DCB4
:1048A00042F20103A1EB030099423FD008DC6FF410
:1048B000D050081836D0A0F5A060FF3813D133E0EF
:1048C000012835D03F38B0F5804F0CD132E039287F
:1048D00038D004DC232831D0372804D130E04028F8
:1048E00032D0BE2832D01D48106000207047002012
:1048F0002DE001202BE0022029E0032027E0042006
:1049000025E0052023E0062021E007201FE0082005
:104910001DE005E009201AE00A2018E00B2016E04F
:104920000C2014E00D2012E00E2010E00F200EE00D
:1049300010200CE011200AE0122008E0132006E00D
:10494000142004E0152002E0162000E017200021CA
:104950001160034901EBC00070470000000002062F
:104960003C2801089F2803D1087808B10148704706
:1049700000207047300009062DE9FF472C4DA8782C
:1049800000284FF0020027D12A4F039006203880DC
:1049900000240DF10C08CDE900844FF400593B468A
:1049A000224649462448029406F0B6F822480BF005
:1049B0003BFA0026322008F014F90020FCF71CFF17
:1049C000287803280BD0761C0A2EF3DB1BA005F0F9
:1049D0001FFAAC706FF0020004B0BDE8F08723A0AE
:1049E00005F016FA052008F0FCF83C80CDE90084BB
:1049F000104B002249461048029406F08DF80E48EC
:104A00000BF012FA00260020FCF7F6FE28780228A8
:104A100009D0761C0A2EF6DB23A005F0F9F9AC705C
:104A20006FF00500D8E72D4805F0F2F90020D3E734
:104A3000ED000020E8010020540600204B696E6361
:104A40006F20656E61626C65206661696C65642CBF
:104A50002052454144595F5357495443485F4F4E94
:104A60005F4641494C45442E0D0A00004B696E6378
:104A70006F2063757272656E7420737461747573E0
:104A80002069732052454144595F544F5F53574941
:104A90005443485F4F4E2C20636F6E74696E75658A
:104AA0002E2E2E0D0A0000004B696E636F20656E7E
:104AB00061626C65206661696C65642C205357499E
:104AC0005443485F4F4E5F44495341424C45445F15
:104AD0004641494C45442E0D0A000000442B010874
:104AE0002DE9FF5F564CA07800284FF0010014D14B
:104AF0000026A07035460020FCF77EFE207818B115
:104B0000C0B202280CD00EE0761C0A2EF3DB4DA0BA
:104B100005F07EF9A5704FF0FF3004B0BDE8F09FBE
:104B200053A005F075F9614F06200DF10C0A38808D
:104B30004FF00209CDE900A5CDE902594FF4005B21
:104B400056463B4600225946594805F0E5FF59486C
:104B5000584B002205600420CDE90250CDE90065E4
:104B600042F20101524805F0D7FF51480BF05CF9C1
:104B700000260020FCF740FE2078032809D0761C90
:104B80000A2EF6DB4CA005F043F9A5706FF0020089
:104B9000C3E755A005F03CF9052008F022F80721ED
:104BA0003980CDE900A5CDE90259B84657463F4BBB
:104BB000002259463E4805F0AFFF3D480BF034F95E
:104BC00000260020FCF718FE2078042809D0761C67
:104BD0000A2EF6DB53A005F01BF9A5706FF0030059
:104BE0009BE75BA005F014F9052007F0FAFF0F2101
:104BF000A8F80010CDE900752C4B002259462C482E
:104C0000029505F089FF2A480BF00EF900263220A4
:104C100007F0E7FF0020FCF7EFFD2078052809D01A
:104C2000761C0A2EF3DB57A005F0F2F8A5706FF0A2
:104C3000040072E760A005F0EBF8A57000206CE7B7
:104C4000ED0000204B696E636F20656E61626C65DC
:104C5000206661696C65642C204745545F5354415C
:104C60005455535F4641494C45442E0D0A000000FF
:104C70004B696E636F2063757272656E7420737416
:104C800061747573206973205357495443485F4FCB
:104C90004E5F44495341424C45442C20636F6E742F
:104CA000696E75652E2E2E0D0A000000E8010020A9
:104CB00054060020EC0100204B696E636F20656E86
:104CC00061626C65206661696C65642C20524541A7
:104CD00044595F5357495443485F4F4E5F464149DB
:104CE0004C45442E0D0A00004B696E636F206375BE
:104CF0007272656E742073746174757320697320A9
:104D000052454144595F544F5F5357495443485F9C
:104D10004F4E2C20636F6E74696E75652E2E2E0DAE
:104D20000A0000004B696E636F20656E61626C65FE
:104D3000206661696C65642C20535749544348458B
:104D4000445F4F4E5F4641494C45442E0D0A0000DA
:104D50004B696E636F2063757272656E7420737435
:104D6000617475732069732053574954434845440F
:104D70005F4F4E2C20636F6E74696E75652E2E2EFC
:104D80000D0A00004B696E636F20656E61626C6591
:104D9000206661696C65642C204F5045524154492E
:104DA0004F4E5F454E41424C45445F4641494C455C
:104DB000442E0D0A000000004B696E636F2063757E
:104DC0007272656E742073746174757320697320D8
:104DD0004F5045524154494F4E5F454E41424C451C
:104DE000442C20656E61626C6520636F6D706C652C
:104DF0007465642E0D0A000010B5022114480BF0F2
:104E00001FF91349012081F8E101002110480BF03E
:104E1000CBF97F210E480BF0C7F905210C480BF0A8
:104E2000C3F9022201210A4807F0FDFB8222012179
:104E3000074807F0F8FBC82007F0D3FE80220121C5
:104E4000034807F0F0FBBDE81040322007F0C9BE70
:104E5000540600202DE9FF41234E80462F2030804C
:104E60000024022003ADCDE90240CDE90054070340
:104E70003346224639461D4805F04EFE1C48414641
:104E8000C0F800801BA004F0C3FF0420CDE902405D
:104E9000CDE90054164B0022791C144805F03CFE65
:104EA00012480AF0C1FF3F203080CDE9005433465C
:104EB000002239460D48029405F02EFE0B480AF0F8
:104EC000B3FF0A480BF049F8052007F08AFE0E48A8
:104ED000B0F900300D4802680D4801880D4804F013
:104EE00097FFBDE8FF810000E80100205406002084
:104EF000EC0100207461726765745F706F733A3003
:104F00007825780D0A000000FC010020F80100203F
:104F1000F6010020102C01081FB504210391FBF7B6
:104F2000C8FD9FED0E1B53EC112BFBF750FDFBF75B
:104F3000ECFD0C490B4B0860002003A9CDE90010E3
:104F40000246029042F20201074805F0E5FD0648DC
:104F50000AF06AFF04480BF000F81FBD2D7AA70283
:104F6000EE79D14004020020540600202DE9F04FD4
:104F700087B04FF001098DF81490052605ACCDE9F6
:104F8000004646F2600700233A464946B64802F01A
:104F900056F910B1B5A004F03BFF00258DF8145070
:104FA000CDE900462B463A460121AF4802F002F90E
:104FB00010B1BAA004F02CFF9DF81400012802D013
:104FC000C2A004F025FFCA48072403AFCDE900744E
:104FD000029046F281080390002342460121A24834
:104FE00002F02DF910B1C3A004F012FFCDE9007456
:104FF0000023424601219C48039502F0DBF810B1E2
:10500000C9A004F005FFDDE90201814204D04FF49C
:10501000FA71D1A004F0FCFE4DF2B710CDE9007496
:10502000029046F2830803900023424601218E48F5
:1050300002F005F910B1D4A004F0EAFECDE9007445
:105040000023424601218848039502F0B3F810B1CD
:10505000D8A004F0DDFEDDE90201814203D0322157
:10506000DFA004F0D5FEEB48CDE90074029046F2D3
:10507000840803900023424601217B4802F0DFF8B8
:1050800010B1E5A004F0C4FECDE90074002342464F
:1050900001217548039502F08DF810B1E9A004F0E4
:1050A000B7FEDDE90201814203D0C821F0A004F07F
:1050B000AFFE0DF1080AFB48CDE900A401230290E0
:1050C0004FF4A0521946684802F0B9F810B1F6A0A2
:1050D00004F09EFE04AFCDE900768DF81090022317
:1050E0004FF4A0520121604802F0A9F810B1EEA0DF
:1050F00004F08EFECDE900764FF4B05BA8468DF843
:10510000105000235A460121574802F098F810B178
:10511000F0A004F07DFEFB48CDF800A0CDE90140F1
:1051200055460123DA465A4619464F4802F087F899
:1051300010B1E8A004F06CFEF3480095CDE9014001
:10514000022352460121484802F079F810B1E1A04B
:1051500004F05EFE0220CDE900768DF810000023F9
:1051600052460121404802F06AF810B1D9A004F07B
:105170004FFE40F201200095CDE9014001234FF49C
:10518000A0521946384802F05AF810B1C6A004F0EF
:105190003FFEC4480095401CCDE90140012341F287
:1051A000014A52461946304802F049F810B1D7A0DA
:1051B00004F02EFECDE900768DF810900223D34640
:1051C00052460121284802F03AF810B1CFA004F06D
:1051D0001FFECDE9007641F2016A8DF810800023B0
:1051E00052460121204802F02AF810B1D2A004F062
:1051F0000FFEDD480095CDE90140012352461946D6
:10520000194802F01CF810B1CBA004F001FECDE962
:1052100000768DF81090002352460121124802F0CA
:105220000EF810B1C4A004F0F3FD40F20220009586
:10523000CDE9014001235A4619460B4801F0FFFF12
:1052400010B1B2A004F0E4FDC8480095CDE90140DA
:1052500001234FF4C05A52461946034801F0EFFFAC
:1052600000B185E187E10000540600204B696E63C0
:105270006F2053444F20577269746520534552562E
:105280004F5F574F524B5F4D4F44455F494E44452A
:1052900058204661696C65640D0A00004B696E63B5
:1052A0006F2053444F207265616420534552564F1E
:1052B0005F574F524B5F4D4F44455F494E444558F1
:1052C000204661696C65640D0A0000004B696E63DD
:1052D0006F2073657420706F736974696F6E206DD1
:1052E0006F6465204661696C65640D0A000000000A
:1052F000938888004B696E636F2053444F20577228
:105300006974652050524F46494C45445F56454CA0
:105310004F434954595F494E444558204661696C92
:1053200065640D0A000000004B696E636F205344F2
:105330004F20726561642050524F46494C45445F8E
:1053400056454C4F434954595F494E4445582046B1
:1053500061696C65640D0A004B696E636F2073654B
:10536000742070726F66696C65642076656C6F631B
:1053700069747920746F2025642072706D204661F5
:10538000696C65640D0A00004B696E636F205344BD
:105390004F2057726974652050524F46494C45441E
:1053A0005F4143435F494E444558204661696C65FF
:1053B000640D0A004B696E636F2053444F20726581
:1053C00061642050524F46494C45445F4143435F1E
:1053D000494E444558204661696C65640D0A0000D9
:1053E0004B696E636F207365742070726F66696CB1
:1053F000656420616363656C65726174696F6E20BA
:10540000746F2025642072706D204661696C65643C
:105410000D0A0000DC4603004B696E636F205344A5
:105420004F2057726974652050524F46494C45448D
:105430005F4445435F494E444558204661696C6569
:10544000640D0A004B696E636F2053444F207265F0
:1054500061642050524F46494C45445F4445435F88
:10546000494E444558204661696C65640D0A000048
:105470004B696E636F207365742070726F66696C20
:10548000656420646563656C65726174696F6E2024
:10549000746F2025642072706D204661696C6564AC
:1054A0000D0A0000210000084B696E636F20534411
:1054B0004F205772697465205250444F315F5041FC
:1054C00052414D5F494E444558204661696C6564C0
:1054D0000D0A00004B696E636F2053444F205772D2
:1054E000697465205250444F315F4D415050494ED0
:1054F000475F494E444558204661696C65640D0A12
:10550000000000001000406020007A604B696E636C
:105510006F2053444F205772697465205250444F96
:10552000325F504152414D5F494E444558204661DB
:10553000696C65640D0A00004B696E636F2053440B
:105540004F205772697465205250444F325F4D416D
:105550005050494E475F494E444558204661696C5A
:1055600065640D0A00000000200081608101008058
:1055700036A004F04DFCCDE900768DF810900223A2
:10558000524601213C4801F05AFE10B12FA004F010
:105590003FFC8DF81080CDE900764FF4D058002301
:1055A00042460121344801F04AFE10B133A004F014
:1055B0002FFC3E480095CDE90140012342461946A3
:1055C0002D4801F03CFE10B12CA004F021FC38481D
:1055D0000095CDE90140022342460121264801F011
:1055E0002EFE10B125A004F013FC32480095CDE941
:1055F00001400323424601211F4801F020FE10B163
:105600001EA004F005FC0320CDE900768DF8100003
:10561000002342460121184801F011FE10B117A0E5
:1056200004F0F6FB40F281100095CDE90140012322
:1056300052461946104801F002FE002802D003A08D
:1056400004F0E6FB07B0BDE8F08F00004B696E6325
:105650006F2053444F205772697465205450444F53
:10566000315F504152414D5F494E4445582046619B
:10567000696C65640D0A0000540600204B696E6376
:105680006F2053444F205772697465205450444F23
:10569000315F4D415050494E475F494E4445582077
:1056A0004661696C65640D0A0000000010004160ED
:1056B0002000636010007860234D8CB0287828B9F2
:1056C00022A004F0A5FB00200BF0A6F900273E461F
:1056D0004FEA070807F092FA04460021E86C07F049
:1056E00055FB88B900231A4604A9686B07F0BCFA79
:1056F00050B90DF1140CCDF800809CE80E001D4847
:1057000006F038FC04F1C806E01B642818D3B44244
:1057100016D30021286D07F039FB88B90120A87045
:10572000002201A9134806F0F1FC85F802808DF8EB
:10573000048000231A4601A9E86B07F0F3FA274614
:105740000A2007F04EFAC5E7180000204163717582
:10575000697265206C656674526563765261774440
:10576000617461507472206661696C6564210D0A10
:10577000000000009C11002030B585B0142168465F
:10578000FAF7D0FD4FF400700025CDE90005694619
:105790000B48FDF71DFA4FF400640120CDE90040ED
:1057A0000220CDE90250074D69462846FDF710FA60
:1057B000002221462846FDF708FB05B030BD000059
:1057C00000080240000002402DE9F04385B014219A
:1057D0006846FAF7A7FD4FF400740125002602275A
:1057E0008DE8F000DFF83C9069464846FDF7F0F997
:1057F0004FF4006801A8CDF8008080E8E0000A4D71
:1058000069462846FDF7E4F9002241462846FDF79F
:10581000DCFA002221464846FDF7D7FA05B0BDE87C
:10582000F0830000000802400000024070B586B01E
:1058300014216846FAF776FD4FF400740120CDE993
:10584000004000250220CDE90250094E694630464D
:10585000FDF7BEF9A000CDE9000569460548FDF752
:10586000B7F9002221463046FDF7AFFA06B070BD09
:10587000000802400000024000210A4600EBC1037C
:10588000491C9A620529F9DB704700002DE9F041B7
:105890000446DDE90765069F416500214FEA0100E6
:1058A00004EBC10C491CCCF828000529F8DB206268
:1058B00066616062C4E90127C4E90353207720656B
:1058C0000120206004F1580002F0E5FC04F16000C2
:1058D000BDE8F04102F0DFBC002101770162416ABE
:1058E000002901D0FFF7C8BF704708B56A4600F02D
:1058F00001F808BD2DE9F04198B016460F46044660
:105900004FF0FF384546582220496846FAF7F1FC27
:10591000206A80BB16A802F0BEFC16A8616802F0DF
:10592000B2FC07B96F46398BA161B87E606204F1A1
:10593000600002F09DFC3A46A168206900F008FA78
:10594000011E1EDD16AA20460AF071FA050018D1C4
:1059500016AA022120460BF0C7FA02280AD1002716
:10596000377077703146701CE368626900F034F874
:10597000012801D0454604E0357815B901202062A0
:10598000277718B02846BDE8F081000028270108D5
:105990002DE9FC41074615460E4600246846009353
:1059A00009F08AFF60F30704C4F3C00030702009D7
:1059B000387001A9009800F0F7F80099019A0144A5
:1059C00000910A44511A022904DB684609F07AFF63
:1059D00028800120BDE8FC812DE9FC410746002418
:1059E0000E4625466846009209F066FF01462046AD
:1059F00061F307000009022819D101A9009800F0FD
:105A0000D3F8009905460844019900900144081A0A
:105A100002280CDB684609F04FFF60F3070404F02E
:105A200001003870684609F047FF307001252846AC
:105A3000BDE8FC812DE9FC5F8046DDE90EA0002475
:105A4000CDE90004994617460E462546DDF834B0E8
:105A5000684609F031FF60F30704200903282CD1C0
:105A6000C4F3C00188F80010C4F34100306004F0B2
:105A70000100387001A9009800F096F800990546D9
:105A80000844019900904418224669460C9809F090
:105A900022FF90B10098201A0FD43068002804DD4E
:105AA000684609F00FFFA9F800000098211ACAF80B
:105AB000001000990125CBF800102846BDE8FC9F96
:105AC0002DE9FC4781460A98002400909A46164624
:105AD00088462546684609F0EFFE0146204661F3F8
