:020000040800F2
:10000000285C00206102000875520008273F0008A4
:10001000C5500008051500086966000800000000CA
:10002000000000000000000000000000A101000826
:100030000D16000800000000FD010008995E000890
:100040007B0200087B0200087B0200087B0200089C
:100050007B0200087B0200087B0200087B0200088C
:100060007B0200087B0200087B0200087B0200087C
:10007000211500082D150008391500084515000840
:100080007B0200087B0200087B0200087B0200085C
:10009000091500087B0200087B0200087B020008AB
:1000A0007B0200087B0200087B0200087B0200083C
:1000B0007B0200087B0200087B0200087B0200082C
:1000C0007B0200087B0200087B0200087B0200081C
:1000D0007B02000845660008516600085D6600085E
:1000E0007B0200087B0200087B0200087B020008FC
:1000F0007B0200087B0200087B0200087B020008EC
:100100007B0200087B0200085D5F00087B0200089C
:100110005D61000869610008695F00087B020008F2
:100120007B0200087B020008511500087B020008D2
:100130007B0200087B0200087B0200087B020008AB
:10014000151500087B0200087B0200087B020008EE
:100150007B0200087B0200085D1500087B02000896
:100160007B0200087B0200087B0200087B0200087B
:100170007B0200087B0200087B02000800000000F0
:100180007B0200087B020008DFF810D000F0B8FE08
:1001900000480047B1860008AFF30080285C0020CB
:1001A0002C4B19680868B0E8F04F80F30988BFF35A
:1001B0006F8F4FF0000080F311887047000000003F
:1001C00008480068006880F308884FF0000080F35A
:1001D000148862B661B6BFF34F8FBFF36F8F00DF35
:1001E00000BF00BF08ED00E0DFF80C00016841F43B
:1001F00070010160704700BF88ED00E0EFF30980F7
:10020000BFF36F8F134B1A681EF0100F08BF20ED5D
:10021000108A20E9F04F106009B44FF0500080F3CD
:100220001188BFF34F8FBFF36F8F0AF03FFD4FF080
:10023000000080F3118809BC19680868B0E8F04F25
:100240001EF0100F08BFB0EC108A80F30988BFF3CE
:100250006F8F7047F0000020EFF3058070470000BB
:100260000648804706480047FEE7FEE7FEE7FEE750
:10027000FEE7FEE7FEE7FEE7FEE7FEE74D5F00086C
:10028000890100082DE9F05F0546002092469B4653
:1002900088460646814640241BE02846414647469C
:1002A000224600F06EFC53465A46C01A914110D3C4
:1002B00011461846224600F055FC2D1A67EB01083E
:1002C0004F4622460120002100F04CFC17EB0009AC
:1002D0004E41201EA4F10104DFDC484631462A4687
:1002E0004346BDE8F09FA0F14101192900D8203014
:1002F000704740EA01039B0703D009E008C9121FB9
:1003000008C0042AFAD203E011F8013B00F8013BCF
:10031000521EF9D27047D2B201E000F8012B491EFB
:10032000FBD270470022F6E710B513460A46044692
:100330001946FFF7F0FF204610BD421C10F8011BC4
:100340000029FBD1801A704710B5002200E0521C32
:10035000835C8C5CA34201D1002BF8D1D8B2E1B20E
:10036000401A10BD30B505460020034600E05B1C76
:10037000934205D2EC5CC85C201A01D1002CF6D166
:1003800030BD00000FB400B58DB010A909900B90DE
:1003900000914FF0FF300A9000200C900548069025
:1003A000054807906A4609A80F9900F021FC0DB096
:1003B0005DF814FB0D0C00082B0C00082DE9FF5F05
:1003C0001D464FF0FF3BD5E9014691465F464FF091
:1003D0000008A9697F1C01988847296A82468847D6
:1003E0000028F6D1BAF1FF3F0CD024F4C064002EEF
:1003F00019DD600614D5BAF12B0F09D0BAF12D0F13
:100400000ED103E0584604B0BDE8F09F44F4806488
:10041000A9697F1C01988847761E8246002E02DD5E
:10042000BAF1300F03D0B9F1000F26D032E0A9693C
:10043000761E44F400747F1C019888478246002E83
:1004400005DDBAF1780F06D0BAF1580F03D0B9F133
:10045000000F10D01EE0B9F1000F02D0B9F1100F5B
:1004600018D1A969761E24F400747F1C019888476E
:100470008246102002E0082000E00A20814609E0C0
:1004800008FB0908A969761E44F400747F1C0198D2
:1004900088478246002E05DD4946504600F093FB12
:1004A0000028EDDAE96901988847A00502D46FF0C9
:1004B0000100A8E7E00725D1600613D5600502D545
:1004C000C8F1000000E0404629680A1D2A6009685A
:1004D000220501D5087015E0220701D5088011E03A
:1004E00008600FE02868011D29600068210502D519
:1004F00080F8008006E0210702D5A0F8008001E026
:10050000C0F8008038467EE72DE9FF4F087883B0B9
:100510009946FF2805D0491C2D2804D0002400202E
:1005200008E000200BE00124F9E700EB800003EB7A
:100530004000491C0B78FF2BF7D104B14042002347
:100540000293147819461D462D2C01D02B2C04D172
:10055000521C2D2C13D000240294AA461478FF2C90
:100560000FD00A25A3FB057801FB05814FF0000C95
:1005700003FB0C11521CE3194AEB0101EEE70124C5
:10058000EAE7814453EA010002D019F5C87F06DA90
:1005900003980021C0E9001107B0BDE8F08F0025E5
:1005A000AE4E2F46DFF8B882184600F069FCCDE960
:1005B0000001B9F1000002DAC9F1000400E00446CC
:1005C0000023A74A1AEB030B42EB045A12E0E007A0
:1005D00007D02A4633463846414600F0ECF9074634
:1005E00088462A4633461046194600F0E4F9054687
:1005F0000E466410002CEAD1DDE90001B9F1000FCC
:100600005A46534606DA00F0CCFB3A46434600F021
:10061000C8FB05E000F0CFF93A46434600F0CBF9BD
:10062000029A0AB181F00041039AC2E90001B3E7DE
:100630002DE9FF4F1F468DB0D7E901464FF0FF3837
:100640002E2045464FF000090B90B9696D1C0E989D
:100650008847396A824688470028F6D1BAF1FF3FB9
:100660000AD024F4D064002E11DDBAF12B0F08D08B
:10067000BAF12D0F0BD102E0404611B08DE744F4E2
:100680008064B9696D1C0E9888478246761E69465B
:10069000600501D52D2000E02B208DF8000001F130
:1006A000010B0DF1200809E0B9696D1C0E9888470F
:1006B00082460F9844F40074761E0560002E02DD19
:1006C000BAF1300FF0D00B998A453ED144F0800446
:1006D00006E00F99681CA9F1010944F40074086050
:1006E000B9696D1C761E0E98884782463028F0D076
:1006F0002BE00B998A4505D1200603D444F08004F1
:10070000761E18E0504606F0EDFB08B30DF113011C
:10071000761E44F400748B4508D2AAF130000BF821
:10072000010B200607D5A9F1010003E0200602D441
:1007300009F101008146A00502D50F99681C0860E7
:10074000B9696D1C0E9888478246002ED1DC53E0B3
:10075000002E51DDBAF1650F02D0BAF1450F4BD131
:10076000A00549D5B9696D1C24F44074761E0E9815
:1007700088478246002E0CDD2B2804D0BAF12D0FBD
:1007800007D144F48074B9696D1C0E98884782467D
:10079000761EE00501D52D2100E02B2108F8011B74
:1007A000CDF82C8021E00DF12901761E44F400746F
:1007B00088450CD2AAF1300010F0FF0088F8000044
:1007C00002D10B99884509D908F1010806E0E00536
:1007D00001D5244801E042F20F708146B9696D1CD1
:1007E0000E98884782460F980560002E04DD50461B
:1007F00006F078FB0028D6D1F9690E988847FF20CB
:100800008BF8000088F800000020069007904B4607
:100810006A4608A906A8FFF777FEA00502D46FF084
:1008200001002AE714F0240F0AD0E00714D1DDE913
:1008300006123868031D3B600068C0E900120BE037
:10084000DDE9060100F040FB0146E00704D138680D
:10085000021D3A600068016028460EE7000014405F
:100860000000F03FF1D8FFFF2DE9FE4F804681EAFE
:100870000300C00F0C46009021F0004123F000451A
:10088000B8EB0200A94105D24046214690461C46DD
:100890000B46024623F00040104347D0270DC7F314
:1008A0000A00C3F30A510290401A019040286BDA03
:1008B000C3F3130040F4801B0098924620B100233C
:1008C000D2EB030A63EB0B0B01985946C0F14002CF
:1008D000504600F047F906460D4650465946019AE3
:1008E00000F05FF910EB08006141002487EA115223
:1008F00084EAE7731A4340D0009A62B3019A012A4E
:100900004FEA075215DC001B61EB02014FF0004279
:1009100002EA0752CDE90042001C41F5801132463F
:100920002B4600F0F0F903B0BDE8F08F40462146B9
:10093000F9E7001B61EB0201001C41F58013001870
:100940005B412018A2F5001747EB030140EAD57080
:10095000B6196D4111E06D084FEA360645EAC075DB
:100960004FEA0752001B61EB0201001C41F58011A8
:1009700049084FEA30000019514132462B4603B076
:10098000BDE8F04F00F0B0B900980122400000230C
:10099000D0EB020263EBE073009821464FEAE0746B
:1009A000B8EB000061EB0401E9E783F000435BE78B
:1009B00081F0004158E72DE9FE4F81EA030404F07D
:1009C000004421F0004100944FF0000B23F000435D
:1009D00050EA01045ED052EA03045BD0C3F30A5428
:1009E000C1F30A552C44A4F2F3340194A0FB025441
:1009F000C1F3130141F48011C3F3130343F48013D3
:100A000001FB024400FB034E840A970A44EA815426
:100A100047EA8357A4FB076802958D0A05FB078503
:100A20004FEA932C04FB0C542705029D4FEA06580D
:100A300047EA1637B5EB08056EEB070C870E920EEA
:100A400047EA811742EA8312A7FB0201B6EB0B01CA
:100A500064EB00042B0D43EA0C335E1844EB1C508E
:100A6000DA465146E7FB0201C5F313044FEA0B33A4
:100A700043EA14534FEA0432019C43EA0603A4F10B
:100A80000C040294009CCDE900B400F03CF903B0E2
:100A9000BDE8F08F00200146F9E770B5C1F30A52B6
:100AA00001F000450024C1F3130140F2FF3341F48B
:100AB00080119A4201DA002070BD40F233439A421D
:100AC000A2F2334203DC524200F05BF800E09040B7
:100AD0002C43F1D0404270BD30B5041E71F10004CA
:100AE00004DB4FF00044404264EB0101141E73F13B
:100AF000000405DB1C464FF00043524263EB040345
:100B00008B4208BF824230BD30B5041E71F1000433
:100B100004DB4FF00044404264EB0101141E73F10A
:100B2000000405DB1C464FF00043524263EB040314
:100B3000994208BF904230BD30B50B4601460020B7
:100B40002022012409E021FA02F59D4205D303FA8F
:100B500002F5491B04FA02F52844151EA2F1010210
:100B6000F1DC30BD202A04DB203A00FA02F100203B
:100B700070479140C2F1200320FA03F319439040DB
:100B80007047202A04DB203A21FA02F00021704746
:100B900021FA02F3D040C2F12002914008431946E5
:100BA0007047202A06DBCB17203A41FA02F043EACD
:100BB000E07306E041FA02F3D040C2F12002914016
:100BC0000843194670473A2800D2303820F02002F6
:100BD000412A01D3A2F13700884201D34FF0FF3000
:100BE000704700000268114413780160184670478E
:100BF000D16004495161044911620021116111461B
:100C000000F096B9E50B0008250F0008426842B1D4
:100C1000016811F8013B23B1521EC0E900121846C9
:100C200070470121C160881E704742685AB1C3688D
:100C3000016843B983688B4205D0491E521CC0E944
:100C40000012002070474FF0FF3070470FB40023B0
:100C500000B589B00CA900910B996FF00042CB60F0
:100C60001E4B06931E4B07930423CDE901321D4A08
:100C7000089202466B460020FFF7DAFC09B05DF8E7
:100C800014FB70B586B006464FF0FF300091CDE9F9
:100C90000101002015460C4604903246694604A81E
:100CA000FFF7D4FF02460498211825B108B1084681
:100CB00000E020462860049800280DD0002A02DDBC
:100CC0000098884208D0081B0094CDE90104324600
:100CD000694604A8FFF7BAFF06B070BD0D0C000806
:100CE0002B0C0008250F000810B5141E73F100042A
:100CF00008DA401C41F1000192185B411A4301D10E
:100D000020F0010010BD2DE9F04D92469B4611B137
:100D1000B1FA81F202E0B0FA80F220329046FFF799
:100D200021FF04460F4640EA0A0041EA0B01534600
:100D30005A46084313D0114653EA010019D0C8F1AE
:100D400040025046FFF71DFF05460E4650465946E5
:100D50004246FFF707FF084305D0012004E0204684
:100D60003946BDE8F08D0020054346EAE0762C4385
:100D700037430A986305E40AA0EB08000022FD0A45
:100D800044EA47540A3002D500200146E9E701054C
:100D900010196941DDE9084500196941BDE8F04DC8
:100DA000A2E72DE9F04D81EA030404F0004B21F0A5
:100DB000004514464FF0000A23F0004150EA0502B6
:100DC00020D054EA01021DD0C5F30A570246C5F3EC
:100DD0001303C1F31300C1F30A5640F4801543F422
:100DE0008013A7EB0608101BD64608F2FD3873EBFC
:100DF000050002D308F1010801E092185B41B8F147
:100E0000000F03DA00200146BDE8F08D00204FF40A
:100E10008011064684460EE0171B73EB050705D3C9
:100E2000121B63EB050306434CEA010C49084FEA29
:100E3000300092185B4150EA0107EDD152EA0300FD
:100E400012D082EA040083EA0501084305D0101B92
:100E5000AB4106D20122002306E000224FF00043FE
:100E600002E06FF0010253101AEB06004CEB085140
:100E700010EB0A0041EB0B01BDE8F04DFFF734BF6A
:100E80000EB540F2334202920022CDE90022134611
:100E9000FFF739FF03B000BDC1F30A52C1F31301DC
:100EA00040F2FF3341F480119A4202DA00200146F9
:100EB000704740F233439A42A2F2334202DC52427C
:100EC000FFF75FBEFFF74EBE01F0004330B421F0E4
:100ED000004150EA010206D00A0DA2F56072C1F38A
:100EE0001301002A02DC30BC00207047440F44EAA2
:100EF000C104C100E01830BC00EBC25000F0B0B932
:100F0000064C074D06E0E06840F0010394E8070056
:100F100098471034AC42F6D3FFF73AF994C800086A
:100F2000B4C80008C0B24FF4F05100F0D1B90000CD
:100F30002DE9F34F8BB04FF0000801F10C000C4687
:100F40004FF0010B46460DF1080A0190626901213C
:100F500001989047051E2DD0252D2CD0216A884759
:100F6000C0B16269012101989047216A8847002831
:100F7000F7D1411E62690198904700E0761CA16993
:100F80000B988847216A88470028F7D1E1690B98B8
:100F90008847DBE7A1690B9888470746A84201D13B
:100FA000761CD3E7E1690B9888477F1C02D1B8F122
:100FB000000F6FD047E1002762693D46394601982E
:100FC00090472A2804D162690121019890470125A0
:100FD000DFF888926269012101989047A0F1300101
:100FE0000A290AD24F45E5DC07EB870100EB4107F0
:100FF000303FDFD445F01005ECE7E90601D46FF08F
:1010000000476C280AD04C2814D0682815D06A28CC
:101010000DD074281CD07A281AD01DE062690121F5
:10102000019890476C2802D045F0040514E045F083
:1010300002050DE045F020050AE0626901210198F2
:101040009047682802D045F0080505E045F40065A2
:101050006269012101989047C4E9015765283DD094
:1010600019DC58287AD00CDC452837D004DC252838
:1010700026D0412831D131E046282FD047282CD125
:101080002CE05B2877D0612828D063287CD06428A6
:1010900023D15AE0D1E06F2848D008DC66281DD063
:1010A00067281BD0692821D06E2816D127E0702828
:1010B00045D0732868D0752847D078280DD14DE0E9
:1010C000A1690B988847054625283FF469AFE16977
:1010D0000B9888476D1C3FF46AAFB4E023466A461C
:1010E0006FF001000B99FFF7A3FA9FE045F0400075
:1010F0006060A80723464FF0000236D43EE0E807C0
:101100007FF447AF2068011D21600068290501D5E3
:1011100006701BE7290701D5068017E7A90703D545
:10112000F117C0E9006111E706600FE745F04000E4
:101130006060A80723464FF0080216D41EE040F670
:101140000E0125EA0100606016E045F04000606095
:10115000A80723464FF00A0207D40FE045F04000ED
:101160006060A80708D5234610226FF001000B9994
:10117000AFF300805AE007E0234610226FF0010031
:101180000B99FFF71BF951E04FF000094F464B4612
:10119000632802D05B2807D041E02079C00601D443
:1011A0000120A06001273AE062690121019890477F
:1011B0005E2805D14FF001096269494601989047C0
:1011C000216939B900210A46534643F82120491CB8
:1011D0000829FADBB0B3216969B9C11700EBD16204
:1011E00053110AEB830122F01F02821A01200B68BF
:1011F000904003430B6062690121019890475D288C
:10120000E8D1B9F1000F09D00020514651F8202053
:10121000D24341F82020401C0828F7DB02AB2246CD
:1012200000976FF001000B99AFF3008000280CDAF3
:10123000401C08D1BBF1000F05D04FF0FF300DB0BE
:10124000BDE8F08FFFE74046F9E7E90701D108F173
:10125000010806444FF0000B78E60000CCCCCC0C23
:101260000029A8BF7047401C490008BF20F00100BA
:10127000704710B4B0FA80FC00FA0CF050EA010498
:1012800004BF10BC704749B1CCF1200421FA04F42A
:1012900011FA0CF118BF012121430843A3EB0C0103
:1012A000CB1D4FEA00614FEA102042BF002010BC66
:1012B000704700EBC35010440029A4BF10BC704716
:1012C000401C490008BF20F0010010BC704700001E
:1012D0007F2801D9002208E0064A02EB5002C0072D
:1012E000127800D1120902F00F020120904008404C
:1012F000704700009CC7000870B58C1810F8015B9F
:1013000015F0070301D110F8013B2A1106D110F89E
:10131000012B03E010F8016B01F8016B5B1EF9D1A2
:101320002B0705D40023521E0DD401F8013BFAE728
:1013300010F8013BCB1A921C03E013F8015B01F893
:10134000015B521EF9D5A142D8D3002070BD000028
:10135000464910B54A6822F440324A604A684368F8
:101360001A434A6001684A6822F480724A60016840
:101370004A68036942EA03224A6001684A6822F027
:1013800040724A6001684A6883681A434A6001688B
:101390008A6822F400628A6001688A68C3681A4316
:1013A0008A60816A6FF07062D14201688A6822F0B7
:1013B00070628A6001688A680CD0836A1A438A6006
:1013C00001688A6822F040528A6001688A68C36AAC
:1013D0001A4301E022F040528A6001688A6822F0D4
:1013E00002028A6001688A68037E42EA43028A60D8
:1013F00090F82010002901684A680FD042F400627A
:101400004A6001684A6822F460424A6001684A689A
:10141000174C436A04EB43331A4301E022F40062A1
:101420004A600168CA6A22F47002CA620168CA6A24
:10143000838B104C04EB03531A43CA6201688A6819
:1014400022F400728A6001688A6890F8303042EABB
:1014500043228A6001688A6822F480628A60016897
:101460008A68406942EA8020886010BD00230140FC
:1014700000E0FFFF0000F0FF01229102014801F0AF
:1014800033B800000010024001225102014801F06F
:101490002BB800000010024001221102014801F0A7
:1014A00023B800000010024001220421014801F08D
:1014B0001BB80000001002400122D102014801F0D7
:1014C00013B800000010024010B5FFF7E5FF4FF41D
:1014D0009674204600F0FEFEFFF7D6FF204600F08F
:1014E000F9FEFFF7C9FF204600F0F4FEFFF7E4FF26
:1014F000204600F0EFFEFFF7D7FF2046BDE8104082
:1015000000F0E8BEFEE70000014800F08EBA0000DF
:10151000C0080020014800F088BA0000E808002058
:10152000014800F065BD00003C0C0020014800F0BF
:101530005FBD0000BC0A0020014800F059BD00005A
:101540009C0C0020014800F053BD00001C0B002043
:10155000014800F04DBD00007C0B0020014800F068
:1015600047BD0000DC0B002001681823CAB2103A06
:10157000B2FBF3F2054B6FF30901032A9B5CC365D1
:1015800000D9091D816508467047000084C600081F
:1015900010B5014600208B698A6A4FF0C07453B1C0
:1015A000B3F5005F15D072B1012A0CD0022A0AD01F
:1015B000032A09D104E01AB1012A06D0022A03D174
:1015C000C96AC90100D5012010BDC96AA142FAD07B
:1015D00010BD002AF7D0012AF2D0022AF3D0032A44
:1015E000F3D010BD30B50468256825F4802525604A
:1015F000046863608368402B036803D099600068C7
:10160000C26030BD9A600068C16030BD704772B67C
:10161000FEE7000078B50024009490F83C20012AF1
:1016200019D0012280F83C200A6807230568092A9E
:1016300013D9EE680A3A02EB420293409E43EE60F1
:101640000B788A680A3B03EB43039A400368DD6822
:101650002A43DA6010E0022078BD2E6902EB4202D4
:1016600093409E432E610B788A6803EB43039A40B4
:1016700003681D692A431A614A681F23072A13D287
:1016800005686E6B521E02EB820293409E436E63AE
:101690000B790A885B1E92B203EB83039A400368BE
:1016A0005D6B2A435A6327E005680D2A12D22E6B20
:1016B000D21F02EB820293409E432E630B790A886D
:1016C000DB1F92B203EB83039A4003681D6B2A432E
:1016D0001A6311E0EE6A0D3A02EB820293409E43D8
:1016E000EE620B790A880D3B92B203EB83039A40BA
:1016F0000368DD6A2A43DA62164B0568144A9D4284
:1017000006D10D68122D03D1556845F4800555604A
:1017100005689D4218D10B68102B01D0112B13D1F5
:10172000536843F400035360096810290CD10A4937
:101730000A4A0968B1FBF2F101EB8101490000E0BE
:10174000491E00910029FBD180F83C40002078BD63
:101750000023014000200140EC00002040420F0027
:1017600070B504004FF0000503D0206C002610B1C6
:1017700007E0012070BD204600F01CF8666484F884
:101780003C60206CC00610D4206C20F4885040F0DF
:10179000020020642046FFF7DBFD6664206C20F029
:1017A000020040F00100206400E0012584F83C6064
:1017B000284670BD30B587B0044614216846FEF750
:1017C000B1FD1849206888422AD1174800250168D0
:1017D00041F480710160006800F480700590124847
:1017E0001438016841F004010160016801F004014E
:1017F0000591016841F0020101600068032400F0D6
:101800000200059008208DE831006946074800F085
:1018100073FD009469460648CDE9014500F06CFD72
:1018200007B030BD002001404438024000080240AB
:101830000004024010B590F82020012A07D0022AA7
:1018400005D0416A41F480214162012010BD3B482E
:10185000D0F8002242F00102C0F80022D0F80022A5
:1018600022F47C52C0F80022D0F800224B6A42EAEF
:101870000322C0F800220A7D02F01F0301229A40D1
:10188000D0F81C329343C0F81C32CB69B3B9D0F8FE
:101890000C329343C0F80C328C894B6864F31F43BD
:1018A0004C6900EBC404C4F840320C890B6864F343
:1018B0001F434C6900EBC404C4F84432CB69012BCC
:1018C00016D1D0F80C321343C0F80C320C884B6898
:1018D00064F31F434C6900EBC404C4F840320C8924
:1018E000CB6864F31F434C6900EBC404C4F8443272
:1018F0008B69002BD0F804320ED01343C0F80432A9
:101900000B69002BD0F8143208D01343C0F81432FE
:10191000096A012904D008E09343EFE79343F5E710
:10192000D0F81C121143C0F81C12D0F8001221F09C
:101930000101C0F80012002010BD0000006400404A
:10194000704730B590F82040012C05D0022C03D010
:10195000416A41F480215DE00468002955D0246982
:10196000A40754D04FF4D874056804EB01142D5922
:1019700015F00405956005682D594ED0ED085560A9
:1019800005682C5904F00204D4604FF4DA74056839
:1019900004EB01142D5905F00F05156105682D594B
:1019A000C5F30725956105682C59240C54614FF443
:1019B000DC72046802EB0112A4581C700468A4587D
:1019C000240A5C700468A458240C9C700468A25813
:1019D000120EDA704FF4DE72046802EB0112A458A2
:1019E0001C710468A458240A5C710468A458240C6F
:1019F0009C710468A258120EDA71006881B1016905
:101A000041F020010161002030BDE468A8E7416A8F
:101A100041F400114162012030BD6D0D1560AFE74A
:101A2000C16841F02001C160EDE72DE9F05F054696
:101A3000006800244669D0F804908768D0F80CB09C
:101A4000D0F810A0D0F81880F10748D0F90714D0CA
:101A500001218160B80703D5284600F067FA0CE041
:101A6000780702D54FF4006407E0380702D54FF439
:101A7000805402E0284600F058FAF80516D5296887
:101A80004FF480708860B80503D5284600F050FAFE
:101A90000CE0780502D544F4005407E0380502D57F
:101AA00044F4804402E0284600F041FAF80316D5D9
:101AB00029684FF480308860B80303D5284600F0C9
:101AC00039FA0CE0780302D544F4004407E0380307
:101AD00002D544F4803402E0284600F02AFA3007A8
:101AE00007D55FEACB6004D52968102044F4007460
:101AF000C86070074FF0080707D55FEA0B7004D580
:101B00002868C760284600F099F9B00706D528680C
:101B1000C068800702D0284600F092F9700607D509
:101B20005FEACA6004D52968102044F48064086123
:101B3000B00607D55FEA0A7004D528680761284611
:101B400000F0F0F9F00606D528680069800702D099
:101B5000284600F0E8F9B00308D55FEAC96005D56A
:101B6000296810204860284600F0DEF9F00307D508
:101B70005FEA097004D528684760284600F0DBF961
:101B8000300446D55FEA497040D5F00504D55FEAD8
:101B9000C87001D044F00104B00504D55FEA887034
:101BA00001D544F00204700504D55FEA487001D500
:101BB00044F00404300529D518F0700F26D008F041
:101BC0007000402815D006DC102809D020280AD043
:101BD000302816D10AE050280ED0602811D10EE02E
:101BE00044F008040DE044F010040AE044F020043E
:101BF00007E044F0400404E044F0800401E044F4D1
:101C000080742868816921F070018161296804204D
:101C10004860002C05D0686A204368622846FFF7B8
:101C20008FFEBDE8F09F70B5040003D094F820004B
:101C300010B104E0012070BD204600F081F820685A
:101C4000016841F00101016000F054FC05460526E1
:101C500004E000F04FFC401B0A2811D820684068BF
:101C6000C007F6D02068016821F00201016000F091
:101C700041FC05460BE000F03DFC401B0A2806D95C
:101C8000606A40F40030606284F82060D2E7206827
:101C900040688007EFD4207E0128206801683DD08D
:101CA00021F080010160607E01282068016838D041
:101CB00021F040010160A07E01282068016833D036
:101CC00021F020010160E07E0128206801682ED00B
:101CD00041F010010160207F01282068016829D0AF
:101CE00021F008010160607F01282068016824D08C
:101CF00021F004010160D4E902010843D4E904128F
:101D0000114308436168491E08432168C8610020E7
:101D10006062012084F82000002070BD41F0800145
:101D2000C0E741F04001C5E741F02001CAE721F0DA
:101D30001001CFE741F00801D4E741F00401D9E7F1
:101D4000F0B587B0044614216846FEF7EBFA364B2F
:101D50003648DFF8D0E01968D4F800C0334A0325CC
:101D60000226092710300024491CF44522D11960AD
:101D7000012907D1016841F000710160006800F09D
:101D800000700590106840F0080010601068CDE900
:101D9000005600F00800CDE9047069462448CDE9FA
:101DA000024500F0A9FA00220521142000F060FC91
:101DB000142032E0DFF87CE0F44530D1D0F800C0E8
:101DC0004CF0806CC0F800C0D0F800C001290CF0C5
:101DD000806CCDF814C0196007D1016841F0007122
:101DE0000160006800F000700590106840F002008B
:101DF0001060106802AB00F0020005906020CDE991
:101E0000000683E8B00069460B4800F075FA00222E
:101E10000521402000F02CFC402000F01BFC07B006
:101E2000F0BD000000640040D800002030380240BF
:101E3000000C0240006800400004024070470000AF
:101E400070B5204A0168914218D11F4B1F4A0021EA
:101E5000FFF777FD002833D11C4D1DA02A692968A2
:101E600004F0CAFE0024184E04E0315D20A004F006
:101E7000C3FE641C2869A042F7D81CE01E4A9142A8
:101E80001ED1124A1D4B1C320021FFF75AFD0028BB
:101E900016D10E4D1AA01C352A69296804F0ACFE33
:101EA0000024164E04E0315D11A004F0A5FE641C70
:101EB0002869A042F7D8BDE8704019A004F09CBE84
:101EC00070BD000000640040C600002088080020AB
:101ED00043414E312052583A2049443D3078253014
:101EE000335820444C433D256420446174613D00D7
:101EF000253032582000000000680040CE0000204D
:101F000043414E322052583A2049443D30782530E2
:101F1000335820444C433D256420446174613D00A6
:101F20000D0A000070477047704770477047704750
:101F300070477047704770472DE9F0410446876D40
:101F400000F0D8FA064694F835000025022806D09D
:101F50008020606584F834500120BDE8F08120685D
:101F6000016821F0160101602068416921F08001BB
:101F70004161206C08B9A06C20B12068016821F093
:101F8000080101602068016821F0010101600CE096
:101F900000F0B0FA801B052807D9202060650320D7
:101FA00084F8350084F83450D7E720680068C0070B
:101FB000EED194F85C103F208840B860012084F88E
:101FC000350084F834500020C7E790F83510022916
:101FD00003D08021416501207047052180F835102C
:101FE0000068016821F001010160002070470000D5
:101FF0002DE9F84304464FF00009CDF800906348FE
:102000004FF41651A56D0068B0FBF1F72E6894F8F7
:102010005C10082000FA01F131420FD021680A68F3
:1020200052070BD50A6822F004020A6094F85C108B
:102030008840A860606D40F00100606594F85C1015
:102040004FF0010808FA01F0304208D021684969D0
:10205000090604D5A860606D40F00200606594F840
:102060005C1004208840304208D021680968890744
:1020700004D5A860606D40F00400606594F85C10C1
:1020800010208840304218D021680968090714D50B
:10209000A86020680168490304D50068000308D5DA
:1020A000A16C07E00168C90503D4016821F00801AB
:1020B0000160216C09B12046884794F85C1020200B
:1020C0008840304231D021680968C9062DD5A86002
:1020D00094F8350005282068016806D0490347D5E3
:1020E000006800031DD4616C1CE021F01601016042
:1020F0002068416921F080014161206C08B9A06C21
:1021000020B12068016821F00801016094F85C109A
:102110003F208840A86084F8358084F83490216D91
:102120001FE0E16B09B120468847606D00282BD085
:10213000606DC00714D0052084F835002068016860
:1021400021F0010101600098401C0090B84203D8C2
:1021500020680068C007F6D184F8358084F8349090
:10216000E16C002910D001B02046BDE8F0430847DB
:102170000168C905D5D4016821F01001016084F817
:10218000358084F83490CCE7BDE8F883EC0000207B
:102190002DE9F041044600F0ADF906465CB102209D
:1021A00084F83500002584F834502068016821F057
:1021B000010101600DE00120BDE8F08100F09AF915
:1021C000801B052805D920206065032084F8350090
:1021D000F2E720680068C007F0D122681168204843
:1021E0000140D4E901031843D4E9033633431843CB
:1021F00063691843A3691843E3691843236A1843C2
:102200000843616A042903D1D4E90B131943084335
:10221000106020684069666A20F0070130460E436E
:10222000012704280CD1A06A0643E06A40B1204689
:10223000FFF7AEF920B14020606584F83570BAE749
:10224000206846612046FFF78FF994F85C203F2113
:1022500091408160656584F835700020ACE700002E
:102260003F8010F02DE9F0410446866D90F834006F
:10227000002501280DD0012084F8340094F8357031
:102280000020012F07D084F8340002252846BDE83D
:10229000F0810220FBE7022784F835706065204654
:1022A000FFF7A0F994F85C103F208840B0602068E8
:1022B000016841F016010160206C20B120680168BE
:1022C00041F0080101602068016841F001010160EE
:1022D000DCE7000070B5044600F00CF90546601C10
:1022E00002D004480078044400F004F9401BA042E6
:1022F000FAD370BDE00000202DE9F84FDFF8BCA153
:10230000002201250AF1040B03264FF00F090BF1FF
:10231000040E00BF0B6805FA02F42340A34270D1FB
:102320000F7907F00307012F01D0022F16D187681C
:102330004FEA420806FA08FC27EA0C07D1F80CC05D
:102340000CFA08FC4CEA070CC0F808C04768A74321
:102350000C79C4F3001494403C4344600C79E4438A
:10236000A4070AD0C4684FEA420C06FA0CF7BC4333
:102370008F6807FA0CF72743C7600C7904F0030451
:10238000022C12D1D40800EB840CDCF82040570753
:10239000FF0E09FA07F824EA0804D1F8108008FAB9
:1023A00007F848EA0408CCF8208004684FEA420C99
:1023B00006FA0CF7BC430F7907F0030707FA0CF78E
:1023C000274307604C6814F4403F70D03C4C2768AA
:1023D00047F480472760246822F0030704F4804410
:1023E0000094384C07EB040CDCF8084897074FEAD8
:1023F000177809FA08F7BC43334FB84202D10027D7
:1024000024E054E0314FB84201D101271EE0304FA3
:10241000B84201D1022719E02E4FB84201D103275B
:1024200014E02D4FB84201D104270FE02B4FB842E2
:1024300001D105270AE02A4FB84201D1062705E05D
:10244000284FB84201D1072700E0082707FA08F70C
:102450002743CCF80878DAF800405746D1F804C092
:102460009C435FEACC3C00D51C433C60DBF8004059
:102470005F46D1F804C09C435FEA8C3C00D51C4306
:102480003C60DEF800407746D1F804C09C435FEA28
:10249000CC2C00D51C433C60084F0C373C68D1F86D
:1024A00004C09C435FEA8C2C00D51C433C60521C4A
:1024B000102AFFF42FAFBDE8F88F0000003C014068
:1024C0004438024000300140000002400004024055
:1024D00000080240000C02400010024000140240BC
:1024E00000180240001C02400AB1816170470904D3
:1024F000FBE700000148806870470000E000002012
:1025000090F83C10012912D0012100F83C1F242131
:10251000417050F83C1CCA6822F00C0242F00402E0
:10252000CA602021417000210170084670470220D6
:10253000704790F83C10012912D0012100F83C1F8F
:102540002421417050F83C1CCA6822F00C0242F071
:102550000802CA60202141700021017008467047BE
:1025600002207047024881680278114481607047F8
:10257000E00000200B4810B5016841F400710160D3
:10258000016841F480610160016841F4807101607B
:10259000032000F08DF80F2000F006F800F03EF860
:1025A000002010BD003C024010B5014688B000225A
:1025B000362000F05DF8362000F04CF81348002477
:1025C000016841F010010160006805A900F01000E9
:1025D0000690684600F018F900F036F90C49400002
:1025E000B0FBF1F10C480B4A491E026040F2E732A1
:1025F000C0E90324C0E9011400F0F2FC10B101208D
:1026000008B010BD044800F037FDF9E7403802403B
:1026100040420F0000100040FC0C00200C4882B02B
:10262000016841F480410160006800F4804000903E
:102630000748001F016841F08051016000680022D6
:1026400000F0805000900F21901E02B000F010B8F2
:1026500044380240002809DB00F01F0201219140AC
:102660004009800000F1E020C0F800117047000030
:10267000F0B40E4B1B680C46C3F30223C3F10705ED
:10268000042D00D90425191D072901D2002300E0DB
:10269000DB1E012606FA05F1491E214099409E40A5
:1026A000761E16403143F0BC04F0D0BA0CED00E0C9
:1026B000064900F0070208684FF6FF03184040EA99
:1026C0000220034A10430860704700000CED00E050
:1026D0000000FA052DE9F0470E46050065D0DFF849
:1026E0001481D8F80000F7B200F00700B04207D21A
:1026F00088F80070D8F8000000F00700B04254D10C
:1027000028683D4C810712D5400703D5206840F466
:10271000E05020602878000703D5206840F460402E
:1027200020602068A96820F0F00008432060287825
:10273000C0072DD0304968680839012812D0022816
:1027400013D0032811D00968890700292DDA2168E0
:1027500021F0030101432160FFF7CCFE814641F2E5
:10276000883A0EE009688903EFE709688901ECE718
:10277000FFF7C0FEA0EB0901514502D90320BDE8D7
:10278000F0872068696800F00C00B0EB810FEFD192
:10279000D8F80010404601F00701B14207D9077090
:1027A000006800F00700B04201D00120E7E7287878
:1027B000400705D52068E96820F4E0500843206010
:1027C0002878000706D52068296920F4604040EA8F
:1027D000C100206000F058F82168084AC1F30311D5
:1027E000515CC8400649086006480068FFF7DCFEF7
:1027F0000020C4E7003C0240083802408CC60008B4
:10280000EC000020E40000200F2202600C4A136854
:1028100003F003034360136803F0F003836013685D
:1028200003F4E053C36012684FF4E05303EAD202AA
:1028300002610448006800F007000860704700006B
:1028400008380240003C0240044805490068096815
:10285000044AC1F38221515CC8407047EC0000205B
:10286000083802409CC60008044805490068096809
:10287000044AC1F34231515CC8407047EC0000206B
:10288000083802409CC60008104810B5006810F0D7
:102890000C010F4818D0042916D0082914D10B4C6C
:1028A000241F216801F03F02216821680023C1F341
:1028B0008811A1FB0001FDF7E5FC2168C1F301418E
:1028C000491C4900B0FBF1F010BD0000083802407F
:1028D0000024F4002DE9F84F04006ED02078DFF8D2
:1028E0004C93C007A9F104054AD009F1040001681E
:1028F000C1F38101012908D00068C0F381000228DA
:102900000AD1D9F80000400206D52868800337D5DF
:1029100060680028E1D033E06068B0F5803F10D0F7
:10292000B0F5A02F286810D020F4803028602868E7
:1029300020F4802028606068A8B1FFF7DBFD064620
:102940000DE0286840F48030F4E740F480202860EF
:10295000F7E700BFFFF7CEFD801B642873D8286817
:102960008003F7D50CE0FFF7C5FD064605E000BF84
:10297000FFF7C0FD801B6428F0D828688003F7D4D7
:102980002078DFF8AC8280074FF0000A3ED5A748D8
:10299000001D016811F00C0F08D00068C0F3810021
:1029A00002280BD1D9F80000400207D4286880071C
:1029B00016D5E068012800D112E033E1E068B8B133
:1029C0000120C8F80000FFF795FD064605E000BFAE
:1029D000FFF790FD801B0228C0D828688007F7D534
:1029E0002868216920F0F80040EAC10028600DE065
:1029F000C8F800A0FFF77EFD064604E0FFF77AFD69
:102A0000801B02281FD828688007F7D42078000789
:102A100022D5864F87486169703771B10121016005
:102A2000FFF768FD064604E0FFF764FD801B0228FF
:102A300009D838688007F7D50EE0C0F800A0FFF786
:102A400059FD064605E082E0FFF754FD801B022891
:102A50007DD838688007F7D42078400768D5DFF83C
:102A6000CCB100270BF13C0BDBF80000C0000BD40D
:102A7000DBF8001041F08051CBF80010DBF80000CB
:102A8000012700F0805000906B4E3068C00510D4D4
:102A9000306840F480703060FFF72CFD009005E056
:102AA000FFF728FD0099401A022850D83068C00569
:102AB000F6D55E4EA0686C3601280FD00528306828
:102AC00010D020F001003060306820F00400306049
:102AD000A068B8B1FFF70EFD00900FE0306840F03D
:102AE0000100F4E740F004003060F7E7FFF702FD73
:102AF0000099411A41F28830814266D830688007D7
:102B0000F4D50EE0FFF7F6FC009007E0FFF7F2FCCB
:102B10000099411A41F28830814256D830688007C6
:102B2000F4D42FB1DBF8001021F08051CBF8001065
:102B3000A069C8B33D49091D0968C1F38101022993
:102B40004AD00228504607D0C8F8600000E03CE0B8
:102B5000FFF7D0FC04463BE04746C8F86000FFF7AB
:102B6000C9FC064605E000BFFFF7C4FC801B022835
:102B70002BD828688001F7D4D4E907010843A16A5B
:102B80002E4A490802EB0141626A41EA8211084378
:102B900094F82C1040EA0161C9F800100120386651
:102BA000FFF7A8FC044606E03EE000BFFFF7A2FCEA
:102BB000001B022809D828688001F7D534E000BF3F
:102BC000FFF798FC001B022802D90320BDE8F88F0C
:102BD00028688001F4D427E00128F7D0D9F8000054
:102BE000E26900F4800191421CD1226A00F03F01A9
:102BF000914217D147F6C071626A0140B1EB821F62
:102C000010D1A26A4FF0FF3300F4403103EB5202BF
:102C1000B1EB024F06D194F82C1000F07060B0EBCD
:102C2000016F01D00120D1E70020CFE70438024036
:102C300000004742800E4742007000400000FFFF46
:102C400070B5040009D0606A002540B12561656156
:102C5000A56294F8510040B10CE0012070BD60689D
:102C6000B0F5827FF4D0E561F2E784F85050204659
:102C700000F044F8022084F851002068016821F037
:102C800040010160A088218900F4827001F40441B0
:102C90000843A18901F400610843217C01F002018D
:102CA0000843217D01F001010843218B01F40071EB
:102CB0000843217F01F03801084394F8201001F007
:102CC00080010843218D01F4005108432168086008
:102CD000A069042101EA104094F8241001F01001C9
:102CE0000843216848602068C16921F40061C1611E
:102CF0006565012084F85100002070BD10B586B0D4
:102D0000044614216846FDF70DFB144920688842EB
:102D100021D113480021026842F480420260006819
:102D200000F4804005900E481038026842F002021C
:102D30000260006800F0020005904FF460400090CF
:102D40000220CDE90101032003900520049069468B
:102D50000448FFF7D1FA06B010BD0000003800406B
:102D600040380240000402402DE9F84F044690F834
:102D7000500000270A9E1D4692468B464FF00109DF
:102D800001280ED0012084F85000FFF7B3FB8046E5
:102D900094F85100616801280CD0B1F5827F07D109
:102DA00002E00220BDE8F88FA16809B9042801D02B
:102DB0000227C2E0BBF1000F27D0BAF1000F24D0E8
:102DC0001DB394F85100042802D0052084F8510066
:102DD00000206065C4F838A0E587A587C4F830B046
:102DE000E586A5862064606420680168490603D4EE
:102DF000016841F040010160E068B0F5006F606873
:102E000005D0E8B3012D46D07FE0012795E008B159
:102E1000012D39D1206B21680088C860206B801C8F
:102E20002063E08E401EE0862EE0206881688907DE
:102E30000FD5E18E69B1B9F1010F0AD1216B098873
:102E4000C160206B801C2063E08E401EE0864FF046
:102E5000000920688168C9070CD0E18F51B1C068B2
:102E6000A16B0880A06B801CA063E08F401EE087F0
:102E70004FF00109FFF73EFBA0EB0800B04200E075
:102E800009E001D3701C50D1E08E0028CDD1E08F35
:102E90000028CAD13FE0206B216800780873206BBE
:102EA000401C2063E08E401EE0862EE02068816892
:102EB00089070FD5E18E69B1B9F1010F0AD1216BF4
:102EC00009780173206B401C2063E08E401EE08671
:102ED0004FF0000920688168C9070CD0E18F51B11B
:102EE000C068A16B0870A06B401CA063E08F401EFF
:102EF000E0874FF00109FFF7FDFAA0EB0800B042B0
:102F000002D3701C01D010E07EB1E08E0028CDD13C
:102F1000E08F0028CAD142463146204602F0BEFB6F
:102F200028B101272020606507E0032705E0A0689D
:102F300018B92068C16880680090012084F85100A9
:102F4000002084F8500038462CE770477047000096
:102F500070B590F83C20012A32D0012480F83C4022
:102F6000022280F83D2003685A689D6822F07006AE
:102F70000A6832435A60134B02689A4214D0B2F185
:102F8000804F11D0104B9A420ED0104B9A420BD06A
:102F90000F4B9A4208D00F4B9A4205D00E4B9A42E3
:102FA00002D00E4B9A4204D1496825F080031943A0
:102FB000916080F83D40002180F83C10084670BDCB
:102FC000022070BD000001400004004000080040E5
:102FD000000C004000040140004001400018004087
:102FE00010B5040003D094F83D0010B107E00120B3
:102FF00010BD002084F83C00204600F01FF802209D
:1030000084F83D00211D206802F0B4FF012084F8FF
:10301000460084F83E0084F83F0084F8400084F8BD
:10302000410084F8420084F8430084F8440084F8A6
:10303000450084F83D00002010BD000008B5006880
:103040000B49884212D10B48016841F00801016028
:103050000068002200F00800009005213220FFF7F0
:1030600007FBBDE808403220FFF7F4BA08BD0000B6
:10307000000C00404038024090F83D10012901D07A
:1030800001207047022180F83D100168CA6842F0B3
:103090000102CA6000681149884214D0B0F1804F23
:1030A00011D00F4988420ED00E4988420BD00E49EC
:1030B000884208D00D49884205D00D49884202D087
:1030C0000C49884204D1816801F00701062903D028
:1030D000016841F0010101600020704700000140DB
:1030E0000004004000080040000C004000040140C3
:1030F000004001400018004070B5044690F83C00C4
:103100000025012817D0012684F83C60022084F8AD
:103110003D002068826822F0770222F47F428260BC
:103120000868502838D00DDC20284FD005DC90B33B
:10313000102811D14AE0022070BD302846D0402826
:103140000AD13BE060282FD070280DD0B0F5805F09
:1031500003D0B0F5005F12D0012584F83D60002057
:1031600084F83C00284670BDCB68D1E90121206875
:1031700002F064FF2068816841F0770109E0CB68C4
:10318000D1E90121206802F059FF2068816841F4EB
:1031900080418160E1E719E0CA684968206802F06F
:1031A0005FFF5021206806E0CA684968206802F085
:1031B00068FF6021206802F04BFFCEE7CA684968CB
:1031C000206802F04DFF40212068F4E722680146A4
:1031D0001046F0E7704770B50446006801694FF08B
:1031E0000005C943890715D4C168C943890711D4AB
:1031F000E91E016101202077206880698007204650
:1032000002D0FFF7E7FF04E000F098F8204600F056
:10321000C2F8257720680169C943490717D4C168F6
:10322000C943490713D46FF00401016102202077DC
:103230002068806910F4407F204602D0FFF7CAFF63
:1032400004E000F07BF8204600F0A5F82577206820
:103250000169C943090716D4C168C943090712D4D3
:103260006FF008010161042020772068C0698007A1
:10327000204602D0FFF7AEFF04E000F05FF82046E2
:1032800000F089F8257720680169C943C90617D479
:10329000C168C943C90613D46FF010010161082049
:1032A00020772068C06910F4407F204602D0FFF7E5
:1032B00091FF04E000F042F8204600F06CF825771A
:1032C00020680169C943C90708D1C168C943C90752
:1032D00004D1891E0161204600F05EF82068016972
:1032E000C943090609D4C168C943090605D46FF06A
:1032F000800101612046FFF728FE20680169C9436B
:10330000490609D4C168C943490605D46FF0400194
:103310000161204600F04AF820680169C943890626
:103320000BD4C168C943890607D46FF0200101613D
:103330002046BDE87040FFF709BE70BD704770B50C
:103340000D46040003D094F83D0010B107E00120C1
:1033500070BD002084F83C00204600F01BF80220DD
:1033600084F83D00211D206802F004FE20680168F9
:1033700021F00801016054F8460B016829430160FF
:10338000012004F81F09E0752076E0762077A0750B
:10339000002070BD7047704700680349884201D122
:1033A000FFF7E0B87047000000100040704738B5E4
:1033B000044690F83E00202822D181B17AB194F8D9
:1033C0003C0001281CD0012084F83C0020632046EA
:1033D00003F098F8002803D1216B012901D00120C6
:1033E00038BD21680A684968009121680C3151E8AC
:1033F000002F42F0100241E80023002BF5D138BD28
:10340000022038BD7CB50022254B01921446234D85
:103410001B7835E055F82460766886422FD155F840
:10342000240090F84031042B2CD139B380F83E11A0
:1034300055F8240080F83F2102E000BF00F082F838
:1034400055F82430802203F1BC015868FFF7AFFF24
:10345000002855F824004068F0D1806B00680168AE
:1034600021F00801016001A8009055F82400002314
:103470000322D0F8AC00194608F0B4FD02E0641C49
:103480009C42C7DB0198002807D006494FF08050C6
:103490000860BFF34F8FBFF36F8F7CBDC401002066
:1034A000C001002004ED00E07047000070B5044644
:1034B00020680C3050E8001F21F4907140E80012A1
:1034C000002AF5D12068143050E8001F21F00101D6
:1034D00040E80012002AF5D1206B012809D12068AC
:1034E0000C3050E8001F21F0100140E80012002AC3
:1034F000F5D1206840694FF0200241064FF00000EE
:1035000015D52168143151E8003F23F0400341E80C
:103510000035002DF5D1A16B49B109480865A06BB4
:10352000FEF753FD50B1A06B016D884706E0E085C2
:1035300084F83E2020632046FFF7B6FF002070BDD0
:103540006B62000810B504460068406994F83D10AD
:10355000C0F3C010212911D180B12068143050E887
:10356000001F21F0800140E80012002AF5D1606BB5
:1035700008B1FEF7E1FC204602F0CFFE206840696A
:1035800094F83E10C0F38010222911D180B1206838
:10359000143050E8001F21F0400140E80012002ADA
:1035A000F5D1A06B08B1FEF7C7FC204602F08EFEF5
:1035B000002010BD70B516490024144D097822E092
:1035C00055F82420526882421CD155F8240090F806
:1035D0004001042802D070BDFFF7B4FF55F8243035
:1035E000802203F1BC015868FFF7E1FE002855F87E
:1035F00024004068F0D1806B0068016821F0080168
:10360000016070BD641C8C42DADB70BDC401002017
:10361000C001002010F83D1F4078084370470000AB
:10362000F8B5016804460868CA684B6910F00F0FC6
:103630004FF0000559D003F0010602F490773743AC
:1036400065D0C10705D0D10503D5216C41F001013A
:103650002164410705D5D90703D0216C41F002014F
:103660002164810705D5D90703D0216C41F00401FD
:103670002164010707D502F02001314303D0216CFA
:1036800041F008012164216C00293AD0800604D55C
:10369000900602D5204602F04EFE20684069216C5B
:1036A000C0F38010090700D460B3204602F00EFE7C
:1036B00020684069400621D52068143050E8001F7A
:1036C00021F0400140E80012002AF5D1A06BA8B11A
:1036D0006C490165A06BFEF778FC002811D0A06B47
:1036E000016D01B0BDE8F040084783060FD5930691
:1036F0000DD52046BDE8F84002F01DBE2046FFF77C
:1037000059FFF8BD2046FFF755FF2564F8BD266B2D
:103710002023012E79D1C60677D5D60675D508683F
:10372000486800904869400640D5A16B0868406829
:103730000004000CEAD0A28D8242E7D9E085C86976
:10374000B0F5807F2DD020680C3050E8001F21F4A8
:10375000807140E80012002AF5D12068143050E84A
:10376000001F21F0010140E80012002AF5D1206875
:10377000143050E8001F21F0400140E80012002AF8
:10378000F5D184F83E30256320680C3050E8001FE6
:1037900021F0100140E80012002AF5D1A06BFEF7DD
:1037A000CBFBA08DE18D401A81B229E0A08DE18D87
:1037B000401A81B2E08D0028A8D00029A6D0206848
:1037C0000C3050E8002F22F4907240E80026002EC2
:1037D000F5D12068143050E8002F22F0010240E8B3
:1037E0000026002EF5D184F83E30256320680C3089
:1037F00050E8002F22F0100240E80023002BF5D102
:103800002046FFF7FFFDF8BDFFE705062BD515069F
:1038100029D594F83D002128F5D1A068B0F5805F46
:1038200001D12069B0B1206A411C21622168007871
:103830004860E08C401E0004000CE084E3D1206866
:10384000C16821F08001C1602068C16841F0400179
:10385000C160D8E7206A0088C0F308004860206A89
:10386000801C2062E5E74006CDD55006CBD5CA685E
:10387000204622F04002CA6084F83D3000F024FB6C
:10388000C1E700007561000870B5040004D094F829
:103890003D00002510B106E0012070BD84F83C50C9
:1038A000204600F023F8242084F83D002068C168F9
:1038B00021F40051C160204602F09EFD206801699C
:1038C00021F4904101612068416921F02A014161A0
:1038D0002068C16841F40051C1602564202084F84B
:1038E0003D0084F83E00002070BD00002DE9F04F3F
:1038F00087B0044614216846FCF714FDD848D8491F
:10390000D64B10382268DFF85CE300264F0505151A
:103910004FF002084FF003094FF0080C4FF0400B36
:103920009A425CD10A68B24642F400220A600968F1
:1039300001F400210591016841F004010160006873
:1039400002AA00F0040005904FF44060CDE90008A1
:1039500082E8401269467046FEF7CEFCDFF80C8321
:10396000C1494046C8F80010C0E90176C0E90365C6
:10397000C8F81460C8F81860C8F81C60C8F820605F
:10398000C8F82460FEF704FC08B1FDF740FEB74E0E
:10399000B548C4F8388060363030C8F8384086E81A
:1039A0008108C6E903A5C6F814A0C6F818A0C6F891
:1039B0001CA0C6F820A03046C6F824A0FEF7E8FBFD
:1039C00008B1FDF724FE6663002205213420B463AC
:1039D000FEF74EFE3420FEF73DFEA548A6E0A54BBF
:1039E0009A4233D10A6842F480120A60096801F4ED
:1039F00080110591016841F004010160016801F046
:103A000004010591016841F0080101600068029617
:103A100000F0080005909814CDE90008CDE9039C5A
:103A2000644669467046FEF767FC0420CDE900084D
:103A30000296CDE9039469468F48FEF75DFC0022AB
:103A400005213520FEF714FE35209AE08B4B4FF010
:103A5000070C4FF0010A9A4271D181490026091DD5
:103A60000A6842F010020A60096801F0100105912D
:103A7000016841F001010160006801AA00F0010045
:103A80000590581500900220CDF810C082E8410240
:103A9000E04669467A48FEF72FFC0220CDE9005047
:103AA000CDF808A0CDE9039869467548FEF724FCD7
:103AB000DFF8B881734908F1C0084046C8F8001023
:103AC000C0E90176C0E90365C8F81460C8F8186059
:103AD000C8F81C60C8F82060C8F82460FEF758FBDE
:103AE00008B1FDF794FD6748674EC4F83880783018
:103AF000C8F8384086E881080020C6E903057061EF
:103B0000B061F061306270623046FEF741FB08B18F
:103B1000FDF77DFD6663002205212520B463FEF7D5
:103B2000A7FD2520FEF796FD514888300068C16842
:103B300041F01001C16007B0BDE8F08FFFE7534BC3
:103B40009A4221D10A6842F400320A60096801F4FD
:103B500000310591016841F0080101600068694683
:103B600000F00800059060208DE80105CDE9039C78
:103B70004148FEF7C1FB002205212620FEF778FD13
:103B80002620FEF767FDD6E7414B9A42D3D10A685B
:103B9000002642F480220A60096801F48021059120
:103BA000016841F008010160006801AA00F0080006
:103BB0000590981500900220CDF810C082E84102CF
:103BC000E04669462C48FEF797FB4FF400700090E2
:103BD0000220CDE9010ACDE9039869462648FEF79F
:103BE0008BFBDFF8A480204908F1600818394046B3
:103BF000C8F80010C0E90176C0E90365C8F8146090
:103C0000C8F81860C8F81C60C8F82060C8F82460BC
:103C1000FEF7BEFA08B1FDF7FAFC1B4E1248C4F8D5
:103C20003880C0361830C8F8384086E8810800204F
:103C3000C6E903057061B061F061306270623046C0
:103C4000FEF7A6FA08B1FDF7E2FC66630022052143
:103C50002720B463FEF70CFD272092E7004C0040BC
:103C6000403802400008024040600240BC0A002088
:103C70006809002000500040000C02400010014084
:103C80000000024040640240DC0B00200044004081
:103C90000048004090F83E30202B0ED159B152B16F
:103CA00090F83C30012B08D0012380F83C300023F1
:103CB000036302F06FBC01207047022070470000D0
:103CC0007CB500261D49019634461B4D097825E038
:103CD00055F82420526882421FD155F8240090F8EC
:103CE000401101291CD190F8A610BC3001F080FCD5
:103CF00055F82430012203F1A6015868FFF7CAFFE6
:103D000008F00CFA0246009655F8240001AB072192
:103D1000D0F8B00008F0E6FB02E0641C8C42D7DB70
:103D20000198002807D006494FF080500860BFF383
:103D30004F8FBFF36F8F7CBDC4010020C0010020F6
:103D400004ED00E0704700002DE9F843044690F8C8
:103D50003D001F4616460D4620284CD1C5B1BEB1C8
:103D600094F83C00012846D0012084F83C004FF034
:103D70000008C4F84080212084F83D00FEF7BAFB1B
:103D8000A6848146E684A068B0F5805F03D004E095
:103D90000120BDE8F883206928B12E465FF00005B8
:103DA00084F83C800EE00026FAE78021204602F0ED
:103DB0000CFCA0B9AEB116F8010B21684860E08C8C
:103DC000401EE084E08C4B464FF000020097002834
:103DD000EBD14FF04001204602F0F7FB30B1032059
:103DE000D7E735F8020BC0F30800E6E7202084F897
:103DF0003D000020CDE70220CBE7000070B504466F
:103E000090F83D00202836D191B38AB394F83C0055
:103E1000012830D0012084F83C002162A284E28491
:103E200000252564212084F83D00636B1348D86386
:103E3000636B13481864636B1248D864606B134655
:103E400005652668606B321DFEF70CFA21686FF07D
:103E50004000086084F83C502068143050E8001F8F
:103E600041F0800140E80012002AF5D1002070BD29
:103E7000FFE70120FBE70220F9E70000816200086C
:103E8000C36200088561000890F83D30202B18D1EE
:103E9000A9B1A2B190F83C30012B12D0016282840A
:103EA000C28400210164212280F83D2080F83C106A
:103EB0000068C16841F08001C160002070470120A6
:103EC00070470220704700001CB5144B002101917F
:103ED000114A1B7812E000BF52F821406468844206
:103EE0000BD101A8009052F8210000231A46D0F807
:103EF000AC00194608F076F802E0491C9942EBDB69
:103F00000198002807D006494FF080500860BFF3A1
:103F10004F8FBFF36F8F1CBDC4010020C001002074
:103F200004ED00E07047FEE7234D8CB0287828B9F7
:103F300022A002F061FE002006F09AFD00273E4616
:103F40004FEA070804F02FFE04460021286B04F016
:103F5000F1FE88B900231A4604A9286A04F058FE25
:103F600050B90DF1140CCDF800809CE80E001D48EE
:103F700004F068F904F1C806E01B642818D3B442C1
:103F800016D30021686B04F0D5FE88B90120A87013
:103F9000002201A9134804F05BFA85F802808DF82D
:103FA000048000231A4601A9A86A04F08FFE274660
:103FB0000A2004F0EBFDC5E718000020416371758D
:103FC000697265206C6566745265637652617744E8
:103FD000617461507472206661696C6564210D0AB8
:103FE00000000000C80400202DE9F04385B0142132
:103FF0006846FCF797F94FF4007401250026022764
:104000008DE8F000DFF83C9069464846FEF774F909
:104010004FF4006801A8CDF8008080E8E0000A4D68
:1040200069462846FEF768F9002241462846FEF711
:104030005BFA002221464846FEF756FA05B0BDE875
:10404000F0830000000802400000024000210A4600
:1040500000EBC103491C9A620529F9DB7047000097
:104060002DE9F0410446DDE90765069F4165002121
:104070004FEA010004EBC10C491CCCF828000529CB
:10408000F8DB206266616062C4E90127C4E903537A
:10409000207720650120206004F1580002F03BF8F1
:1040A00004F16000BDE8F04102F035B8002101776D
:1040B0000162416A002901D0FFF7C8BF704708B507
:1040C0006A4600F001F808BD2DE9F04198B01646A7
:1040D0000F4604464FF0FF384546582220496846AF
:1040E000FCF707F9206A80BB16A802F014F816A89E
:1040F000616802F008F807B96F46398BA161B87E94
:10410000606204F1600001F0F3FF3A46A1682069A3
:1041100000F008FA011E1EDD16AA204606F076F908
:10412000050018D116AA0221204606F009FF022830
:104130000AD10027377077703146701CE3686269D6
:1041400000F034F8012801D0454604E0357815B96F
:1041500001202062277718B02846BDE8F0810000D2
:10416000CCC600082DE9FC41074615460E46002442
:104170006846009305F050FF60F30704C4F3C000E5
:1041800030702009387001A9009800F0F7F8009904
:10419000019A014400910A44511A022904DB68463D
:1041A00005F040FF28800120BDE8FC812DE9FC419D
:1041B000074600240E4625466846009205F02CFF6F
:1041C0000146204661F307000009022819D101A920
:1041D000009800F0D3F80099054608440199009032
:1041E0000144081A02280CDB684605F015FF60F34D
:1041F000070404F001003870684605F00DFF3070C8
:1042000001252846BDE8FC812DE9FC5F8046DDE9FB
:104210000EA00024CDE90004994617460E46254617
:10422000DDF834B0684605F0F7FE60F307042009B6
:1042300003282CD1C4F3C00188F80010C4F3410056
:10424000306004F00100387001A9009800F096F881
:104250000099054608440199009044182246694691
:104260000C9805F0E8FE90B10098201A0FD4306841
:10427000002804DD684605F0D5FEA9F80000009886
:10428000211ACAF8001000990125CBF80010284621
:10429000BDE8FC9F2DE9FC4781460A980024009068
:1042A0009A46164688462546684605F0B5FE0146FC
:1042B000204661F307000009092826D101A90098CA
:1042C00000F05CF8009905460844019900904718F1
:1042D000381A022819DB684605F0A4FEA9F8000088
:1042E00034600EE03168414502DD4FF0FF350CE0EF
:1042F000684605F091FE31688B00491C31604AF830
:1043000003000098B842EDD301252846BDE8FC879C
:104310007CB504464FF0FF35684601F0FCFE684668
:10432000616801F0F0FEA168206900F0C2F9011E89
:1043300004DD6A46204606F069F805462046FFF788
:10434000B5FE28467CBDF8B5012500240E4607467B
:104350000C60641C042C0FDC01216846B84701285E
:104360000AD19DF80000316800F07F0202FB0511C0
:10437000ED0131600006ECD42046F8BD024A106021
:104380000248FFF7E0BF0000BC01002011760008E2
:1043900010B503460020CA1701EB526424F07F02D7
:1043A000891ACAB2E111002902DD00BF42F0800281
:1043B0001A5400F10100EEDC10BD70B504680E4621
:1043C00024B12046FBF7B9FF054601E0D0E90154CE
:1043D0003046FBF7B2FF854205D12A4631462046DA
:1043E000FBF7C0FF08B1002070BD012070BD0000C8
:1043F000401C802801DA401C7047B0F5804F01DA7C
:10440000801C70470349884201DAC01C7047001DB8
:1044100070470000FFFF1F002DE9F04306464FF0F4
:10442000FF37006A89B015463C464FF000098846C0
:1044300078B307A801F06FFE07A8716801F063FE6A
:104440002878012801D0022803D1304603F0B0FCBF
:10445000A880D5E90201CDE90501CDE90289CDF8B1
:104460001090A9886878CDE900012B780022B16806
:10447000306900F024F9011E29DD07AA304605F055
:10448000C5FF040021D12878012803D0022813D0C9
:104490001BE01CE007AA0421304606F051FD042869
:1044A00011D1F068009001AA02A903A87369FFF76F
:1044B00059FE012807D108E007AA0721304606F077
:1044C0003FFD0728EDD03C4601E0601C02D130469C
:1044D000FFF7ECFD09B02046BDE8F083F8B50024F5
:1044E000069E05460090042901DAA01EF8BD62F37D
:1044F000071463F3C304062A24F0060000D1801CCD
:10450000C1B2684606F0C8FF02210098FFF740FFDD
:104510000099084400903146684606F0C3FF0098B1
:10452000401BF8BD2DE9F843074600908846144625
:104530000025104600F082F88146FFF759FF4045FC
:1045400002DDA81EBDE8F8832E46314666F307015A
:104550006846103106F0A0FF49460098FFF718FFA3
:10456000009908440090207A04281DD02FA16846A5
:1045700006F07EFF0321684606F08EFFA07E66F3FC
:10458000070560F34105E07E08B145F004056807C2
:1045900007D594F83D0060F3C40594F83C0060F33F
:1045A0004515206C40B905E022A1684606F060FF81
:1045B0000421E0E7A06C08B145F08005E06C08B983
:1045C000606D08B145F040052946684606F064FF75
:1045D000218B684606F066FF04F10C0168460EC99F
:1045E00006F06FFFE07E68B12434684694E80E0060
:1045F000243C06F066FF3034684694E80E00303CF8
:1046000006F05FFF280605D504F1400168460EC993
:1046100006F057FF680605D54C34684694E80E004E
:1046200006F04FFF0098C01B8CE700004D51497306
:10463000647000004D5154540000000070B50446F1
:10464000007A0025032802D0042802D002E00C25BD
:1046500000E00A2504F10C0007C800F0ABF905449E
:10466000E07EAD1C78B1243494E80700243C00F0CF
:10467000A1F93034064694E80700303C00F09AF97E
:10468000304405442D1D206C08B9A16C29B1D4E932
:10469000111200F08FF90544AD1CE06C08B9616D92
:1046A00029B1D4E9141200F085F90544AD1C28465F
:1046B00070BD0E2200F0B3B80C2200F0B0B82DE9A6
:1046C000FC5F1C46129ECDE90060DDF838B09046D4
:1046D000DDF830A0DDE90F2389460746594620461C
:1046E00000F030F80546FFF783FE484503DD6FF024
:1046F0000100BDE8FC9F302168F3C30164F342016F
:104700006AF3000101A806F0C7FE29460198FFF7E9
:104710003FFE019908440190DDE90F23594601A8A5
:1047200006F0CFFE002C03DD01A80D9906F0BAFEBD
:10473000324611990198FBF7DCFD01983044019055
:10474000C01BD6E770B50E46114604461A463046E1
:10475000049D00F02FF92844801C002C00DD801CF3
:1047600070BD00002DE9FF4F83B0064610A88946B2
:1047700090E8800900249246254641463846009636
:1047800000F036F80190FFF733FE484503DDA01E28
:1047900007B0BDE8F08F64F3070480346AF3C30404
:1047A00024F00600801CC1B2684606F075FEDDE903
:1047B0000001FFF7EDFD0099084400906846069956
:1047C00006F070FE0FE000BF05EB450108EB81002D
:1047D00090E80E00684606F074FE1BF82510684647
:1047E00006F05AFE6D1CBD42EEDB0098801BCFE741
:1047F0002DE9F04102250F46064600240AE000BFDD
:1048000004EB440007EB800007C800F0D3F8054430
:10481000641CED1CB442F3DB2846BDE8F08138B5DA
:10482000002304460090022901DA981E38BD19467B
:1048300063F3070162F30711684606F02DFE0021BD
:104840000098FFF7A5FD009908440090001B38BDB3
:104850002DE9F0471746894606464FF0FF350024FC
:1048600006EBC408D8F8280018B14946FBF76CFDE0
:1048700030B1641C052CF3DB17B3681C0DD01FE0AE
:10488000002F06D106EBC4014FF000008862C8F883
:104890002C004FF000050DD112E04FF0000400BFD6
:1048A00006EBC400806A20B104F10104052CF7DB9B
:1048B00006E00025052C03DA06EBC400C0E90A97E0
:1048C0002846BDE8F0871CB501AC009400F001F863
:1048D0001CBD2DE9FF478CB00026054607960896BB
:1048E00006914FF0FF38189F006A9A468946444661
:1048F00020B309A801F00FFC09A8696801F003FCC6
:10490000284603F055FA83B20EAA06A901208DE8C5
:1049100007000022A9682869FFF724FF011E27DD90
:1049200009AA284605F072FD04001FD109AA092131
:10493000284606F005FB092801D0444618E00296F7
:104940003E70E9686869CDE900013B4602AA012191
:1049500003A8FFF79FFC012808D13878802805D0EC
:10496000524649462846FFF773FF0446601C02D1B1
:104970002846FFF79BFB10B02046BDE8F0877CB5CA
:1049800006460D460024684601F0C5FB29466846E8
:1049900001F0B9FB6946304603F0C8F8002802DA96
:1049A0004FF0FF3404E0684601F0BDFB0028F1D071
:1049B00020467CBD10B510B1FBF7BFFC0146084690
:1049C00010BD00007FB500212148009101910291A6
:1049D0001E4A0391026001244FF480320461C0E951
:1049E0000121047680F820101A4AC0E90A21032523
:1049F000C561C16080F830104461FCF7B1FE08B1B8
:104A0000FCF705FE0820CDE9000407200290694666
:104A10000F48FCF7FFFD08B1FCF7F9FD09200090F5
:104A20000220019069460A48FCF7F4FD08B1FCF742
:104A3000EEFD0D20CDE9000569460548FCF7EAFDCD
:104A4000002801D0FCF7E3FD7FBD000000200140FD
:104A5000400800200100000F10B516488AB0144924
:104A6000016006210024C0E901140904C0E90341E2
:104A70004FF4A0014161047644768476C4760477CD
:104A80004477FDF7D0F808B1FCF7C1FD0E2009907E
:104A9000012001940294CDE906400394009408900B
:104AA0000594694604940348FCF7C4FE0AB010BD9F
:104AB00000640040C008002010B517488AB01549AE
:104AC000016003210024C0E901144FF42021C0E952
:104AD00003414FF480114161047644768476C476B4
:104AE00004774477FDF79FF808B1FCF790FD029436
:104AF0000E20012100940194039407910990CDE9BF
:104B000005040891049469460348FCF793FE0AB033
:104B100010BD000000680040E8080020214808B5EA
:104B2000016841F480010160016801F48001009195
:104B3000016841F4001101600068002200F40010D7
:104B4000009005210C20FDF793FD0C20FDF782FD60
:104B5000002205210D20FDF78BFD0D20FDF77AFDCC
:104B6000002205210E20FDF783FD0E20FDF772FDCA
:104B7000002205210F20FDF77BFD0F20FDF76AFDC8
:104B8000002205213A20FDF773FD3A20FDF762FD72
:104B9000002205214620FDF76BFDBDE808404620B8
:104BA000FDF758BD3038024010B502F057FE002224
:104BB0001146012004F0ECF8364C00221146206327
:104BC000012004F0E5F8002260631146012004F0A2
:104BD000DFF80022A0631146012004F0D9F8002379
:104BE000E0631A4601212C4804F092F90023206466
:104BF0001A460121294804F08BF9002360641A4603
:104C00000121274804F084F90023A0641A460121F9
:104C1000244804F07DF9E06400221C210A2004F0FD
:104C200029F8206200221C210A2004F023F8606287
:104C300000220C210A2004F01DF8A06200220821A5
:104C40000A2004F017F8E0623221206C04F09CF98D
:104C5000C821606C04F098F93221A06C04F094F93A
:104C6000C821E06C04F090F90F4A00210F4804F0CD
:104C700009F90D4A6061243200210D4804F002F95F
:104C8000094AA061483200210A4804F0FBF8E061BB
:104C900010BD000018000020C1600008A9600008D5
:104CA000CD600008B560000868C50008115900080B
:104CB000293F0008295500082DE9F04F87B014213D
:104CC0006846FBF72FFB59480024016841F01001AA
:104CD0000160016801F010010591016841F0800157
:104CE0000160016801F080010591016841F0040153
:104CF0000160016801F004010591016841F00201C1
:104D00000160016801F002010591016841F00801AC
:104D10000160016801F008010591016841F001019D
:104D200001600068DFF8088100F0010005900022B2
:104D30004BF604714046FDF7D7FBDFF8F8900022F0
:104D40004FF480614846FDF7CFFB0122110348462E
:104D5000FDF7CAFBDFF8E0A04FF4207600223146D1
:104D60005046FDF7C1FBDFF8D4B04FF400670022D6
:104D700039465846FDF7B8FB002208213048FDF7B8
:104D8000B3FB40F6047000900125CDE9015469465B
:104D900040460394FDF7B0FA4FF44050CDE90005CA
:104DA00069464046CDE90245FDF7A6FAE803CDE99C
:104DB00000050320CDE9024069464046FDF79CFA14
:104DC000F0000090CDE90154694648460394FDF790
:104DD00093FACDE900650226CDE9024669465046C0
:104DE000FDF78AFA28028DE8310069465046FDF742
:104DF00083FA4FF488508DE8310069465846FDF734
:104E00007BFA00970396CDE9015469465846FDF7B1
:104E100073FA08200090CDE90154694608480394CC
:104E2000FDF76AFA07B0BDE8F08F000030380240A5
:104E3000001002400004024000080240000002404E
:104E4000000C02402DE9F041204804242049047060
:104E50000025416005724FF47A76A0F8A26000F553
:104E60005277C0F898704FF00808C560A0F8A48089
:104E700080F8404100F028F9144800F0AFF9A7F598
:104E8000E2701449047041600572A0F8A260C0F895
:104E90009870C560A0F8A48080F8404100F014F933
:104EA000A7F5E27000F09AF9084803F043F90A4CBC
:104EB0000125606000B12570084803F03BF9A0604F
:104EC000002800D06570BDE8F0810000C804002013
:104ED000F0090020780A0020180000204C0600206D
:104EE0000F4810B50D4901604FF4827141600021F7
:104EF0008160C1604FF400720161C0E90512C161B7
:104F00000162416281620A21C162FDF799FE0028B7
:104F100003D0BDE81040FCF77ABB10BD003800405C
:104F20001009002010B586B000241948009401949F
:104F300002940394049415490594C0E90014611E79
:104F4000C0E9024104618461FEF74AF808B1FCF748
:104F50005EFB4FF48050009069460D48FEF7CCF898
:104F600008B1FCF754FB08210948FEF7E8F908B13D
:104F7000FCF74DFB049404A905480594FDF7E8FFF0
:104F8000002801D0FCF743FB06B010BD000C004028
:104F9000D80100200C4810B50A4901604FF4E131F6
:104FA0004160002181600C22C160C0E9041281616E
:104FB000C161FEF769FC002803D0BDE81040FCF792
:104FC00026BB10BD004C0040680900200E4810B5FB
:104FD0000C4901604FF4E1314160002181600C22F5
:104FE000C160C0E904128161C161FEF74DFC08B1E6
:104FF000FCF70DFBBDE81040012204490248FEF712
:1050000049BE000000500040AC090020DC00002038
:105010000C4810B50A4901604FF4E13141600021AC
:1050200081600C22C160C0E904128161C161FEF798
:105030002BFC002803D0BDE81040FCF7E8BA10BDF7
:1050400000100140F00900200E4810B50C49016025
:105050004FF4E1314160002181600C22C160C0E960
:1050600004128161C161FEF70FFC08B1FCF7CFFAB1
:10507000BDE81040012204490248FEF70BBE0000C3
:1050800000440040340A0020DC0000200C4810B529
:105090000A4901604FF4E1314160002181600C2236
:1050A000C160C0E904128161C161FEF7EDFB002817
:1050B00003D0BDE81040FCF7AABA10BD004800407C
:1050C000780A0020FEE7000038B52D4D0446287808
:1050D000022853D204F1BC0000F0A9FA207803287A
:1050E00002D0042808D0FEE7264A2146264803F0CD
:1050F000C9FEC4F8AC001EE0224A214624322348EF
:1051000003F0C0FE44F8AC0F2148009034F80A1CAC
:10511000002220A0A36807F083F9A060AC3C40B354
:10512000184A1021183A022003F0A4FDC4F8A80080
:1051300000B3D4F8AC00F0B11A4800900022052169
:1051400019A0D4F8B03007F06BF9C4F8B00098B1EA
:105150000C4A01214832084603F01AFEC4F8B80090
:1051600058B107492878091D41F82040401C287093
:1051700038BDFEE7FEE7FEE7FEE7FEE7FEE70000DC
:10518000C001002044C70008015D00089D5B0008C5
:1051900065AD00087854696D657254696D656F7509
:1051A0007400000011AD000854696D657254333508
:1051B000000000000FB410B504460078042800D0A9
:1051C000FEE703F05DFE069000231A4603A9D4F81B
:1051D000A80006F001FB10BC5DF814FB10B50446F6
:1051E00090F84001012806D0032839D0022837D092
:1051F000042800D0FEE7E06818B1218A0022FDF7FC
:1052000073F92078032802D1D4F8980080B160683F
:10521000FEF700FA2028FAD194F8400104286068CB
:1052200007D0012204F1A601FEF734FD78B1FEE7B4
:10523000FEE7802204F1BC01FEF7B9F800B1FEE7F9
:105240006068806B0068016821F008010160207AC5
:105250000028207802D0042802D1FEE7032808D0D5
:10526000002084F8930004F8940FA08160812081CD
:1052700010BDFEE7FEE700002DE9F04788B00446C8
:1052800092460D46084605A904AACDE9002102AEC2
:1052900006AF324635A1331DFBF774F8042804D05D
:1052A0004FF0FF3008B0BDE8F087002016F820105E
:1052B0003954401C0428F9DB0527012631462EA06D
:1052C00001F09AFC207B02F0D7FA207B00235246A3
:1052D000012105F01DF9E168884203D033A001F0F7
:1052E0008BFC30E05246294639A001F085FC207B3A
:1052F000524606A902F0FAFA8046E0684FF442717D
:1053000001EB401001F0AAFB8146E0684FF4027106
:1053100001EB401001F0A2FB00F01F034A4641469A
:10532000364801F069FCB8F1010F02D1B9F1170F4D
:1053300013D033A0E16801F05FFC207B02F09CFAFF
:10534000C820FCF7C7FF761CBE42B7DD39463BA03C
:1053500001F052FC6FF00100A4E753462A4645A035
:10536000E16801F049FC00209CE7000025642E253F
:10537000642E25642E2564005B4E6574776F726B16
:10538000436F6E6E6563745D20617474656D7074D7
:105390002025643A206F70656E696E6720736F63B5
:1053A0006B65742E2E2E0D0A000000005B4E657496
:1053B000776F726B436F6E6E6563745D20736F639E
:1053C0006B65742829206661696C65640D0A0000AC
:1053D0005B4E6574776F726B436F6E6E6563745D61
:1053E00020636F6E6E656374696E6720746F20252D
:1053F000733A25642E2E2E0D0A0000000CC80008FA
:105400005B4E6574776F726B436F6E6E6563745D30
:1054100020536F636B657420256420636F6E6E6527
:105420006374696F6E206661696C65642C20636CBF
:105430006F73696E672E2E2E0D0A00005B4E657429
:10544000776F726B436F6E6E6563745D2046616942
:105450006C656420746F20636F6E6E656374206189
:105460006674657220256420617474656D70747350
:105470000D0A00005B4E6574776F726B436F6E6E42
:105480006563745D20536F636B65742025642063CE
:105490006F6E6E656374656420746F2025733A25A2
:1054A000640D0A00007B02F031BC00000021C160E5
:1054B000034901600349416003498160704700006E
:1054C0000B6A0008336A0008056A000800B587B057
:1054D00014216846FAF726FF0C480021026842F0C2
:1054E00008020260006800F00800059008200090A3
:1054F0000120CDE901010220039069460448FCF730
:10550000FBFE022000F006F807B000BD3038024074
:10551000000C0240022804D1002208210148FCF7B7
:10552000E3BF7047000C0240254D8CB0687828B965
:1055300024A001F061FB002005F09AFA00273E4606
:105540004FF0010803F02FFB04460021A86B03F085
:10555000F1FB88B900231A4604A9686A03F058FBD6
:1055600050B90DF1200CCDF800809CE80E001F48CA
:1055700002F068FE04F1C806E01B64281BD3B442A5
:1055800019D30021E86B03F0D5FB18B113E0052017
:1055900003F0FCFAA8780028F9D1012201A91348E8
:1055A00002F056FF8DF8048000231A4601A9A86A6C
:1055B00003F08CFB27460A2003F0E8FAC2E700005C
:1055C000180000204163717569726520726967680F
:1055D00074526563765261774461746150747220CD
:1055E0006661696C6564210D0A0000004C060020AC
:1055F00090F88120815490F88110491C01F07F01BE
:1056000080F8811090F88210802906D0002280F85E
:105610008320491C80F882107047012180F8831094
:1056200010F8801F491C01F07F01017070470021B4
:1056300000F8801F41708170C170704790F882201F
:10564000AFF3008010B590F8823013B10AB1802A10
:1056500001D9002010BD00230DE000BF90F880406C
:10566000045DCC5490F88040641C04F07F045B1C03
:1056700080F88040DBB2934203D290F882409C4293
:10568000ECD890F88210C91A80F88210002180F8B6
:105690008310FFF7CCFF184610BD000038B5044654
:1056A0001248134B0068B0FBF3F04FF47A73584381
:1056B00000906068B0F5827F0DD10B460092002209
:1056C0008021204600F016F870B1606D40F0200097
:1056D0006065032038BD009830B1401E00902068FE
:1056E0008068C0430006F6D5002038BDEC000020DD
:1056F00000366E012DE9F8431E4691468846044661
:10570000089DFCF7F7FE401B351AFCF7F3FE074631
:1057100025480068C0F3CB30684338E0701C37D0B0
:10572000FCF7E8FEC01BA84203D215B1009860B395
:105730002CE02068416821F0E00141606068B0F52C
:10574000827F0BD1A068B0F5004F02D0B0F5806F1A
:1057500004D12068016821F040010160A06AB0F521
:10576000005F09D12068016821F4005101602068C0
:10577000016841F400510160012084F851000020CB
:1057800084F850000320BDE8F8830025401E0090F7
:105790002068816838EA010004D000214945BDD164
:1057A0000020F0E70121F9E7EC0000202DE9F041AD
:1057B0000F460446002690461D46D0F8B800711EDC
:1057C00006F052FA207A00B1FF2694F8A70000B143
:1057D000FE2617F0FF0001D0F72801D9F72600E0D8
:1057E0005EB175B20023A5741A461946D4F8B80004
:1057F00005F0F2FF2846BDE8F081C4F89850E07447
:10580000C7F30723380C2375010A61751FFA88F264
:10581000A075170A06210026D0B2052B16D008DC89
:10582000012B11D0022B0FD0032B0DD0042B5FD1F5
:105830000AE0062B13D04FF0070C04F113010F2BD5
:1058400013D0102B54D133E0E7750CE0288800B159
:10585000FF20E07584F8186084F8931048E02888E9
:10586000000AE07528782076F6E713095B061B0E20
:10587000120701D05B1CDBB2E7752076637684F8F3
:1058800093C0002011E0C20720F0010201D0AA5C01
:1058900001E0AA5A120A94F893707A5494F893206B
:1058A000521C401C84F8932080B29842EBD31FE036
:1058B000E77520765000607684F893C0002015E0EC
:1058C00035F8103094F893701B0A7B5494F8933099
:1058D0005B1CDBB284F8933015F810705F5494F8B9
:1058E00093305B1C401C84F8933080B28242E7D82E
:1058F000204604F0B5FD00231A461946D4F8B80036
:1059000005F06AFF012084F8A700A674002072E762
:105910009AB002F013FC012805D049A001F06CF9FF
:10592000002005F0A5F85048FFF7C0FD40F25B7479
:105930004FF47A7522464DA14B48FFF79DFC18B1F4
:105940004EA001F059F925E057494FF48070CDE998
:105950000001A1F58073444902904FF4FA6201F10D
:105960001000FEF77DFB5822504903A8FAF7C1FC4E
:1059700004208DF814004EA006903C20ADF82400C1
:10598000394803A91030FEF79AFB010006D04CA05D
:1059900001F032F9284605F045F8CBE752A001F0B6
:1059A0002BF93148554B002255A11030FEF78BFFE3
:1059B00006462D48514B002255A11030FEF783FFBB
:1059C00050EA060102D057A001F016F906F0A0FB3C
:1059D0005C4E00BF00F014FFC00711D022486421C4
:1059E0001030FEF7CCFF010018D057A001F004F9E9
:1059F0001D481030FEF78CFC1B48FFF753FD99E75C
:105A00005CA001F0F9F818481030FEF781FC164848
:105A1000FFF748FD6049002008708BE700231A4615
:105A20006946B06A03F0F4F820B99DF800106846A2
:105A300003F044F802F0D4FF0A2003F0A7F8C9E706
:105A4000573535303020696E6974206661696C6540
:105A5000642C2073746F70204D5154542074617302
:105A60006B2E0D0A00000000500200203139322E4A
:105A70003136382E312E3130000000004D51545453
:105A8000204E6574776F726B20636F6E6E65637402
:105A9000206661696C65642C207265747279206976
:105AA0006E2031730D0A0000C80300202CC60008C8
:105AB00053544D33325F436C69656E7400000000CF
:105AC0004D51545420436F6E6E6563742066616956
:105AD0006C65642C2072633D25642C2072657472A1
