:020000040800F2
:1000000010630020610200085942000857380008B8
:10001000D1400008350A000885580008000000009B
:10002000000000000000000000000000A101000826
:10003000090C000800000000FD010008E54F000861
:100040007B0200087B0200087B0200087B0200089C
:100050007B0200087B0200087B0200087B0200088C
:100060007B0200087B0200087B0200087B0200087C
:100070001D0B0008290B0008350B0008410B000878
:100080007B0200087B0200087B0200087B0200085C
:10009000390A00087B0200087B0200087B02000886
:1000A0007B0200087B0200087B0200087B0200083C
:1000B0007B0200087B0200087B0200087B0200082C
:1000C0007B0200087B0200087B0200087B0200081C
:1000D0007B020008615800086D5800087958000834
:1000E0007B0200087B0200087B0200087B020008FC
:1000F0007B0200087B0200087B0200087B020008EC
:100100007B0200087B020008A95000087B0200085F
:100110007953000885530008F55000087B02000859
:100120007B0200087B0200084D0B00087B020008E0
:100130007B0200087B0200087B0200087B020008AB
:10014000450A00087B0200087B0200087B020008C9
:100150007B0200087B020008590B00087B020008A4
:100160007B0200087B0200087B0200087B0200087B
:100170007B0200087B0200087B02000800000000F0
:100180007B0200087B020008DFF810D000F03AFB89
:1001900000480047497C0008AFF30080106300204E
:1001A0002C4B19680868B0E8F04F80F30988BFF35A
:1001B0006F8F4FF0000080F311887047000000003F
:1001C00008480068006880F308884FF0000080F35A
:1001D000148862B661B6BFF34F8FBFF36F8F00DF35
:1001E00000BF00BF08ED00E0DFF80C00016841F43B
:1001F00070010160704700BF88ED00E0EFF30980F7
:10020000BFF36F8F134B1A681EF0100F08BF20ED5D
:10021000108A20E9F04F106009B44FF0500080F3CD
:100220001188BFF34F8FBFF36F8F0DF0FFFC4FF0BE
:10023000000080F3118809BC19680868B0E8F04F25
:100240001EF0100F08BFB0EC108A80F30988BFF3CE
:100250006F8F7047D8000020EFF3058070470000D3
:100260000648804706480047FEE7FEE7FEE7FEE750
:10027000FEE7FEE7FEE7FEE7FEE7FEE7995000082F
:10028000890100082DE9F05F0546002092469B4653
:1002900088460646814640241BE02846414647469C
:1002A000224600F0A8F953465A46C01A914110D38D
:1002B00011461846224600F08FF92D1A67EB010807
:1002C0004F4622460120002100F086F917EB000975
:1002D0004E41201EA4F10104DFDC484631462A4687
:1002E0004346BDE8F09F40EA01039B0703D009E0C5
:1002F00008C9121F08C0042AFAD203E011F8013B12
:1003000000F8013B521EF9D27047D2B201E000F86A
:10031000012B491EFBD270470022F6E710B51346A9
:100320000A4604461946FFF7F0FF204610BD30B5D7
:1003300004460020034600E05B1C934203D2E05CCD
:10034000CD5C401BF8D030BD2DE9FE4F804681EAE0
:100350000300C00F0C46009021F0004123F000453F
:10036000B8EB0200A94105D24046214690461C4602
:100370000B46024623F00040104347D0270DC7F339
:100380000A00C3F30A510290401A019040286BDA28
:10039000C3F3130040F4801B0098924620B1002361
:1003A000D2EB030A63EB0B0B01985946C0F14002F4
:1003B000504600F011F906460D4650465946019A3E
:1003C00000F029F910EB08006141002487EA11527E
:1003D00084EAE7731A4340D0009A62B3019A012A73
:1003E0004FEA075215DC001B61EB02014FF000429F
:1003F00002EA0752CDE90042001C41F58011324665
:100400002B4600F029F903B0BDE8F08F40462146A5
:10041000F9E7001B61EB0201001C41F58013001895
:100420005B412018A2F5001747EB030140EAD570A5
:10043000B6196D4111E06D084FEA360645EAC07500
:100440004FEA0752001B61EB0201001C41F58011CD
:1004500049084FEA30000019514132462B4603B09B
:10046000BDE8F04F00F0E9B80098012240000023F9
:10047000D0EB020263EBE073009821464FEAE07490
:10048000B8EB000061EB0401E9E783F000435BE7B0
:1004900081F0004158E72DE9FE4F81EA030404F0A2
:1004A000004421F0004100944FF0000B23F0004382
:1004B00050EA01045ED052EA03045BD0C3F30A544D
:1004C000C1F30A552C44A4F2F3340194A0FB025466
:1004D000C1F3130141F48011C3F3130343F48013F8
:1004E00001FB024400FB034E840A970A44EA81544C
:1004F00047EA8357A4FB076802958D0A05FB078529
:100500004FEA932C04FB0C542705029D4FEA065832
:1005100047EA1637B5EB08056EEB070C870E920E0F
:1005200047EA811742EA8312A7FB0201B6EB0B01EF
:1005300064EB00042B0D43EA0C335E1844EB1C50B3
:10054000DA465146E7FB0201C5F313044FEA0B33C9
:1005500043EA14534FEA0432019C43EA0603A4F130
:100560000C040294009CCDE900B400F075F803B0CF
:10057000BDE8F08F00200146F9E7000030B5041E09
:1005800071F1000404DB4FF00044404264EB0101D0
:10059000141E73F1000405DB1C464FF00043524269
:1005A00063EB0403994208BF904230BD30B50B465F
:1005B000014600202022012409E021FA02F59D4293
:1005C00005D303FA02F5491B04FA02F52844151E67
:1005D000A2F10102F1DC30BD202A04DB203A00FA4E
:1005E00002F1002070479140C2F1200320FA03F38A
:1005F000194390407047202A04DB203A21FA02F088
:100600000021704721FA02F3D040C2F1200291404C
:10061000084319467047202A06DBCB17203A41FAD7
:1006200002F043EAE07306E041FA02F3D040C2F17F
:100630002002914008431946704710B5141E73F10B
:10064000000408DA401C41F1000192185B411A4392
:1006500001D120F0010010BD2DE9F04D92469B46DE
:1006600011B1B1FA81F202E0B0FA80F22032904684
:10067000FFF7B2FF04460F4640EA0A0041EA0B01C9
:1006800053465A46084313D0114653EA010019D085
:10069000C8F140025046FFF7AEFF05460E465046F1
:1006A00059464246FFF798FF084305D0012004E071
:1006B00020463946BDE8F08D0020054346EAE07645
:1006C0002C4337430A986305E40AA0EB0800002294
:1006D000FD0A44EA47540A3002D500200146E9E702
:1006E000010510196941DDE9084500196941BDE8B6
:1006F000F04DA2E72DE9F04D81EA030404F0004B30
:1007000021F0004514464FF0000A23F0004150EA62
:10071000050220D054EA01021DD0C5F30A57024653
:10072000C5F31303C1F31300C1F30A5640F4801557
:1007300043F48013A7EB0608101BD64608F2FD38D9
:1007400073EB050002D308F1010801E092185B4148
:10075000B8F1000F03DA00200146BDE8F08D00205B
:100760004FF48011064684460EE0171B73EB050715
:1007700005D3121B63EB050306434CEA010C490841
:100780004FEA300092185B4150EA0107EDD152EA7E
:10079000030012D082EA040083EA0501084305D071
:1007A000101BAB4106D20122002306E000224FF0CD
:1007B000004302E06FF0010253101AEB06004CEB0D
:1007C000085110EB0A0041EB0B01BDE8F04DFFF7BB
:1007D00034BFC1F30A52C1F3130140F2FF3341F4B5
:1007E00080119A4202DA00200146704740F23343FA
:1007F0009A42A2F2334202DC5242FFF7FCBEFFF7FC
:10080000EBBE0000064C074D06E0E06840F0010337
:1008100094E8070098471034AC42F6D3FFF7B8FCD1
:10082000DCFC0008FCFC000870B58C1810F8015BBB
:1008300015F0070301D110F8013B2A1106D110F879
:10084000012B03E010F8016B01F8016B5B1EF9D17D
:100850002B0705D40023521E0DD401F8013BFAE703
:1008600010F8013BCB1A921C03E013F8015B01F86E
:10087000015B521EF9D5A142D8D3002070BD000003
:10088000464910B54A6822F440324A604A684368D3
:100890001A434A6001684A6822F480724A6001681B
:1008A0004A68036942EA03224A6001684A6822F002
:1008B00040724A6001684A6883681A434A60016866
:1008C0008A6822F400628A6001688A68C3681A43F1
:1008D0008A60816A6FF07062D14201688A6822F092
:1008E00070628A6001688A680CD0836A1A438A60E1
:1008F00001688A6822F040528A6001688A68C36A87
:100900001A4301E022F040528A6001688A6822F0AE
:1009100002028A6001688A68037E42EA43028A60B2
:1009200090F82010002901684A680FD042F4006254
:100930004A6001684A6822F460424A6001684A6875
:10094000174C436A04EB43331A4301E022F400627C
:100950004A600168CA6A22F47002CA620168CA6AFF
:10096000838B104C04EB03531A43CA6201688A68F4
:1009700022F400728A6001688A6890F8303042EA96
:1009800043228A6001688A6822F480628A60016872
:100990008A68406942EA8020886010BD00230140D7
:1009A00000E0FFFF0000F0FF01229102014801F08A
:1009B00021BA00000010024001225102014801F05A
:1009C00019BA00000010024001221102014801F092
:1009D00011BA00000010024001220421014801F078
:1009E00009BA0000001002400122D102014801F0C2
:1009F00001BA00000010024010B5FFF7E5FF4FF408
:100A00009674204601F0ECF8FFF7D6FF204601F07F
:100A1000E7F8FFF7C9FF204601F0E2F8FFF7E4FF2F
:100A2000204601F0DDF8FFF7D7FF2046BDE8104073
:100A300001F0D6B8FEE70000014800F038BC000025
:100A4000F80E0020014800F032BC0000200F00200A
:100A500030B4D0F8A020D0F8A4404FF0FF3352F8C3
:100A6000212024F81130C2F307420121831883F8B2
:100A7000B410D0F8B03030BC114618472DE9F04F13
:100A80009946DDE90A5A4FF0FF3BDDF824C041E00A
:100A9000AB1A5BB20C78002B03DD00BF04FA03F441
:100AA00003E0C3F1000324FA03F4E6B202DDC5F16A
:100AB000080301E0C2F10803DCB2844200D9044615
:100AC00005EB0408FF2707FA08F3C5F10805EF4016
:100AD0003B439CF800509E431D4035432244D2B214
:100AE0008CF80050072A07D90022B9F1000F01D075
:100AF0005B4600E00123194408F0FF05072D07D9E4
:100B00000025BAF1000F01D05B4600E001239C44B0
:100B1000001BC0B20028BBD1BDE8F08F014800F037
:100B2000EDBE000074120020014800F0E7BE000096
:100B3000F4100020014800F0E1BE0000D4120020B3
:100B4000014800F0DBBE000054110020014800F015
:100B5000D5BE0000B4110020014800F0CFBE000057
:100B60001412002001681823CAB2103AB2FBF3F243
:100B7000054B6FF30901032A9B5CC36500D9091D6E
:100B800081650846704700009CF3000810B50146D7
:100B900000208B698A6A4FF0C07453B1B3F5005FCF
:100BA00015D072B1012A0CD0022A0AD0032A09D129
:100BB00004E01AB1012A06D0022A03D1C96AC90188
:100BC00000D5012010BDC96AA142FAD010BD002A8B
:100BD000F7D0012AF2D0022AF3D0032AF3D010BDB5
:100BE00030B50468256825F48025256004686360B5
:100BF0008368402B036803D099600068C26030BDF1
:100C00009A600068C16030BD704700001CB50446A2
:100C10000DA0CDE9000443F220336A220FA115A0F4
:100C200005F0B4F8601C0CD01849B1F900008442FA
:100C300001D1401E0880164A04EB4401002002F84E
:100C400031004FF0FF301CBD44656C416C61726D2A
:100C50002E2068616E646C65203D20002E2E5C4362
:100C6000414E4F70656E5C7372635C74696D657242
:100C70002E63000025732C2564203A2030582578F7
:100C80002025732030582578200D0A00A00100206F
:100C9000505C002072B6FEE77CB50546D0F83C01FA
:100CA0000088002836D000211EA0CDE900010B46A7
:100CB000D92224A12AA005F069F800242E1996F85B
:100CC000B4000F2821D028680078A0421DD096F8E3
:100CD000440188B928A0CDE900040023E62219A127
:100CE0001FA005F053F8D5F8382112B12146284647
:100CF0009047012086F8B40096F844012146401E32
:100D000086F84401284607F005F8641CE4B2802CFC
:100D1000D4D37CBDB5F93401FFF778FFA5F83401D1
:100D20007CBD000050726F647563696E67206E6FE2
:100D3000646567756172642D72657175657374732E
:100D40003A2000002E2E5C43414E4F70656E5C735E
:100D500072635C6C6966656772642E6300000000F4
:100D600025732C2564203A203058257820257320BF
:100D700030582578200D0A004E6F64652047756154
:100D8000726420616C61726D20666F72206E6F6498
:100D9000654964203A20000078B50024009490F85A
:100DA0003C20012A19D0012280F83C200A68072340
:100DB0000568092A13D9EE680A3A02EB4202934009
:100DC0009E43EE600B788A680A3B03EB43039A402C
:100DD0000368DD682A43DA6010E0022078BD2E69DE
:100DE00002EB420293409E432E610B788A6803EB2C
:100DF00043039A4003681D692A431A614A681F2306
:100E0000072A13D205686E6B521E02EB82029340D2
:100E10009E436E630B790A885B1E92B203EB8303D9
:100E20009A4003685D6B2A435A6327E005680D2AE0
:100E300012D22E6BD21F02EB820293409E432E638E
:100E40000B790A88DB1F92B203EB83039A40036895
:100E50001D6B2A431A6311E0EE6A0D3A02EB82021F
:100E600093409E43EE620B790A880D3B92B203EBEE
:100E700083039A400368DD6A2A43DA62164B0568E9
:100E8000144A9D4206D10D68122D03D1556845F4D0
:100E90008005556005689D4218D10B68102B01D064
:100EA000112B13D1536843F40003536009681029D0
:100EB0000CD10A490A4A0968B1FBF2F101EB810140
:100EC000490000E0491E00910029FBD180F83C4018
:100ED000002078BD0023014000200140D400002004
:100EE00040420F0070B504004FF0000503D0206CA5
:100EF000002610B107E0012070BD204600F01CF86C
:100F0000666484F83C60206CC00610D4206C20F429
:100F1000885040F0020020642046FFF7B1FC666470
:100F2000206C20F0020040F00100206400E0012568
:100F300084F83C60284670BD30B587B00446142163
:100F40006846FFF7E9F91849206888422AD117480E
:100F50000025016841F480710160006800F4807030
:100F6000059012481438016841F0040101600168DD
:100F700001F004010591016841F00201016000687F
:100F8000032400F00200059008208DE83100694636
:100F9000074800F037FE009469460648CDE9014550
:100FA00000F030FE07B030BD002001404438024060
:100FB000000802400004024090F82020012A07D0D7
:100FC000022A05D0416A41F4802141620120704724
:100FD000006842690A43426100207047F0B590F80A
:100FE00020500468A468012D05D0022D03D0416A69
:100FF00041F480215DE014F0406F01D1E50055D54A
:10100000C4F30164022C03D9416A41F4000150E0A9
:101010000125A5401D608D684FF4C0739DB1CE6859
:1010200035434E6845EAC605066803EB0417F551DB
:101030004FF4C275076805EB04150E697E51097DF2
:10104000012905D009E00E88CD6845EA4655EBE751
:1010500001684E5946F480764E511179D57956790A
:1010600041EA056195792D0445EA062529434FF4A7
:10107000C676056806EB0416A9511178D57841EAC1
:101080000561957852782D0445EA022211434FF408
:10109000C475026805EB04155151006803EB041197
:1010A000425842F0010242500020F0BD416A41F432
:1010B000001141620120F0BD10B590F82020012AF6
:1010C00007D0022A05D0416A41F480214162012003
:1010D00010BD3B48D0F8002242F00102C0F80022C7
:1010E000D0F8002222F47C52C0F80022D0F800226E
:1010F0004B6A42EA0322C0F800220A7D02F01F0375
:1011000001229A40D0F81C329343C0F81C32CB69BC
:10111000B3B9D0F80C329343C0F80C328C894B68C9
:1011200064F31F434C6900EBC404C4F840320C89DB
:101130000B6864F31F434C6900EBC404C4F84432E9
:10114000CB69012B16D1D0F80C321343C0F80C3206
:101150000C884B6864F31F434C6900EBC404C4F86B
:1011600040320C89CB6864F31F434C6900EBC40424
:10117000C4F844328B69002BD0F804320ED01343EC
:10118000C0F804320B69002BD0F8143208D0134396
:10119000C0F81432096A012904D008E09343EFE74C
:1011A0009343F5E7D0F81C121143C0F81C12D0F895
:1011B000001221F00101C0F80012002010BD000053
:1011C00000640040704730B590F82040012C05D0F5
:1011D000022C03D0416A41F480215DE004680029BB
:1011E00055D02469A40754D04FF4D874056804EB93
:1011F00001142D5915F00405956005682D594ED040
:10120000ED08556005682C5904F00204D4604FF4D1
:10121000DA74056804EB01142D5905F00F0515610A
:1012200005682D59C5F30725956105682C59240CCF
:1012300054614FF4DC72046802EB0112A4581C7074
:101240000468A458240A5C700468A458240C9C7098
:101250000468A258120EDA704FF4DE72046802EBD2
:101260000112A4581C710468A458240A5C71046813
:10127000A458240C9C710468A258120EDA710068FC
:1012800081B1016941F020010161002030BDE468B5
:10129000A8E7416A41F400114162012030BD6D0DA3
:1012A0001560AFE7C16841F02001C160EDE72DE9AD
:1012B000F05F0546006800244669D0F8049087680E
:1012C000D0F80CB0D0F810A0D0F81880F10748D0B2
:1012D000F90714D001218160B80703D5284600F032
:1012E000ACFA0CE0780702D54FF4006407E0380749
:1012F00002D54FF4805402E0284600F09DFAF8052C
:1013000016D529684FF480708860B80503D5284643
:1013100000F095FA0CE0780502D544F4005407E09B
:10132000380502D544F4804402E0284600F086FAED
:10133000F80316D529684FF480308860B80303D5C8
:10134000284600F07EFA0CE0780302D544F400440D
:1013500007E0380302D544F4803402E0284600F068
:101360006FFA300707D55FEACB6004D529681020F3
:1013700044F40074C86070074FF0080707D55FEAAF
:101380000B7004D52868C760284600F099F9B007AB
:1013900006D52868C068800702D0284600F092F978
:1013A000700607D55FEACA6004D52968102044F4A6
:1013B00080640861B00607D55FEA0A7004D5286822
:1013C0000761284600F008FAF00606D5286800698B
:1013D000800702D0284600F000FAB00308D55FEA83
:1013E000C96005D5296810204860284600F0F6F944
:1013F000F00307D55FEA097004D5286847602846DE
:1014000000F020FA300446D55FEA497040D5F00577
:1014100004D55FEAC87001D044F00104B00504D5DA
:101420005FEA887001D544F00204700504D55FEAD4
:10143000487001D544F00404300529D518F0700F28
:1014400026D008F07000402815D006DC102809D0FE
:1014500020280AD0302816D10AE050280ED0602863
:1014600011D10EE044F008040DE044F010040AE04D
:1014700044F0200407E044F0400404E044F0800419
:1014800001E044F480742868816921F07001816171
:10149000296804204860002C05D0686A20436862EF
:1014A0002846FFF78FFEBDE8F09F70B5040003D01B
:1014B00094F8200010B104E0012070BD204600F037
:1014C00081F82068016841F00101016000F098FC9A
:1014D0000546052604E000F093FC401B0A2811D8BD
:1014E00020684068C007F6D02068016821F002013A
:1014F000016000F085FC05460BE000F081FC401B1C
:101500000A2806D9606A40F40030606284F82060DE
:10151000D2E7206840688007EFD4207E0128206849
:1015200001683DD021F080010160607E01282068C3
:10153000016838D021F040010160A07E01282068B8
:10154000016833D021F020010160E07E012820688D
:1015500001682ED041F010010160207F0128206831
:10156000016829D021F008010160607F012820680E
:10157000016824D021F004010160D4E9020108438C
:10158000D4E90412114308436168491E08432168E5
:10159000C86100206062012084F82000002070BD36
:1015A00041F08001C0E741F04001C5E741F0200172
:1015B000CAE721F01001CFE741F00801D4E741F07C
:1015C0000401D9E7F0B587B0044614216846FEF758
:1015D000A3FE364B3648DFF8D0E05968D4F800C097
:1015E000334A03250226092710300024491CF445FC
:1015F00022D15960012907D1016841F000710160D1
:10160000006800F000700590106840F0080010605D
:101610001068CDE9005600F00800CDE90470694675
:101620002448CDE9024500F0EDFA002205211420FE
:1016300000F0A4FC142032E0DFF87CE0F44530D167
:10164000D0F800C04CF0806CC0F800C0D0F800C0EA
:1016500001290CF0806CCDF814C0596007D10168E5
:1016600041F000710160006800F0007005901068A2
:1016700040F002001060106802AB00F0020005901C
:101680006020CDE9000683E8B00069460B4800F011
:10169000B9FA00220521402000F070FC402000F043
:1016A0005FFC07B0F0BD000000640040BC000020FB
:1016B00030380240000C0240006800400004024044
:1016C0007047000070B50446006832498CB088420B
:1016D0003BD11C216846FEF71FFE00200A900B90AC
:1016E00007900890014609900AAB6A462046FFF72A
:1016F0006AFD002825D10298042822D00098ADF870
:101700001C00039802281ED05FF000008DF81E0018
:1017100004988DF81F0002460AA908A8FEF7E3FD09
:101720001D48009902C0049900F8011B0AA9049AF7
:10173000FEF7D9FD19490120087007A9184805F0DE
:10174000B6FD0CB070BD0120E0E716498842F8D123
:10175000114A154B1C3A00212046FFF734FD0028A2
:10176000EFD10D4D11A01C3D2A69296804F00EFB34
:1017700000240D4E04E0315D14A004F007FB641C4E
:101780002869A042F7D80CB012A0BDE8704004F060
:10179000FDBA000000640040E80E0020BC000020FC
:1017A000DC05002000680040B200002043414E32BA
:1017B0002052583A2049443D30782530335820444F
:1017C0004C433D256420446174613D00253032580E
:1017D000200000000D0A00007047704770470000AD
:1017E00070B5044690F82000012804D0606A40F4E7
:1017F0000020606218E0022084F820002068016860
:1018000021F00101016000F0FBFA05460EE000BF87
:1018100000F0F6FA401B0A2808D9606A40F400304C
:101820006062052084F82000012070BD20684068B7
:10183000C007EDD1606270BD704770477047704758
:101840007047704770472DE9F0410446876D00F0FE
:10185000D7FA064694F835000025022806D08020E5
:10186000606584F834500120BDE8F081206801688B
:1018700021F0160101602068416921F08001416179
:10188000206C08B9A06C20B12068016821F0080123
:1018900001602068016821F0010101600CE000F0A6
:1018A000AFFA801B052807D920206065032084F843
:1018B000350084F83450D7E720680068C007EED1BF
:1018C00094F85C103F208840B860012084F835000F
:1018D00084F834500020C7E790F83510022903D06F
:1018E0008021416501207047052180F8351000688E
:1018F000016821F001010160002070472DE9F843E3
:1019000004464FF00009CDF8009063484FF416519B
:10191000A56D0068B0FBF1F72E6894F85C10082004
:1019200000FA01F131420FD021680A6852070BD545
:101930000A6822F004020A6094F85C108840A860EB
:10194000606D40F00100606594F85C104FF0010894
:1019500008FA01F0304208D021684969090604D527
:10196000A860606D40F00200606594F85C1004208F
:101970008840304208D021680968890704D5A860EA
:10198000606D40F00400606594F85C1010208840A1
:10199000304218D021680968090714D5A86020686A
:1019A0000168490304D50068000308D5A16C07E06D
:1019B0000168C90503D4016821F008010160216CA8
:1019C00009B12046884794F85C10202088403042B6
:1019D00031D021680968C9062DD5A86094F8350072
:1019E00005282068016806D0490347D50068000330
:1019F0001DD4616C1CE021F0160101602068416972
:101A000021F080014161206C08B9A06C20B12068F0
:101A1000016821F00801016094F85C103F208840C3
:101A2000A86084F8358084F83490216D1FE0E16B64
:101A300009B120468847606D00282BD0606DC00733
:101A400014D0052084F835002068016821F00101D8
:101A500001600098401C0090B84203D820680068DC
:101A6000C007F6D184F8358084F83490E16C002901
:101A700010D001B02046BDE8F04308470168C90511
:101A8000D5D4016821F01001016084F8358084F814
:101A90003490CCE7BDE8F883D40000202DE9F04174
:101AA000044600F0ADF906465CB1022084F835002A
:101AB000002584F834502068016821F0010101609C
:101AC0000DE00120BDE8F08100F09AF9801B0528A7
:101AD00005D920206065032084F83500F2E72068EE
:101AE0000068C007F0D12268116820480140D4E99D
:101AF00001031843D4E90336334318436369184399
:101B0000A3691843E3691843236A18430843616AC9
:101B1000042903D1D4E90B1319430843106020684A
:101B20004069666A20F0070130460E430127042809
:101B30000CD1A06A0643E06A40B12046FFF726F8C0
:101B400020B14020606584F83570BAE720684661AE
:101B50002046FFF707F894F85C203F219140816010
:101B6000656584F835700020ACE700003F8010F018
:101B70002DE9F0410446866D90F8340000250128D7
:101B80000DD0012084F8340094F835700020012F26
:101B900007D084F8340002252846BDE8F0810220F1
:101BA000FBE7022784F8357060652046FFF718F8D8
:101BB00094F85C103F208840B0602068016841F0D4
:101BC00016010160206C20B12068016841F0080115
:101BD00001602068016841F001010160DCE700005C
:101BE00070B5044600F00CF90546601C02D00448AC
:101BF0000078044400F004F9401BA042FAD370BD01
:101C0000C80000202DE9F84FDFF8BCA10022012513
:101C10000AF1040B03264FF00F090BF1040E00BF6D
:101C20000B6805FA02F42340A34270D10F7907F044
:101C30000307012F01D0022F16D187684FEA42080F
:101C400006FA08FC27EA0C07D1F80CC00CFA08FCCD
:101C50004CEA070CC0F808C04768A7430C79C4F3E6
:101C6000001494403C4344600C79E443A4070AD038
:101C7000C4684FEA420C06FA0CF7BC438F6807FAB7
:101C80000CF72743C7600C7904F00304022C12D12F
:101C9000D40800EB840CDCF820405707FF0E09FA4B
:101CA00007F824EA0804D1F8108008FA07F848EA8F
:101CB0000408CCF8208004684FEA420C06FA0CF7BE
:101CC000BC430F7907F0030707FA0CF727430760B7
:101CD0004C6814F4403F70D03C4C276847F4804770
:101CE0002760246822F0030704F480440094384CF1
:101CF00007EB040CDCF8084897074FEA177809FA55
:101D000008F7BC43334FB84202D1002724E054E027
:101D1000314FB84201D101271EE0304FB84201D106
:101D2000022719E02E4FB84201D1032714E02D4FAE
:101D3000B84201D104270FE02B4FB84201D105274B
:101D40000AE02A4FB84201D1062705E0284FB842E1
:101D500001D1072700E0082707FA08F72743CCF846
:101D60000878DAF800405746D1F804C09C435FEA8F
:101D7000CC3C00D51C433C60DBF800405F46D1F80A
:101D800004C09C435FEA8C3C00D51C433C60DEF8F9
:101D900000407746D1F804C09C435FEACC2C00D5C4
:101DA0001C433C60084F0C373C68D1F804C09C438E
:101DB0005FEA8C2C00D51C433C60521C102AFFF4B7
:101DC0002FAFBDE8F88F0000003C014044380240CE
:101DD00000300140000002400004024000080240C0
:101DE000000C0240001002400014024000180240A3
:101DF000001C02400AB1816170470904FBE7000042
:101E00000148806870470000C800002090F83C102E
:101E1000012912D0012100F83C1F2421417050F803
:101E20003C1CCA6822F00C0242F00402CA60202165
:101E3000417000210170084670470220704790F8F9
:101E40003C10012912D0012100F83C1F24214170CF
:101E500050F83C1CCA6822F00C0242F00802CA602A
:101E60002021417000210170084670470220704710
:101E7000024881680278114481607047C8000020E0
:101E80000B4810B5016841F400710160016841F42C
:101E900080610160016841F480710160032000F0FD
:101EA0008DF80F2000F006F800F03EF8002010BD7D
:101EB000003C024010B5014688B00022362000F0F8
:101EC0005DF8362000F04CF813480024016841F01A
:101ED00010010160006805A900F010000690684636
:101EE00000F018F900F036F90C494000B0FBF1F1B0
:101EF0000C480B4A491E026040F2E732C0E9032455
:101F0000C0E9011400F0F2FC10B1012008B010BDCE
:101F1000044800F037FDF9E74038024040420F0026
:101F200000100040341300200C4882B0016841F4D6
:101F300080410160006800F4804000900748001F65
:101F4000016841F0805101600068002200F080507B
:101F500000900F21901E02B000F010B844380240EB
:101F6000002809DB00F01F02012191404009800098
:101F700000F1E020C0F8001170470000F0B40E4BF3
:101F80001B680C46C3F30223C3F10705042D00D9D7
:101F90000425191D072901D2002300E0DB1E0126BC
:101FA00006FA05F1491E214099409E40761E1640D2
:101FB0003143F0BC03F0FABE0CED00E0064900F03E
:101FC000070208684FF6FF03184040EA0220034A60
:101FD00010430860704700000CED00E00000FA05B7
:101FE0002DE9F0470E46050065D0DFF81481D8F8DA
:101FF0000000F7B200F00700B04207D288F8007086
:10200000D8F8000000F00700B04254D128683D4CD9
:10201000810712D5400703D5206840F4E0502060C6
:102020002878000703D5206840F4604020602068CD
:10203000A96820F0F000084320602878C0072DD060
:10204000304968680839012812D0022813D00328C3
:1020500011D00968890700292DDA216821F00301D0
:1020600001432160FFF7CCFE814641F2883A0EE041
:1020700009688903EFE709688901ECE7FFF7C0FE0B
:10208000A0EB0901514502D90320BDE8F087206883
:10209000696800F00C00B0EB810FEFD1D8F80010A8
:1020A000404601F00701B14207D90770006800F00F
:1020B0000700B04201D00120E7E72878400705D5A6
:1020C0002068E96820F4E050084320602878000781
:1020D00006D52068296920F4604040EAC1002060EC
:1020E00000F058F82168084AC1F30311515CC84058
:1020F0000649086006480068FFF7DCFE0020C4E7D8
:10210000003C024008380240A4F30008D40000203C
:10211000CC0000200F2202600C4A136803F0030376
:102120004360136803F0F0038360136803F4E05323
:10213000C36012684FF4E05303EAD202026104481C
:10214000006800F00700086070470000083802408F
:10215000003C02400448054900680968044AC1F38C
:102160008221515CC8407047D400002008380240EA
:10217000B4F300080448054900680968044AC1F33B
:102180004231515CC8407047D400002008380240FA
:10219000B4F30008104810B5006810F00C010F48A7
:1021A00018D0042916D0082914D10B4C241F2168FB
:1021B00001F03F02216821680023C1F38811A1FBCF
:1021C0000001FEF75FF82168C1F30141491C490095
:1021D000B0FBF1F010BD0000083802400024F4000C
:1021E0002DE9F84F04006ED02078DFF84C93C0073B
:1021F000A9F104054AD009F104000168C1F3810185
:10220000012908D00068C0F3810002280AD1D9F85A
:102210000000400206D52868800337D56068002892
:10222000E1D033E06068B0F5803F10D0B0F5A02F6A
:10223000286810D020F480302860286820F480209E
:1022400028606068A8B1FFF7DBFD06460DE028684E
:1022500040F48030F4E740F480202860F7E700BFC6
:10226000FFF7CEFD801B642873D828688003F7D55C
:102270000CE0FFF7C5FD064605E000BFFFF7C0FD17
:10228000801B6428F0D828688003F7D42078DFF812
:10229000AC8280074FF0000A3ED5A748001D0168B8
:1022A00011F00C0F08D00068C0F3810002280BD198
:1022B000D9F80000400207D42868800716D5E068E6
:1022C000012800D112E033E1E068B8B10120C8F87C
:1022D0000000FFF795FD064605E000BFFFF790FD03
:1022E000801B0228C0D828688007F7D52868216994
:1022F00020F0F80040EAC10028600DE0C8F800A016
:10230000FFF77EFD064604E0FFF77AFD801B0228FA
:102310001FD828688007F7D42078000722D5864F79
:1023200087486169703771B101210160FFF768FD6D
:10233000064604E0FFF764FD801B022809D83868D0
:102340008007F7D50EE0C0F800A0FFF759FD06465C
:1023500005E082E0FFF754FD801B02287DD8386835
:102360008007F7D42078400768D5DFF8CCB1002784
:102370000BF13C0BDBF80000C0000BD4DBF80010C5
:1023800041F08051CBF80010DBF80000012700F08D
:10239000805000906B4E3068C00510D4306840F417
:1023A00080703060FFF72CFD009005E0FFF728FDFE
:1023B0000099401A022850D83068C005F6D55E4E04
:1023C000A0686C3601280FD00528306810D020F0A6
:1023D00001003060306820F004003060A068B8B1BF
:1023E000FFF70EFD00900FE0306840F00100F4E7C9
:1023F00040F004003060F7E7FFF702FD0099411A52
:1024000041F28830814266D830688007F4D50EE00A
:10241000FFF7F6FC009007E0FFF7F2FC0099411A85
:1024200041F28830814256D830688007F4D42FB109
:10243000DBF8001021F08051CBF80010A069C8B380
:102440003D49091D0968C1F3810102294AD00228CA
:10245000504607D0C8F8600000E03CE0FFF7D0FC31
:1024600004463BE04746C8F86000FFF7C9FC064653
:1024700005E000BFFFF7C4FC801B02282BD82868AA
:102480008001F7D4D4E907010843A16A2E4A49081C
:1024900002EB0141626A41EA8211084394F82C1070
:1024A00040EA0161C9F8001001203866FFF7A8FC76
:1024B000044606E03EE000BFFFF7A2FC001B022836
:1024C00009D828688001F7D534E000BFFFF798FCF1
:1024D000001B022802D90320BDE8F88F286880017C
:1024E000F4D427E00128F7D0D9F80000E26900F41D
:1024F000800191421CD1226A00F03F01914217D124
:1025000047F6C071626A0140B1EB821F10D1A26A26
:102510004FF0FF3300F4403103EB5202B1EB024FB6
:1025200006D194F82C1000F07060B0EB016F01D070
:102530000120D1E70020CFE70438024000004742E5
:10254000800E4742007000400000FFFF70B504009D
:1025500009D0606A002540B125616561A56294F8E3
:10256000510040B10CE0012070BD6068B0F5827F81
:10257000F4D0E561F2E784F85050204600F044F8CA
:10258000022084F851002068016821F040010160B8
:10259000A088218900F4827001F404410843A189D4
:1025A00001F400610843217C01F002010843217D10
:1025B00001F001010843218B01F400710843217FE0
:1025C00001F03801084394F8201001F0800108431D
:1025D000218D01F40051084321680860A06904219D
:1025E00001EA104094F8241001F01001084321681A
:1025F00048602068C16921F40061C16165650120FE
:1026000084F85100002070BD10B586B00446142136
:102610006846FDF781FE14492068884221D113489D
:102620000021026842F480420260006800F48040A9
:1026300005900E481038026842F0020202600068FD
:1026400000F0020005904FF4604000900220CDE9B8
:102650000101032003900520049069460448FFF718
:10266000D1FA06B010BD00000038004040380240EA
:10267000000402402DE9F84F044690F8500000276E
:102680000A9E1D4692468B464FF0010901280ED046
:10269000012084F85000FFF7B3FB804694F8510006
:1026A000616801280CD0B1F5827F07D102E00220D9
:1026B000BDE8F88FA16809B9042801D00227C2E05B
:1026C000BBF1000F27D0BAF1000F24D01DB394F84E
:1026D0005100042802D0052084F8510000206065D4
:1026E000C4F838A0E587A587C4F830B0E586A5868C
:1026F0002064606420680168490603D4016841F0E1
:1027000040010160E068B0F5006F606805D0E8B393
:10271000012D46D07FE0012795E008B1012D39D188
:10272000206B21680088C860206B801C2063E08ECD
:10273000401EE0862EE02068816889070FD5E18E73
:1027400069B1B9F1010F0AD1216B0988C160206B11
:10275000801C2063E08E401EE0864FF00009206858
:102760008168C9070CD0E18F51B1C068A16B0880A6
:10277000A06B801CA063E08F401EE0874FF0010932
:10278000FFF73EFBA0EB0800B04200E009E001D3F8
:10279000701C50D1E08E0028CDD1E08F0028CAD126
:1027A0003FE0206B216800780873206B401C206399
:1027B000E08E401EE0862EE02068816889070FD5F4
:1027C000E18E69B1B9F1010F0AD1216B097801736A
:1027D000206B401C2063E08E401EE0864FF0000915
:1027E00020688168C9070CD0E18F51B1C068A16B26
:1027F0000870A06B401CA063E08F401EE0874FF084
:102800000109FFF7FDFAA0EB0800B04202D3701CEB
:1028100001D010E07EB1E08E0028CDD1E08F0028FD
:10282000CAD142463146204602F04CF828B1012771
:102830002020606507E0032705E0A06818B920683C
:10284000C16880680090012084F85100002084F85D
:10285000500038462CE770477047000070B590F87C
:102860003C20012A32D0012480F83C40022280F82A
:102870003D2003685A689D6822F070060A6832435A
:102880005A60134B02689A4214D0B2F1804F11D0B3
:10289000104B9A420ED0104B9A420BD00F4B9A42DB
:1028A00008D00F4B9A4205D00E4B9A4202D00E4BE5
:1028B0009A4204D1496825F080031943916080F859
:1028C0003D40002180F83C10084670BD022070BDDC
:1028D000000001400004004000080040000C0040DF
:1028E00000040140004001400018004010B5040001
:1028F00003D094F83D0010B107E0012010BD002086
:1029000084F83C00204600F01FF8022084F83D00C7
:10291000211D206802F0F4FB012084F8460084F8B1
:102920003E0084F83F0084F8400084F8410084F8B9
:10293000420084F8430084F8440084F8450084F899
:102940003D00002010BD000008B500680B4988421A
:1029500012D10B48016841F00801016000680022B3
:1029600000F00800009005213220FFF707FBBDE8CA
:1029700008403220FFF7F4BA08BD0000000C004008
:102980004038024090F83D10012901D001207047E5
:10299000022180F83D100168CA6842F00102CA6055
:1029A00000681149884214D0B0F1804F11D00F490E
:1029B00088420ED00E4988420BD00E49884208D07A
:1029C0000D49884205D00D49884202D00C49884201
:1029D00004D1816801F00701062903D0016841F0A4
:1029E0000101016000207047000001400004004028
:1029F00000080040000C004000040140004001407D
:102A00000018004070B5044690F83C0000250128ED
:102A100017D0012684F83C60022084F83D0020682D
:102A2000826822F0770222F47F4282600868502890
:102A300038D00DDC20284FD005DC90B3102811D100
:102A40004AE0022070BD302846D040280AD13BE041
:102A500060282FD070280DD0B0F5805F03D0B0F57E
:102A6000005F12D0012584F83D60002084F83C000E
:102A7000284670BDCB68D1E90121206802F0A4FB93
:102A80002068816841F0770109E0CB68D1E9012134
:102A9000206802F099FB2068816841F480418160E0
:102AA000E1E719E0CA684968206802F09FFB5021FD
:102AB000206806E0CA684968206802F0A8FB602127
:102AC000206802F08BFBCEE7CA684968206802F0F4
:102AD0008DFB40212068F4E7226801461046F0E7AC
:102AE000704770B50446006801694FF00005C9439E
:102AF000890715D4C168C943890711D4E91E01614A
:102B000001202077206880698007204602D0FFF7E7
:102B1000E7FF04E000F098F8204600F0C2F82577BF
:102B200020680169C943490717D4C168C9434907E7
:102B300013D46FF0040101610220207720688069BE
:102B400010F4407F204602D0FFF7CAFF04E000F0F7
:102B50007BF8204600F0A5F8257720680169C94375
:102B6000090716D4C168C943090712D46FF00801D8
:102B70000161042020772068C0698007204602D0C8
:102B8000FFF7AEFF04E000F05FF8204600F089F8A0
:102B9000257720680169C943C90617D4C168C943AC
:102BA000C90613D46FF01001016108202077206856
:102BB000C06910F4407F204602D0FFF791FF04E087
:102BC00000F042F8204600F06CF825772068016993
:102BD000C943C90708D1C168C943C90704D1891EBF
:102BE0000161204600F05EF820680169C9430906CA
:102BF00009D4C168C943090605D46FF08001016199
:102C00002046FFF728FE20680169C943490609D418
:102C1000C168C943490605D46FF0400101612046EF
:102C200000F05CF820680169C94389060BD4C168CB
:102C3000C943890607D46FF0200101612046BDE831
:102C40007040FFF709BE70BD704770B50D460400B7
:102C500003D094F83D0010B107E0012070BD0020C2
:102C600084F83C00204600F01BF8022084F83D0068
:102C7000211D206802F044FA2068016821F0080153
:102C8000016054F8460B016829430160012004F8F3
:102C90001F09E0752076E0762077A075002070BDD2
:102CA0007047704710B5044600680949884205D14D
:102CB000084800210160416002F0EEFA06492068F0
:102CC000884203D1BDE81040FFF7D2B810BD000024
:102CD000000C00402008002000100040704738B56C
:102CE000044690F83E00202822D181B17AB194F8B0
:102CF0003C0001281CD0012084F83C0020632046C1
:102D000002F00EFD002803D1216B012901D0012022
:102D100038BD21680A684968009121680C3151E882
:102D2000002F42F0100241E80023002BF5D138BDFE
:102D3000022038BD7CB50022254B01921446234D5C
:102D40001B7835E055F82460766886422FD155F817
:102D5000240090F84031042B2CD139B380F83E1177
:102D600055F8240080F83F2102E000BF00F082F80F
:102D700055F82430802203F1BC015868FFF7AFFFFB
:102D8000002855F824004068F0D1806B0068016885
:102D900021F00801016001A8009055F824000023EB
:102DA0000322D0F8AC0019460BF0D2FF02E0641CFD
:102DB0009C42C7DB0198002807D006494FF080509D
:102DC0000860BFF34F8FBFF36F8F7CBD9801002069
:102DD0009401002004ED00E07047000070B5044647
:102DE00020680C3050E8001F21F4907140E8001278
:102DF000002AF5D12068143050E8001F21F00101AD
:102E000040E80012002AF5D1206B012809D1206882
:102E10000C3050E8001F21F0100140E80012002A99
:102E2000F5D1206840694FF0200241064FF00000C4
:102E300015D52168143151E8003F23F0400341E8E3
:102E40000035002DF5D1A16B49B109480865A06B8B
:102E5000FEF742FD50B1A06B016D884706E0E085AA
:102E600084F83E2020632046FFF7B6FF002070BDA7
:102E70008754000810B504460068406994F83D1076
:102E8000C0F3C010212911D180B12068143050E85E
:102E9000001F21F0800140E80012002AF5D1606B8C
:102EA00008B1FEF7D0FC204602F045FB20684069DF
:102EB00094F83E10C0F38010222911D180B120680F
:102EC000143050E8001F21F0400140E80012002AB1
:102ED000F5D1A06B08B1FEF7B6FC204602F004FB6A
:102EE000002010BD70B516490024144D097822E069
:102EF00055F82420526882421CD155F8240090F8DD
:102F00004001042802D070BDFFF7B4FF55F824300B
:102F1000802203F1BC015868FFF7E1FE002855F854
:102F200024004068F0D1806B0068016821F008013E
:102F3000016070BD641C8C42DADB70BD980100201A
:102F40009401002010F83D1F4078084370470000AE
:102F5000F8B5016804460868CA684B6910F00F0F9D
:102F60004FF0000559D003F0010602F49077374383
:102F700065D0C10705D0D10503D5216C41F0010111
:102F80002164410705D5D90703D0216C41F0020126
:102F90002164810705D5D90703D0216C41F00401D4
:102FA0002164010707D502F02001314303D0216CD1
:102FB00041F008012164216C00293AD0800604D533
:102FC000900602D5204602F0C4FA20684069216CC0
:102FD000C0F38010090700D460B3204602F084FAE1
:102FE00020684069400621D52068143050E8001F51
:102FF00021F0400140E80012002AF5D1A06BA8B1F1
:103000006C490165A06BFEF767FC002811D0A06B2E
:10301000016D01B0BDE8F040084783060FD5930667
:103020000DD52046BDE8F84002F093BA2046FFF7E0
:1030300059FFF8BD2046FFF755FF2564F8BD266B04
:103040002023012E79D1C60677D5D60675D5086816
:10305000486800904869400640D5A16B0868406800
:103060000004000CEAD0A28D8242E7D9E085C8694D
:10307000B0F5807F2DD020680C3050E8001F21F47F
:10308000807140E80012002AF5D12068143050E821
:10309000001F21F0010140E80012002AF5D120684C
:1030A000143050E8001F21F0400140E80012002ACF
:1030B000F5D184F83E30256320680C3050E8001FBD
:1030C00021F0100140E80012002AF5D1A06BFEF7B4
:1030D000BAFBA08DE18D401A81B229E0A08DE18D6F
:1030E000401A81B2E08D0028A8D00029A6D020681F
:1030F0000C3050E8002F22F4907240E80026002E99
:10310000F5D12068143050E8002F22F0010240E889
:103110000026002EF5D184F83E30256320680C305F
:1031200050E8002F22F0100240E80023002BF5D1D8
:103130002046FFF7FFFDF8BDFFE705062BD5150676
:1031400029D594F83D002128F5D1A068B0F5805F1D
:1031500001D12069B0B1206A411C21622168007848
:103160004860E08C401E0004000CE084E3D120683D
:10317000C16821F08001C1602068C16841F0400150
:10318000C160D8E7206A0088C0F308004860206A60
:10319000801C2062E5E74006CDD55006CBD5CA6835
:1031A000204622F04002CA6084F83D3000F024FB43
:1031B000C1E700009153000870B5040004D094F8F2
:1031C0003D00002510B106E0012070BD84F83C50A0
:1031D000204600F023F8242084F83D002068C168D0
:1031E00021F40051C160204602F014FA2068016900
:1031F00021F4904101612068416921F02A01416177
:103200002068C16841F40051C1602564202084F821
:103210003D0084F83E00002070BD00002DE9F04F15
:1032200087B0044614216846FDF776F8D848D84997
:10323000D64B10382268DFF85CE300264F050515F1
:103240004FF002084FF003094FF0080C4FF0400B0D
:103250009A425CD10A68B24642F400220A600968C8
:1032600001F400210591016841F00401016000684A
:1032700002AA00F0040005904FF44060CDE9000878
:1032800082E8401269467046FEF7BCFCDFF80C830A
:10329000C1494046C8F80010C0E90176C0E903659D
:1032A000C8F81460C8F81860C8F81C60C8F8206036
:1032B000C8F82460FEF7F2FB08B1FDF7EBFCB74E4F
:1032C000B548C4F8388060363030C8F8384086E8F1
:1032D0008108C6E903A5C6F814A0C6F818A0C6F868
:1032E0001CA0C6F820A03046C6F824A0FEF7D6FBE6
:1032F00008B1FDF7CFFC6663002205213420B463DA
:10330000FEF73CFE3420FEF72BFEA548A6E0A54BB9
:103310009A4233D10A6842F480120A60096801F4C3
:1033200080110591016841F004010160016801F01C
:1033300004010591016841F00801016000680296EE
:1033400000F0080005909814CDE90008CDE9039C31
:10335000644669467046FEF755FC0420CDE9000836
:103360000296CDE9039469468F48FEF74BFC002294
:1033700005213520FEF702FE35209AE08B4B4FF0F9
:10338000070C4FF0010A9A4271D181490026091DAC
:103390000A6842F010020A60096801F01001059104
:1033A000016841F001010160006801AA00F001001C
:1033B0000590581500900220CDF810C082E8410217
:1033C000E04669467A48FEF71DFC0220CDE9005030
:1033D000CDF808A0CDE9039869467548FEF712FCC0
:1033E000DFF8B881734908F1C0084046C8F80010FA
:1033F000C0E90176C0E90365C8F81460C8F8186030
:10340000C8F81C60C8F82060C8F82460FEF746FBC6
:1034100008B1FDF73FFC6748674EC4F83880783044
:10342000C8F8384086E881080020C6E903057061C5
:10343000B061F061306270623046FEF72FFB08B178
:10344000FDF728FC6663002205212520B463FEF702
:1034500095FD2520FEF784FD514888300068C1683D
:1034600041F01001C16007B0BDE8F08FFFE7534B9A
:103470009A4221D10A6842F400320A60096801F4D4
:1034800000310591016841F008010160006869465A
:1034900000F00800059060208DE80105CDE9039C4F
:1034A0004148FEF7AFFB002205212620FEF766FD0E
:1034B0002620FEF755FDD6E7414B9A42D3D10A6844
:1034C000002642F480220A60096801F480210591F7
:1034D000016841F008010160006801AA00F00800DD
:1034E0000590981500900220CDF810C082E84102A6
:1034F000E04669462C48FEF785FB4FF400700090CB
:103500000220CDE9010ACDE9039869462648FEF775
:1035100079FBDFF8A480204908F16008183940469B
:10352000C8F80010C0E90176C0E90365C8F8146066
:10353000C8F81860C8F81C60C8F82060C8F8246093
:10354000FEF7ACFA08B1FDF7A5FB1B4E1248C4F814
:103550003880C0361830C8F8384086E88108002026
:10356000C6E903057061B061F06130627062304697
:10357000FEF794FA08B1FDF78DFB66630022052182
:103580002720B463FEF7FAFC272092E7004C0040A6
:10359000403802400008024040600240F410002021
:1035A000A00F002000500040000C0240001001401D
:1035B0000000024040640240141200200044004019
:1035C0000048004090F83E30202B0ED159B152B146
:1035D00090F83C30012B08D0012380F83C300023C8
:1035E000036302F0E5B80120704702207047000035
:1035F0007CB500261D49019634461B4D097825E00F
:1036000055F82420526882421FD155F8240090F8C2
:10361000401101291CD190F8A610BC3000F07DFFAC
:1036200055F82430012203F1A6015868FFF7CAFFBC
:103630000BF024FC0246009655F8240001AB07214C
:10364000D0F8B0000BF0FEFD02E0641C8C42D7DB2A
:103650000198002807D006494FF080500860BFF35A
:103660004F8FBFF36F8F7CBD980100209401002025
:1036700004ED00E0704700002DE9F843044690F89F
:103680003D001F4616460D4620284CD1C5B1BEB19F
:1036900094F83C00012846D0012084F83C004FF00B
:1036A0000008C4F84080212084F83D00FEF7A8FB04
:1036B000A6848146E684A068B0F5805F03D004E06C
:1036C0000120BDE8F883206928B12E465FF000058F
:1036D00084F83C800EE00026FAE78021204602F0C4
:1036E00082F8A0B9AEB116F8010B21684860E08CF1
:1036F000401EE084E08C4B464FF00002009700280B
:10370000EBD14FF04001204602F06DF830B10320BC
:10371000D7E735F8020BC0F30800E6E7202084F86D
:103720003D000020CDE70220CBE7000070B5044645
:1037300090F83D00202836D191B38AB394F83C002C
:10374000012830D0012084F83C002162A284E28468
:1037500000252564212084F83D00636B1348D8635D
:10376000636B13481864636B1248D864606B13462C
:1037700005652668606B321DFEF7FAF921686FF067
:103780004000086084F83C502068143050E8001F66
:1037900041F0800140E80012002AF5D1002070BD00
:1037A000FFE70120FBE70220F9E700009D54000835
:1037B000DF540008A153000890F83D30202B18D1A9
:1037C000A9B1A2B190F83C30012B12D001628284E1
:1037D000C28400210164212280F83D2080F83C1041
:1037E0000068C16841F08001C1600020704701207D
:1037F00070470220704700001CB5144B0021019156
:10380000114A1B7812E000BF52F8214064688442DC
:103810000BD101A8009052F8210000231A46D0F8DD
:10382000AC0019460BF094FA02E0491C9942EBDB1C
:103830000198002807D006494FF080500860BFF378
:103840004F8FBFF36F8F1CBD9801002094010020A3
:1038500004ED00E07047FEE741F20163C81A9942A7
:1038600067D023DC41F21403A1EB0300994254D04A
:1038700009DCA1F58051082941D2DFE801F0444676
:10388000404040484A4CB0F57B7F4CD005DC0428D2
:1038900045D0B0F51B7F32D143E0A0F54070ED3844
:1038A00043D0A0F58070FF3829D140E044F6402392
:1038B000C11A984249D016DC40F6FF13A0F6FF115A
:1038C00098423CD007DCA0F58070FF3833D0B0F5CB
:1038D000007F14D131E0012933D001F57F51B1F5DA
:1038E000004F0CD12FE0392935D004DC23292ED00C
:1038F000372904D12DE040292FD0BE292FD01B48D5
:1039000010600020704700202AE0012028E00220FB
:1039100026E0032024E0042022E0052020E0062009
:103920001EE007201CE008201AE0092018E00A2009
:1039300016E00B2014E00C2012E00D2010E00E2009
:103940000EE00F200CE010200AE0112008E0122009
:1039500006E0132004E0142002E0152000E0162009
:1039600000211160024901EBC0007047000002060F
:10397000A0F400089F2803D1087808B101487047D7
:1039800000207047300009062DE9F04385B014216E
:103990006846FCF7C1FC4FF400740125002602279D
:1039A0008DE8F000DFF83C9069464846FEF72AF9BA
:1039B0004FF4006801A8CDF8008080E8E0000A4DCF
:1039C00069462846FEF71EF9002241462846FEF7C2
:1039D00011FA002221464846FEF70CFA05B0BDE870
:1039E000F083000000080240000002407FB5002183
:1039F00021480091019102911E4A03910260012425
:103A00004FF480320461C0E90121047680F820106F
:103A10001A4AC0E90A210325C561C16080F8301047
:103A20004461FDF75FFA08B1FDF734F90820CDE9EC
:103A300000040720029069460F48FDF7ADF908B170
:103A4000FDF728F9092000900220019069460A48F4
:103A5000FDF7A2F908B1FDF71DF90D20CDE900052C
:103A600069460548FDF798F9002801D0FDF712F9DD
:103A70007FBD000000200140840E00200100000FE7
:103A800010B516488AB01449016006210024C0E927
:103A900001140904C0E903414FF4A0014161047617
:103AA00044768476C47604774477FDF7FEFC08B14B
:103AB000FDF7F0F80E200990012001940294CDE961
:103AC00006400394009408900594694604940348C2
:103AD000FDF7F2FA0AB010BD00640040F80E0020B5
:103AE00010B517488AB01549016003210024C0E9C8
:103AF00001144FF42021C0E903414FF480114161CA
:103B0000047644768476C47604774477FDF7CDFC5A
:103B100008B1FDF7BFF802940E2001210094019432
:103B2000039407910990CDE905040891049469462E
:103B30000348FDF7C1FA0AB010BD0000006800405C
:103B4000200F0020214808B5016841F48001016080
:103B5000016801F480010091016841F400110160E5
:103B60000068002200F40010009005210C20FEF7F0
:103B700005FA0C20FEF7F4F9002205210D20FEF7CE
:103B8000FDF90D20FEF7ECF9002205210E20FEF7CD
:103B9000F5F90E20FEF7E4F9002205210F20FEF7CB
:103BA000EDF90F20FEF7DCF9002205213A20FEF79F
:103BB000E5F93A20FEF7D4F9002205214620FEF768
:103BC000DDF9BDE808404620FEF7CAB930380240AA
:103BD00010B503F007FC00221146012004F090FA12
:103BE0002F4C002211466062012004F089FA002265
:103BF000A0621146012004F083FA0022E06211461F
:103C0000012004F07DFA002320631A460121254893
:103C100004F034FB002360631A460121224804F0BB
:103C20002DFB0023A0631A460121204804F026FB47
:103C30000023E0631A4601211D4804F01FFB2064A5
:103C400000221C210A2004F02FFA606100221C21AE
:103C50000A2004F029FAA06100220C210A2004F0B5
:103C600023FAE061002208210A2004F01DFA2062F4
:103C70003221606B04F03EFBC821A06B04F03AFBDC
:103C80003221E06B04F036FBC821206C04F032FBDB
:103C9000084A0021084804F0ABFA206110BD00007A
:103CA00018000020495300083153000855530008FC
:103CB0003D530008C8F20008C94B00082DE9F04F39
:103CC00087B014216846FCF727FB59480024016897
:103CD00041F010010160016801F0100105910168D7
:103CE00041F080010160016801F0800105910168E7
:103CF00041F004010160016801F0040105910168CF
:103D000041F002010160016801F0020105910168C2
:103D100041F008010160016801F0080105910168A6
:103D200041F0010101600068DFF8088100F0010046
:103D3000059000224BF604714046FEF75BF8DFF871
:103D4000F89000224FF480614846FEF753F80122B4
:103D500011034846FEF74EF8DFF8E0A04FF4207656
:103D6000002231465046FEF745F8DFF8D4B04FF454
:103D70000067002239465846FEF73CF80022082129
:103D80003048FEF737F840F6047000900125CDE981
:103D90000154694640460394FDF734FF4FF4405008
:103DA000CDE9000569464046CDE90245FDF72AFF09
:103DB000E803CDE900050320CDE90240694640460D
:103DC000FDF720FFF0000090CDE901546946484618
:103DD0000394FDF717FFCDE900650226CDE9024601
:103DE00069465046FDF70EFF28028DE8310069460E
:103DF0005046FDF707FF4FF488508DE831006946C3
:103E00005846FDF7FFFE00970396CDE90154694639
:103E10005846FDF7F7FE08200090CDE901546946A9
:103E200008480394FDF7EEFE07B0BDE8F08F0000F0
:103E300030380240001002400004024000080240F6
:103E400000000240000C02402DE9F041204804240B
:103E5000204904700025416005724FF47A76A0F87D
:103E6000A26000F55277C0F898704FF00808C5605E
:103E7000A0F8A48080F8404100F02CF9144800F02C
:103E80009FF9A7F5E2701449047041600572A0F82B
:103E9000A260C0F89870C560A0F8A48080F8404186
:103EA00000F018F9A7F5E27000F08AF9084803F06D
:103EB00009FD0A4C0125606000B12570084803F037
:103EC00001FDA060002800D06570BDE8F081000011
:103ED0000C0B002028100020B0100020180000203B
:103EE000900C00200F4810B50D4901604FF482710D
:103EF000416000218160C1604FF400720161C0E93E
:103F00000512C1610162416281620A21C162FEF74C
:103F10001DFB002803D0BDE81040FCF7BBBE10BD60
:103F200000380040480F002010B586B000241B4820
:103F30000094019402940394049417490594016039
:103F400040F24731C0E901144FF6FF71C0E9031494
:103F50008461FEF7CBFC08B1FCF79CFE4FF4805067
:103F6000009069460D48FEF74DFD08B1FCF792FE42
:103F700008210A48FEF769FE08B1FCF78BFE04949D
:103F800004A906480594FEF769FC002801D0FCF757
:103F900081FE06B010BD0000000C00403408002077
:103FA0000C4810B50A4901604FF4E131416000212D
:103FB00081600C22C160C0E904128161C161FFF718
:103FC000FBF8002803D0BDE81040FCF763BE10BD2D
:103FD000004C0040A00F00200E4810B50C490160B5
:103FE0004FF4E1314160002181600C22C160C0E9E1
:103FF00004128161C161FFF7DFF808B1FCF74AFEE6
:10400000BDE81040012204490248FFF7DBBA000076
:1040100000500040E40F0020C40000200C4810B500
:104020000A4901604FF4E1314160002181600C22B6
:10403000C160C0E904128161C161FFF7BDF80028C9
:1040400003D0BDE81040FCF725BE10BD00100140B4
:10405000281000200E4810B50C4901604FF4E131E2
:104060004160002181600C22C160C0E904128161BD
:10407000C161FFF7A1F808B1FCF70CFEBDE81040E4
:10408000012204490248FFF79DBA000000440040A5
:104090006C100020C40000200C4810B50A490160D3
:1040A0004FF4E1314160002181600C22C160C0E920
:1040B00004128161C161FFF77FF8002803D0BDE8D9
:1040C0001040FCF7E7BD10BD00480040B0100020D4
:1040D000FEE7000038B52D4D04462878022853D25B
:1040E00004F1BC0000F038FA2078032802D004283C
:1040F00008D0FEE7264A2146264804F079F8C4F89D
:10410000AC001EE0224A21462432234804F070F815
:1041100044F8AC0F2148009034F80A1C002220A07B
:10412000A3680BF02DF8A060AC3C40B3184A1021F6
:10413000183A022003F0B8FFC4F8A80000B3D4F87E
:10414000AC00F0B11A4800900022052119A0D4F863
:10415000B0300BF015F8C4F8B00098B10C4A01214A
:104160004832084603F0CCFFC4F8B80058B10749FC
:104170002878091D41F82040401C287038BDFEE712
:10418000FEE7FEE7FEE7FEE7FEE700009401002001
:1041900004F40008494E0008E54C0008E5DC00087E
:1041A0007854696D657254696D656F7574000000AF
:1041B00091DC000854696D657254333500000000CD
:1041C00010B5044690F84001012806D0032839D0E4
:1041D000022837D0042800D0FEE7E06818B1218A11
:1041E0000022FDF707FE2078032802D1D4F89800BA
:1041F00080B16068FEF7A6FE2028FAD194F840014D
:104200000428606807D0012204F1A601FFF7DAF95B
:1042100078B1FEE7FEE7802204F1BC01FEF75FFD06
:1042200000B1FEE76068806B0068016821F008015A
:104230000160207A0028207802D0042802D1FEE70D
:10424000032808D0002084F8930004F8940FA0817C
:104250006081208110BDFEE7FEE710B509F06AF825
:10426000002010BD38B50446B0F9AC00A834FCF706
:10427000CDFCA08054F8A809008850B164214843BF
:1042800000230090044A1946204600F055FCA4F88B
:10429000AC00002038BD0000ED43000810B5044616
:1042A00003F056FE204603F0D1FD002010BD0000B3
:1042B000D0F80C12097869B900210A4606E000BF5F
:1042C000D0F8103243F82120491CC9B290F80932C5
:1042D0008B42F5D80020704730B401EBC1028468EE
:1042E00002254FF0FF3305EB42056353002384683A
:1042F000062505EB4202A35230BCC9B208F018BB38
:1043000030B401EBC102846804254FF0FF3305EBA4
:10431000420563538368C9B213F8124024F00104C4
:1043200003F8124030BC08F003BB00002DE9F8434D
:10433000064640694FF4C0550489B0690789CCB17D
:10434000DFF83C80BC4215D8D6F8E8316A462946E9
:1043500030469847009941B90268C2F82C8002683B
:10436000C2F83C800068C0F85C806D1C641CADB273
:10437000A4B2E7E73046BDE8F843002102F08EBA68
:10438000335200082DE9F0470446406900260589AC
:10439000A069B0F8088035BBBDE8F087A16806EBDE
:1043A000C607022000EB470931F90900FCF72EFC93
:1043B000A26822F80900A168042000EB470931F93E
:1043C0000900FCF723FCA268761CF6B222F809006B
:1043D000A1680020062201F81700A16802EB47023D
:1043E0006D1C8852ADB24545D8D9D5E710B5044605
:1043F000D0F8A80086B0008810B3206843F23013CC
:10440000BE22007800F5E060ADF8080001208DF8CC
:104410000B0000208DF80A0094F87C008DF80C0049
:1044200094F87C1009A0CDE900010EA114A001F0C0
:10443000ADFC02A9D4F8E40102F076FF06B010BD8D
:1044400034F9AC0FFCF7E2FB2080F7E750726F64A1
:104450007563696E67206865617274626561743A3C
:10446000200000002E2E5C43414E4F70656E5C7341
:1044700072635C6C6966656772642E63000000009D
:1044800025732C2564203A20305825782025732068
:1044900030582578200D0A0000B587B014216846F1
:1044A000FBF73AFF0C480021026842F00802026064
:1044B000006800F008000590082000900120CDE978
:1044C00001010220039069460448FDF79BFB02208E
:1044D00000F006F807B000BD30380240000C024082
:1044E000022804D1002208210148FDF783BC70474F
:1044F000000C024038B51D461446D0F8E8316A4633
:104500009847009939B90179A14204D900680C2172
:1045100001EB04114550009838BD90F8812081547A
:1045200090F88110491C01F07F0180F8811090F80B
:104530008210802906D0002280F88320491C80F850
:1045400082107047012180F8831010F8801F491CE9
:1045500001F07F0101707047002100F8801F417059
:104560008170C170704790F8822000F001B800009F
:1045700010B590F8823013B10AB1802A01D9002019
:1045800010BD00230DE000BF90F88040045DCC54C6
:1045900090F88040641C04F07F045B1C80F880402D
:1045A000DBB2934203D290F882409C42ECD890F860
:1045B0008210C91A80F88210002180F88310FFF75A
:1045C000CBFF184610BD00002DE9FC4105464069AF
:1045D0000F46408800285ED0C7EBC70101EB4101C0
:1045E00005EB810494F828100844A9694988884299
:1045F00051D8696841F60123952251F83000002115
:10460000806B067825A0CDE900012EA133A001F032
:10461000BDFB38A0CDE9000642F6022843469622AB
:1046200028A12EA001F0B2FB218E37A0CDE9000118
:104630004346972223A129A0283401F0A7FBA17AA1
:1046400036A0CDE90001434698221EA123A001F027
:104650009DFB4FF0FF30A4F84C008520A070DFF8E0
:10466000D080A17ACDE90018238922786178284684
:1046700008F09EFBC4F80480226D283C2AB1314624
:1046800028469047E16A414505D1F9B22846BDE880
:10469000FC4108F001B9BDE8FC81000053444F2003
:1046A00074696D656F75742E2053444F2072657365
:1046B000706F6E7365206E6F7420726563656976C6
:1046C00065642E002E2E5C43414E4F70656E5C7308
:1046D00072635C73646F2E630000000025732C25E9
:1046E00064203A20305825782025732030582578CA
:1046F000200D0A00736572766572206E6F64652006
:104700006964203A20000000202020202020202062
:1047100020696E646578203A200000002020202067
:104720002020737562496E646578203A200000008D
:10473000000004057FB50C46054619A0CDE900042C
:1047400043F608263346D1221CA122A001F01EFB0D
:10475000C4EBC40000EB400005EB8003586B08B9C4
:10476000986B58630390012003A9CDE900100290D3
:1047700003F13C0093F83220198E0346284602F0DC
:10478000F5F9002809D119A0CDE900043346E92242
:104790000AA110A001F0FAFA002004B070BD0000D8
:1047A000456E74657220696E2053444F6C696E6566
:1047B000546F4F626A646963742000002E2E5C435C
:1047C000414E4F70656E5C7372635C73646F2E63F1
:1047D0000000000025732C2564203A2030582578ED
:1047E0002025732030582578200D0A0065786974DB
:1047F000206F662053444F6C696E65546F4F626A38
:1048000064696374200000007CB5C1EBC10101EB59
:10481000410100EB81018C6BA01820280CD90EA05F
:10482000CDE9000241F615234FF4B47219A11FA07F
:1048300001F0ACFAFF207CBD002006E026181D5CCC
:104840000E44401C86F83C50C0B29042F6D3886BB0
:104850001044886300207CBD53444F2053697A651F
:10486000206F66206461746120746F6F206C6172C8
:1048700067652E204578636565642053444F5F4D1E
:1048800041585F4C454E4754485F5452414E534641
:10489000455200002E2E5C43414E4F70656E5C7396
:1048A00072635C73646F2E630000000025732C2517
:1048B00064203A20305825782025732030582578F8
:1048C000200D0A0038B504461248134B0068B0FBAF
:1048D000F3F04FF47A73584300906068B0F5827F2C
:1048E0000DD10B46009200228021204600F016F8E0
:1048F00070B1606D40F020006065032038BD009805
:1049000030B1401E009020688068C0430006F6D594
:10491000002038BDD400002000366E012DE9F84398
:104920001E46914688460446089DFDF769FA401BDD
:10493000351AFDF765FA074625480068C0F3CB3005
:10494000684338E0701C37D0FDF75AFAC01BA84204
:1049500003D215B1009860B32CE02068416821F0C3
:10496000E00141606068B0F5827F0BD1A068B0F5CE
:10497000004F02D0B0F5806F04D12068016821F0AB
:1049800040010160A06AB0F5005F09D120680168AC
:1049900021F4005101602068016841F40051016078
:1049A000012084F85100002084F850000320BDE865
:1049B000F8830025401E00902068816838EA0100D5
:1049C00004D000214945BDD10020F0E70121F9E7DD
:1049D000D40000202DE9F0410F4604460026904601
:1049E0001D46D0F8B800711E09F0F4FF207A00B11E
:1049F000FF2694F8A70000B1FE2617F0FF0001D0B3
:104A0000F72801D9F72600E05EB175B20023A5743E
:104A10001A461946D4F8B80009F0E2FD2846BDE868
:104A2000F081C4F89850E074C7F30723380C23755D
:104A3000010A61751FFA88F2A075170A062100267F
:104A4000D0B2052B16D008DC012B11D0022B0FD0D1
:104A5000032B0DD0042B5FD10AE0062B13D04FF0AF
:104A6000070C04F113010F2B13D0102B54D133E09A
:104A7000E7750CE0288800B1FF20E07584F8186025
:104A800084F8931048E02888000AE075287820769A
:104A9000F6E713095B061B0E120701D05B1CDBB2A5
:104AA000E7752076637684F893C0002011E0C20792
:104AB00020F0010201D0AA5C01E0AA5A120A94F87F
:104AC00093707A5494F89320521C401C84F89320DD
:104AD00080B29842EBD31FE0E775207650006076F5
:104AE00084F893C0002015E035F8103094F89370E6
:104AF0001B0A7B5494F893305B1CDBB284F8933030
:104B000015F810705F5494F893305B1C401C84F8C7
:104B1000933080B28242E7D8204608F0E3F90023C0
:104B20001A461946D4F8B80009F05AFD012084F855
:104B3000A700A674002072E72DE9F05F8B4621499B
:104B400082460026B1F900001C4691461C4D401CCF
:104B500008E000BFB9F1000F01D02A7852B1761CED
:104B600036B21835864201DC082EF3DB4FF0FF30F9
:104B7000BDE8F09F8846864201D1A8F8000002F007
:104B8000E3FD07464FF6FF7120468C4200D30846EE
:104B9000D8F80420BA4207D9D21B824204D93A1865
:104BA000C8F8042008F066FBE019C5E903B0C5E9C0
:104BB00001A90A986861012028703046D8E70000F2
:104BC000505C0020A00100202648FCF709FE28B117
:104BD00025A001F0DBF8002008F00AFF022121489F
:104BE000FCF7EAF928B12BA001F0D0F8002008F07A
:104BF000FFFE00F05FFA00212F4808F0CBF90021FA
:104C00002D4808F0E5FA7F212B4808F0E1FA05214C
:104C1000294808F0DDFA294C294D06274FF4805821
:104C20004FF47A764FF007094FF4005A4FF00F0B0C
:104C300024A001F0ABF827803046C5F8008003F0CF
:104C4000F7F9A4F800903046C5F800A003F0F0F999
:104C5000A4F800B04FF440502860304603F0E8F963
:104C6000E6E70000F80E002043414E3120737461E6
:104C70007274206661696C65642C73746F70205364
:104C80007461727443616E546573745461736B2103
:104C90000D0A0000456E61626C652043414E206E36
:104CA0006F74696669636174696F6E206661696CAF
:104CB0006564210D0A000000DC050020A801002029
:104CC000AC01002043414E3120746573742074613F
:104CD000736B732069732072756E6E696E670D0A4F
:104CE0000000000086B004464FF0FF394FF0000886
:104CF0004E464A4601A9D4F8A80009F0CFFD049811
:104D000000900DF1040C20469CE80E00FFF762FEB7
:104D10003146012008F0B2FC454684F8128020B1EB
:104D200084F8A7506FF007010AE0204602F021FD49
:104D300094F8930006280AD284F8A7506FF0050172
:104D4000A174B4F8A000401CA4F8A00010E00095E5
:104D50000023A8461A460321D4F8B4000AF072FAD8
:104D6000204608F0DFFF41B231B184F8A780A1747A
:104D700000230322049864E0A1743146D4F8B800FB
:104D800009F028FE207D052849DA012806D00228EE
:104D900004D0032820D0042841D11DE0032600259B
:104DA00016E0E807D4F8980025F0010704D0C15DAB
:104DB000AA191019C07C04E0AA19C05B1119000AD5
:104DC000C97C09F097FAD4F898106D1CEDB2C8535D
:104DD000607DA842E5D822E0607D0326400884F883
:104DE0004201002514E0A719397DF87C09F082FA08
:104DF0000146D4F89800B61CF6B220F81510B7F8A2
:104E0000130004EB450140BA6D1CA1F84401EDB25A
:104E1000607DB5EB500FE6D3012184F8411184F891
:104E2000A780A07C00287FF463AF00231A461946B0
:104E3000D4F8B80009F0D4FB002303226FF00A0174
:104E4000049809F015FF53E704464FF0010B4FF0AB
:104E5000080900274FF0060AA77494F840010128BA
:104E600001D0042809D14FF0FF31012008F006FCE1
:104E7000204602F07EFCC01C0BD094F8930007285B
:104E800009D2FA20A074B4F8A000401CA4F8A00035
:104E9000E2E7FD20F6E7E07C217A8842DCD120467B
:104EA00008F074FF05000DD0207D217AE174803078
:104EB00020756575032084F89300204608F012F8E9
:104EC000A574C9E7A7744FF0FF31D4F8B80009F012
:104ED00081FD207D05281AD008DC01280DD002288C
:104EE0000BD003280DD004282ED10AE006283DD08F
:104EF0000F284DD0102827D14EE0204606F0DAFECC
:104F000002E0204606F072FF84F8A7001CE0A17DB5
:104F1000607D09F0EFF90146E27D000901F00F0123
:104F2000FF2A19D0D4F898200BFA01F332F8105068
:104F30009D4322F8105000BF84F893A04D462046B0
:104F400007F0D0FF84F8A75000231A461946D4F87A
:104F5000B80009F045FB7FE7D4F898300BFA01F56B
:104F600033F810202A4323F81020E5E7A17D607D67
:104F700009F0C0F90546217EE07D09F0BBF9D4F8BF
:104F8000981021F8150084F893A04D462046D7E7E5
:104F9000204606F0E8FEB7E7B4F81500002590FAC1
:104FA00090F8B4F81700E77546BA267684F893A00F
:104FB0000FE000BF04EB4500C17E807E09F09AF946
:104FC000014608EB0500D4F898206D1CADB222F81C
:104FD0001010B542EED394F893502046AD1CAFE7C5
:104FE00007F03ABF10B54FF0E020006909F032FF3A
:104FF000012803D0BDE8104009F0FCB910BD000045
:1050000030B593B030216846FBF786F914210CA81F
:10501000FBF782F91E480025016841F080510160CC
:10502000006800F0805011901A48016841F48041F6
:1050300001600068022400F480401190012000907B
:10504000000401908001CDE90640102008904FF443
:10505000A870CDE9090404200B906846FDF7C0F85C
:1050600008B172B6FEE70CA90F2081E831004FF4B9
:10507000A0500F904FF48050109005210CA8FCF721
:10508000AFFF002801D072B6FEE713B030BD0000BC
:1050900040380240007000400248016841F470014D
:1050A0000160704788ED00E00148FDF71ABD00007F
:1050B0003408002010B5FEF737FF0D4840F24731A5
:1050C0000268916202684FF6FF71D162C1600268A6
:1050D000012151620268C91E11610068C16841F076
:1050E0000101C160BDE810400148FDF74BBC000064
:1050F000340800200148FDF7F4BC00003413002000
:10510000F0B50268254C264D264E274F274B4FF011
:10511000804CA04209D0604507D0A84205D0B042DB
:1051200003D0B84201D0984204D122F0700E4A68F0
:1051300042EA0E02A0421BD0604519D0A84217D007
:10514000B04215D0B84213D0984211D0184DA842A1
:105150000ED0184DA8420BD0174DA84208D0174DBD
:10516000A84205D0164DA84202D0164DA84203D140
:1051700022F44075CA682A434D6922F080022A430E
:1051800002608A68C2620A688262A04201D09842C4
:1051900001D10969016301214161F0BD00000140B5
:1051A0000004004000080040000C004000040140E2
:1051B0000040014000440140004801400018004008
:1051C000001C00400020004010B5846842EA032221
:1051D00024F47F440A432243826010BD826822F097
:1051E00070020A4342F007018160704710B5036AFC
:1051F000046A24F001040462846924F0F00444EA9F
:10520000021423F00A020A438461026210BD10B541
:10521000036A23F0100303628369046A23F4704372
:1052200043EA023224F0A00343EA011182610162E1
:1052300010BD2DE9F041044690F8820048B3022ADF
:1052400003D0032A01D0052A23D16269A088127AEB
:1052500000EBC200081AC0F3C705A16805EBC5063C
:10526000022000EB4607C85FFBF7D0FCA168C853DB
:10527000A168042000EB4607C85FFBF7C7FCA168E4
:10528000C853A168002001F8160029462046FFF700
:1052900023F80020BDE8F0812DE9F0414FF6FF74BE
:1052A00002F052FA204D02466868831800211F4818
:1052B00015E00678F6070FD006699E421DD84669AC
:1052C000C6B1B2FBF6F706FB1727F61B03270661EC
:1052D0000770A64200D23446491C09B21830B5F90D
:1052E0000060B142E5DD20466C6007F0C3FF002698
:1052F0000E4C13E002260670EEE7F61A0661E8E7A8
:105300002078810707D520F002002070A26812B132
:10531000E16860689047761C36B21834B5F9000031
:105320008642EDDDBDE8F081A0010020505C002048
:105330000148806A02F030BF180000200148006B6D
:1053400002F02ABF180000200148406A02F024BF82
:10535000180000200148C06A02F01EBF180000209B
:1053600010B507F0F5F9002805D0D0E90021BDE817
:1053700010400846104710BD0148FDF7E9BD000088
:10538000A00F00200148FDF7E3BD0000E40F00205E
:1053900010B5806B0021C185C184FDF7A3FD10BD50
:1053A00070B5846B2068406994F83D10C0F3C0105C
:1053B0000025212904D118B1E584204600F0BBF86E
:1053C0002068406994F83E10C0F38010222904D16F
:1053D00018B1E585204600F087F8206C40F01000F9
:1053E00020642046FDF77EFD70BD10B50146806B40
:1053F00009680968C9052FD40021C18501680C31ED
:1054000051E8002F22F4807241E80023002BF5D1EF
:105410000168143151E8002F22F0010241E8002315
:10542000002BF5D10168143151E8002F22F0400221
:1054300041E80023002BF5D1202180F83E10016BBC
:10544000012909D101680C3151E8002F22F0100226
:1054500041E80023002BF5D1016B012902D0FEF7B2
:10546000C7F810BD818DFDF765FC10BD10B5806BD0
:10547000016B012902D0FEF7FDF810BD818D4908AE
:10548000FDF758FC10BD10B5806B0021C1852022AE
:1054900080F83E200163FDF79FFC10BD10B501466A
:1054A000806B09680968C90516D40021C1840168A8
:1054B000143151E8002F22F0800241E80023002B34
:1054C000F5D101680C3151E8002F42F0400241E86B
:1054D0000023002BF5D110BDFEF78EF910BD10B5DD
:1054E000806BFEF7B7F910BD01680C3151E8002F51
:1054F00022F4907241E80023002BF5D101681431A9
:1055000051E8002F22F0010241E80023002BF5D1E1
:10551000016B012909D101680C3151E8002F22F0FB
:10552000100241E80023002BF5D1202180F83E1025
:1055300000210163704701680C3151E8002F22F00F
:10554000C00241E80023002BF5D1202180F83D1056
:10555000704708B590F83E10222901D0022008BDFE
:1055600082684FF480539A4201D1016921B1816A66
:105570009A421BD04AB10AE00268816A5268C2F3BB
:1055800008020A80816A891C08E0026972B1026817
:10559000526802F07F020A70816A491C8162C18DE3
:1055A000491E0904090CC18503D019E0026852683C
:1055B000F1E70168CA6822F02002CA600168CA687F
:1055C00022F48072CA6001684A6922F001024A61CD
:1055D000202180F83E10016B012903D0FEF708F866
:1055E000002008BD0021016301680C3151E8002F43
:1055F00022F0100241E80023002BF5D101680A686F
:10560000D20602D50A6849680091818DFDF792FBA8
:10561000E6E7000070B5044600680169E26821F41D
:105620004051114301612169A068E2690843616941
:10563000114308432168CA6849F20C639A43024344
:10564000CA6020684169A26921F440711143416137
:1056500031492068884202D03049884202D1FCF7A3
:1056600089FD01E0FCF776FDE2690023192164253C
:105670003226B2F5004F626828D0A0FB0101930FDB
:105680009200FAF7FFFD0146B0FBF5F06FF018024B
:10569000504301EB800006EB0010B0FBF5F000F08A
:1056A000F002B1FBF5F002EB0012B1FBF5F06FF088
:1056B0001803584301EB800006EB0010B0FBF5F037
:1056C00000F00F0021681044886070BDA0FB01014C
:1056D00092185B41FAF7D6FD0146B0FBF5F00201E6
:1056E000B1FBF5F06FF01803584301EB800006EBB7
:1056F000C000B0FBF5F000F0F80002EB4002B1FB97
:10570000F5F0584301EB800006EBC000B0FBF5F06C
:1057100000F00700D6E7000000100140001401402F
:1057200038B581628285002513460446056422202F
:1057300084F83E00A26B1B48D063A26B1A48106429
:10574000A26B1A48D064A06B0A4605652168A06B5D
:10575000091DFCF70DFA206801684068009084F884
:105760003C5020680C3050E8001F41F4807140E844
:105770000012002AF5D12068143050E8001F41F0D3
:10578000010140E80012002AF5D12068143050E8E9
:10579000001F41F0400140E80012002AF5D100202E
:1057A00038BD0000EB5300086D540008A1530008F9
:1057B00081628285C28500210164222280F83E2018
:1057C00080F83C100168CA6842F48072CA600168BF
:1057D0004A6942F001024A610068C16841F0200153
:1057E000C160002070472DE9F041984617460E46EB
:1057F0000446069D27E0681C25D02DB1FCF700FB70
:10580000A0EB0800A8421ED920680C3050E8001F09
:1058100021F4D07140E80012002AF5D1206814303C
:1058200050E8001F21F0010140E80012002AF5D1E4
:10583000202084F83D0084F83E00002084F83C00DD
:105840000320BDE8F0812068006836EA000004D03B
:105850000020B842CFD00020F3E70120F9E7000094
:105860000148FDF775BB0000281000200148FDF736
:105870006FBB00006C1000200148FDF769BB000001
:10588000B0100020FEE7000030B587B0012008F01E
:1058900004FE394948603949394806F0C9FF394999
:1058A000394806F0D7FF3949394806F0AFFF394D7E
:1058B0004FF48064002221462846FCF79BFA0A2018
:1058C000FCF78EF9012221462846FCF793FA4FF4A3
:1058D0009670FCF785F9304B01AC0FCB84E80F00D4
:1058E00001A9012001F0B2FD401C1DD04FF464500D
:1058F00000F07CF9014629A000F048FA01218DF85A
:10590000141000208DF815008DF816008DF8171072
:1059100005A90A2001F09AFD60B126A000F036FA30
:105920006FF0010007B030BD29A000F02FFA4FF052
:10593000FF30F7E70024C820FCF752F969460F2032
:1059400001F084FD05460346641C22469DF80010C4
:1059500025A000F01BFA9DF8000008B9322CEAD30C
:1059600025B910F0FF0F01D00020DBE726A000F0E2
:105970000DFA6FF00200D5E78C01002015DF00085A
:1059800065E00008AFE1000861E000080BDF0008F7
:1059900007DF000800040240BCF30008573535302B
:1059A000302056657273696F6E3A20307825303238
:1059B000580D0A005365742050485920636F6E6675
:1059C0006967206661696C6564210D0A000000004A
:1059D00057495A4348495020496E697420666169A5
:1059E0006C65642E0D0A00004C696E6B3A202564CC
:1059F0002C63686B5F636E743A25642C72657375F3
:105A00006C743A25640D0A004C696E6B206F6E2031
:105A10006661696C6564210D0A00000000B587B0FD
:105A2000182205496846FAF75EFC6946002001F035
:105A3000E7FC07B000BD0000CCF3000800B589B05A
:105A400003A9012001F0DCFC9DF80F009DF8112056
:105A50009DF810108DE807009DF80E309DF80D2080
:105A60009DF80C101AA000F091F99DF81500009017
:105A70009DF814309DF813209DF812101EA000F020
:105A800085F99DF8190000909DF818309DF81720B1
:105A90009DF816101DA000F079F99DF81D000090EA
:105AA0009DF81C309DF81B209DF81A101CA000F0DA
:105AB0006DF99DF8210000909DF820309DF81F2081
:105AC0009DF81E101BA000F061F909B000BD000098
:105AD0004D41433A20253032583A253032583A2544
