:020000040800F2
:100000004863002061020008E54D0008EB37000856
:100010005D4C0008810A00083D64000800000000F3
:10002000000000000000000000000000A101000826
:10003000550C000800000000FD0100089D5B000851
:100040007B0200087B0200087B0200087B0200089C
:100050007B0200087B0200087B0200087B0200088C
:100060007B0200087B0200087B0200087B0200087C
:10007000690B0008750B0008810B00088D0B000848
:100080007B0200087B0200087B0200087B0200085C
:10009000850A00087B0200087B0200087B0200083A
:1000A0007B0200087B0200087B0200087B0200083C
:1000B0007B0200087B0200087B0200087B0200082C
:1000C0007B0200087B0200087B0200087B0200081C
:1000D0007B020008196400082564000831640008E8
:1000E0007B0200087B0200087B0200087B020008FC
:1000F0007B0200087B0200087B0200087B020008EC
:100100007B0200087B020008615C00087B0200089B
:10011000315F00083D5F0008AD5C00087B0200080D
:100120007B0200087B020008990B00087B02000894
:100130007B0200087B0200087B0200087B020008AB
:10014000910A00087B0200087B0200087B0200087D
:100150007B0200087B020008A50B00087B02000858
:100160007B0200087B0200087B0200087B0200087B
:100170007B0200087B0200087B02000800000000F0
:100180007B0200087B020008DFF810D000F060FB63
:100190000048004739810008AFF300804863002021
:1001A0002C4B19680868B0E8F04F80F30988BFF35A
:1001B0006F8F4FF0000080F311887047000000003F
:1001C00008480068006880F308884FF0000080F35A
:1001D000148862B661B6BFF34F8FBFF36F8F00DF35
:1001E00000BF00BF08ED00E0DFF80C00016841F43B
:1001F00070010160704700BF88ED00E0EFF30980F7
:10020000BFF36F8F134B1A681EF0100F08BF20ED5D
:10021000108A20E9F04F106009B44FF0500080F3CD
:100220001188BFF34F8FBFF36F8F0BF09DFA4FF024
:10023000000080F3118809BC19680868B0E8F04F25
:100240001EF0100F08BFB0EC108A80F30988BFF3CE
:100250006F8F7047DC000020EFF3058070470000CF
:100260000648804706480047FEE7FEE7FEE7FEE750
:10027000FEE7FEE7FEE7FEE7FEE7FEE7515C00086B
:10028000890100082DE9F05F0546002092469B4653
:1002900088460646814640241BE02846414647469C
:1002A000224600F0CEF953465A46C01A914110D367
:1002B00011461846224600F0B5F92D1A67EB0108E1
:1002C0004F4622460120002100F0ACF917EB00094F
:1002D0004E41201EA4F10104DFDC484631462A4687
:1002E0004346BDE8F09F40EA01039B0703D009E0C5
:1002F00008C9121F08C0042AFAD203E011F8013B12
:1003000000F8013B521EF9D27047D2B201E000F86A
:10031000012B491EFBD270470022F6E710B51346A9
:100320000A4604461946FFF7F0FF204610BD30B5D7
:1003300004460020034600E05B1C934203D2E05CCD
:10034000CD5C401BF8D030BD2DE9FE4F804681EAE0
:100350000300C00F0C46009021F0004123F000453F
:10036000B8EB0200A94105D24046214690461C4602
:100370000B46024623F00040104347D0270DC7F339
:100380000A00C3F30A510290401A019040286BDA28
:10039000C3F3130040F4801B0098924620B1002361
:1003A000D2EB030A63EB0B0B01985946C0F14002F4
:1003B000504600F037F906460D4650465946019A18
:1003C00000F04FF910EB08006141002487EA115258
:1003D00084EAE7731A4340D0009A62B3019A012A73
:1003E0004FEA075215DC001B61EB02014FF000429F
:1003F00002EA0752CDE90042001C41F58011324665
:100400002B4600F04FF903B0BDE8F08F404621467F
:10041000F9E7001B61EB0201001C41F58013001895
:100420005B412018A2F5001747EB030140EAD570A5
:10043000B6196D4111E06D084FEA360645EAC07500
:100440004FEA0752001B61EB0201001C41F58011CD
:1004500049084FEA30000019514132462B4603B09B
:10046000BDE8F04F00F00FB90098012240000023D2
:10047000D0EB020263EBE073009821464FEAE07490
:10048000B8EB000061EB0401E9E783F000435BE7B0
:1004900081F0004158E72DE9FE4F81EA030404F0A2
:1004A000004421F0004100944FF0000B23F0004382
:1004B00050EA01045ED052EA03045BD0C3F30A544D
:1004C000C1F30A552C44A4F2F3340194A0FB025466
:1004D000C1F3130141F48011C3F3130343F48013F8
:1004E00001FB024400FB034E840A970A44EA81544C
:1004F00047EA8357A4FB076802958D0A05FB078529
:100500004FEA932C04FB0C542705029D4FEA065832
:1005100047EA1637B5EB08056EEB070C870E920E0F
:1005200047EA811742EA8312A7FB0201B6EB0B01EF
:1005300064EB00042B0D43EA0C335E1844EB1C50B3
:10054000DA465146E7FB0201C5F313044FEA0B33C9
:1005500043EA14534FEA0432019C43EA0603A4F130
:100560000C040294009CCDE900B400F09BF803B0A9
:10057000BDE8F08F00200146F9E70EB540F23341A7
:1005800002910021CDE900110A460B4600F08AF8DD
:1005900003B000BDC1F30A5210B5C1F3130140F21C
:1005A000FF3341F480119A4201DA002010BD40F27D
:1005B00033439A42A2F2334203DC524200F041F844
:1005C00010BD904010BD000030B5041E71F1000454
:1005D00004DB4FF00044404264EB0101141E73F150
:1005E000000405DB1C464FF00043524263EB04035A
:1005F000994208BF904230BD30B50B4601460020FD
:100600002022012409E021FA02F59D4205D303FAD4
:1006100002F5491B04FA02F52844151EA2F1010255
:10062000F1DC30BD202A04DB203A00FA02F1002080
:1006300070479140C2F1200320FA03F31943904020
:100640007047202A04DB203A21FA02F0002170478B
:1006500021FA02F3D040C2F120029140084319462A
:100660007047202A06DBCB17203A41FA02F043EA12
:10067000E07306E041FA02F3D040C2F1200291405B
:1006800008431946704710B5141E73F1000408DAC8
:10069000401C41F1000192185B411A4301D120F046
:1006A000010010BD2DE9F04D92469B4611B1B1FA03
:1006B00081F202E0B0FA80F220329046FFF7B2FFFA
:1006C00004460F4640EA0A0041EA0B0153465A46E7
:1006D000084313D0114653EA010019D0C8F1400273
:1006E0005046FFF7AEFF05460E4650465946424675
:1006F000FFF798FF084305D0012004E02046394663
:10070000BDE8F08D0020054346EAE0762C433743F0
:100710000A986305E40AA0EB08000022FD0A44EAF7
:1007200047540A3002D500200146E9E701051019B7
:100730006941DDE9084500196941BDE8F04DA2E7CE
:100740002DE9F04D81EA030404F0004B21F000454F
:1007500014464FF0000A23F0004150EA050220D071
:1007600054EA01021DD0C5F30A570246C5F313032C
:10077000C1F31300C1F30A5640F4801543F480130B
:10078000A7EB0608101BD64608F2FD3873EB0500F0
:1007900002D308F1010801E092185B41B8F1000FA3
:1007A00003DA00200146BDE8F08D00204FF48011EF
:1007B000064684460EE0171B73EB050705D3121B94
:1007C00063EB050306434CEA010C49084FEA30008D
:1007D00092185B4150EA0107EDD152EA030012D0B2
:1007E00082EA040083EA0501084305D0101BAB41EF
:1007F00006D20122002306E000224FF0004302E06F
:100800006FF0010253101AEB06004CEB085110EB8D
:100810000A0041EB0B01BDE8F04DFFF734BFC1F317
:100820000A52C1F3130140F2FF3341F480119A429E
:1008300002DA00200146704740F233439A42A2F2A6
:10084000334202DC5242FFF7FCBEFFF7EBBE000072
:10085000064C074D06E0E06840F0010394E807000D
:1008600098471034AC42F6D3FFF792FCB0D10008A1
:10087000D0D1000870B58C1810F8015B15F0070393
:1008800001D110F8013B2A1106D110F8012B03E029
:1008900010F8016B01F8016B5B1EF9D12B0705D431
:1008A0000023521E0DD401F8013BFAE710F8013B7A
:1008B000CB1A921C03E013F8015B01F8015B521E96
:1008C000F9D5A142D8D3002070BD0000464910B52B
:1008D0004A6822F440324A604A6843681A434A60D0
:1008E00001684A6822F480724A6001684A680369B4
:1008F00042EA03224A6001684A6822F040724A6074
:1009000001684A6883681A434A6001688A6822F469
:1009100000628A6001688A68C3681A438A60816AD3
:100920006FF07062D14201688A6822F070628A605A
:1009300001688A680CD0836A1A438A6001688A68F1
:1009400022F040528A6001688A68C36A1A4301E053
:1009500022F040528A6001688A6822F002028A60AE
:1009600001688A68037E42EA43028A6090F8201098
:10097000002901684A680FD042F400624A600168A9
:100980004A6822F460424A6001684A68174C436A28
:1009900004EB43331A4301E022F400624A60016829
:1009A000CA6A22F47002CA620168CA6A838B104C58
:1009B00004EB03531A43CA6201688A6822F4007286
:1009C0008A6001688A6890F8303042EA43228A607F
:1009D00001688A6822F480628A6001688A684069D6
:1009E00042EA8020886010BD0023014000E0FFFF44
:1009F0000000F0FF01229102014801F0C5B900009A
:100A00000010024001225102014801F0BDB900006E
:100A10000010024001221102014801F0B5B90000A6
:100A20000010024001220421014801F0ADB900008C
:100A3000001002400122D102014801F0A5B90000D6
:100A40000010024010B5FFF7E5FF4FF49674204602
:100A500001F090F8FFF7D6FF204601F08BF8FFF782
:100A6000C9FF204601F086F8FFF7E4FF204601F0B9
:100A700081F8FFF7D7FF2046BDE8104001F07AB8B3
:100A8000FEE70000014800F0DCBB0000300F002052
:100A9000014800F0D6BB0000580F002030B4D0F859
:100AA000A020D0F8A4404FF0FF3352F8212024F8C2
:100AB0001130C2F307420121831883F8B410D0F833
:100AC000B03030BC114618472DE9F04F9946DDE9AA
:100AD0000A5A4FF0FF3BDDF824C041E0AB1A5BB28D
:100AE0000C78002B03DD00BF04FA03F403E0C3F12C
:100AF000000324FA03F4E6B202DDC5F1080301E0C5
:100B0000C2F10803DCB2844200D9044605EB0408B4
:100B1000FF2707FA08F3C5F10805EF403B439CF8AF
:100B200000509E431D4035432244D2B28CF8005001
:100B3000072A07D90022B9F1000F01D05B4600E077
:100B40000123194408F0FF05072D07D90025BAF144
:100B5000000F01D05B4600E001239C44001BC0B2A3
:100B60000028BBD1BDE8F08F014800F091BE000025
:100B7000AC120020014800F08BBE00002C110020B8
:100B8000014800F085BE00000C130020014800F071
:100B90007FBE00008C110020014800F079BE0000EB
:100BA000EC110020014800F073BE00004C12002040
:100BB00001681823CAB2103AB2FBF3F2054B6FF387
:100BC0000901032A9B5CC36500D9091D816508469C
:100BD0007047000020CF000810B5014600208B6947
:100BE0008A6A4FF0C07453B1B3F5005F15D072B18B
:100BF000012A0CD0022A0AD0032A09D104E01AB132
:100C0000012A06D0022A03D1C96AC90100D50120F0
:100C100010BDC96AA142FAD010BD002AF7D0012A3E
:100C2000F2D0022AF3D0032AF3D010BD30B5046805
:100C3000256825F480252560046863608368402B5F
:100C4000036803D099600068C26030BD9A60006894
:100C5000C16030BD70470000411C0CD00749B1F99C
:100C60000020904201D1521E0A80054A00EB40004C
:100C7000002102F830104FF0FF307047A40100202F
:100C8000885C002072B6FEE7F0B5034640694288F2
:100C90009869448842B10020042611E05D6806EBA3
:100CA000C207EF5D032F01D8FF20F0BD55F8325089
:100CB000AD6B2D788D42F8D0521C401C92B2C0B260
:100CC000A242EBD9FE20F0BD70B50546D0F83C013C
:100CD000008818B300242E1996F8B4000F2818D0F5
:100CE00028680078A04214D096F8440140B9D5F89D
:100CF000382112B1214628469047012086F8B400D9
:100D000096F844012146401E86F84401284607F023
:100D100079FA641CE4B2802CDDD370BDB5F93401DE
:100D2000FFF79AFFA5F8340170BD000078B50024E4
:100D3000009490F83C20012A19D0012280F83C2030
:100D40000A6807230568092A13D9EE680A3A02EBF4
:100D5000420293409E43EE600B788A680A3B03EBA5
:100D600043039A400368DD682A43DA6010E00220FA
:100D700078BD2E6902EB420293409E432E610B78B0
:100D80008A6803EB43039A4003681D692A431A618A
:100D90004A681F23072A13D205686E6B521E02EBA6
:100DA000820293409E436E630B790A885B1E92B267
:100DB00003EB83039A4003685D6B2A435A6327E081
:100DC00005680D2A12D22E6BD21F02EB82029340CD
:100DD0009E432E630B790A88DB1F92B203EB8303D9
:100DE0009A4003681D6B2A431A6311E0EE6A0D3ABC
:100DF00002EB820293409E43EE620B790A880D3B20
:100E000092B203EB83039A400368DD6A2A43DA62F5
:100E1000164B0568144A9D4206D10D68122D03D168
:100E2000556845F48005556005689D4218D10B68EA
:100E3000102B01D0112B13D1536843F400035360DE
:100E4000096810290CD10A490A4A0968B1FBF2F174
:100E500001EB8101490000E0491E00910029FBD10E
:100E600080F83C40002078BD002301400020014074
:100E7000D800002040420F0070B504004FF000057C
:100E800003D0206C002610B107E0012070BD204681
:100E900000F01CF8666484F83C60206CC00610D436
:100EA000206C20F4885040F0020020642046FFF7B8
:100EB0000DFD6664206C20F0020040F0010020640B
:100EC00000E0012584F83C60284670BD30B587B04D
:100ED000044614216846FFF71FFA18492068884223
:100EE0002AD117480025016841F48071016000682B
:100EF00000F48070059012481438016841F0040134
:100F00000160016801F004010591016841F00201EE
:100F100001600068032400F00200059008208DE8BD
:100F200031006946074800F037FE009469460648DC
:100F3000CDE9014500F030FE07B030BD0020014092
:100F400044380240000802400004024090F820208B
:100F5000012A07D0022A05D0416A41F4802141626A
:100F600001207047006842690A43426100207047CF
:100F7000F0B590F820500468A468012D05D0022D2A
:100F800003D0416A41F480215DE014F0406F01D14B
:100F9000E50055D5C4F30164022C03D9416A41F43C
:100FA000000150E00125A5401D608D684FF4C0731D
:100FB0009DB1CE6835434E6845EAC605066803EB29
:100FC0000417F5514FF4C275076805EB04150E6957
:100FD0007E51097D012905D009E00E88CD6845EADA
:100FE0004655EBE701684E5946F480764E5111792B
:100FF000D579567941EA056195792D0445EA0625AA
:1010000029434FF4C676056806EB0416A9511178FA
:10101000D57841EA0561957852782D0445EA022297
:1010200011434FF4C475026805EB04155151006873
:1010300003EB0411425842F0010242500020F0BD7F
:10104000416A41F4001141620120F0BD10B590F8F1
:101050002020012A07D0022A05D0416A41F48021CC
:101060004162012010BD3B48D0F8002242F001024D
:10107000C0F80022D0F8002222F47C52C0F80022EE
:10108000D0F800224B6A42EA0322C0F800220A7D0F
:1010900002F01F0301229A40D0F81C329343C0F89B
:1010A0001C32CB69B3B9D0F80C329343C0F80C3280
:1010B0008C894B6864F31F434C6900EBC404C4F88B
:1010C00040320C890B6864F31F434C6900EBC40485
:1010D000C4F84432CB69012B16D1D0F80C3213433B
:1010E000C0F80C320C884B6864F31F434C6900EB6A
:1010F000C404C4F840320C89CB6864F31F434C69C4
:1011000000EBC404C4F844328B69002BD0F80432DD
:101110000ED01343C0F804320B69002BD0F8143200
:1011200008D01343C0F81432096A012904D008E03A
:101130009343EFE79343F5E7D0F81C121143C0F84F
:101140001C12D0F8001221F00101C0F8001200209A
:1011500010BD000000640040704730B590F820409A
:10116000012C05D0022C03D0416A41F480215DE0BE
:101170000468002955D02469A40754D04FF4D874CA
:10118000056804EB01142D5915F0040595600568F8
:101190002D594ED0ED08556005682C5904F0020415
:1011A000D4604FF4DA74056804EB01142D5905F08E
:1011B0000F05156105682D59C5F30725956105686B
:1011C0002C59240C54614FF4DC72046802EB0112B8
:1011D000A4581C700468A458240A5C700468A458BD
:1011E000240C9C700468A258120EDA704FF4DE7260
:1011F000046802EB0112A4581C710468A458240A64
:101200005C710468A458240C9C710468A258120EE6
:10121000DA71006881B1016941F0200101610020AB
:1012200030BDE468A8E7416A41F400114162012041
:1012300030BD6D0D1560AFE7C16841F02001C160A0
:10124000EDE72DE9F05F0546006800244669D0F817
:1012500004908768D0F80CB0D0F810A0D0F81880AF
:10126000F10748D0F90714D001218160B80703D5F0
:10127000284600F0ACFA0CE0780702D54FF4006481
:1012800007E0380702D54FF4805402E0284600F00A
:101290009DFAF80516D529684FF480708860B80566
:1012A00003D5284600F095FA0CE0780502D544F401
:1012B000005407E0380502D544F4804402E0284693
:1012C00000F086FAF80316D529684FF4803088605C
:1012D000B80303D5284600F07EFA0CE0780302D567
:1012E00044F4004407E0380302D544F4803402E0BB
:1012F000284600F06FFA300707D55FEACB6004D5C7
:101300002968102044F40074C86070074FF0080783
:1013100007D55FEA0B7004D52868C760284600F03F
:1013200099F9B00706D52868C068800702D028461A
:1013300000F092F9700607D55FEACA6004D5296803
:10134000102044F480640861B00607D55FEA0A7093
:1013500004D528680761284600F008FAF00606D58B
:1013600028680069800702D0284600F000FAB00320
:1013700008D55FEAC96005D529681020486028466D
:1013800000F0F6F9F00307D55FEA097004D5286884
:101390004760284600F020FA300446D55FEA4970DD
:1013A00040D5F00504D55FEAC87001D044F00104CF
:1013B000B00504D55FEA887001D544F002047005D9
:1013C00004D55FEA487001D544F00404300529D5FE
:1013D00018F0700F26D008F07000402815D006DCF9
:1013E000102809D020280AD0302816D10AE0502829
:1013F0000ED0602811D10EE044F008040DE044F056
:1014000010040AE044F0200407E044F0400404E043
:1014100044F0800401E044F480742868816921F07C
:1014200070018161296804204860002C05D0686A39
:10143000204368622846FFF78FFEBDE8F09F70B535
:10144000040003D094F8200010B104E0012070BD26
:10145000204600F081F82068016841F00101016038
:1014600000F098FC0546052604E000F093FC401BC4
:101470000A2811D820684068C007F6D020680168A3
:1014800021F00201016000F085FC05460BE000F050
:1014900081FC401B0A2806D9606A40F40030606273
:1014A00084F82060D2E7206840688007EFD4207E6F
:1014B0000128206801683DD021F080010160607E34
:1014C00001282068016838D021F040010160A07E29
:1014D00001282068016833D021F020010160E07EFE
:1014E0000128206801682ED041F010010160207FA2
:1014F00001282068016829D021F008010160607F7F
:1015000001282068016824D021F004010160D4E999
:1015100002010843D4E90412114308436168491EDB
:1015200008432168C86100206062012084F820001F
:10153000002070BD41F08001C0E741F04001C5E7E7
:1015400041F02001CAE721F01001CFE741F0080186
:10155000D4E741F00401D9E7F0B587B0044614217F
:101560006846FEF7D9FE364B3648DFF8D0E05968BA
:10157000D4F800C0334A032502260927103000247E
:10158000491CF44522D15960012907D1016841F075
:1015900000710160006800F000700590106840F074
:1015A000080010601068CDE9005600F00800CDE991
:1015B000047069462448CDE9024500F0EDFA0022A6
:1015C0000521142000F0A4FC142032E0DFF87CE0B8
:1015D000F44530D1D0F800C04CF0806CC0F800C0A9
:1015E000D0F800C001290CF0806CCDF814C059600F
:1015F00007D1016841F000710160006800F00070DF
:101600000590106840F002001060106802AB00F016
:10161000020005906020CDE9000683E8B00069462D
:101620000B4800F0B9FA00220521402000F070FCC0
:10163000402000F05FFC07B0F0BD000000640040F7
:10164000C000002030380240000C0240006800401A
:10165000000402407047000070B50446006832493B
:101660008CB088423BD11C216846FEF755FE002015
:101670000A900B9007900890014609900AAB6A46C1
:101680002046FFF76AFD002825D10298042822D0C1
:101690000098ADF81C00039802281ED05FF00000EF
:1016A0008DF81E0004988DF81F0002460AA908A8AC
:1016B000FEF719FE1D48009902C0049900F8011BAD
:1016C0000AA9049AFEF70FFE19490120087007A91C
:1016D000184806F072F90CB070BD0120E0E7164919
:1016E0008842F8D1114A154B1C3A00212046FFF7D9
:1016F00034FD0028EFD10D4D11A01C3D2A69296849
:1017000005F020F900240D4E04E0315D14A005F031
:1017100019F9641C2869A042F7D80CB012A0BDE8E2
:10172000704005F00FB9000000640040200F002059
:10173000C00000201806002000680040B60000200D
:1017400043414E322052583A2049443D30782530AA
:10175000335820444C433D256420446174613D006E
:1017600025303258200000000D0A000070477047F5
:101770007047000070B5044690F82000012804D09E
:10178000606A40F40020606218E0022084F82000C3
:101790002068016821F00101016000F0FBFA0546B4
:1017A0000EE000BF00F0F6FA401B0A2808D9606A74
:1017B00040F400306062052084F82000012070BDF4
:1017C00020684068C007EDD1606270BD7047704707
:1017D000704770477047704770472DE9F0410446E5
:1017E000876D00F0D7FA064694F8350000250228E8
:1017F00006D08020606584F834500120BDE8F08177
:101800002068016821F0160101602068416921F01B
:1018100080014161206C08B9A06C20B1206801688A
:1018200021F0080101602068016821F001010160D8
:101830000CE000F0AFFA801B052807D92020606576
:10184000032084F8350084F83450D7E72068006816
:10185000C007EED194F85C103F208840B8600120AA
:1018600084F8350084F834500020C7E790F835102C
:10187000022903D08021416501207047052180F8AD
:1018800035100068016821F00101016000207047F7
:101890002DE9F84304464FF00009CDF80090634865
:1018A0004FF41651A56D0068B0FBF1F72E6894F85F
:1018B0005C10082000FA01F131420FD021680A685B
:1018C00052070BD50A6822F004020A6094F85C10F3
:1018D0008840A860606D40F00100606594F85C107D
:1018E0004FF0010808FA01F0304208D02168496938
:1018F000090604D5A860606D40F00200606594F8A8
:101900005C1004208840304208D0216809688907AB
:1019100004D5A860606D40F00400606594F85C1028
:1019200010208840304218D021680968090714D572
:10193000A86020680168490304D50068000308D541
:10194000A16C07E00168C90503D4016821F0080112
:101950000160216C09B12046884794F85C10202072
:101960008840304231D021680968C9062DD5A86069
:1019700094F8350005282068016806D0490347D54A
:10198000006800031DD4616C1CE021F016010160A9
:101990002068416921F080014161206C08B9A06C88
:1019A00020B12068016821F00801016094F85C1002
:1019B0003F208840A86084F8358084F83490216DF9
:1019C0001FE0E16B09B120468847606D00282BD0ED
:1019D000606DC00714D0052084F8350020680168C8
:1019E00021F0010101600098401C0090B84203D82A
:1019F00020680068C007F6D184F8358084F83490F8
:101A0000E16C002910D001B02046BDE8F043084742
:101A10000168C905D5D4016821F01001016084F87E
:101A2000358084F83490CCE7BDE8F883D8000020F6
:101A30002DE9F041044600F0ADF906465CB1022004
:101A400084F83500002584F834502068016821F0BE
:101A5000010101600DE00120BDE8F08100F09AF97C
:101A6000801B052805D920206065032084F83500F7
:101A7000F2E720680068C007F0D1226811682048AA
:101A80000140D4E901031843D4E903363343184332
:101A900063691843A3691843E3691843236A184329
:101AA0000843616A042903D1D4E90B13194308439D
:101AB000106020684069666A20F0070130460E43D6
:101AC000012704280CD1A06A0643E06A40B12046F1
:101AD000FFF782F820B14020606584F83570BAE7DE
:101AE000206846612046FFF763F894F85C203F21A8
:101AF00091408160656584F835700020ACE7000096
:101B00003F8010F02DE9F0410446866D90F83400D6
:101B1000002501280DD0012084F8340094F8357098
:101B20000020012F07D084F8340002252846BDE8A4
:101B3000F0810220FBE7022784F8357060652046BB
:101B4000FFF774F894F85C103F208840B06020687C
:101B5000016841F016010160206C20B12068016825
:101B600041F0080101602068016841F00101016055
:101B7000DCE7000070B5044600F00CF90546601C77
:101B800002D004480078044400F004F9401BA0424D
:101B9000FAD370BDCC0000202DE9F84FDFF8BCA1CE
:101BA000002201250AF1040B03264FF00F090BF167
:101BB000040E00BF0B6805FA02F42340A34270D163
:101BC0000F7907F00307012F01D0022F16D1876884
:101BD0004FEA420806FA08FC27EA0C07D1F80CC0C5
:101BE0000CFA08FC4CEA070CC0F808C04768A74389
:101BF0000C79C4F3001494403C4344600C79E443F2
:101C0000A4070AD0C4684FEA420C06FA0CF7BC439A
:101C10008F6807FA0CF72743C7600C7904F00304B8
:101C2000022C12D1D40800EB840CDCF820405707BA
:101C3000FF0E09FA07F824EA0804D1F8108008FA20
:101C400007F848EA0408CCF8208004684FEA420C00
:101C500006FA0CF7BC430F7907F0030707FA0CF7F5
:101C6000274307604C6814F4403F70D03C4C276811
:101C700047F480472760246822F0030704F4804477
:101C80000094384C07EB040CDCF8084897074FEA3F
:101C9000177809FA08F7BC43334FB84202D100273E
:101CA00024E054E0314FB84201D101271EE0304F0B
:101CB000B84201D1022719E02E4FB84201D10327C3
:101CC00014E02D4FB84201D104270FE02B4FB8424A
:101CD00001D105270AE02A4FB84201D1062705E0C5
:101CE000284FB84201D1072700E0082707FA08F774
:101CF0002743CCF80878DAF800405746D1F804C0FA
:101D00009C435FEACC3C00D51C433C60DBF80040C0
:101D10005F46D1F804C09C435FEA8C3C00D51C436D
:101D20003C60DEF800407746D1F804C09C435FEA8F
:101D3000CC2C00D51C433C60084F0C373C68D1F8D4
:101D400004C09C435FEA8C2C00D51C433C60521CB1
:101D5000102AFFF42FAFBDE8F88F0000003C0140CF
:101D600044380240003001400000024000040240BC
:101D700000080240000C0240001002400014024023
:101D800000180240001C02400AB18161704709043A
:101D9000FBE700000148806870470000CC0000208D
:101DA00090F83C10012912D0012100F83C1F242199
:101DB000417050F83C1CCA6822F00C0242F0040248
:101DC000CA6020214170002101700846704702203E
:101DD000704790F83C10012912D0012100F83C1FF7
:101DE0002421417050F83C1CCA6822F00C0242F0D9
:101DF0000802CA6020214170002101700846704726
:101E0000022070470248816802781144816070475F
:101E1000CC0000200B4810B5016841F4007101604E
:101E2000016841F480610160016841F480710160E2
:101E3000032000F08DF80F2000F006F800F03EF8C7
:101E4000002010BD003C024010B5014688B00022C1
:101E5000362000F05DF8362000F04CF813480024DE
:101E6000016841F010010160006805A900F0100050
:101E70000690684600F018F900F036F90C49400069
:101E8000B0FBF1F10C480B4A491E026040F2E73208
:101E9000C0E90324C0E9011400F0F2FC10B10120F4
:101EA00008B010BD044800F037FDF9E740380240A3
:101EB00040420F00001000406C1300200C4882B01C
:101EC000016841F480410160006800F480400090A6
:101ED0000748001F016841F080510160006800223E
:101EE00000F0805000900F21901E02B000F010B85A
:101EF00044380240002809DB00F01F020121914014
:101F00004009800000F1E020C0F800117047000097
:101F1000F0B40E4B1B680C46C3F30223C3F1070554
:101F2000042D00D90425191D072901D2002300E042
:101F3000DB1E012606FA05F1491E214099409E400C
:101F4000761E16403143F0BC04F00CBD0CED00E0F1
:101F5000064900F0070208684FF6FF03184040EA00
:101F60000220034A10430860704700000CED00E0B7
:101F70000000FA052DE9F0470E46050065D0DFF8B0
:101F80001481D8F80000F7B200F00700B04207D281
:101F900088F80070D8F8000000F00700B04254D173
:101FA00028683D4C810712D5400703D5206840F4CE
:101FB000E05020602878000703D5206840F4604096
:101FC00020602068A96820F0F0000843206028788D
:101FD000C0072DD0304968680839012812D002287E
:101FE00013D0032811D00968890700292DDA216848
:101FF00021F0030101432160FFF7CCFE814641F24D
:10200000883A0EE009688903EFE709688901ECE77F
:10201000FFF7C0FEA0EB0901514502D90320BDE83E
:10202000F0872068696800F00C00B0EB810FEFD1F9
:10203000D8F80010404601F00701B14207D90770F7
:10204000006800F00700B04201D00120E7E72878DF
:10205000400705D52068E96820F4E0500843206077
:102060002878000706D52068296920F4604040EAF6
:10207000C100206000F058F82168084AC1F303113C
:10208000515CC8400649086006480068FFF7DCFE5E
:102090000020C4E7003C02400838024028CF000876
:1020A000D8000020D00000200F2202600C4A1368E4
:1020B00003F003034360136803F0F00383601368C5
:1020C00003F4E053C36012684FF4E05303EAD20212
:1020D00002610448006800F00700086070470000D3
:1020E00008380240003C024004480549006809687D
:1020F000044AC1F38221515CC8407047D8000020D7
:102100000838024038CF00080448054900680968CB
:10211000044AC1F34231515CC8407047D8000020E6
:102120000838024038CF0008104810B5006810F099
:102130000C010F4818D0042916D0082914D10B4CD3
:10214000241F216801F03F02216821680023C1F3A8
:102150008811A1FB0001FEF795F82168C1F3014148
:10216000491C4900B0FBF1F010BD000008380240E6
:102170000024F4002DE9F84F04006ED02078DFF839
:102180004C93C007A9F104054AD009F10400016885
:10219000C1F38101012908D00068C0F38100022841
:1021A0000AD1D9F80000400206D52868800337D547
:1021B00060680028E1D033E06068B0F5803F10D05F
:1021C000B0F5A02F286810D020F48030286028684F
:1021D00020F4802028606068A8B1FFF7DBFD064688
:1021E0000DE0286840F48030F4E740F48020286057
:1021F000F7E700BFFFF7CEFD801B642873D828687F
:102200008003F7D50CE0FFF7C5FD064605E000BFEB
:10221000FFF7C0FD801B6428F0D828688003F7D43E
:102220002078DFF8AC8280074FF0000A3ED5A7483F
:10223000001D016811F00C0F08D00068C0F3810088
:1022400002280BD1D9F80000400207D42868800783
:1022500016D5E068012800D112E033E1E068B8B19A
:102260000120C8F80000FFF795FD064605E000BF15
:10227000FFF790FD801B0228C0D828688007F7D59B
:102280002868216920F0F80040EAC10028600DE0CC
:10229000C8F800A0FFF77EFD064604E0FFF77AFDD0
:1022A000801B02281FD828688007F7D420780007F1
:1022B00022D5864F87486169703771B1012101606D
:1022C000FFF768FD064604E0FFF764FD801B022867
:1022D00009D838688007F7D50EE0C0F800A0FFF7EE
:1022E00059FD064605E082E0FFF754FD801B0228F9
:1022F0007DD838688007F7D42078400768D5DFF8A4
:10230000CCB100270BF13C0BDBF80000C0000BD474
:10231000DBF8001041F08051CBF80010DBF8000032
:10232000012700F0805000906B4E3068C00510D43B
:10233000306840F480703060FFF72CFD009005E0BD
:10234000FFF728FD0099401A022850D83068C005D0
:10235000F6D55E4EA0686C3601280FD0052830688F
:1023600010D020F001003060306820F004003060B0
:10237000A068B8B1FFF70EFD00900FE0306840F0A4
:102380000100F4E740F004003060F7E7FFF702FDDA
:102390000099411A41F28830814266D8306880073E
:1023A000F4D50EE0FFF7F6FC009007E0FFF7F2FC33
:1023B0000099411A41F28830814256D8306880072E
:1023C000F4D42FB1DBF8001021F08051CBF80010CD
:1023D000A069C8B33D49091D0968C1F381010229FB
:1023E0004AD00228504607D0C8F8600000E03CE020
:1023F000FFF7D0FC04463BE04746C8F86000FFF713
:10240000C9FC064605E000BFFFF7C4FC801B02289C
:102410002BD828688001F7D4D4E907010843A16AC2
:102420002E4A490802EB0141626A41EA82110843DF
:1024300094F82C1040EA0161C9F8001001203866B8
:10244000FFF7A8FC044606E03EE000BFFFF7A2FC51
:10245000001B022809D828688001F7D534E000BFA6
:10246000FFF798FC001B022802D90320BDE8F88F73
:1024700028688001F4D427E00128F7D0D9F80000BB
:10248000E26900F4800191421CD1226A00F03F0110
:10249000914217D147F6C071626A0140B1EB821FC9
:1024A00010D1A26A4FF0FF3300F4403103EB520227
:1024B000B1EB024F06D194F82C1000F07060B0EB35
:1024C000016F01D00120D1E70020CFE7043802409E
:1024D00000004742800E4742007000400000FFFFAE
:1024E00070B5040009D0606A002540B125616561BE
:1024F000A56294F8510040B10CE0012070BD606805
:10250000B0F5827FF4D0E561F2E784F850502046C0
:1025100000F044F8022084F851002068016821F09E
:1025200040010160A088218900F4827001F4044117
:102530000843A18901F400610843217C01F00201F4
:102540000843217D01F001010843218B01F4007152
:102550000843217F01F03801084394F8201001F06E
:1025600080010843218D01F400510843216808606F
:10257000A069042101EA104094F8241001F0100130
:102580000843216848602068C16921F40061C16185
:102590006565012084F85100002070BD10B586B03B
:1025A000044614216846FDF7B7FE144920688842A6
:1025B00021D113480021026842F480420260006881
:1025C00000F4804005900E481038026842F0020284
:1025D0000260006800F0020005904FF46040009037
:1025E0000220CDE9010103200390052004906946F3
:1025F0000448FFF7D1FA06B010BD000000380040D3
:1026000040380240000402402DE9F84F044690F89B
:10261000500000270A9E1D4692468B464FF0010946
:1026200001280ED0012084F85000FFF7B3FB80464C
:1026300094F85100616801280CD0B1F5827F07D170
:1026400002E00220BDE8F88FA16809B9042801D092
:102650000227C2E0BBF1000F27D0BAF1000F24D04F
:102660001DB394F85100042802D0052084F85100CD
:1026700000206065C4F838A0E587A587C4F830B0AD
:10268000E586A5862064606420680168490603D455
:10269000016841F040010160E068B0F5006F6068DA
:1026A00005D0E8B3012D46D07FE0012795E008B1C1
:1026B000012D39D1206B21680088C860206B801CF7
:1026C0002063E08E401EE0862EE020688168890746
:1026D0000FD5E18E69B1B9F1010F0AD1216B0988DB
:1026E000C160206B801C2063E08E401EE0864FF0AE
:1026F000000920688168C9070CD0E18F51B1C0681A
:10270000A16B0880A06B801CA063E08F401EE08757
:102710004FF00109FFF73EFBA0EB0800B04200E0DC
:1027200009E001D3701C50D1E08E0028CDD1E08F9C
:102730000028CAD13FE0206B216800780873206B25
:10274000401C2063E08E401EE0862EE020688168F9
:1027500089070FD5E18E69B1B9F1010F0AD1216B5B
:1027600009780173206B401C2063E08E401EE086D8
:102770004FF0000920688168C9070CD0E18F51B182
:10278000C068A16B0870A06B401CA063E08F401E66
:10279000E0874FF00109FFF7FDFAA0EB0800B04217
:1027A00002D3701C01D010E07EB1E08E0028CDD1A4
:1027B000E08F0028CAD142463146204602F082FD11
:1027C00028B101272020606507E0032705E0A06805
:1027D00018B92068C16880680090012084F8510011
:1027E000002084F8500038462CE7704770470000FE
:1027F00070B590F83C20012A32D0012480F83C408A
:10280000022280F83D2003685A689D6822F0700615
:102810000A6832435A60134B02689A4214D0B2F1EC
:10282000804F11D0104B9A420ED0104B9A420BD0D1
:102830000F4B9A4208D00F4B9A4205D00E4B9A424A
:1028400002D00E4B9A4204D1496825F08003194307
:10285000916080F83D40002180F83C10084670BD32
:10286000022070BD0000014000040040000800404C
:10287000000C0040000401400040014000180040EE
:1028800010B5040003D094F83D0010B107E001201A
:1028900010BD002084F83C00204600F01FF8022004
:1028A00084F83D00211D206803F006FA012084F819
:1028B000460084F83E0084F83F0084F8400084F825
:1028C000410084F8420084F8430084F8440084F80E
:1028D000450084F83D00002010BD000008B50068E8
:1028E0000B49884212D10B48016841F00801016090
:1028F0000068002200F00800009005213220FFF758
:1029000007FBBDE808403220FFF7F4BA08BD00001D
:10291000000C00404038024090F83D10012901D0E1
:1029200001207047022180F83D100168CA6842F01A
:102930000102CA6000681149884214D0B0F1804F8A
:1029400011D00F4988420ED00E4988420BD00E4953
:10295000884208D00D49884205D00D49884202D0EE
:102960000C49884204D1816801F00701062903D08F
:10297000016841F001010160002070470000014042
:102980000004004000080040000C0040000401402A
:10299000004001400018004070B5044690F83C002B
:1029A0000025012817D0012684F83C60022084F815
:1029B0003D002068826822F0770222F47F42826024
:1029C0000868502838D00DDC20284FD005DC90B3A3
:1029D000102811D14AE0022070BD302846D040288E
:1029E0000AD13BE060282FD070280DD0B0F5805F71
:1029F00003D0B0F5005F12D0012584F83D600020BF
:102A000084F83C00284670BDCB68D1E901212068DC
:102A100003F0B6F92068816841F0770109E0CB68DE
:102A2000D1E90121206803F0ABF92068816841F405
:102A300080418160E1E719E0CA684968206803F0D5
:102A4000B1F95021206806E0CA684968206803F09F
:102A5000BAF96021206803F09DF9CEE7CA68496899
:102A6000206803F09FF940212068F4E722680146BE
:102A70001046F0E7704770B50446006801694FF0F2
:102A80000005C943890715D4C168C943890711D412
:102A9000E91E0161012020772068806980072046B7
:102AA00002D0FFF7E7FF04E000F098F8204600F0BE
:102AB000C2F8257720680169C943490717D4C1685E
:102AC000C943490713D46FF0040101610220207744
:102AD0002068806910F4407F204602D0FFF7CAFFCB
:102AE00004E000F07BF8204600F0A5F82577206888
:102AF0000169C943090716D4C168C943090712D43B
:102B00006FF008010161042020772068C069800708
:102B1000204602D0FFF7AEFF04E000F05FF8204649
:102B200000F089F8257720680169C943C90617D4E0
:102B3000C168C943C90613D46FF0100101610820B0
:102B400020772068C06910F4407F204602D0FFF74C
:102B500091FF04E000F042F8204600F06CF8257781
:102B600020680169C943C90708D1C168C943C907B9
:102B700004D1891E0161204600F05EF820680169D9
:102B8000C943090609D4C168C943090605D46FF0D1
:102B9000800101612046FFF728FE20680169C943D2
:102BA000490609D4C168C943490605D46FF04001FC
:102BB0000161204600F05CF820680169C94389067C
:102BC0000BD4C168C943890607D46FF020010161A5
:102BD0002046BDE87040FFF709BE70BD704770B574
:102BE0000D46040003D094F83D0010B107E0012029
:102BF00070BD002084F83C00204600F01BF8022045
:102C000084F83D00211D206803F056F82068016813
:102C100021F00801016054F8460B01682943016066
:102C2000012004F81F09E0752076E0762077A07572
:102C3000002070BD7047704710B504460068094910
:102C4000884205D1084800210160416003F000F985
:102C500006492068884203D1BDE81040FFF7D2B88A
:102C600010BD0000000C004058080020001000407B
:102C7000704738B5044690F83E00202822D181B133
:102C80007AB194F83C0001281CD0012084F83C0063
:102C90002063204603F020FB002803D1216B01298B
:102CA00001D0012038BD21680A6849680091216877
:102CB0000C3151E8002F42F0100241E80023002BB4
:102CC000F5D138BD022038BD7CB50022254B0192DC
:102CD0001446234D1B7835E055F82460766886420B
:102CE0002FD155F8240090F84031042B2CD139B362
:102CF00080F83E1155F8240080F83F2102E000BF23
:102D000000F082F855F82430802203F1BC015868A5
:102D1000FFF7AFFF002855F824004068F0D1806B22
:102D20000068016821F00801016001A8009055F8D1
:102D3000240000230322D0F8AC00194609F0B8FDA6
:102D400002E0641C9C42C7DB0198002807D00649BA
:102D50004FF080500860BFF34F8FBFF36F8F7CBD83
:102D60009C0100209801002004ED00E07047000065
:102D700070B5044620680C3050E8001F21F49071B3
:102D800040E80012002AF5D12068143050E8001FF6
:102D900021F0010140E80012002AF5D1206B012842
:102DA00009D120680C3050E8001F21F0100140E8E4
:102DB0000012002AF5D1206840694FF02002410638
:102DC0004FF0000015D52168143151E8003F23F081
:102DD000400341E80035002DF5D1A16B49B1094808
:102DE0000865A06BFEF742FD50B1A06B016D8847EE
:102DF00006E0E08584F83E2020632046FFF7B6FF1A
:102E0000002070BD3F60000810B5044600684069AE
:102E100094F83D10C0F3C010212911D180B1206871
:102E2000143050E8001F21F0800140E80012002A11
:102E3000F5D1606B08B1FEF7D0FC204603F057F9DE
:102E40002068406994F83E10C0F38010222911D107
:102E500080B12068143050E8001F21F0400140E8A4
:102E60000012002AF5D1A06B08B1FEF7B6FC20468F
:102E700003F016F9002010BD70B516490024144D5A
:102E8000097822E055F82420526882421CD155F876
:102E9000240090F84001042802D070BDFFF7B4FF71
:102EA00055F82430802203F1BC015868FFF7E1FE99
:102EB000002855F824004068F0D1806B0068016854
:102EC00021F00801016070BD641C8C42DADB70BD2A
:102ED0009C0100209801002010F83D1F4078084315
:102EE00070470000F8B5016804460868CA684B6975
:102EF00010F00F0F4FF0000559D003F0010602F457
:102F00009077374365D0C10705D0D10503D5216C33
:102F100041F001012164410705D5D90703D0216C97
:102F200041F002012164810705D5D90703D0216C46
:102F300041F004012164010707D502F0200131436B
:102F400003D0216C41F008012164216C00293AD0A2
:102F5000800604D5900602D5204603F0D6F82068F6
:102F60004069216CC0F38010090700D460B320468B
:102F700003F096F820684069400621D52068143097
:102F800050E8001F21F0400140E80012002AF5D16E
:102F9000A06BA8B16C490165A06BFEF767FC002827
:102FA00011D0A06B016D01B0BDE8F0400847830669
:102FB0000FD593060DD52046BDE8F84003F0A5B81F
:102FC0002046FFF759FFF8BD2046FFF755FF25645F
:102FD000F8BD266B2023012E79D1C60677D5D606FB
:102FE00075D50868486800904869400640D5A16BCF
:102FF000086840680004000CEAD0A28D8242E7D93C
:10300000E085C869B0F5807F2DD020680C3050E88D
:10301000001F21F4807140E80012002AF5D12068D9
:10302000143050E8001F21F0010140E80012002A8E
:10303000F5D12068143050E8001F21F0400140E82D
:103040000012002AF5D184F83E30256320680C3048
:1030500050E8001F21F0100140E80012002AF5D1CD
:10306000A06BFEF7BAFBA08DE18D401A81B229E07A
:10307000A08DE18D401A81B2E08D0028A8D00029F2
:10308000A6D020680C3050E8002F22F4907240E85F
:103090000026002EF5D12068143050E8002F22F0D1
:1030A000010240E80026002EF5D184F83E30256369
:1030B00020680C3050E8002F22F0100240E8002376
:1030C000002BF5D12046FFF7FFFDF8BDFFE7050611
:1030D0002BD5150629D594F83D002128F5D1A068F7
:1030E000B0F5805F01D12069B0B1206A411C216236
:1030F000216800784860E08C401E0004000CE084E9
:10310000E3D12068C16821F08001C1602068C168F6
:1031100041F04001C160D8E7206A0088C0F3080090
:103120004860206A801C2062E5E74006CDD5500645
:10313000CBD5CA68204622F04002CA6084F83D30F0
:1031400000F024FBC1E70000495F000870B50400EF
:1031500004D094F83D00002510B106E0012070BDB8
:1031600084F83C50204600F023F8242084F83D00E9
:103170002068C16821F40051C160204603F026F8A0
:103180002068016921F4904101612068416921F0C2
:103190002A0141612068C16841F40051C160256481
:1031A000202084F83D0084F83E00002070BD00001F
:1031B0002DE9F04F87B0044614216846FDF7ACF8BE
:1031C000D848D849D64B10382268DFF85CE300268F
:1031D0004F0505154FF002084FF003094FF0080C9A
:1031E0004FF0400B9A425CD10A68B24642F400228A
:1031F0000A60096801F400210591016841F00401A9
:103200000160006802AA00F0040005904FF44060DD
:10321000CDE9000882E8401269467046FEF7BCFC22
:10322000DFF80C83C1494046C8F80010C0E90176B8
:10323000C0E90365C8F81460C8F81860C8F81C60D5
:10324000C8F82060C8F82460FEF7F2FB08B1FDF76B
:1032500019FDB74EB548C4F8388060363030C8F82C
:10326000384086E88108C6E903A5C6F814A0C6F868
:1032700018A0C6F81CA0C6F820A03046C6F824A0A6
:10328000FEF7D6FB08B1FDF7FDFC666300220521C1
:103290003420B463FEF73CFE3420FEF72BFEA54835
:1032A000A6E0A54B9A4233D10A6842F480120A6024
:1032B000096801F480110591016841F00401016081
:1032C000016801F004010591016841F00801016005
:1032D0000068029600F0080005909814CDE90008F7
:1032E000CDE9039C644669467046FEF755FC042010
:1032F000CDE900080296CDE9039469468F48FEF7B0
:103300004BFC002205213520FEF702FE35209AE015
:103310008B4B4FF0070C4FF0010A9A4271D1814953
:103320000026091D0A6842F010020A60096801F0CF
:1033300010010591016841F001010160006801AAD6
:1033400000F001000590581500900220CDF810C043
:1033500082E84102E04669467A48FEF71DFC0220F9
:10336000CDE90050CDF808A0CDE90398694675482D
:10337000FEF712FCDFF8B881734908F1C008404637
:10338000C8F80010C0E90176C0E90365C8F8146008
:10339000C8F81860C8F81C60C8F82060C8F8246035
:1033A000FEF746FB08B1FDF76DFC6748674EC4F8B1
:1033B00038807830C8F8384086E881080020C6E9AF
:1033C00003057061B061F061306270623046FEF7F3
:1033D0002FFB08B1FDF756FC66630022052125206E
:1033E000B463FEF795FD2520FEF784FD5148883033
:1033F0000068C16841F01001C16007B0BDE8F08FFE
:10340000FFE7534B9A4221D10A6842F400320A6026
:10341000096801F400310591016841F0080101607B
:103420000068694600F00800059060208DE80105FD
:10343000CDE9039C4148FEF7AFFB00220521262081
:10344000FEF766FD2620FEF755FDD6E7414B9A4272
:10345000D3D10A68002642F480220A60096801F488
:1034600080210591016841F008010160006801AA0E
:1034700000F008000590981500900220CDF810C0CB
:1034800082E84102E04669462C48FEF785FB4FF48E
:10349000007000900220CDE9010ACDE90398694649
:1034A0002648FEF779FBDFF8A480204908F1600880
:1034B00018394046C8F80010C0E90176C0E9036534
:1034C000C8F81460C8F81860C8F81C60C8F8206014
:1034D000C8F82460FEF7ACFA08B1FDF7D3FB1B4E29
:1034E0001248C4F83880C0361830C8F8384086E82A
:1034F00081080020C6E903057061B061F0613062A7
:1035000070623046FEF794FA08B1FDF7BBFB6663C4
:10351000002205212720B463FEF7FAFC272092E75A
:10352000004C004040380240000802404060024029
:103530002C110020D80F002000500040000C024049
:103540000010014000000240406402404C12002084
:10355000004400400048004090F83E30202B0ED13F
:1035600059B152B190F83C30012B08D0012380F8BA
:103570003C300023036302F0F7BE012070470220B5
:10358000704700007CB500261D49019634461B4D4E
:10359000097825E055F82420526882421FD155F859
:1035A000240090F8401101291CD190F8A610BC30DD
:1035B00001F045FD55F82430012203F1A6015868B9
:1035C000FFF7CAFF09F00AFA0246009655F82400F0
:1035D00001AB0721D0F8B00009F0E4FB02E0641C65
:1035E0008C42D7DB0198002807D006494FF0805065
:1035F0000860BFF34F8FBFF36F8F7CBD9C0100202D
:103600009801002004ED00E0704700002DE9F84328
:10361000044690F83D001F4616460D4620284CD122
:10362000C5B1BEB194F83C00012846D0012084F811
:103630003C004FF00008C4F84080212084F83D0091
:10364000FEF7A8FBA6848146E684A068B0F5805FFB
:1036500003D004E00120BDE8F883206928B12E469C
:103660005FF0000584F83C800EE00026FAE7802138
:10367000204602F094FEA0B9AEB116F8010B216805
:103680004860E08C401EE084E08C4B464FF0000226
:1036900000970028EBD14FF04001204602F07FFE5A
:1036A00030B10320D7E735F8020BC0F30800E6E796
:1036B000202084F83D000020CDE70220CBE7000069
:1036C00070B5044690F83D00202836D191B38AB3F6
:1036D00094F83C00012830D0012084F83C0021629D
:1036E000A284E28400252564212084F83D00636BD8
:1036F0001348D863636B13481864636B1248D8642B
:10370000606B134605652668606B321DFEF7FAF99B
:1037100021686FF04000086084F83C502068143045
:1037200050E8001F41F0800140E80012002AF5D166
:10373000002070BDFFE70120FBE70220F9E7000051
:103740005560000897600008595F000890F83D3008
:10375000202B18D1A9B1A2B190F83C30012B12D086
:1037600001628284C28400210164212280F83D200C
:1037700080F83C100068C16841F08001C160002001
:103780007047012070470220704700001CB5144BA1
:1037900000210191114A1B7812E000BF52F821402C
:1037A000646884420BD101A8009052F821000023E4
:1037B0001A46D0F8AC00194609F07AF802E0491C24
:1037C0009942EBDB0198002807D006494FF0805062
:1037D0000860BFF34F8FBFF36F8F1CBD9C010020AB
:1037E0009801002004ED00E07047FEE7B1F5D05FDE
:1037F00076D02FDC41F21803A1EB0300994262D08E
:1038000015DC41F20603A1EB0300994255D009DC17
:10381000B1F5805F4BD06FF48050081849D0042870
:1038200041D148E001284AD00E283CD149E0B0F50A
:10383000BD6F4FD006DCB0F51A7F46D0B0F57A7F69
:1038400031D144E0B0F5FD6F46D0A0F5E060E93835
:1038500029D143E046F24103C81A99424CD016DC04
:1038600042F20103A1EB030099423FD008DC6FF460
:10387000D050081836D0A0F5A060FF3813D133E03F
:10388000012835D03F38B0F5804F0CD132E03928CF
:1038900038D004DC232831D0372804D130E0402848
:1038A00032D0BE2832D01D48106000207047002062
:1038B0002DE001202BE0022029E0032027E0042056
:1038C00025E0052023E0062021E007201FE0082056
:1038D0001DE005E009201AE00A2018E00B2016E0A0
:1038E0000C2014E00D2012E00E2010E00F200EE05E
:1038F00010200CE011200AE0122008E0132006E05E
:10390000142004E0152002E0162000E0172000211A
:103910001160034901EBC00070470000000002067F
:1039200024D000089F2803D1087808B101487047C7
:1039300000207047300009062DE9FF47254D06207D
:1039400000242880022003AECDE90240CDE90064C6
:103950004FF4005A2B46224651461F4803F042FEC0
:103960001D4807F051F91C4807F0BDF904F04EFE60
:103970000A2004F0D0FC194FDFF86480DFF864906F
:10398000B7F900301848B9F80010D8F8002002F054
:10399000D9FF2C80CDE900642B46002251460E4809
:1039A000029403F01FFE0C4807F02EF90A4807F0B6
:1039B0009AF904F02BFE0A2004F0ADFCB7F90030B0
:1039C000B9F800100848D8F8002002F0BBFFBDE8A5
:1039D000FF870000AC01002018060020C001002075
:1039E000BC010020BA01002020D100082DE9FF5FB2
:1039F000DFF8F48006210024A8F80010022603ADA9
:103A0000CDE90054CDE902464FF4005B434622461F
:103A10005946364803F0E6FD3548354B0022046030
:103A20000420CDE90240CDE9005442F201012F48C3
:103A300003F0D8FD2D4807F0E7F82C4807F053F9BC
:103A400004F0E4FD0A2004F066FCDFF8A890DFF83B
:103A5000A8A02A4FB9F9003029483988DAF800209F
:103A600002F070FF0721A8F80010CDE90054CDE95D
:103A700002464346002259461C4803F0B3FD1B484A
:103A800007F0C2F8194807F02EF904F0BFFD0A202C
:103A900004F041FCB9F9003039881948DAF80020FF
:103AA00002F050FF0F21A8F80010CDE90054CDE935
:103AB00002464346002259460C4803F093FD0B484A
:103AC00007F0A2F8094807F00EF904F09FFD0A205C
:103AD00004F021FCB9F9003039880948DAF80020EF
:103AE00002F030FFBDE8FF9FAC0100201806002067
:103AF000B0010020C0010020BC010020BA0100205C
:103B000020D1000810B50221144807F05FF91349CD
:103B1000012081F8E1010021104807F00BFA7F2114
:103B20000E4807F007FA05210C4807F003FA0222B5
:103B300001210A4804F077FB82220121074804F0A2
:103B400072FBC82004F0E7FB80220121034804F047
:103B50006AFBBDE81040322004F0DDBB18060020EF
:103B60002DE9FF41244E80462F2030800024022082
:103B700003ADCDE90240CDE90054070333462246A8
:103B800039461E4803F02EFD1D484146C0F800800E
:103B90001CA002F0D7FE0420CDE90240CDE900547C
:103BA000174B0022791C154803F01CFD134807F041
:103BB0002BF83F203080CDE90054334600223946AF
:103BC0000E48029403F00EFD0C4807F01DF80B4858
:103BD00007F089F804F01AFD052004F09CFB0E485C
:103BE000B0F900300D4802680D4801880D4802F018
:103BF000A9FEBDE8FF810000AC01002018060020EE
:103C0000B00100207461726765745F706F733A3041
:103C10007825780D0A000000C0010020BC010020BA
:103C2000BA01002020D100081FB504210391FCF740
:103C3000A4FC9FED0F1B53EC112BFCF72CFCFCF7A5
:103C4000A9FC0D490C4B0860002003A9CDE9001028
:103C50000246029042F20201084803F0C3FC074802
:103C600006F0D2FF054807F03EF804F0CFFC1FBD78
:103C70002D7AA702EE79D140C80100201806002055
:103C80002DE9F04F87B04FF0010A8DF814A00526FA
:103C900005ACCDE9004646F2600700233A4651469E
:103CA000C14801F0A8FA00287DD0C0A002F04AFE69
:103CB00000258DF81450CDE900462B463A460121E7
:103CC000B94801F053FA00286ED0C4A002F03AFEC1
:103CD0009DF81400012802D0CCA002F033FED44895
:103CE000072403AFCDE90074029046F281080390E7
:103CF000002342460121AC4801F07DFA00286FD034
:103D0000CCA002F01FFECDE9007400234246012141
:103D1000A548039501F02AFA00287DD0D2A002F030
:103D200011FE00BFDDE90201814203D0C821DAA003
:103D300002F008FEDFF89083CDE9007446F28309B3
:103D4000CDF8088000234A4601219748CDF80C8021
:103D500001F051FA00287DD0DCA002F0F3FDCDE99E
:103D6000007400234A4601218F48039501F0FEF9B3
:103D7000002870D0E0A002F0E5FD00BFDDE90201FF
:103D8000814203D06421E7A002F0DCFDCDF8088079
:103D9000CDF80C80CDE90074002346F28408424639
:103DA0000121814801E018E31AE301F024FA002818
:103DB0007ED0E9A002F0C6FDCDE9007400234246A2
:103DC00001217948039501F0D1F9002871D0EDA0C7
:103DD00002F0B8FDDDE90201814205D0642100E076
:103DE00001E3F3A002F0AEFD0DF10809FD48CDE9B5
:103DF0000094012302904FF4A05219466A4801F042
:103E0000FAF900287DD0F8A002F09CFDD0468DF88C
:103E100010A004AF022300E0E9E2CDE900764FF400
:103E2000A0520121604801F0E6F900286AD0EEA016
:103E300002F088FDCDE900764FF4B05BAA468DF81C
:103E4000105000235A460121574801F0D4F90028A8
:103E50007ED001E0CEE2D0E2EEA002F073FDF948A0
:103E6000CDF80090CDE901404D460123D9465A4690
:103E700019464D4801F0BFF900286AD0E5A002F0CC
:103E800061FDF1480095CDE9014002234A46012138
:103E9000454801F0B0F900287ED0DEA002F052FDC6
:103EA00002208DF8100000234A4601213E4801E01F
:103EB000A6E2A8E2CDE9007601F09DF900286CD0D9
:103EC000D4A002F03FFD00BF40F201200095CDE9F3
:103ED000014001234FF4A0521946334801F08BF9F9
:103EE00000285BD0C0A002F02DFDBE480095401C0C
:103EF000CDE90140012341F2014B5A4619462A48B7
:103F000001E083E286E201F076F9002847D0CFA0F5
:103F100002F018FDCDE90076C1468DF8108002232D
:103F20005A460121204801F066F9002838D0C7A080
:103F300002F008FDD0468DF810A0CDE9007641F2E0
:103F4000016A002352460121174801F054F901E0AB
:103F500063E265E2002824D0C7A002F0F3FCD24857
:103F60000095CDE901400123524619460E4801F063
:103F700042F9002816D0C0A002F0E4FCCDE900769A
:103F80008DF81090002352460121074801F033F9C3
:103F9000002808D0B8A089E145E249E24BE24DE2B1
:103FA0004FE251E254E256E2180600204B696E637C
:103FB0006F2053444F205772697465205345525601
:103FC0004F5F574F524B5F4D4F44455F494E4445FD
:103FD00058204661696C65640D0A00004B696E6388
:103FE0006F2053444F207265616420534552564FF1
:103FF0005F574F524B5F4D4F44455F494E444558C4
:10400000204661696C65640D0A0000004B696E63AF
:104010006F2073657420706F736974696F6E206DA3
:104020006F6465204661696C65640D0A00000000DC
:10403000079D36004B696E636F2053444F205772C3
:104040006974652050524F46494C45445F56454C73
:104050004F434954595F494E444558204661696C65
:1040600065640D0A000000004B696E636F205344C5
:104070004F20726561642050524F46494C45445F61
:1040800056454C4F434954595F494E444558204684
:1040900061696C65640D0A004B696E636F2073651E
:1040A000742070726F66696C65642076656C6F63EE
:1040B00069747920746F2025642072706D204661C8
:1040C000696C65640D0A00006EA301004B696E63A4
:1040D0006F2053444F2057726974652050524F46E9
:1040E000494C45445F4143435F494E44455820464F
:1040F00061696C65640D0A004B696E636F205344FF
:104100004F20726561642050524F46494C45445FD0
:104110004143435F494E444558204661696C65649C
:104120000D0A00004B696E636F2073657420707216
:104130006F66696C656420616363656C6572617448
:10414000696F6E20746F2025642072706D20466147
:10415000696C65640D0A00004B696E636F205344FF
:104160004F2057726974652050524F46494C454460
:104170005F4445435F494E444558204661696C653C
:10418000640D0A004B696E636F2053444F207265C3
:1041900061642050524F46494C45445F4445435F5B
:1041A000494E444558204661696C65640D0A00001B
:1041B0004B696E636F207365742070726F66696CF3
:1041C000656420646563656C65726174696F6E20F7
:1041D000746F2025642072706D204661696C65647F
:1041E0000D0A0000210000084B696E636F205344E4
:1041F0004F205772697465205250444F315F5041CF
:1042000052414D5F494E444558204661696C656492
:104210000D0A00004B696E636F2053444F205772A4
:10422000697465205250444F315F4D415050494EA2
:10423000475F494E444558204661696C65640D0AE4
:10424000000000001000406020007A604B696E633F
:104250006F2053444F205772697465205250444F69
:10426000325F504152414D5F494E444558204661AE
:10427000696C65640D0A00004B696E636F205344DE
:104280004F205772697465205250444F325F4D4140
:104290005050494E475F494E444558204661696C2D
:1042A00065640D0A000000002000816002F04AFBF6
:1042B00040F202200095CDE9014001235A461946FB
:1042C000744800F098FF00287ED0AFF2800002F022
:1042D00039FB71480095CDE9014001234FF4C05AE4
:1042E000524619466B4800F086FF00286DD06BA03F
:1042F00002F028FBCDE900768DF81090022352469B
:104300000121644800F077FF00286FD063A002F01D
:1043100019FB00BF8DF81080CDE900764FF4D0581E
:104320000023424601215B4800F065FF002870D061
:1043300065A002F007FB70480095CDE9014001231C
:1043400042461946534800F056FF00286FD05EA041
:1043500002F0F8FA69480095CDE90140022342468F
:1043600001214C4800F047FF002870D056A002F011
:10437000E9FA63480095CDE9014003234246012153
:10438000444800F038FF00287BD04FA002F0DAFA52
:104390000320CDE900768DF810000023424601216C
:1043A0003C4800F028FF00286ED047A002F0CAFA6F
:1043B00040F281100095CDE9014001235246194693
:1043C000344800F018FF01E048E04AE070B333A041
:1043D00002F0B8FA07B0BDE8F08F04F017F967E40F
:1043E00004F014F974E404F011F98CE43CE004F0F6
:1043F0000DF997E404F00AF9B1E404F007F9BDE41B
:1044000004F004F9D8E404F001F9E3E404F0FEF860
:10441000FCE42DE004F0FAF80CE504F0F7F81EE5F2
:1044200004F0F4F82DE504F0F1F839E52FE022E08E
:1044300004F0ECF848E504F0E9F856E504F0E6F895
:1044400068E504F0E3F875E504F0E0F887E515E0C9
:1044500004F0DCF892E504F0D9F829E704F0D6F886
:1044600037E704F0D3F845E704F0D0F852E708E066
:1044700004F0CCF85FE704F0C9F86BE704F0C6F885
:1044800077E704F0C3F883E704F0C0F890E704F09E
:10449000BDF89FE718060020810100804B696E631C
:1044A0006F2053444F205772697465205450444F15
:1044B000315F504152414D5F494E4445582046615D
:1044C000696C65640D0A00004B696E636F2053448C
:1044D0004F205772697465205450444F315F4D41ED
:1044E0005050494E475F494E444558204661696CDB
:1044F00065640D0A00000000100041602000636048
:10450000100078602DE9F04385B014216846FBF770
:1045100003FF4FF400740125002602278DE8F00008
:10452000DFF83C9069464846FDF736FB4FF40068DB
:1045300001A8CDF8008080E8E0000A4D69462846D1
:10454000FDF72AFB002241462846FDF71DFC00220C
:1045500021464846FDF718FC05B0BDE8F083000091
:1045600000080240000002407FB500212148009170
:10457000019102911E4A0391026001244FF480329E
:104580000461C0E90121047680F820101A4AC0E9CC
:104590000A210325C561C16080F830104461FCF731
:1045A0006BFC08B1FCF76EFB0820CDE90004072086
:1045B000029069460F48FCF7B9FB08B1FCF762FBB3
:1045C000092000900220019069460A48FCF7AEFBE2
:1045D00008B1FCF757FB0D20CDE9000569460548F9
:1045E000FCF7A4FB002801D0FCF74CFB7FBD0000CA
:1045F00000200140BC0E00200100000F10B516483D
:104600008AB01449016006210024C0E9011409049C
:10461000C0E903414FF4A0014161047644768476F9
:10462000C47604774477FCF70AFF08B1FCF72AFB4D
:104630000E200990012001940294CDE906400394D4
:10464000009408900594694604940348FCF7FEFC26
:104650000AB010BD00640040300F002010B51748AC
:104660008AB01549016003210024C0E901144FF408
:104670002021C0E903414FF4801141610476447662
:104680008476C47604774477FCF7D9FE08B1FCF74A
:10469000F9FA02940E2001210094019403940791E9
:1046A0000990CDE905040891049469460348FCF794
:1046B000CDFC0AB010BD000000680040580F00207B
:1046C000214808B5016841F480010160016801F4E6
:1046D00080010091016841F400110160006800222E
:1046E00000F40010009005210C20FDF711FC0C20B7
:1046F000FDF700FC002205210D20FDF709FC0D202F
:10470000FDF7F8FB002205210E20FDF701FC0E202D
:10471000FDF7F0FB002205210F20FDF7F9FB0F202C
:10472000FDF7E8FB002205213A20FDF7F1FB3A20D6
:10473000FDF7E0FB002205214620FDF7E9FBBDE87F
:1047400008404620FDF7D6BB3038024010B503F0D4
:10475000D7F900221146012003F044FE324C00221A
:104760001146A062012003F03DFE0022E0621146E6
:10477000012003F037FE002220631146012003F0E0
:1047800031FE002360631A460121284803F0E8FE49
:104790000023A0631A460121254803F0E1FE00230F
:1047A000E0631A460121234803F0DAFE0023206467
:1047B0001A460121204803F0D3FE606400221C2128
:1047C0000A2003F0E3FDA06100221C210A2003F06F
:1047D000DDFDE06100220C210A2003F0D7FD2062FC
:1047E000002208210A2003F0D1FD60623221A06B73
:1047F00003F0F2FEC821E06B03F0EEFE3221206CE4
:1048000003F0EAFEC821606C03F0E6FE0B4A0021CB
:104810000B4803F05FFE094A206124320021094859
:1048200003F058FE606110BD18000020015F000811
:10483000E95E00080D5F0008F55E000828CE00085C
:10484000C9550008B95700082DE9F04F87B0142169
:104850006846FBF761FD59480024016841F01001EA
:104860000160016801F010010591016841F08001CB
:104870000160016801F080010591016841F00401C7
:104880000160016801F004010591016841F0020135
:104890000160016801F002010591016841F0080121
:1048A0000160016801F008010591016841F0010112
:1048B00001600068DFF8088100F001000590002227
:1048C0004BF604714046FDF75FFADFF8F8900022DE
:1048D0004FF480614846FDF757FA0122110348461C
:1048E000FDF752FADFF8E0A04FF4207600223146BF
:1048F0005046FDF749FADFF8D4B04FF400670022C4
:1049000039465846FDF740FA002208213048FDF7A5
:104910003BFA40F6047000900125CDE90154694648
:1049200040460394FDF738F94FF44050CDE90005B7
:1049300069464046CDE90245FDF72EF9E803CDE989
:1049400000050320CDE9024069464046FDF724F901
:10495000F0000090CDE90154694648460394FDF704
:104960001BF9CDE900650226CDE9024669465046AD
:10497000FDF712F928028DE8310069465046FDF72F
:104980000BF94FF488508DE8310069465846FDF721
:1049900003F900970396CDE9015469465846FDF79F
:1049A000FBF808200090CDE90154694608480394BB
:1049B000FDF7F2F807B0BDE8F08F00003038024094
:1049C00000100240000402400008024000000240C3
:1049D000000C02402DE9F0412048042420490470D5
:1049E0000025416005724FF47A76A0F8A26000F5C8
:1049F0005277C0F898704FF00808C560A0F8A480FE
:104A000080F8404100F02CF9144800F09FF9A7F518
:104A1000E2701449047041600572A0F8A260C0F809
:104A20009870C560A0F8A48080F8404100F018F9A3
:104A3000A7F5E27000F08AF9084803F080FA0A4C02
:104A40000125606000B12570084803F078FAA06085
:104A5000002800D06570BDE8F0810000440B002004
:104A600060100020E810002018000020C80C002072
:104A70000F4810B50D4901604FF48271416000216B
:104A80008160C1604FF400720161C0E90512C1612B
:104A90000162416281620A21C162FDF721FD0028A5
:104AA00003D0BDE81040FCF7EDB810BD0038004061
:104AB000800F002010B586B000241B48009401949C
:104AC00002940394049417490594016040F247311D
:104AD000C0E901144FF6FF71C0E903148461FDF7CA
:104AE000CFFE08B1FCF7CEF84FF480500090694635
:104AF0000D48FDF751FF08B1FCF7C4F808210A483A
:104B0000FEF76DF808B1FCF7BDF8049404A9064857
:104B10000594FDF76DFE002801D0FCF7B3F806B050
:104B200010BD0000000C00406C0800200C4810B5BF
:104B30000A4901604FF4E1314160002181600C229B
:104B4000C160C0E904128161C161FEF7FFFA00286B
:104B500003D0BDE81040FCF795B810BD004C0040F4
:104B6000D80F00200E4810B50C4901604FF4E13118
:104B70004160002181600C22C160C0E904128161A2
:104B8000C161FEF7E3FA08B1FCF77CF8BDE810401C
:104B9000012204490248FEF7DFBC0000005000403B
:104BA0001C100020C80000200C4810B50A49016004
:104BB0004FF4E1314160002181600C22C160C0E905
:104BC00004128161C161FEF7C1FA002803D0BDE87B
:104BD0001040FCF757B810BD0010014060100020D5
:104BE0000E4810B50C4901604FF4E13141600021DD
:104BF00081600C22C160C0E904128161C161FEF7CD
:104C0000A5FA08B1FCF73EF8BDE8104001220449BE
:104C10000248FEF7A1BC000000440040A4100020A0
:104C2000C80000200C4810B50A4901604FF4E1317A
:104C30004160002181600C22C160C0E904128161E1
:104C4000C161FEF783FA002803D0BDE81040FCF7ED
:104C500019B810BD00480040E8100020FEE7000031
:104C600038B52D4D04462878022853D204F1BC00F3
:104C700000F004FA2078032802D0042808D0FEE7C8
:104C8000264A2146264803F025FCC4F8AC001EE065
:104C9000224A21462432234803F01CFC44F8AC0F7E
:104CA0002148009034F80A1C002220A0A36808F0D4
:104CB00017F8A060AC3C40B3184A1021183A022003
:104CC00003F064FBC4F8A80000B3D4F8AC00F0B162
:104CD0001A4800900022052119A0D4F8B03007F03E
:104CE000FFFFC4F8B00098B10C4A012148320846D1
:104CF00003F078FBC4F8B80058B107492878091DBB
:104D000041F82040401C287038BDFEE7FEE7FEE772
:104D1000FEE7FEE7FEE700009801002088CF0008CC
:104D2000015A00089D58000821B800087854696DA0
:104D3000657254696D656F7574000000CDB7000829
:104D400054696D65725433350000000010B5044697
:104D500090F84001012806D0032839D0022837D026
:104D6000042800D0FEE7E06818B1218A0022FDF790
:104D70000BF82078032802D1D4F8980080B160683D
:104D8000FEF7AAF82028FAD194F8400104286068B8
:104D900007D0012204F1A601FEF7DEFB78B1FEE7A1
:104DA000FEE7802204F1BC01FDF763FF00B1FEE7DE
:104DB0006068806B0068016821F008010160207A5A
:104DC0000028207802D0042802D1FEE7032808D06A
:104DD000002084F8930004F8940FA0816081208162
:104DE00010BDFEE7FEE710B506F026F9002010BD65
:104DF00038B50446B0F9AC00A834FBF72DFFA0800D
:104E000054F8A809008850B1642148430023009059
:104E1000044A1946204600F08FFBA4F8AC0000209D
:104E200038BD0000794F000810B5044603F04AFA77
:104E3000204603F00BFA002010BD0000D0F8081245
:104E4000097869B900210A4606E000BFD0F80C32A3
:104E500043F82120491CC9B290F805328B42F5D89D
:104E60000020704730B401EBC102846802254FF086
:104E7000FF3305EB4205635300238468062505EBE9
:104E80004202A35230BCC9B205F032BE30B401EBCD
:104E9000C102846804254FF0FF3305EB42056353DC
:104EA0008368C9B213F8124024F0010403F81240D9
:104EB00030BC05F01DBE00002DE9F84306464069F0
:104EC0004FF4C0550489B0690789CCB1DFF83C8044
:104ED000BC4215D8D6F8E4316A4629463046984790
:104EE000009941B90268C2F82C800268C2F83C807F
:104EF0000068C0F85C806D1C641CADB2A4B2E7E72A
:104F00003046BDE8F843002102F0DEBAEB5D000850
:104F10002DE9F0470446406900260589A069B0F8EC
:104F2000088035BBBDE8F087A16806EBC607022004
:104F300000EB470931F90900FBF78EFEA26822F861
:104F40000900A168042000EB470931F90900FBF7CB
:104F500083FEA268761CF6B222F80900A168002040
:104F6000062201F81700A16802EB47026D1C885267
:104F7000ADB24545D8D9D5E73EB50446D0F8A8002E
:104F80000088A8B120686946007800F5E060ADF8B7
:104F9000000001208DF8030000208DF8020094F835
:104FA0007C008DF8040094F8E10102F043FD3EBD61
:104FB00034F9AC0FFBF750FE20803EBD00B587B042
:104FC00014216846FBF7A8F90C480021026842F05A
:104FD00008020260006800F00800059008200090B8
:104FE0000120CDE901010220039069460448FCF745
:104FF000D3FD022000F006F807B000BD30380240B3
:10500000000C0240022804D1002208210148FCF7CC
:10501000BBBE7047000C024038B51D461446D0F8A0
:10502000E4316A469847009939B90179A14204D917
:1050300000680C2101EB04114550009838BD90F830
:105040008120815490F88110491C01F07F0180F883
:10505000811090F88210802906D0002280F88320E9
:10506000491C80F882107047012180F8831010F8E5
:10507000801F491C01F07F0101707047002100F87A
:10508000801F41708170C170704790F8822000F0DD
:1050900001B8000010B590F8823013B10AB1802A2F
:1050A00001D9002010BD00230DE000BF90F8804022
:1050B000045DCC5490F88040641C04F07F045B1CB9
:1050C00080F88040DBB2934203D290F882409C4249
:1050D000ECD890F88210C91A80F88210002180F86C
:1050E0008310FFF7CBFF184610BD00002DE9FC41EF
:1050F000054640690F464088002833D0C7EBC701FA
:1051000001EB410105EB8104A96994F82820498845
:105110001044884226D86968134E51F83000806BDD
:1051200090F800804FF0FF30A4F87400852084F8D8
:105130002A0094F83200CDE90006238E94F8291055
:10514000284605F0B4FDE662A26F2AB14146284622
:105150009047E06AB04205D1F9B22846BDE8FC416B
:1051600005F0AABCBDE8FC81000004052DE9F04172
:1051700086B00F46DDE90C648046052C11D0062C64
:1051800011D0072C11D00020029080B1002540469C
:10519000CDE9004505F00AFC60B1A81E06B0BDE8E7
:1051A000F0810120F0E70220EEE70420ECE74FF069
:1051B000FF30F3E70495039504AD02E0012003F00E
:1051C000AAF802AB03AA39464046009502F0C2FD98
:1051D0000128F3D1052C04D0062C05D0072C08D1CA
:1051E00005E00398307004E00398308001E00398F4
:1051F00030600020D2E7F0B585B00E46DDE90A1434
:105200000746052C07D0062C07D0072C07D04FF0F7
:10521000FF3005B0F0BD012002E0022000E00420D4
:10522000002500900395CDE901413146384606F04E
:1052300005FE08B1A81EECE7049502E0012003F08A
:105240006AF804AA3146384602F051FE0128F5D129
:105250000020DEE71FB5C1EBC10101EB410100EB0E
:1052600081014A6B0AB98A6B4A630392012203AB3C
:10527000CDE90032029201F13C0391F83220098E0F
:1052800002F0B0F904B010BD70B5C1EBC10101EB83
:10529000410100EB81018C6BA018202801D9FF206F
:1052A00070BD002006E026181D5C0E44401C86F8E8
:1052B0003C50C0B29042F6D3886B10448863002003
:1052C00070BD000038B504461248134B0068B0FBAF
:1052D000F3F04FF47A73584300906068B0F5827F22
:1052E0000DD10B46009200228021204600F016F8D6
:1052F00070B1606D40F020006065032038BD0098FB
:1053000030B1401E009020688068C0430006F6D58A
:10531000002038BDD800002000366E012DE9F8438A
:105320001E46914688460446089DFCF733FD401B07
:10533000351AFCF72FFD074625480068C0F3CB302F
:10534000684338E0701C37D0FCF724FDC01BA8422E
:1053500003D215B1009860B32CE02068416821F0B9
:10536000E00141606068B0F5827F0BD1A068B0F5C4
:10537000004F02D0B0F5806F04D12068016821F0A1
:1053800040010160A06AB0F5005F09D120680168A2
:1053900021F4005101602068016841F4005101606E
:1053A000012084F85100002084F850000320BDE85B
:1053B000F8830025401E00902068816838EA0100CB
:1053C00004D000214945BDD10020F0E70121F9E7D3
:1053D000D80000202DE9F0410F46044600269046F3
:1053E0001D46D0F8B800711E07F0A4F8207A00B16D
:1053F000FF2694F8A70000B1FE2617F0FF0001D0A9
:10540000F72801D9F72600E05EB175B20023A57434
:105410001A461946D4F8B80006F092FE2846BDE8B0
:10542000F081C4F89850E074C7F30723380C237553
:10543000010A61751FFA88F2A075170A0621002675
:10544000D0B2052B16D008DC012B11D0022B0FD0C7
:10545000032B0DD0042B5FD10AE0062B13D04FF0A5
:10546000070C04F113010F2B13D0102B54D133E090
:10547000E7750CE0288800B1FF20E07584F818601B
:1054800084F8931048E02888000AE0752878207690
:10549000F6E713095B061B0E120701D05B1CDBB29B
:1054A000E7752076637684F893C0002011E0C20788
:1054B00020F0010201D0AA5C01E0AA5A120A94F875
:1054C00093707A5494F89320521C401C84F89320D3
:1054D00080B29842EBD31FE0E775207650006076EB
:1054E00084F893C0002015E035F8103094F89370DC
:1054F0001B0A7B5494F893305B1CDBB284F8933026
:1055000015F810705F5494F893305B1C401C84F8BD
:10551000933080B28242E7D8204605F0FFFB00239B
:105520001A461946D4F8B80006F00AFE012084F89D
:10553000A700A674002072E72DE9F05F8B46214991
:1055400082460026B1F900001C4691461C4D401CC5
:1055500008E000BFB9F1000F01D02A7852B1761CE3
:1055600036B21835864201DC082EF3DB4FF0FF30EF
:10557000BDE8F09F8846864201D1A8F8000002F0FD
:10558000D3FB07464FF6FF7120468C4200D30846F6
:10559000D8F80420BA4207D9D21B824204D93A185B
:1055A000C8F8042005F018FDE019C5E903B0C5E905
:1055B00001A90A986861012028703046D8E70000E8
:1055C000885C0020A40100204148FCF7D3F828B1F2
:1055D00040A001F0B7F9002005F0A8FF02213C48E7
:1055E000FBF7B4FC28B146A001F0ACF9002005F0AF
:1055F0009DFF00F03BFBFEF785FAFEF741FB4948B3
:1056000005F04EFD01221146464802F00CFE40F620
:10561000B8354FF420274FF4FA784FF4C8094FF407
:10562000A02A4FF0FA7B4FF47A7642F210743EA033
:1056300001F088F944A001F085F9FEF7D7F90A20B6
:1056400002F069FE44A001F07DF90020FEF788FA1F
:10565000284602F060FE43A001F074F93846FEF7D8
:105660007FFA284602F057FE4046FEF7DDFA43A0D7
:1056700001F068F94846FEF773FA284602F04BFE3F
:1056800043A001F05FF95046FEF76AFA6420FEF786
:10569000CBFA284602F03FFE42A001F053F95846EB
:1056A000FEF75EFA3046FEF7BFFA204602F033FE00
:1056B0004FF44810FEF754FA3220FEF7B5FA2046B0
:1056C00002F029FEFEF738F9304602F024FEAEE77C
:1056D000300F002043414E31207374617274206694
:1056E00061696C65642C73746F702053746172749B
:1056F00043616E546573745461736B210D0A00002D
:10570000456E61626C652043414E206E6F74696620
:1057100069636174696F6E206661696C6564210DEF
:105720000A0000001806002043414E3120746573C2
:1057300074207461736B732069732072756E6E6967
:105740006E670D0A00000000456E61626C65204BBB
:10575000696E636F0D0A00004D6F7620706F733AAB
:10576000300D0A004D6F7620706F733A3635353341
:1057700036202A2031300D0A000000004D6F7620BF
:10578000706F733A36353533362A35300D0A0000DE
:105790004D6F7620706F733A36353533362A350DB6
:1057A0000A0000004D6F7620706F733A363535333E
:1057B000362A3530300D0A001C4840F223110822E9
:1057C00001600121416000218160C0E9031201757F
:1057D0001748FBF7CFFF28B116A001F0B3F800205F
:1057E00005F0A4FE02211248FBF7B0FB28B11CA073
:1057F00001F0A8F8002005F099FE224D00240020B9
:1058000021182954401C0828FADB1E4B1D4A423B34
:1058100006490748FBF7ACFB10B11BA001F092F85A
:105820000A20641C02F077FDE9E70000B4080020BC
:10583000580F002043414E32207374617274206609
:1058400061696C65642C73746F7020537461727439
:1058500043616E546573745461736B210D0A0000CB
:10586000456E61626C652043414E206E6F746966BF
:1058700069636174696F6E206661696C6564210D8E
:105880000A0000006600002043414E322054582098
:105890004641494C4544210D0A00000086B00446AB
:1058A0004FF0FF394FF000084E464A4601A9D4F8A0
:1058B000A80006F0A3FD049800900DF1040C20460A
:1058C0009CE80E00FFF786FD3146012005F074FCD0
:1058D000454684F8128020B184F8A7506FF0070184
:1058E0000AE0204602F090FA94F8930006280AD2C3
:1058F00084F8A7506FF00501A174B4F8A000401C13
:10590000A4F8A00010E000950023A8461A46032141
:10591000D4F8B40007F046FA204605F0A1FF41B2E2
:1059200031B184F8A780A17400230322049864E0B5
:10593000A1743146D4F8B80006F0FCFD207D05289E
:1059400049DA012806D0022804D0032820D00428F0
:1059500041D11DE00326002516E0E807D4F89800A1
:1059600025F0010704D0C15DAA191019C07C04E01C
:10597000AA19C05B1119000AC97C06F059FAD4F8BB
:1059800098106D1CEDB2C853607DA842E5D822E0A6
:10599000607D0326400884F84201002514E0A71921
:1059A000397DF87C06F044FA0146D4F89800B61C1C
:1059B000F6B220F81510B7F8130004EB450140BA11
:1059C0006D1CA1F84401EDB2607DB5EB500FE6D33C
:1059D000012184F8411184F8A780A07C00287FF47D
:1059E00063AF00231A461946D4F8B80006F0A8FBA6
:1059F000002303226FF00A01049806F0E9FE53E742
:105A000004464FF0010B4FF0080900274FF0060A3B
:105A1000A77494F84001012801D0042809D14FF05F
:105A2000FF31012005F0C8FB204602F0EDF9C01C53
:105A30000BD094F89300072809D2FA20A074B4F888
:105A4000A000401CA4F8A000E2E7FD20F6E7E07CFF
:105A5000217A8842DCD1204605F036FF05000DD0C2
:105A6000207D217AE174803020756575032084F8EB
:105A70009300204605F052F9A574C9E7A7744FF0CA
:105A8000FF31D4F8B80006F055FD207D05281AD066
:105A900008DC01280DD002280BD003280DD00428E3
:105AA0002ED10AE006283DD00F284DD0102827D14E
:105AB0004EE0204604F004FA02E0204604F09CFA8E
:105AC00084F8A7001CE0A17D607D06F0B1F90146D5
:105AD000E27D000901F00F01FF2A19D0D4F89820C7
