:020000040802F0
:1000000038690124A503020879E90208F98B02087E
:1000100075E70208290F0208A51103080000000077
:10002000000000000000000000000000E5020208DF
:100030006118020800000000410302081D010308C6
:10004000BF030208BF030208BF030208BF03020880
:10005000BF030208BF030208BF030208BF03020870
:10006000BF030208BF030208BF0302082D0F0208E6
:10007000390F0208BF030208BF030208450F020838
:10008000510F02085D0F0208BF030208551A02084B
:10009000BF030208611A0208BF030208BF03020877
:1000A000BF030208BF030208BF030208BF03020820
:1000B000BF030208BF030208BF030208BF03020810
:1000C000BF030208BF030208BF030208BF03020800
:1000D000BF03020841100308BF030208911103087F
:1000E000BF030208BF03020800000000BF030208AC
:1000F000ED020308BF030208BF030208BF030208A2
:10010000BF030208BF030208BF030208BF030208BF
:10011000BF030208BF030208BF030208D902030895
:10012000BF030208BF030208BF030208BF0302089F
:10013000BF030208BF030208BF030208BF0302088F
:1001400000000000000000000000000000000000AF
:10015000BF030208BF030208BF030208BF0302086F
:10016000BF030208BF030208BF030208BF0302085F
:10017000BF030208BF030208BF030208000000001B
:10018000BF030208BF030208BF030208BF0302083F
:10019000BF030208BF030208BF030208BF0302082F
:1001A000BF030208BF030208BF03020800000000EB
:1001B000BF030208BF030208BF030208BF0302080F
:1001C000BF030208BF030208000000000000000097
:1001D0000000000000000000BF0302080000000053
:1001E000000000000000000000000000000000000F
:1001F0000000000000000000BF030208BF03020867
:10020000BF030208BF03020800000000BF0302088A
:10021000BF030208BF030208BF030208BF030208AE
:10022000BF03020800000000BF0302080000000036
:10023000BF030208BF03020800000000BF0302085A
:10024000BF030208BF030208BF030208BF0302087E
:10025000BF030208BF030208BF030208BF0302086E
:10026000BF030208BF030208BF030208BF0302085E
:10027000BF030208BF030208BF030208000000001A
:10028000BF030208BF030208BF030208BF0302083E
:1002900000000000BF030208BF03020800000000C6
:1002A00000000000BF030208BF030208BF030208EA
:1002B000BF030208BF030208BF030208BF0302080E
:1002C000BF030208BF030208BF030208DFF810D013
:1002D00000F0D8FA0048004725340308AFF3008047
:1002E000386901242C4B19680868B0E8F04F80F396
:1002F0000988BFF36F8F4FF0000080F311887047BB
:100300000000000008480068006880F308884FF08B
:10031000000080F3148862B661B6BFF34F8FBFF35D
:100320006F8F00DF00BF00BF08ED00E0DFF80C00BA
:10033000016841F470010160704700BF88ED00E082
:10034000EFF30980BFF36F8F134B1A681EF0100F85
:1003500008BF20ED108A20E9F04F106009B44FF07B
:10036000500080F31188BFF34F8FBFF36F8F14F0ED
:1003700009FE4FF0000080F3118809BC1968086875
:10038000B0E8F04F1EF0100F08BFB0EC108A80F3F9
:100390000988BFF36F8F704704010024EFF30580D5
:1003A000704700000648804706480047FEE7FEE722
:1003B000FEE7FEE7FEE7FEE7FEE7FEE7FEE7FEE715
:1003C000D1010308CD0202082DE9F05F05460020A7
:1003D00092469B4688460646814640241BE02846B6
:1003E00041464746224600F069F853465A46C01A2D
:1003F000914110D311461846224600F050F82D1AAC
:1004000067EB01084F4622460120002100F047F823
:1004100017EB00094E41201EA4F10104DFDC484621
:1004200031462A464346BDE8F09F40EA01039B0758
:1004300003D009E008C9121F08C0042AFAD203E059
:1004400011F8013B00F8013B521EF9D27047D2B2BD
:1004500001E000F8012B491EFBD270470022F6E7AD
:1004600010B513460A4604461946FFF7F0FF20462A
:1004700010BD30B50B46014600202022012409E0C2
:1004800021FA02F59D4205D303FA02F5491B04FA4D
:1004900002F52844151EA2F10102F1DC30BD202A2C
:1004A00004DB203A00FA02F1002070479140C2F1CB
:1004B000200320FA03F3194390407047202A04DBFD
:1004C000203A21FA02F00021704721FA02F3D040CD
:1004D000C2F1200291400843194670472DE9FE4FB2
:1004E000804681EA0300C00F0C46009021F00041D5
:1004F00023F00045B8EB0200A94105D24046214651
:1005000090461C460B46024623F00040104347D05D
:10051000270DC7F30A00C3F30A510290401A019055
:1005200040286BDAC3F3130040F4801B0098924616
:1005300020B10023D2EB030A63EB0B0B0198594661
:10054000C0F140025046FFF7AAFF06460D4650464E
:100550005946019A00F0A8F910EB08006141002407
:1005600087EA115284EAE7731A4340D0009A62B3D3
:10057000019A012A4FEA075215DC001B61EB0201C8
:100580004FF0004202EA0752CDE90042001C41F55B
:10059000801132462B4600F0A8F903B0BDE8F08F79
:1005A00040462146F9E7001B61EB0201001C41F5C2
:1005B000801300185B412018A2F5001747EB0301D8
:1005C00040EAD570B6196D4111E06D084FEA360664
:1005D00045EAC0754FEA0752001B61EB0201001C9F
:1005E00041F5801149084FEA300000195141324667
:1005F0002B4603B0BDE8F04F00F068B90098012227
:1006000040000023D0EB020263EBE0730098214628
:100610004FEAE074B8EB000061EB0401E9E783F016
:1006200000435BE781F0004158E72DE9FE4F81EA86
:10063000030404F0004421F0004100944FF0000B4B
:1006400023F0004350EA01045ED052EA03045BD079
:10065000C3F30A54C1F30A552C44A4F2F3340194B1
:10066000A0FB0254C1F3130141F48011C3F313033F
:1006700043F4801301FB024400FB034E840A970AF3
:1006800044EA815447EA8357A4FB076802958D0A20
:1006900005FB07854FEA932C04FB0C542705029DAC
:1006A0004FEA065847EA1637B5EB08056EEB070C1C
:1006B000870E920E47EA811742EA8312A7FB0201D6
:1006C000B6EB0B0164EB00042B0D43EA0C335E1810
:1006D00044EB1C50DA465146E7FB0201C5F3130414
:1006E0004FEA0B3343EA14534FEA0432019C43EAC6
:1006F0000603A4F10C040294009CCDE900B400F0C0
:10070000F4F803B0BDE8F08F00200146F9E72DE9C9
:10071000F04D81EA030404F0004B21F0004514463B
:100720004FF0000A23F0004150EA050220D054EABD
:1007300001021DD0C5F30A570246C5F31303C1F3E6
:100740001300C1F30A5640F4801543F48013A7EB5D
:100750000608101BD64608F2FD3873EB050002D3DD
:1007600008F1010801E092185B41B8F1000F03DACB
:1007700000200146BDE8F08D00204FF480110646B0
:1007800084460EE0171B73EB050705D3121B63EBC2
:10079000050306434CEA010C49084FEA3000921861
:1007A0005B4150EA0107EDD152EA030012D082EA20
:1007B000040083EA0501084305D0101BAB4106D2B3
:1007C0000122002306E000224FF0004302E06FF018
:1007D000010253101AEB06004CEB085110EB0A0013
:1007E00041EB0B01BDE8F04D00F070B8C1F30A52C7
:1007F000C1F3130140F2FF3341F480119A4202DA4F
:1008000000200146704740F233439A42A2F233423D
:1008100002DC5242FFF752BEFFF741BE30B5041E64
:1008200071F1000404DB4FF00044404264EB01012D
:10083000141E73F1000405DB1C464FF000435242C6
:1008400063EB0403994208BF904230BD002801DBEE
:10085000C0F10040002901DBC1F10041814202D218
:100860004FF0004004E04FF0005001D14FF0C04085
:100870004FEA2062EFF3008162F31F6181F3008889
:1008800070470000064C074D06E0E06840F00103A9
:1008900094E8070098471034AC42F6D3FFF71AFDEE
:1008A000E0790308007A0308202A06DBCB17203AF8
:1008B00041FA02F043EAE07306E041FA02F3D04065
:1008C000C2F12002914008431946704710B5141E2A
:1008D00073F1000408DA401C41F1000192185B41F9
:1008E0001A4301D120F0010010BD2DE9F04D9246D0
:1008F0009B4611B1B1FA81F202E0B0FA80F22032E7
:100900009046FFF7CCFD04460F4640EA0A0041EA54
:100910000B0153465A46084313D0114653EA0100CF
:1009200019D0C8F140025046FFF7C8FD05460E46F3
:10093000504659464246FFF7B2FD084305D0012014
:1009400004E020463946BDE8F08D0020054346EA24
:10095000E0762C4337430A986305E40AA0EB0800CD
:100960000022FD0A44EA47540A3002D5002001461D
:10097000E9E7010510196941DDE9084500196941F8
:10098000BDE8F04DA2E770B58C1810F8015B15F0CA
:10099000070301D110F8013B2A1106D110F8012BF1
:1009A00003E010F8016B01F8016B5B1EF9D12B0716
:1009B00005D40023521E0DD401F8013BFAE710F8CC
:1009C000013BCB1A921C03E013F8015B01F8015BB9
:1009D000521EF9D5A142D8D3002070BD10B53249BE
:1009E00004460068884202D0304A904202D1D1F8D1
:1009F000080302E02E48D0F8080310F4403F10D05E
:100A000005F0B6FF6168B1F5803F06D0B1F5003F53
:100A100003D0B1F5403F26D101E0090C17E0800872
:100A200021E000214FF4002005F05AF861688A03A4
:100A3000920B18D18A140C2A15D2DFE802F01406A2
:100A400006060606060B0D0F1113890C4900B0FBB4
:100A5000F1F008E0000906E0400904E0800902E046
:100A6000C00900E0000A13494008884204D8206801
:100A7000816821F4407108E00F49884207D8206856
:100A8000816821F4407141F48071816010BD0B498F
:100A900088422068816804D821F4407141F40071D3
:100AA000F3E741F44071F0E70020024000210240EA
:100AB00000600258105E5F0020BCBE0040787D01DF
:100AC0002DE9F0410027044600680D460CF012FFA6
:100AD000064620680CF00AFF30435DD020682F4E98
:100AE000C168890105D5617E012902D1217E0129D4
:100AF0000BD0022D1DD020680CF0FCFEB8B1206890
:100B00008168C1F3400169B111E02549012502E086
:100B10008F4232D27F1C0268D2435206F8D4402161
:100B20000160E8E78168314041F010018160012DEA
:100B300011D020680CF0DAFE48B120688168C1F35A
:100B4000400121B98168314041F020018160022DCE
:100B500008D0032D04D0042504F034F9064617E02C
:100B60000C25F9E70825F7E704F02CF9801B052888
:100B70000ED92068806828420AD0206E40F010000C
:100B80002066606E40F0010060660120BDE8F081E3
:100B9000206880682842E7D10020F7E7C0FFFF7F88
:100BA00000DC0C0010B5846B216E11F0500F06D0E4
:100BB000216EC90625D5204601F007FD10BD206E27
:100BC00040F40070206620680168090707D50CF022
:100BD00099FE90B12068C068800403D50DE0C0681C
:100BE00080070AD1206E20F480702066206EC00439
:100BF00003D4206E40F001002066204601F0BCFCCA
:100C000010BDA16DC96CBDE81040084710B5806BE0
:100C1000016E41F040010166416E41F00401416600
:100C200001F0D3FC10BD10B5806B01F0CDFC10BD00
:100C300070B50446006881688268C1F3400112F013
:100C4000010F28D039BB816801F00D01012914D1B1
:100C50008168124A1140891C816021680320086064
:100C600004F0B0F8054612E004F0ACF8401B02288E
:100C70000DD920688068C00709D0206E40F01000B0
:100C80002066606E40F001006066012070BD206843
:100C90008068C007E8D1002070BD0000C0FFFF7F62
:100CA00070B504460068816811F0010F40D1816879
:100CB000204A11422DD18168D5432940491C8160C9
:100CC00004F080F81C49064620681C4B884201D07D
:100CD000984201D11A4A00E01A4A9268984202F0FA
:100CE0001F0200D0014681421DD0E2B120E08168A0
:100CF00011F0010F03D181682940491C816004F083
:100D000061F8801B02280ED920680068C043C00724
:100D100009D0206E40F010002066606E40F00100A7
:100D20006066012070BD20680168C943C907DED133
:100D3000002070BD3F0000800020024000210240E2
:100D400000230240006302580A224FF6FF73014657
:100D5000014804F0F3B80000F84F00240EB54FF638
:100D6000FF738DE80E00022302460248A02104F022
:100D700079F90EBDF84F00242DE9FE4F0F464FF0D4
:100D800000068106804615464FF6FF7034464FF048
:100D9000400A06D008F03F01C1F14004AC4202D243
:100DA00033E0402D04D800970223CDE9012020E054
:100DB000814615E03A192D48CDE9002A0223424622
:100DC000A021CDF8089004F0FFF9142012F0B0FD36
:100DD0004034761C08F140001FFA80F8A4B2F6B245
:100DE000B6EB951FE6D3291B38198AB28DE80502A8
:100DF00002231E48A021424604F0E6F904461420CE
:100E000012F096FD2046BDE8FE8F02900223A0213D
:100E1000814616484246CDE9007404F0D5F9142005
:100E200012F086FD08EB04001FFA80F815E03A196D
:100E30000E48CDE9002A02234246A021CDF80890B1
:100E400004F0C2F9142012F073FD4034761C08F14E
:100E500040001FFA80F8A4B2F6B2281BC11700EBBD
:100E60009160B6EBA01FE2DBBDE70000F84F002465
:100E700010B5044610EE900A2DED048BB0EE418AB9
:100E8000B0F17C5FF6EE008A01DAF0EE680AB2EEAD
:100E9000041A10EE281AB4EEE01AF1EE10FA01D29C
:100EA000F0EE410A9FED1E1A60EE810AC0EE809AB4
:100EB000B0EE690A10F09CFAB0EE409AB0EE690A02
:100EC00010F096FC9FED172AB7EE001AF8EE001A04
:100ED000C0EE020A29EE212A71EE491A84ED058A34
:100EE00084ED068A84ED078A61EEA82A84ED088ADB
:100EF00030EE810A71EE600A81EE801AC2EE001AAD
:100F000080EE802AC2EE800AC4EC020AC4ED020A16
:100F1000C4ED031A84ED042ABDEC048B10BD00005F
:100F2000DB0FC940F304B53FFEE70000014802F0C3
:100F3000CBB900002C560024014802F0C5B90000CE
:100F4000A4560024014802F0BFB900001C57002439
:100F5000014802F0B9B9000094570024014802F09A
:100F6000B3B90000E04E0024294A016891423AD00A
:100F7000274A1832914236D0254A3032914232D037
:100F8000234A483291422ED0214A603291422AD0DF
:100F90001F4A7832914226D01D4A9032914222D087
:100FA0001B4AA83291421ED01A4A91421BD0194ABC
:100FB0001832914217D0174A3032914213D0154A55
:100FC000483291420FD0134A603291420BD0114AFD
:100FD0007832914207D00F4A9032914203D00D4AA5
:100FE000A832914211D1CAB21823103AB2FBF3F2DF
:100FF0006FF30901032A02F00703074AD25CC265B6
:1010000000D9091D81650846704721F0FF01F9E705
:101010001000024010040240A877030830B5224AAD
:10102000012301689142CAB21BD01F4C1434A14263
:1010300017D01D4C2834A14213D01B4C3C34A14284
:101040000FD0194C5034A1420BD0174C6434A1423C
:1010500007D0154C7834A14203D0134C8C34A142F4
:101060000CD11421114C083AB2FBF1F10F4A803235
:1010700001F01F0504EB8101AB4010E00C4D18247A
:10108000103A0D44B2FBF4F1A82D00D80831094AFA
:1010900001F01F0402EB8101064AA3408032603058
:1010A00080E80E0030BD0000085402580058025875
:1010B000F0FBFDBF0008024010B50279531E072B5C
:1010C0002DD8174C0168A1421BD0154C1434A142F5
:1010D00017D0134C2834A14213D0114C3C34A142F8
:1010E0000FD00F4C5034A1420BD00D4C6434A142B0
:1010F00007D00B4C7834A14203D0094C8C34A14268
:1011000003D10849074C443102E00749064C4431F9
:1011100004EB8202C0E91B2101219940416710BD07
:1011200008540258FC580258FC08024010B5836964
:101130004FF0C074826A0146002053B1B3F5005FDE
:1011400015D072B1012A0CD0022A0AD0032A09D183
:1011500004E01AB1012A06D0022A03D1C96AC901E2
:1011600000D5012010BDC96AA142FAD010BD002AE5
:10117000F7D0012AF2D0022AF3D0032AF3D010BD0F
:101180002DE9F04F804E804FDFF8FC911836DFF8E4
:10119000F8A148370468856D0AF1300ADFF8ECB130
:1011A0004C45DFF8ECC1DFF8ECE16DD0B4426BD018
:1011B000544569D0BC4267D0DFF8D081A8F1180847
:1011C000444561D05C455FD064455DD074455BD0DB
:1011D000DFF8C481444557D0DFF8BC8108F1180816
:1011E000444551D0DFF8B08108F1300844454BD078
:1011F000DFF8A48108F14808444545D0DFF898811C
:1012000008F1600844453FD0DFF88C8108F1780888
:10121000444539D0DFF8808108F19008444533D047
:10122000DFF8748108F1A80844452DD0DFF86C81FF
:10123000444529D0DFF8648108F11408444523D0DF
:10124000DFF8588108F1280844451DD0DFF84C81AB
:1012500008F13C08444517D0DFF8408108F15008F8
:10126000444511D0DFF8348108F1640844450BD0BF
:10127000DFF8288108F17808444505D0DFF81C81A3
:1012800008F18C08444509D1D0E91948C4F8048014
:10129000C46E1CB1D0E91C48C4F8048004684C45F5
:1012A0002ED0B4422CD054452AD0BC4228D0374E40
:1012B000183EB44224D05C4522D0644520D0744509
:1012C0001ED0354EB4421BD0334E1836B44217D020
:1012D000314E3036B44213D02F4E4836B4420FD080
:1012E0002D4E6036B4420BD02B4E7836B44207D028
:1012F000294E9036B44203D0274EA836B44215D1B9
:1013000090F85C603F2406F01F06B440AC600468AF
:10131000256825F4802525602EE09A600068C1606C
:10132000BDE8F08F99600068C260F9E71B4EB442D7
:101330001BD01A4E1436B44217D0184E2836B44279
:1013400013D0164E3C36B4420FD0144E5036B44231
:101350000BD0124E6436B44207D0104E7836B442E9
:1013600003D00E4E8C36B442DAD190F85C60012482
:1013700006F01F06B4406C60046863608368402B0D
:101380000368CFD1C9E70000100002408800024086
:10139000A0000240B8000240100402400854025865
:1013A00010B513F01BFB0448D0E90021C0E900127E
:1013B000BDE8104013F032BB9400002430B5002883
:1013C00012D0062900D90621084B00221B6809E02B
:1013D00003EB820400EB820594ED0C0A521C85EDB0
:1013E000000AD2B28A42F3D330BD00009400002438
:1013F00030B5002812D0062900D90621084B00225A
:101400001B6809E003EB820400EB820594ED060AF9
:10141000521C85ED000AD2B28A42F3D330BD0000DF
:101420009400002430B5002812D0062900D90621E6
:10143000084B00221B6809E003EB820400EB8205E5
:1014400094ED190A521C85ED000AD2B28A42F3D3F8
:1014500030BD00009400002430B5002812D00629C9
:1014600000D90621084B00221B6809E003EB820427
:1014700000EB820594ED000A521C85ED000AD2B201
:101480008A42F3D330BD00009400002430B5002818
:1014900012D0062900D90621084B00221B6809E05A
:1014A00003EB820400EB820594ED130A521C85EDD8
:1014B000000AD2B28A42F3D330BD00009400002467
:1014C00030B5002812D0062900D90621084B002289
:1014D0001B6809E003EB820400EB820594ED250A0A
:1014E000521C85ED000AD2B28A42F3D330BD00000F
:1014F0009400002430B5002812D0062900D9062116
:10150000084B00221B6809E003EB820400EB820514
:1015100094ED370A521C85ED000AD2B28A42F3D309
:1015200030BD00009400002430B5002812D00629F8
:1015300000D90621084B00221B6809E003EB820456
:1015400000EB820594ED3D0A521C85ED000AD2B2F3
:101550008A42F3D330BD00009400002430B5002847
:1015600012D0062900D90621084B00221B6809E089
:1015700003EB820400EB820594ED2B0A521C85EDEF
:10158000000AD2B28A42F3D330BD00009400002496
:1015900030B5002812D0062900D90621084B0022B8
:1015A0001B6809E003EB820400EB820594ED310A2D
:1015B000521C85ED000AD2B28A42F3D330BD00003E
:1015C0009400002430B5234C00229FED210A04F53D
:1015D000887304EB820103EB820081ED000A81ED48
:1015E000060A81ED0C0A81ED130A81ED190A81EDDD
:1015F0001F0A81ED250A81ED2B0A81ED310A81ED6B
:10160000370A81ED3D0A80ED000A80ED060A80ED83
:101610000C0A80ED130A80ED190A80ED1F0A80ED97
:10162000250A80ED2B0A551C80ED310A80ED370A22
:10163000EAB2062A80ED3D0ACBD384ED120A83ED8F
:10164000120A0020C4F80C01C3F80C0130BD0000E0
:10165000000000003847002430B5002812D00629C9
:1016600000D90621084B00225B6809E000EB8204E8
:1016700003EB820594ED000A521C85ED0C0AD2B2F0
:101680008A42F3D330BD00009400002430B5002816
:1016900012D0062900D90621084B00225B6809E018
:1016A00000EB820403EB820594ED000A521C85EDE9
:1016B000060AD2B28A42F3D330BD0000940000245F
:1016C00030B5002812D0062900D90621084B002287
:1016D0005B6809E000EB820403EB820594ED000AED
:1016E000521C85ED190AD2B28A42F3D330BD0000F4
:1016F0009400002430B5002812D0062900D9062114
:10170000084B00225B6809E000EB820403EB8205D2
:1017100094ED000A521C85ED000AD2B28A42F3D33E
:1017200030BD00009400002430B5002812D00629F6
:1017300000D90621084B00225B6809E000EB820417
:1017400003EB820594ED000A521C85ED130AD2B218
:101750008A42F3D330BD00009400002430B5002845
:1017600012D0062900D90621084B00225B6809E047
:1017700000EB820403EB820594ED000A521C85ED18
:10178000250AD2B28A42F3D330BD0000940000246F
:1017900030B5002812D0062900D90621084B0022B6
:1017A0005B6809E000EB820403EB820594ED000A1C
:1017B000521C85ED370AD2B28A42F3D330BD000005
:1017C0009400002430B5002812D0062900D9062143
:1017D000084B00225B6809E000EB820403EB820502
:1017E00094ED000A521C85ED3D0AD2B28A42F3D331
:1017F00030BD00009400002430B5002812D0062926
:1018000000D90621084B00225B6809E000EB820446
:1018100003EB820594ED000A521C85ED2B0AD2B22F
:101820008A42F3D330BD00009400002430B5002874
:1018300012D0062900D90621084B00225B6809E076
:1018400000EB820403EB820594ED000A521C85ED47
:10185000310AD2B28A42F3D330BD00009400002492
:1018600070472DE9F0470500984617460E46DDF80B
:10187000209026D0002E24DD002420E0C7B1B8F14E
:10188000000F15D0B9F1000F12D008EB840009EB5E
:10189000840107EB8402C4EBC403D0ED000A91ED90
:1018A000001A92ED000A05EB830000F02DF805E028
:1018B000C4EBC40005EB800000F006F8641CB442E1
:1018C000DCDBBDE8F0870000002813D0DFED0B0A59
:1018D0009FED0B1A9FED080AC0ED030A80ED061A72
:1018E00080ED020A80ED010A80ED000A9FED050AF5
:1018F00011F04EB870470000000000006F12833AEC
:1019000000007A440000A04200280FD080ED030AB6
:10191000DFED071A80ED061AC0ED021AC0ED011ABC
:10192000C0ED001AB0EE600A11F032B87047000046
:101930000000000000281FD090ED011A90ED064A2B
:10194000D0ED001AF0EE412AD0ED043A44EE002A20
:1019500030EEE10A90ED053A90ED032A80ED020A9F
:1019600063EE000A43EE802A02EE201A42EE221AAB
:10197000C0ED001A80ED011A704700002DE9F04714
:101980002E4D6FF001092968C1F8109000202D4EEE
:101990004FEA8938DFF8A8C006F11802A2F584736F
:1019A000ACF104045CF8201009684F6A56F8201066
:1019B00046F82070791A414502DA01F5803104E0D9
:1019C000B1F5004F01DBA1F5803152F820700F44D2
:1019D00042F82070678807EB470703EB071747F8C3
:1019E000201052F82010678807EB470703EB071712
:1019F00007EB8007B961401C0628D3DB608805210E
:101A0000401CB0FBF1F201FB1200608001210E4886
:101A1000006812F095F82078401CC0B220700A28A7
:101A200006D30020207009480121006812F088F8D0
:101A30002968C1F81090BDE8F0870000F05200243A
:101A400024000024E8060024B8000024BC00002480
:101A500072B6FEE7014802F0B1BC0000584F002406
:101A6000014802F0ABBC0000584F0024F0B50368F9
:101A70004FF6FC716D4C426BD3F884508D4345EAB0
:101A80008205C3F88450036853F8845F068F25F4F9
:101A90007F0545EA06451D60836B654D9F1802680A
:101AA000D2F888308B4343EA8703C2F88830026853
:101AB00052F8883F868F23F4FE0343EA06431360FF
:101AC000066856F8A03FC26B8B4307EB420243EA1D
:101AD00082033360076857F8A03FB0F8406023F4F2
:101AE000FE0343EA06433B60D0E9103603FB0622BF
:101AF0000368D3F8B0608E4346EA8206C3F8B0604C
:101B00000368B0F84860D3F8B07027F4FE0747EADE
:101B10000646C3F8B060D0E91267036806FB0722E7
:101B2000D3F8AC608E4346EA8206C3F8AC60D0E9D5
:101B30001467036806FB0722D3F8F0608E4346EA79
:101B40008206C3F8F0600368B0F85860D3F8F0700C
:101B500027F47C1747EA0646C3F8F0600368876DF0
:101B600053F8C06F02EB47028E4346EA82011960C8
:101B70000168B0F85C20D1F8C03023F47C1343EA4C
:101B80000242C1F8C020016890F86020D1F8C0304E
:101B900023F07C5343EA0262C1F8C020416B04EB9E
:101BA0008101C166826B01EB82020267C36B02EBAB
:101BB000C3024267D0E91034634302EB83028267B9
:101BC000D0E91234634302EB8302C267D0E91434D4
:101BD000634302EB8302C0F88020836D02EBC303F2
:101BE000C0F88430C46D826E544303EB8403C0F8A4
:101BF0008830046E544303EB8402C0F89020AA425C
:101C00000AD9D0F89C20032142F02002C0F89C2081
:101C100080F898100120F0BD002200E004C1D0F847
:101C200090308B42FAD80020F0BD000000AC00409C
:101C3000FCD30040F0B58E680C69D1E9005744EA46
:101C40000604DFB145F080452C43866ED1E906C518
:101C50004F695E4391F8203045EA0C05B1F80CC09D
:101C6000D0F884E0002047EA0363104F1D430EEBD9
:101C7000860345EA0C45E3E8024511E044EA854461
:101C8000E3E71418155CA67894F803C094F801E013
:101C9000360445EA0C6446EA0E252C43001D10C3A9
:101CA000CC683C5D8442ECD8F0BD0000B0770308FE
:101CB00070B525490C221820FFF750F8224906225A
:101CC00021480C3110F056FC1F4D0C355FF000041C
:101CD000214605EB840090ED000A1CA0B7EEC00A77
:101CE00053EC102B0FF038FB641CE4B2062CEFD33E
:101CF0001A4C01202070217819A00FF02DFB2078BC
:101D000001281ED10122C103184803F055F8184DCF
:101D1000002029460CF07AFD012029460CF076FDC2
:101D20006D42022029460CF071FD032029460CF07B
:101D30006DFD042029460CF069FD052029460CF0B4
:101D400065FD207870BD000034350024506F735B52
:101D500025645D3A252E34660A0000003E0000240A
:101D60006D6F64653A25640A00000000000802589F
:101D700044FDFFFF01484068704700009C000024BC
:101D8000F8B50027044615460E46009790F85C000B
:101D900001280BD0012084F85C002046FEF748FFA4
:101DA0000100206E04D040F010002DE00220F8BDAC
:101DB00020F4885040F002002066206806F480324B
:101DC00005F08043134D1A4383682B401A4342F0B9
:101DD00000428260104A20680EE0009B5B1C00936A
:101DE000934209D3206E84F85C7020F0020040F02A
:101DF000100020660120F8BD8368DB0FEDD1206E56
:101E000020F0020040F001002066084684F85C7073
:101E1000F8BD0000C0FFFE3F00F8C3252DE9F047E4
:101E20000F4690F85C109CB0044601294FF0000961
:101E300015D00026DFF8F880012084F85C001896A1
:101E40001996216841450ED13A4D009528460BF070
:101E500055FD824620680BF051FD60B10EE0022076
:101E60001CB0BDE8F087206E84F85C6040F0200074
:101E700020660120F4E7BAF1000F09D0216E4FF07F
:101E8000010941F020002066484684F85C60E7E7DD
:101E900020684146884201D0A84201D1264800E08E
:101EA000264840F61F72D7F800C0254BBCF1000F42
:101EB00023D0D0F808C0D7F804802CF4404C4CEA6A
:101EC000080CC0F808C0D4F800C08C4501D0AC455F
:101ED00007D18968AB6801F0010103F001031943E0
:101EE00002E0996801F001010029CDD1BD6839688F
:101EF000836829439343194317E0876827F44047D1
:101F0000876027688F4201D0AF4207D18968AB68EC
:101F100001F0010103F00103194302E0996801F0A7
:101F200001010029B0D1816891438160ACE70000D4
:101F300000200240002102400023024000630258BA
:101F4000006002582DE9F84F0446DFF8ECB300209A
:101F5000FA4E0090814694F85C000D46F84F012837
:101F600008D04FF0010A84F85CA020680BF0C2FC96
:101F700018B18FE20220BDE8F88F286800280FDB37
:101F80002168B1420CD0CA69030327D090FAA0F0AF
:101F9000B0FA80F000F01F030AFA03F00243CA61AE
:101FA000D5E900124FF00C0C20681F23C1F38461A7
:101FB0000CEA921C02F01F02604493409140026BB5
:101FC0009A430A43026320680BF094FC8046206821
:101FD0000BF08CFC58EA000003D054E1C0F384609D
:101FE000D8E729684FF0040C20680723AA680CEA98
:101FF000D15CC1F3045160448B408A4041699943EC
:10200000114341612068B04204D1C2686969C2F3DA
:10201000C1020BE0CB4A1268BAEB127F02D0C16852
:10202000C90605D4C2686969C2F38202520004E09D
:10203000C268696902F01002520891402A69042AB4
:102040005AD02B6800EB8202B04202F1600207D145
:1020500003F0F8401368084340F00040106008E0C7
:10206000D2F800C003F0F84008430CF000410143EF
:1020700011602068B0421CD12969EA6900EB810037
:10208000016E21F080711143016695F820102068DF
:102090002A6901290AD00021B0429ED100EB8200BA
:1020A000026E22F000720A430266ECE04FF000710B
:1020B000F2E795F821102A69012917D05FF0000195
:1020C00000EB8200026E22F000420A430266297E83
:1020D00020682A6901290CD00021036902F01F023F
:1020E000914023F4F0420A430261CCE04FF00041FA
:1020F000E6E74FF40061F0E7B04273D100210BF046
:10210000EFFB000320684FF000016DD00BF0E8FBFF
:1021100090FAA0F0B0FA80F12868020369D090FA32
:10212000A0F0B0FA80F0814204D10022206811466C
:102130000BF0F0FB206801210BF0D2FB00032068BC
:102140004FF0010158D00BF0CBFB90FAA0F0B0FAA1
:1021500080F12868020354D090FAA0F0B0FA80F021
:10216000814204D12068002201210BF0D3FB2068BA
:1021700002210BF0B5FB000320684FF0020143D0B1
:102180000BF0AEFB90FAA0F0B0FA80F128680203E1
:102190003FD090FAA0F0B0FA80F0814204D12068DC
:1021A000002202210BF0B6FB206803210BF098FB04
:1021B000000320684FF003012ED00BF091FB90FA42
:1021C000A0F0B0FA80F1286802032AD090FAA0F0BB
:1021D000B0FA80F0814256D12068002203210BF032
:1021E00099FB50E020E0FFE70BF07AFBC0F384613D
:1021F00092E7C0F3846096E70BF072FBC0F3846152
:10220000A7E7C0F38460ABE70BF06AFBC0F384611F
:10221000BCE7C0F38460C0E70BF062FBC0F38461ED
:10222000D1E7C0F38460D5E7016E2A7801F0F84168
:10223000B1EB826F03D1016E21F00041016620688D
:102240002978426E02F0F842B2EB816F03D1416E01
:1022500021F00041416620682978826E02F0F84240
:10226000B2EB816F03D1816E21F00041816620685D
:102270002978C26E02F0F842B2EB816F03D1C16ED1
:1022800021F00041C1662068816811F0010F52D130
:102290002D4AB042EB6829680FD1D0F8B0C003F0E6
:1022A0001808C1F3130322FA08F20A402CEA030CBF
:1022B0004CEA020CC0F8B0C00EE0D0F8C0C003F089
:1022C0001808C1F3130322FA08F20A402CEA030C9F
:1022D0004CEA020CC0F8C0C0E968594570D11B48EF
:1022E0002268DFF86CC0DFF86CB08242DFF868E08B
:1022F0001A481B4BDFF86C8043D12968614565D0D3
:10230000B1EB4C0C6DD0714569D0A1F1865CBCF18C
:10231000100C75D0DFF850C061456DD0DFF84CC0AF
:1023200061457FD0814273D0994247D010488142A5
:1023300022D1104876E0B3E00000FF470060025869
:10234000002102400010005CFFFF0F00002002404F
:1023500002003004400020190800900C0008302EC4
:1023600000106032002090362000F0140004002A93
:1023700000002143000052476E48814251D16E480F
:1023800050E0BA421DD1296861451FD0A1F1066C09
:10239000BCF1040C25D0714521D0A1F1865CBCF1C3
:1023A000100C2DD0DFF894C1614525D0DFF890C125
:1023B000614537D081422BD09942DDD1404631E092
:1023C00040E0B2422DD12968614501D1012029E0C8
:1023D000A1F1066CBCF1040C03D0714503D159483E
:1023E00020E058461EE0A1F1865CBCF1100C07D03D
:1023F000DFF848C1614505D1534813E000E007E02C
:1024000052480FE0DFF838C161450BD0814201D15D
:10241000184607E04E48414504D0814201D14D485D
:1024200000E00020B2420DD0D16903031AD090FA27
:10243000A0F0B0FA80F000BF00F01F030AFA03F02A
:102440000143D161D5F800C0BCF1000F28DA424B3E
:1024500020684249DFF808A1984201D0B84203D170
:102460000A4602E0800EE7E752469268984202F080
:10247000E07201D0B84209D19D68D7F8088005F014
:10248000010508F0010845EA080502E0B56805F015
:10249000010555B1216E4FF0010941F02000206681
:1024A000002084F85C00484665E52E4DAC451CD103
:1024B00015021AD4B042F3D1984202D0B84200D0EB
:1024C00051468B6842F4000023F0E07202438A60B8
:1024D000264925480968B1FBF0F04000801C00E067
:1024E000401E00900028FBD1DAE7214DAC450CD10D
:1024F000D5010AD4B042D3D1984202D0B84200D01C
:1025000051468B6842F080700EE01A4DAC45C7D141
:102510005502C5D4B042C3D1984202D0B84200D0CF
:1025200051468B6842F4800023F0E07202438A60D7
:10253000B6E700000000844B0000B84F2000F01404
:102540000004002A8000501D0002B02500018021F7
:102550000040C03A0080F03E0020024000230240CC
:1025600000630258000052C7400D03009801002488
:10257000000021C3000084CB08B500680D498842E3
:1025800017D10D4805F094F90C4800F077FA0020B7
:1025900000900B486946006812F0BAFB00980028CA
:1025A00007D008494FF080500860BFF34F8FBFF34A
:1025B0006F8F08BD00200240A4520024704E0024FA
:1025C000C000002404ED00E0704770472DE9F84397
:1025D0004FF0000504002E46009502D0206E18B181
:1025E00008E00120BDE8F883204600F043F9656665
:1025F00084F85C5020688168C1F3407119B181682A
:102600008E4A1140816020688168C1F3007181B9F0
:1026100081688B4A114041F0805181608A49894824
:102620000968B1FBF0F0401C00E0401E009000285B
:10263000FBD120688168C1F3007141B9216E012688
:1026400041F010012166616E41F0010161660BF0FD
:1026500051F9216EC90600D420B1206E012640F048
:102660001000E0E0206E20F4807040F00200206650
:1026700020688168754D11F0010F1ED1744B754AA9
:10268000984201D0904207D19968976801F0010102
:1026900007F00107394302E0A96801F0010161B9BF
:1026A000984201D0904201D16B4800E06B488268AB
:1026B000616822F47C120A4382602168A9421FD11A
:1026C000637ED4E90207E26B5B033A43082805D036
:1026D0000C280FD01C280FD018280FD05FF0000056
:1026E00000F00C0794F8200043EA47031A4342EA3B
:1026F00000400FE00420F3E70820F1E71C20EFE79B
:10270000627E94F82030A768E06B520342EA0342ED
:102710003843104394F82020012A04D1A28C504B56
:1027200003EB42421043A26A2AB1E36A02F47872D0
:10273000024343EA0200CA68A9420BD1494B1A403E
:102740000243CA602068626B016921F04061114355
:10275000016103E0444B1A400243CA6020680BF059
:10276000C9F8074620680BF0C1F807434ED120682E
:10277000A946484506D1217E94F83820890341EACC
:10278000420103E0227E216B41EA8231C26844F2B9
:1027900003039A430A43C26094F844000128206866
:1027A00003D0016921F0010122E048450ED1D4E9AE
:1027B000121CD4E9143502692C4F41EA0C012B4359
:1027C0003A401943114341F0010111E0D4E91317D4
:1027D000B4F848C0DFF89880636D026908EB0C4CD0
:1027E000224D394343EA0C036D1E2A40194311431D
:1027F00001612068236C026922F070421A43026171
:102800002068484502D02046FEF7E8F820690128F4
:1028100020680BD0016B21F00F010163206E20F0C6
:10282000020040F0010020663046DBE6E269016B01
:10283000521E21F00F011143EFE70000C0FFFF5FC0
:10284000C0FFFF7F400D0300980100240060025884
:102850000020024000210240002302400063025891
:102860000000FEFF0740F0FF03C0F0FF1FF800FC70
:102870000100FFFFF0B587B0064614216846FDF75A
:10288000EDFD2C493068884252D12B48016841F057
:1028900020010160006800F0200005902648083003
:1028A000016841F004010160016801F00401059133
:1028B000016841F001010160016801F00101059129
:1028C000016841F0020101600068032400256946A7
:1028D00000F00200059013208DE83100174802F047
:1028E0005DF9502069468DE83100154802F056F92F
:1028F000022069468DE83100124802F04FF9124C6F
:10290000092112484FF4807C021584E82300D70087
:10291000C4E90352C3142046C4E907C56562C4E98B
:10292000053701F045F808B1FFF792F8B465A663E2
:1029300007B0F0BD00200240D844025800080258F9
:102940000000025800040258E04E0024A00002409B
:102950002DE9F047404E044600689146DFF8FC80C0
:102960008A46B04201D0404501D13D4900E03D4991
:10297000896801F01F050AF0BDFF00286AD194F8AC
:102980005C00012866D001204FF0000784F85C004D
:1029900025B1052D02D0092D00D003E02046FEF719
:1029A0007FF918B184F85C70BDE8F087216E40F6BD
:1029B000016320689943404541F48071216600D04D
:1029C0000646864200D01DB9206E20F48010206695
:1029D000206EC00404D5606E20F00600606600E042
:1029E00067661C20A26D214B1F49D363A36D204A4B
:1029F0001A64A36D1F4ADA642268106084F85C7060
:102A00002068426842F010024260206888420DD17E
:102A100094F83810C26822F0030242EA4102C26010
:102A20002068C16841F00101C16005E0C268216B06
:102A300022F003020A43C26021684B46A06D524651
:102A4000403101F093F921680B4B8A681A40121D3E
:102A50008A60A9E70220A7E7002002400021024087
:102A6000002302400063025800600258A50B0208D0
:102A7000270C02080D0C0208C0FFFF7F70B504464A
:102A800090F85C00012809D0012084F85C00032143
:102A90002046FEF715F8050002D027E0022070BDA1
:102AA0002068C16821F00301C160A06D90F8351065
:102AB000022907D100F020F8050003D0206E40F075
:102AC000400020662068416821F0100141602046E6
:102AD00015B1FEF7ADF809E0FEF7AAF8050005D13B
:102AE000206E20F4885040F001002066002084F819
:102AF0005C00284670BD00002DE9F84F044602F046
:102B000061F900903CB194F83500022806D080218C
:102B100061650020E4E00120BDE8F88FC74DC74E95
:102B2000C649183520683036DFF81483DFF814936F
:102B30008842DFF814A3DFF814B32ED0A8422CD0BB
:102B4000B0422AD0404528D0484526D0504524D010
:102B5000584522D0BD4A183290421ED0BC4A9042FD
:102B60001BD0BB4A1832904217D0B94A303290423B
:102B700013D0B74A483290420FD0B54A60329042E3
:102B80000BD0B34A7832904207D0B14A903290428B
:102B900003D0AF4AA832904209D1026822F01E0247
:102BA00002602068426922F08002426103E002680C
:102BB00022F00E02026027688F4238464DD0A842AC
:102BC0004BD0B04249D0404547D0484545D050450C
:102BD00043D0584541D09D4A183290423DD09C4A3E
:102BE00090423AD09A4A1832904236D0984A3032BF
:102BF000904232D0964A483290422ED0944A603267
:102C000090422AD0924A7832904226D0904A90320E
:102C1000904222D08E4AA83290421ED08D4A9042D5
:102C20001BD08C4A1432904217D08A4A28329042E4
:102C300013D0884A3C3290420FD0864A503290429C
:102C40000BD0844A6432904207D0824A7832904254
:102C500003D0804A8C32974204D1206E026822F45D
:102C60008072026075492068884228D0A84226D028
:102C7000B04224D0404522D0484520D050451ED0F7
:102C800058451CD071491831884218D07049884283
:102C900015D06F491831884211D06D4930318842C2
:102CA0000DD06B494831884209D06949603188426A
:102CB00005D067497831884201D065499031016873
:102CC00021F0010101600EE002F07CF80099401A49
:102CD000052808D9202262650321002084F83510D8
:102CE00084F8340017E73868C007EDD1534A012152
:102CF000206890422ED0A8422CD0B0422AD0404525
:102D000028D0484526D0504524D0584522D04F4B96
:102D1000183398421ED04E4B98421BD04C4B183360
:102D2000984217D04A4B3033984213D0484B48331F
:102D300098420FD0464B603398420BD0444B7833C7
:102D4000984207D0424B9033984203D0404BA8336F
:102D5000984208D194F85C703F23A06D07F01F07DC
:102D6000BB40836007E094F85C30A06D03F01F0364
:102D700001FA03F34360206890424DD0A8424BD043
:102D8000B04249D0404547D0484545D0504543D052
:102D9000584541D02D4A183290423DD02C4A90429D
:102DA0003AD02B4A1832904236D0294A30329042DB
:102DB00032D0274A483290422ED0254A6032904283
:102DC0002AD0234A7832904226D0214A903290422B
:102DD00022D01F4AA83290421ED01E4A90421BD0D9
:102DE0001C4A1432904217D01A4A2832904213D00B
:102DF000184A3C3290420FD0164A503290420BD0C3
:102E0000144A6432904207D0124A7832904203D07A
:102E1000104A8C3290420BD1D4E919024260E06E24
:102E200030B1026822F480720260D4E91C02426070
:102E3000002084F8351084F834006DE6100002405C
:102E4000580002407000024088000240A00002408A
:102E500010040240085402582DE9F05F28B190F8A0
:102E60003510022904D0802141650120BDE8F09F82
:102E7000904C904B0168183C18338E4ADFF83C9216
:102E8000A1428D4CDFF838E28E4FDFF83CB2DFF81C
:102E90003CA28F4D8F4E31D091422FD099422DD0F0
:102EA000A1422BD0494529D0714527D0B94225D020
:102EB000DFF810C20CF1180C61451FD0DFF808C212
:102EC000ACF1600C614519D0DFF8FCC1ACF1480CE5
:102ED000614513D0DFF8F0C1ACF1300C61450DD085
:102EE000DFF8E4C1ACF1180C614507D0594505D0B5
:102EF000514503D0A94201D0B1422CD1DFF8B4C171
:102F00004FF0040880F83580ACF1180C61451DD0F5
:102F100091421BD0994219D0A14217D0494515D0F2
:102F2000714513D0B94211D06648183081420DD096
:102F300065486038814209D063484838814205D0ED
:102F400061483038814201D05F481838086820F065
:102F500001000860ABE0D1F800C02CF00E08DFF8EB
:102F600054C1C1F80080ACF1180C0168614527D04C
:102F7000914225D0994223D0A14221D049451FD06A
:102F800071451DD0B9421BD0DFF838C10CF1180CC7
:102F9000614515D0DFF830C1ACF1600C61450FD050
:102FA000DFF824C1ACF1480C614509D0DFF818C145
:102FB000ACF1300C614503D0DFF80CC1ACF1180C5A
:102FC000D1F800C02CF0010CC1F800C0DFF8E4809B
:102FD0004FF0010C0168A8F11808414546D0914214
:102FE00044D0994242D0A14240D049453ED071459B
:102FF0003CD0B9423AD0334A1832914236D0324AA4
:10300000603A914232D0304A483A91422ED02E4A0C
:10301000303A91422AD02C4A183A914226D059454A
:1030200024D0514522D0A94220D0B1421ED02A4AF4
:1030300091421BD0284A1432914217D0264A283296
:10304000914213D0244A3C3291420FD0224A50324E
:1030500091420BD0204A6432914207D01E4A783206
:10306000914203D01C4A8C32914218D1016E0A68F9
:1030700022F480720A6090F85C20816D02F01F02D9
:103080000CFA02F24A60D0E919124A60C16E31B1FD
:103090000A6822F480720A60D0E91C124A60002299
:1030A000016D80F835C080F8342001B188470020D8
:1030B000DCE6000028000240580002407000024098
:1030C00088000240A00002407004024088040240D0
:1030D000A0040240B8040240085402582DE9F05FF1
:1030E00004007DD06D4A6D4B6C4918322068303336
:1030F0006B4E6C4F8842DFF8B0C1DFF8B081DFF86B
:10310000B091DFF8B0A1DFF8B0B1DFF8B0E121D0C5
:1031100090421FD098421DD0B0421BD0B84219D067
:10312000604517D0404515D0484513D0504511D0C3
:1031300058450FD070450DD0604D1835A84209D0C4
:103140005E4D3035A84205D05C4D4835A84201D0CF
:103150005A4D6035056825F0010505602068002599
:10316000884227D0904225D0984223D0B04221D027
:10317000B8421FD060451DD040451BD0484519D0EE
:10318000504517D0584515D0704513D04B491831CC
:1031900088420FD04949303188420BD047494831E5
:1031A000884207D045496031884203D0434978318D
:1031B000884218D12121056020684560206885601B
:1031C0002068C56020680561206841612046FDF7E0
:1031D000CBFE94F85C203F2102F01F02914000E0FA
:1031E00059E0816031E0364988421BD034491431BE
:1031F000884217D032492831884213D030493C31B7
:1032000088420FD02E49503188420BD02C4964316E
:10321000884207D02A497831884203D028498C3126
:10322000884238D105602068456020688560206844
:10323000C560206805612046FDF796FE94F85C2085
:10324000012102F01F02914041602046FDF7E6FE99
:10325000206E18B10560D4E9190141606068401E14
:10326000072807D82046FDF727FFE06E0560D4E960
:103270001C014160E56625676567E5632564656453
:10328000A564E5642565656584F83550002084F8FB
:103290003450BDE8F09F0120FBE700001000024021
:1032A000580002407000024088000240A000024026
:1032B000B8000240100402402804024040040240CA
:1032C00008540258406D70472DE9FC5F0446F74EE4
:1032D0000020DFF8D88300904FF41652F44808F12C
:1032E0001808A56DDFF8C493DFF8C0A3016809F1E1
:1032F000300920680AF1480AB1FBF2F1B0420191AD
:103300002F68D5F800C0DFF8ACB335D0414688420D
:1033100032D0484530D050452ED058452CD0E549C4
:103320001831884228D0E3493031884224D0E1491D
:103330004831884220D0E04988421DD0DE4918310A
:10334000884219D0DC493031884215D0DA494831F9
:10335000884211D0DFF860E30EF1600E70450BD0AB
:10336000D54A7832904207D0D34B9033984203D05D
:10337000D149A83188427DD194F85C20082102F01F
:103380001F0201FA02F23A424AD0B04232D040451E
:1033900030D048452ED050452CD058452AD0C54A6B
:1033A0001832904226D0C34A3032904222D0C14ACD
:1033B000483290421ED0C04A90421BD0BE4A1832BA
:1033C000904217D0BC4A3032904213D0BA4A4832A9
:1033D00090420FD0B84A603290420BD0B64A783251
:1033E000904207D0B44A9032904203D0B24AA832F9
:1033F000904203D1026802F0040202E0026802F087
:1034000008026AB1026822F00402026094F85C00CB
:1034100000F01F008140A960606D40F00100606510
:1034200094F85C00012100F01F008140394240D037
:103430002068B04234D0404532D0484530D0504565
:103440002ED058452CD09B4A1832904228D0994A09
:103450003032904224D0974A4832904220D0964A47
:1034600090421DD0944A1832904219D0924A30327C
:10347000904200E0AFE113D08F4A483290420FD023
:103480008D4A603290420BD08B4A7832904207D0FE
:10349000894A9032904203D0874AA83290427DD127
:1034A000406910F0800F04D0A960606D40F0020008
:1034B000606594F85C00042100F01F0081403942EF
:1034C0003ED02068B04232D0404530D048452ED062
:1034D00050452CD058452AD0764A1832904226D0F2
:1034E000744A3032904222D0724A483290421ED002
:1034F000714A90421BD0704A1832904217D06E4ADF
:103500003032904213D06C4A483290420FD06A4A0F
:10351000603290420BD0684A7832904207D0664AB7
:103520009032904203D0644AA83290424ED1006853
:1035300010F0020F04D0A960606D40F004006065D7
:1035400094F85C00102100F01F008140394258D0EF
:103550002068B04234D0404532D0484530D0504544
:103560002ED058452CD0534A1832904228D0514A78
:103570003032904224D04F4A4832904220D04E4AB6
:1035800090421DD04C4A1832904219D04A4A3032EB
:10359000904215D0484A4832904200E014E00FD0E3
:1035A000454A603290420BD0434A7832904207D06D
:1035B000414A9032904203D03F4AA832904207D10C
:1035C000006800F0080006E0006872E70068B7E7EE
:1035D000006800F00400A0B1A960206801684903F8
:1035E00004D50068000308D5A16C07E00168C9058F
:1035F00003D4016821F008010160216C09B1204663
:10360000884794F85C00202100F01F008140394277
:1036100079D02068B04232D0404530D048452ED0D5
:1036200050452CD058452AD0224A1832904226D0F4
:10363000204A3032904222D01E4A483290421ED058
:103640001D4A90421BD01C4A1832904217D01A4A89
:103650003032904213D0184A483290420FD0164A66
:10366000603290420BD0144A7832904207D0124A0E
:103670009032904203D0104AA832904203D10068A1
:1036800000F0100002E0006800F00200B0B3A96092
:1036900094F835000428206801680FD049037ED5CE
:1036A000006800032BD4616C2AE000001000024087
:1036B00098010024700002401004024021F016011D
:1036C00001602068416921F080014161206C08B9E6
:1036D000A06C20B12068016821F00801016094F815
:1036E0005C303F21012003F01F0300229940A960B4
:1036F00084F8350084F83420216D65E003E0E16B47
:1037000009B120468847606D00287DD0606DC007F4
:1037100059D02068042184F83510B0422BD04045A0
:1037200029D0484527D0504525D0584523D09D491C
:10373000884220D09B49183188421CD099493031A9
:10374000884218D09849884215D097491831884244
:1037500011D09549303188420DD093494831884283
:1037600009D091496031884205D08F49783188422B
:1037700001D08D499031016821F00101016020687C
:103780000099019A491C0091914202D80168C90729
:10379000F6D10068C00710D003200FE0FFE70168F2
:1037A000C905ACD403680121002223F01003036093
:1037B00084F8351084F83420A1E7012084F835001E
:1037C000002084F83400E16C00291DD002B02046AE
:1037D000BDE8F05F0847754988421DD07349143130
:1037E000884219D071492831884215D06F493C313F
:1037F000884211D06D49503188420DD06B496431F7
:10380000884209D0694900E084E07831884203D0D9
:1038100066498C3188427DD194F85C800427016828
:1038200008F01F0807FA08F717EA0C0F009746D0B0
:103830004F0744D500980F04686003D5C8033CD4F3
:10384000A16CC1E7880638D42068B0422DD0554914
:103850006039884229D0484527D0504525D0584561
:1038600023D05049884220D04E49183188421CD07C
:103870004C493031884218D04B49884215D04A49CA
:103880001831884211D04849303188420DD046491C
:103890004831884209D0704507D0904205D09842FF
:1038A00003D04149A831884203D1016821F00801C1
:1038B00002E0016821F004010160216C84E7022725
:1038C00007FA08F717EA0C0F00974ED08F074CD570
:1038D00000980F04686003D5C80344D4616C73E793
:1038E000880640D42068B0422FD02E4960398842E3
:1038F0002BD0484529D0504527D0584525D02949B7
:10390000884222D02749183188421ED025493031BB
:10391000884200E044E018D02349884215D022496B
:103920001831884211D02049303188420DD01E49CB
:103930004831884209D0704507D0904205D098425E
:1039400003D01949A831884203D1016821F014013C
:1039500002E0016821F00A010160012184F83510BC
:10396000002084F83400E16B2EE7082202FA08F206
:1039700012EA0C0F14D0090712D5016821F00E01CC
:10398000016094F85C100120002201F01F0100FA90
:1039900001F16960606584F8350084F8342012E72D
:1039A000BDE8FC9F88000240100402400854025801
:1039B0002DE9F05F044601F005FA002C07467DD0A2
:1039C000E24E022120684FF00308DFF884934FF0A5
:1039D0000005DFF880A3B042DFF87CB334D0DB4AC7
:1039E0001832904230D048452ED050452CD0584502
:1039F0002AD0D94A1832904226D0D74A3032904243
:103A000022D0D54A483290421ED0D44A90421BD090
:103A1000D24A1832904217D0D04A3032904213D056
:103A2000CE4A483290420FD0CC4A603290420BD0FE
:103A3000CA4A7832904207D0C84A9032904203D0A6
:103A4000C64AA83290427DD184F83510B04284F83D
:103A500034502ED0BD49183188422AD0484528D04C
:103A6000504526D0584524D0BB491831884220D033
:103A7000B949303188421CD0B7494831884218D002
:103A8000B649884215D0B5491831884211D0B3499A
:103A9000303188420DD0B1494831884209D0AF4910
:103AA0006031884205D0AD497831884201D0AB49B8
:103AB0009031016821F00101016008E025E100BFBB
:103AC00001F080F9C01B052801D920211AE12068E6
:103AD0000068C007F4D1D4E9020321681034184308
:103AE0008E4694E88410D4E9033809683A431043B9
:103AF0009B4A40EA0C00676918431140103C40EAB9
:103B00000800042F40EA010003D1D4E90B1211434D
:103B100008436168A1F12902052A0BD9163A032A44
:103B200008D9083A012A05D9083A032A02D9743972
:103B3000032901D840F48010CEF800002068676A9D
:103B4000406900E020E0042F20F0070047EA00076A
:103B50000DD1D4E90A01074349B12046FDF7E6FA41
:103B600028B140206065012184F83510CDE020683F
:103B700047612046FDF7F8F994F85C203F2102F0F8
:103B80001F029140816055E0764A90421BD0754BF0
:103B90001433984217D0734B2833984213D0714B8B
:103BA0003C3398420FD06F4B503398420BD06D4B43
:103BB0006433984207D06B4B7833984203D0694BFB
:103BC0008C3398427ED184F8351084F83450664B9B
:103BD0000168A26801EA030E402A74D0802A73D0DB
:103BE0005FF00002D4E90378D4E9053142EAD70254
:103BF00042EAD8085B4AD4E9077C48EAD30848EA95
:103C0000D10141EAD701524241EA1C11142341EA91
:103C10000E01016020681044B0FBF3F08000E06505
:103C20002046FDF7A1F994F85C20012102F01F0263
:103C3000914041602068B04257D0444918318842D1
:103C400053D0484551D050454FD058454DD04249AA
:103C50001831884249D040493031884245D03E49E8
:103C60004831884241D03D4988423ED03B491831D5
:103C700088423AD039493031884236D037494831C4
:103C8000884232D03549603188422ED0334978316C
:103C900088422AD031499031884226D02F49A83114
:103CA000884222D02F4988421FD02E4914318842A1
:103CB0001BD02C492831884217D02A493C318842F0
:103CC00013D002E01DE017E018E026495031884289
:103CD0000BD024496431884207D022497831884288
:103CE00003D020498C31884229D12046FDF796F92E
:103CF000A06880280CD00CE0102273E74FF48042BB
:103D000070E74021616584F835800120BDE8F09FAF
:103D10006560216E20790860D4E91901416060680E
:103D2000401E072808D82046FDF7C6F9E06E05605A
:103D3000D4E91C01416002E0E56625676567012062
:103D4000656584F835000020E0E7000010000240BF
:103D5000400002405800024070000240100402403F
:103D60003F8010FE085402580F00FEFF2DE9F84F67
:103D700004008C464FF00000009014D094F83400FA
:103D8000012812D094F835500120002184F8340025
:103D9000012D0CD0C00260650120009084F8341021
:103DA0000098BDE8F88F0120FBE70220F9E78C4D71
:103DB0000226206884F83560A8428A4D61658A4EE3
:103DC0008A4FDFF82C82DFF82C92DFF82CA2DFF884
:103DD0002CB226D0A84224D0B04222D0B84220D063
:103DE00040451ED048451CD050451AD0584518D0E3
:103DF0008349884215D082491831884211D08049C0
:103E0000303188420DD07E494831884209D07C4902
:103E10006031884205D07A497831884201D07849AA
:103E20009031016821F00101016061462046FDF7F3
:103E3000A7F96B49206888422CD0A8422AD0B0420A
:103E400028D0B84226D0404524D0484522D05045FD
:103E500020D058451ED06A4A90421BD0684A18327A
:103E6000904217D0664A3032904213D0644A4832AA
:103E700090420FD0624A603290420BD0604A783252
:103E8000904207D05E4A9032904203D05C4AA832FA
:103E900090420CD1026822F01E0242F0160202602B
:103EA000206C88B12068026842F008020BE00268CA
:103EB00022F00E0242F00A020260206C20B120685B
:103EC000026842F004020260206888424BD0A84297
:103ED00049D0B04247D0B84245D0404543D048458C
:103EE00041D050453FD058453DD0454A90423AD008
:103EF000434A1832904236D0414A3032904232D052
:103F00003F4A483290422ED03D4A603290422AD0F9
:103F10003B4A7832904226D0394A9032904222D0A1
:103F2000374AA83290421ED0364A90421BD0354ABA
:103F30001432904217D0334A2832904213D0314A7B
:103F40003C3290420FD02F4A503290420BD02D4A33
:103F50006432904207D02B4A7832904203D0294AEB
:103F60008C3290420DD1206E0268D20303D50268D4
:103F700042F480720260E06E18B1026842F480720E
:103F800002602068884226D0A84224D0B04222D0C5
:103F9000B84220D040451ED048451CD050451AD0CC
:103FA000584518D01649884215D01549183188420D
:103FB00011D01349303188420DD01149483188421F
:103FC00009D00F496031884205D00D4978318842C7
:103FD00001D00B499031016841F001010160DFE639
:103FE00010000240280002404000024058000240F9
:103FF0007000024088000240A0000240B800024069
:10400000100402400854025870B5044600F0DAFE6D
:104010000546601C02D004480078044400F0D2FE3B
:10402000401BA042FAD370BD8C01002410B590F85B
:104030009830012B09D0022B07D0D0F89C1041F00A
:104040000201C0F89C10012010BD03689C6D0C4259
:1040500003D1DC6D44F0010404E09C6D31EA0404FA
:104060001FD00324DC658B0505D50368D3F8E04039
:104070001443C3F8E0404B0505D50368D3F8E4408A
:104080001443C3F8E4400068084A01EA0203446D9F
:10409000074A1C434465106840EA91701060002094
:1040A00010BDDC6D44F00204DCE70000FFFFCF3FF1
:1040B00014A8004070B5044690F89800022804D077
:1040C000D4F89C0040F008000DE02068D0F8C03023
:1040D00013F07C5F0BD0D0F8C4309B020CD5D4F821
:1040E0009C0040F40070C4F89C00012070BDD4F81E
:1040F0009C0040F02000F6E7D0F8C400C0F304456F
:1041000020462B46FDF796FD21680120A840C1F806
:10411000D000C4F89400002070BD704790F898302B
:10412000012B07D0D0F89C1041F00401C0F89C107E
:104130000120704761B10068012913D0D0F8B01098
:1041400021F0FE4141EA0261C0F8B0100020704742
:104150000068D0F8F01021F07C5141EA0261C0F80B
:10416000F010F3E7D0F8A01021F0FE4141EA02611F
:10417000C0F8A010EAE770B590F89820012A09D09D
:10418000022A07D0D0F89C1041F00201C0F89C1020
:10419000012070BD0B68CA6883B10B69072A43EA26
:1041A000427325D00C7A4A6942EA84724968006FEA
:1041B00000EBC100C0E90032002070BD072A0DD01D
:1041C0000C7AD6060D8A4B6943EA847246EA0543A7
:1041D000C06E49681A4340F82120EDE70B8A4FF082
:1041E0006055D1E9062442EA034245EA0423EFE799
:1041F0008A69DBE730B590F89850039C012D07D011
:10420000D0F89C1041F00401C0F89C10012030BD92
:104210000D01016845EA820040EA43002043C1F8ED
:104220008000002030BD704770470000F0B590F866
:1042300098500024022D04D0D0F89C1041F00801C1
:1042400029E0402905D0412929D0056D8D4219D991
:1042500042E00568D5F8A06016F4FE0F12D0D5F83C
:10426000A460760613D0D5F8A460F60105D5D5F87C
:10427000A06016F0004F00D50124D5F8A470466F59
:10428000456C24E0D0F89C1041F0200103E0D0F808
:104290009C1041F48071C0F89C100120F0BD0568AD
:1042A000D5F8B06016F4FE0FECD0D5F8B460760601
:1042B000EDD0D5F8B460F60105D5D5F8B06016F0AC
:1042C000004F00D50124D5F8B470866FC56CC7F3D4
:1042D00005273C44654302E0456DC66F4D4306EB40
:1042E00085052E6816F0804656602E6836D026F07A
:1042F00060461660D5F800C000262E4F0CF0005C1A
:10430000C2F808C0D5F800C00CF0004CC2F810C0CC
:10431000B5F804C01FFA8CFCC2F81CC0D5F804C064
:10432000CCF3034CC2F80CC0D5F804C00CF4801CCC
:10433000C2F814C0D5F804C00CF4001CC2F818C0B0
:10434000D5F804C0CCF3066CC2F820C0D5F804C080
:1043500008354FEADC7CC2F824C008E0C6F38A4680
:10436000C7E700BF15F806C003F806C0761CD2F8F0
:104370000CC017F80CC0B445F4D840290AD0412924
:104380000CD020294FF001020CD200688A40C0F8FE
:1043900098200DE00068C0F8A84009E00068C0F867
:1043A000B84005E0006801F01F018A40C0F89C2079
:1043B0000020F0BDB0770308704700002DE9FF5FD3
:1043C000DFF80CB304460BF10401DBF800002568AC
:1043D0000F68AA468007D5F85090696DD5F85080CF
:1043E0006E6D2A6DD5F854C02B6D00EA8770009071
:1043F00009F470496F6D286D01EA09010191DAF83D
:104400005410DAF85490DAF8505008F00F0806EA21
:104410000806029602F0F00203F071536FEA0906F3
:104420001F4000F060700CEA020CCDF80CC0F205E1
:1044300001EA00090CD4E843C00509D400214FF477
:104440008073CAF85030CBF800102046FFF7B4FF55
:10445000700512D4E84340050FD4206800234FF4C0
:104460008068D0F8DC20D0F8E410C0F85080CBF899
:1044700000301140204600F0DDFADFF858A2009825
:1044800050B12268830F00EA0A001065CBF80030B3
:1044900020460099FFF741FE019850B12268830F32
:1044A00000EA0A001065CBF800302046019900F0C0
:1044B000C3FA029850B12268830F00EA0A0010651F
:1044C000CBF800302046029900F08CFA039850B1E6
:1044D0002268830F00EA0A001065CBF800302046FE
:1044E000039900F087FA30050CD4E843000509D49D
:1044F000236800204FF400621A65CBF800002046C4
:1045000000F09BFAB00512D4E84380050FD4206870
:1045100000234FF40078D0F8D820D0F8E010C0F88D
:104520005080CBF800301140204600F084FA300370
:104530000CD4E843000309D4236800204FF4002280
:104540001A65CBF80000204600F04AFAF0030CD4BC
:10455000E843C00309D4236800204FF480321A6571
:10456000CBF80000204600F064FA70030CD4E84356
:10457000400309D4226800204FF480231365CBF850
:104580000000204600F054FAB0030FD4E843800343
:104590000CD4236800204FF400321A65CBF80000D9
:1045A000D4F89C0040F08000C4F89C00B9F1000FE2
:1045B0000BD022684FEA997309EA0A001065CBF81C
:1045C000003049462046FFF72FFE5FB12268BB0F3F
:1045D00007EA0A001065CBF80030D4F89C00384395
:1045E000C4F89C003C492068884268D160688146D4
:1045F0008068800763D0D9F82060D9F82410D9F8F2
:104600002080D9F82400D9F820C0D9F82470D9F82E
:104610002030D9F82450D9F8202003F4FC4306F0C8
:104620000F0AD9F824601D40D9F824B008F03008EA
:104630000CF4C07C02F4F02211EA0A0100EA080836
:1046400007EA0C0706EA0206D9F820A004D0C9F848
:104650002010204600F0E9F9B8F1000005D06168AB
:1046600008624146204600F0E2F96FEA0B0040067E
:104670000ED46FEA0A0040060AD460684021C36B7A
:10468000C26B01622046190C02F03F0200F0CEF925
:104690002FB1606807623946204600F0C5F935B190
:1046A00060680562D4F89C002843C4F89C0036B1C9
:1046B00060680662D4F89C003043C4F89C00D4F8CB
:1046C0009C00002802D02046FFF7ADFDBDE8FF9F0B
:1046D00010A80040FFFFCF3F00A000402DE9F041AF
:1046E00094B08D494C2204466846FBF79EFE64B1A7
:1046F0008A4D2068A84202D100F58070606094F86D
:1047000098004FF0000820B108E0012014B0BDE887
:10471000F081204684F8998000F002F920688169D0
:1047200021F01001816100F04DFB0327064604E0F3
:1047300000F048FB801B0A2811D820688069000718
:10474000F6D42068816941F00101816100F03AFBF3
:1047500006460DE000F036FB801B0A2808D9D4F885
:104760009C0040F00100C4F89C0084F89870CCE7ED
:1047700020688069C007EDD02068816941F002019E
:104780008161207C01282068816937D041F0400197
:104790008161607C01282068816932D021F48041E8
:1047A0008161A07C0128206881692DD041F480516D
:1047B00081612068A268816921F44071114381619F
:1047C0002068816921F0A40181612068016921F0DC
:1047D00010010161E068012819D010B302281BD034
:1047E0002068816941F0800181612068016941F0A0
:1047F00010010161E06803280ED012E021F04001B1
:10480000C6E741F48041CBE721F48051D0E720682E
:10481000816941F0040103E02068816941F02001D1
:104820008161207E6FF0FF02D4E90773A68A11022E
:10483000400602EB0727A0F10070384327685B1E93
:10484000184301EB06463043F861A068B0F5407F9D
:1048500011D104F12800A68C6FF00F0C89C801EB70
:104860000641401E02EB0322104322680CEB0713A3
:1048700018430843D060206E30B12068626ED0F8D3
:10488000C0101143C0F8C010D4E917126846D142D5
:1048900009D02168A36E51F8C82F50F8233022F0B8
:1048A00007021A430A60216C49B12168626C51F811
:1048B000BC3F50F8226023F0070232430A60A16C2B
:1048C00051B12168E36C51F8BC2F50F8233022F02D
:1048D000700242EA03120A60216D51B12168626DD3
:1048E00051F8BC3F50F8220023F4E06242EA002075
:1048F00008602068A84204D16068816821F0030143
:104900008160C4F894800121C4F89C8084F89810D8
:104910002046FDF7ABF8F9E6C077030800A0004099
:1049200070B5B4B0044614212EA8FBF797FDB8214A
:104930006846FBF793FD27492068884247D100214C
:1049400014220D464FF4004002248DE80700812315
:1049500006A9CDE903342026059481E87000800380
:1049600009951B90684601F009FA08B1FDF770F847
:104970001948016841F480710160006800F480709A
:10498000339015480C38016841F00101016000685E
:104990002EAA092100F0010033904FF4C05082E8A4
:1049A0003100CDE931510D482EA900F0F7F8002271
:1049B0000521132000F03EFE132000F02EFE002201
:1049C0000521152000F036FE152000F026FE34B03B
:1049D00070BD000000A00040EC44025800000258E6
:1049E000704700000249884201D10DF0DDBF7047D9
:1049F000584F0024704790F89810012907D0D0F83C
:104A00009C1041F00401C0F89C1001207047022165
:104A100080F89810002201688B6923F001038B61F4
:104A2000C0F89C2010467047704770477047704729
:104A30007047704770477047704770472DE9F04FD7
:104A40004C4D00224FF0010A4FF00F0B8BE000BFDE
:104A50000AFA02F919EA01037DD022F0030606F1F1
:104A6000B0469407D6F808C4270FDFF80C810BFA7C
:104A700007FE40450EEA0C0402D14FF0000C39E06D
:104A8000DFF8F8C0604502D14FF0010C32E0DFF8EA
:104A9000F0C0604502D14FF0020C2BE0DFF8E4C01B
:104AA000604502D14FF0030C24E0DFF8DCC0604524
:104AB00002D14FF0040C1DE0DFF8D0C0604502D1F8
:104AC0004FF0050C16E0DFF8C8C0604502D14FF08A
:104AD000060C0FE0DFF8BCC0604502D14FF0070CB8
:104AE00008E0DFF8B4C0604502D14FF0090C01E0E6
:104AF0004FF00A0C0CFA07FCA44513D12C689C4318
:104B00002C606F684FF0B0449F436F6067689F43AD
:104B1000676027689F432760D6F8084424EA0E049C
:104B2000C6F8084406680323D7084FEA42084FEA4C
:104B3000427C03FA08F34FEADC6C1E4306600BFA72
:104B40000CF400EB87073E6AA6433E62C4689C43B0
:104B5000C460446800E005E024EA09044460846815
:104B60009C438460521C31FA02F37FF471AFBDE8BC
:104B7000F08F000080000058000002580004025826
:104B800000080258000C0258001002580014025885
:104B900000180258001C0258002402582DE9F84F52
:104BA00003247A4D00234FF001094FF0B04B4FF032
:104BB0000F0AE4E009FA03F6324078D00F7907F0E3
:104BC0000307012F01D0022F1AD187684FEA430E45
:104BD000D1F80CC004FA0EF827EA08070CFA0EFC0C
:104BE0004CEA070CC0F808C0476891F804C0B74306
:104BF000CCF3001C0CFA03FC4CEA070CC0F804C010
:104C00000E79F643B6070BD0C6684FEA43088F68A3
:104C100004FA08FC26EA0C0607FA08F73743C760CF
:104C20000E7906F00306022E12D1DE080F694FEA54
:104C3000437C00EB8606B646366A4FEADC6C0AFA1D
:104C40000CF807FA0CF726EA08063743CEF820706E
:104C50000F7906684FEA430807F0030704FA08FCD7
:104C600007FA08F726EA0C06374307604E6816F481
:104C7000403F1CD0464E376847F002073760366821
:104C80009F0706F00206009623F0030606F1B046E1
:104C9000B6463F0FD6F80864DFF8F8800AFA07FC3A
:104CA000404526EA0C0603D14FF0000C3AE065E0DF
:104CB000DFF8E4C0604502D14FF0010C32E0DFF8CC
:104CC000DCC0604502D14FF0020C2BE0DFF8D0C011
:104CD000604502D14FF0030C24E0DFF8C8C0604506
:104CE00002D14FF0040C1DE0DFF8BCC0604502D1DA
:104CF0004FF0050C16E0DFF8B4C0604502D14FF06C
:104D0000060C0FE0DFF8A8C0604502D14FF0070C99
:104D100008E0DFF8A0C0604502D14FF0090C01E0C7
:104D20004FF00A0C0CFA07FC4CEA060CCEF808C44B
:104D30004F68DBF80060FF0226EA020600D5164342
:104D40005F46CBF80060D1F804C0DBF804605FEA8E
:104D50008C2C26EA020600D516437E606E684F68EA
:104D600026EA0206BF0300D516436E602E684F6820
:104D700026EA0206FF0300D516432E605B1C0A6874
:104D800032FA03F67FF416AFBDE8F88F80000058C2
:104D9000F444025800000258000402580008025867
:104DA000000C025800100258001402580018025853
:104DB000001C0258002402580AB18161704709049E
:104DC000FBE7000001488068704700008C01002468
:104DD00030B590F84120202A24D190F84020012AB3
:104DE00020D0012380F84030242280F84120202365
:104DF00000240268156825F0010515600268156831
:104E000025F480551560026815680D43156001682A
:104E10000A6842F001020A6080F8413080F84040A0
:104E2000002030BD022030BD30B590F84120202A4E
:104E300022D190F84020012A1ED0012380F8403072
:104E4000242280F84120202400250268136823F0E2
:104E5000010313600268136823F4706343EA0121BD
:104E6000116001680A6842F001020A6080F841405E
:104E700080F84050002030BD022030BD70B50400E5
:104E800004D094F84100002510B106E0012070BD67
:104E9000204684F8405000F043FA242084F8410072
:104EA0002068016821F001010160D4E9001020F0C0
:104EB000706008612068816821F400418160E068C9
:104EC00021680128A06830D040F404408860E06880
:104ED0000228206841682BD021F4006141602068DD
:104EE0002021154A4368134343602068C26822F4B6
:104EF0000042C26054F8106B0DCC104340EA03200E
:104F0000F06054F81C3CD4E900021043186054F8D7
:104F10001C0D026842F001020260656484F84110D1
:104F2000256384F84250002070BD40F40040CDE776
:104F300041F40061D2E70000008000022DE9FC5F2F
:104F4000002504461E4693460195894690F8410087
:104F5000AA4620287BD120688069C043000476D50A
:104F600094F84000012872D0012184F840102420D8
:104F70004FF0200884F841006564E06801280AD0F9
:104F8000344A354949EA0200084021684860FFF781
:104F900019FF07460AE0314A3149F3E7701C05D092
:104FA000FFF710FFC01BB04246D8A6B32068816946
:104FB0008269C1F34010C2F300110843EED02068AB
:104FC0008169C943C90619D50022334620212046EC
:104FD000009703F027FF38B1606C042818D12168CE
:104FE000C1F81C8065641AE02168C1F81C8084F84F
:104FF0004180002084F84050BDE8FC9F1021C16131
:105000000022334620212046009703F00BFF18B101
:105010004FF0010A03E00FE02168C1F81C800198FD
:10502000401C01905845014604D2BAF1010F01D14C
:105030004FF0000A5945A0D384F84180606C84F891
:10504000405040F0200060640120D5E7FFE70220D7
:10505000D2E7000000280002FF2B0002002000021F
:10506000FF2300022DE9FF4F83B0044690F8410072
:105070009A469346DDE91087DDF84890202874D1E0
:105080005FEA080014D09FB194F8400001286CD06A
:10509000012084F84000FFF795FE012206461923FF
:1050A0000090D103204603F0BDFE002871D103E03B
:1050B0004FF4007060646CE00025C4F82480222165
:1050C00084F84110402084F84200656467855346A7
:1050D00065635A4604992046CDE9009603F026FE02
:1050E00010B184F8405054E0618DFF2734484FF0F0
:1050F0008078FF294FF0007A04D927853A46434645
:10510000009005E0618D53462185009094F8282099
:105110002046049903F06EFE00224B4604212046EF
:10512000009603F07FFEA0BB2068616A406A0870A9
:10513000606A401C6062208D401E81B22185608DB6
:10514000401E6085608DD8B1D1B900224B468021C8
:105150002046009603F066FED8B9608DFF2805D979
:1051600027853A464346009506E026E0608D534683
:105170002085009594F828202046049903F03AFEF3
:10518000608D0028C8D132464946204603F088FE8B
:1051900018B1012007B0BDE8F08F21682020094A2E
:1051A000C86121684B6813404B6084F8410084F863
:1051B0004250002084F84050ECE70220EAE700006B
:1051C0000024008000E800FE2DE9FF4F83B0044674
:1051D00090F841009A469346DDE91087DDF8489043
:1051E000202871D15FEA080014D09FB194F84000E4
:1051F000012869D0012084F84000FFF7E3FD012277
:10520000064619230090D103204603F00BFE002828
:105210006ED103E04FF40070606469E00025C4F8CB
:105220002480212184F84110402084F842006564E4
:105230006785534665635A4604992046CDE9009632
:1052400003F0A6FD10B184F8405051E0608DFF27B7
:105250004FF08078FF284FF0007A04D927853A462E
:105260004346009505E0608D53462085009594F8EF
:1052700028202046049903F0BDFD324649462046C9
:1052800003F03AFEA0BB606A216800788862606A19
:10529000401C6062608D401E6085208D401E80B283
:1052A0002085618DD9B1D0B900224B46802120469E
:1052B000009603F0B7FDD8B9608DFF2805D9278582
:1052C0003A464346009506E026E0608D5346208529
:1052D000009594F828202046049903F08BFD608DFA
:1052E0000028CAD132464946204603F0D9FD18B1FC
:1052F000012007B0BDE8F08F20682021074AC16176
:10530000206843681340436084F8411084F8425099
:10531000002084F84050ECE70220EAE700E800FEB5
:105320002DE9F041B4B0054614212EA8FBF796F8FC
:10533000B8216846FBF792F8DFF8EC8012263B496B
:10534000042728680025384C08F10808884229D12C
:10535000002020950821CDE90010684600F00EFDE0
:1053600008B1FCF775FB206840F00200206020685F
:1053700030AB012100F002003390032283E8860065
:10538000C020CDE92E062A482EA9FFF707FCD8F841
:10539000001041F40011C8F80010D8F8000000F423
:1053A00000103DE0234988423BD100202095082190
:1053B000CDE90010684600F0E1FC08B1FCF748FBBD
:1053C000206840F004002060206800F00400339062
:1053D000206840F00100206020682EA900F0010044
:1053E00033904FF400702E90CDE92F651248CDE92F
:1053F0003157FFF7D3FB4FF480702E90CDE92F6526
:105400000E482EA9CDE93157FFF7C8FBD8F8001098
:1054100041F40001C8F80010D8F8000000F40000C2
:10542000339034B0BDE8F081E044025800540040AD
:1054300000040258005C00400008025800000258B6
:105440000248816802781144816070478C01002411
:10545000032010B500F00EF901F0D0FA0F4A104900
:1054600014681368C4F3032203F00F038A5CC95C59
:1054700002F01F0201F01F01D0400A4A20FA01F198
:105480001160094908600F2000F010F808B10120F0
:1054900010BD00F09FF8002010BD00001844025815
:1054A000347803089C0100249801002410B51028CA
:1054B00004468AB02CD2002201462C2000F0BAF813
:1054C0002C2000F0AAF8174804601748016841F042
:1054D00080010160006809A900F08000089068461A
:1054E00001F018FA0598B0B101F064FA40000F49D4
:1054F00000220F4CB0FBF1F10E4840F2E73304609C
:10550000C0E90332491EC0E9011202F079F828B15E
:1055100001200AB010BD01F04DFAE8E7054802F09D
:1055200077F9F6E790010024E844025840420F0062
:10553000001C00400C580024154BF0B5083B427885
:1055400013491A600B680A1F23F001030B604368BC
:105550001360057BC67A827A437B2D07847B45EAFC
:105560000665C77B90F809C0067A90F800E045EA26
:10557000C24040EA834040EA444040EA074040EAF3
:105580000C2040EA460040EA0E000860F0BD000032
:10559000A0ED00E0BFF35F8F044800210368034AD9
:1055A00023F48033036070321160704724ED00E013
:1055B000074A40F00100064970321060086840F464
:1055C00080300860BFF34F8FBFF36F8F70470000CC
:1055D00024ED00E0074882B0016841F0020101605B
:1055E000006800220F2100F002000090901E02B01F
:1055F00000F020B8F444025800280DDB410900F007
:105600001F028900012001F1E0219040C1F88001D2
:10561000BFF34F8FBFF36F8F7047002809DB41093D
:1056200000F01F028900012001F1E0219040C1F843
:10563000000170470E4BF0B41B680D46C3F3022304
:10564000C3F10706042E00D90426191D072901D22B
:10565000002300E0DB1E012404FA06F19C40491EF1
:105660002940641E994014402143F0BC0BF0AFBEAA
:105670000CED00E0064900F0070210B54FF6FF04FC
:105680000868044B204040EA02201843086010BD1F
:105690000CED00E00000FA05134970B50A68D2432A
:1056A000520705D5096801F00701814213D118E0BE
:1056B0000A6822F0070202430A60FFF783FB0A4DE3
:1056C0004FF47A760446083D07E000BFFFF77AFB07
:1056D000001BB04201D9012070BD2868C04380047E
:1056E000F4D4002070BD00000C48025810B501F041
:1056F0003FF905490968054AC1F30211515C01F0FF
:105700001F01C84010BD000020440258347803082F
:105710004A4930B5494C0B1D0A680C3409681D68AC
:10572000246802F0030305F00102C1F30511C4F37C
:10573000CC04002914FB02F200EE102AF8EE400A15
:1057400076D0414A9FED3E1ADFED3E1AB7EE000AD1
:1057500023B1012B5AD0022B18D15CE0374C283CE6
:1057600023689B0612D5394B246801EE901A116804
:10577000C4F3C104F8EE612AE34001EE903AC1F3AC
:105780000801F8EE611A81EEA22A07E002EE101A73
:105790001168F8EE422A81EEA22A45E001EE901A45
:1057A0001168F8EE611A40EE811A71EE800A62EE1D
:1057B000200AC1F3462101EE101AB8EE411A31EE6B
:1057C000001AC0EE811ABCEEE11A80ED001A1168D1
:1057D000C1F3064101EE101AB8EE411A31EE001A7B
:1057E000C0EE811ABCEEE11A80ED011A1168C1F316
:1057F000066101EE101AB8EE411A31EE000A80EE91
:10580000801ABCEEC10A80ED020A30BD01EE901A8A
:10581000DFED0F2A03E001EE901ADFED0E2A11688A
:10582000F8EE611A82EEA12AC1F30801B6E7FFE79C
:10583000002101604160816030BD000028440258B1
:10584000000000390024744C304402580090D0030A
:105850000024744A20BCBE4B494930B5484C0B1D4E
:105860000A68143409681D68246802F00303C5F34C
:105870000012C1F30531C4F3CC04002914FB02F279
:1058800000EE102AF8EE400A75D03F4A9FED3D1A0F
:10589000B7EE000A6BB1DFED3D1A012B01D0022BF0
:1058A00064D002EE101A1168F8EE422A81EEA22AA4
:1058B00021E0334C283C23689B0612D5344B2468E6
:1058C00001EE901A1168C4F3C104F8EE612AE340B6
:1058D00001EE903AC1F30801F8EE611A81EEA22AB6
:1058E0000BE001EE901ADFED2B2A00BFF8EE611AF3
:1058F000116882EEA12AC1F3080101EE901A116825
:10590000F8EE611A40EE811A71EE800A62EE200A0A
:10591000C1F3462101EE101AB8EE411A31EE001A19
:10592000C0EE811ABCEEE11A80ED001A1168C1F3D5
:10593000064101EE101AB8EE411A31EE001AC0EE1F
:10594000811ABCEEE11A80ED011A1168C1F30661FB
:1059500001EE101AB8EE411A31EE000A80EE801AFC
:10596000BCEEC10A80ED020A30BD04E001EE901ADF
:10597000DFED092ABAE70021016041608160F3E7A9
:105980002844025800000039384402580024744A60
:105990000090D0030024744C20BCBE4B494930B564
:1059A000484C0B1D0A681C3409681D68246802F005
:1059B0000303C5F30022C1F30551C4F3CC0400294D
:1059C00014FB02F200EE102AF8EE400A75D03F4AAE
:1059D0009FED3D1AB7EE000A6BB1DFED3D1A012BCA
:1059E00001D0022B64D002EE101A1168F8EE422AA0
:1059F00081EEA22A21E0334C283C23689B0612D575
:105A0000344B246801EE901A1168C4F3C104F8EE17
:105A1000612AE34001EE903AC1F30801F8EE611A01
:105A200081EEA22A0BE001EE901ADFED2B2A00BFD7
:105A3000F8EE611A116882EEA12AC1F3080101EEA5
:105A4000901A1168F8EE611A40EE811A71EE800A20
:105A500062EE200AC1F3462101EE101AB8EE411A97
:105A600031EE001AC0EE811ABCEEE11A80ED001A88
:105A70001168C1F3064101EE101AB8EE411A31EE79
:105A8000001AC0EE811ABCEEE11A80ED011A11680D
:105A9000C1F3066101EE101AB8EE411A31EE000AA8
:105AA00080EE801ABCEEC10A80ED020A30BD04E02F
:105AB00001EE901ADFED092ABAE70021016041608A
:105AC0008160F3E72844025800000039404402583E
:105AD0000024744A0090D0030024744C20BCBE4BB8
